{
  "_format": "hh-sol-artifact-1",
  "contractName": "FinancingContract",
  "sourceName": "build/contracts/adapters/Financing.sol",
  "abi": [
    {
      "inputs": [
        {
          "internalType": "contract DaoRegistry",
          "name": "dao",
          "type": "address"
        },
        {
          "internalType": "bytes32",
          "name": "proposalId",
          "type": "bytes32"
        }
      ],
      "name": "processProposal",
      "outputs": [],
      "stateMutability": "nonpayable",
      "type": "function"
    },
    {
      "inputs": [
        {
          "internalType": "address",
          "name": "",
          "type": "address"
        },
        {
          "internalType": "bytes32",
          "name": "",
          "type": "bytes32"
        }
      ],
      "name": "proposals",
      "outputs": [
        {
          "internalType": "address",
          "name": "applicant",
          "type": "address"
        },
        {
          "internalType": "uint256",
          "name": "amount",
          "type": "uint256"
        },
        {
          "internalType": "address",
          "name": "token",
          "type": "address"
        }
      ],
      "stateMutability": "view",
      "type": "function"
    },
    {
      "inputs": [
        {
          "internalType": "contract DaoRegistry",
          "name": "dao",
          "type": "address"
        },
        {
          "internalType": "bytes32",
          "name": "proposalId",
          "type": "bytes32"
        },
        {
          "internalType": "address",
          "name": "applicant",
          "type": "address"
        },
        {
          "internalType": "address",
          "name": "token",
          "type": "address"
        },
        {
          "internalType": "uint256",
          "name": "amount",
          "type": "uint256"
        },
        {
          "internalType": "bytes",
          "name": "data",
          "type": "bytes"
        }
      ],
      "name": "submitProposal",
      "outputs": [],
      "stateMutability": "nonpayable",
      "type": "function"
    }
  ],
  "bytecode": "0x608060405234801561001057600080fd5b5061115b806100206000396000f3fe608060405234801561001057600080fd5b50600436106100415760003560e01c80631e6f7672146100465780635cb752761461005b5780639573167d14610086575b600080fd5b610059610054366004610d10565b610099565b005b61006e610069366004610c8e565b6104d7565b60405161007d93929190610e93565b60405180910390f35b610059610094366004610cfe565b61050b565b8560006100a5826108a6565b9050600084116100d05760405162461bcd60e51b81526004016100c790610fb8565b60405180910390fd5b604051632c9f4b5b60e11b81526000906001600160a01b038a169063593e96b69061011f907fea0ca03c7adbe41dc655fec28a9209dc8e6e042f3d991a67765ba285b9cf73a090600401610eb6565b60206040518083038186803b15801561013757600080fd5b505afa15801561014b573d6000803e3d6000fd5b505050506040513d601f19601f8201168201806040525081019061016f9190610c6b565b60405163f9eaee0d60e01b81529091506001600160a01b0382169063f9eaee0d9061019e908990600401610e7f565b60206040518083038186803b1580156101b657600080fd5b505afa1580156101ca573d6000803e3d6000fd5b505050506040513d601f19601f820116820180604052508101906101ee9190610cb9565b61020a5760405162461bcd60e51b81526004016100c790610fef565b61021387610af7565b61022f5760405162461bcd60e51b81526004016100c79061109f565b60405163b73dc38960e01b81526001600160a01b038a169063b73dc3899061025b908b90600401610eb6565b600060405180830381600087803b15801561027557600080fd5b505af1158015610289573d6000803e3d6000fd5b505050506001600160a01b038981166000818152602081815260408083208d845290915280822080546001600160a01b03199081168d8716178255600182018b9055600282018054909116958c1695909517909455516317ba7d8560e01b81529091906317ba7d8590610320907f0e49311626a26ba5be58a3b13d239908e80ce0dffdd5c50bf1d9c82ff35d1ab390600401610eb6565b60206040518083038186803b15801561033857600080fd5b505afa15801561034c573d6000803e3d6000fd5b505050506040513d601f19601f820116820180604052508101906103709190610c6b565b90506000816001600160a01b031663966917d08d308a336040518563ffffffff1660e01b81526004016103a69493929190610f31565b602060405180830381600087803b1580156103c057600080fd5b505af11580156103d4573d6000803e3d6000fd5b505050506040513d601f19601f820116820180604052508101906103f89190610c6b565b6040516344b574dd60e11b81529091506001600160a01b038d169063896ae9ba9061042b908e9085908790600401610ebf565b600060405180830381600087803b15801561044557600080fd5b505af1158015610459573d6000803e3d6000fd5b50506040516302b0974d60e41b81526001600160a01b0385169250632b0974d0915061048d908f908f908c90600401610f88565b600060405180830381600087803b1580156104a757600080fd5b505af11580156104bb573d6000803e3d6000fd5b50505050505050506104cd8282610b3e565b5050505050505050565b60006020818152928152604080822090935290815220805460018201546002909201546001600160a01b0391821692911683565b816000610517826108a6565b6001600160a01b03808616600081815260208181526040808320898452825280832081516060810183528154871681526001820154938101939093526002015490941681850152925163206f381f60e11b815293945091926340de703e90610583908890600401610eb6565b60206040518083038186803b15801561059b57600080fd5b505afa1580156105af573d6000803e3d6000fd5b505050506040513d601f19601f820116820180604052508101906105d39190610c6b565b90506001600160a01b0381166105fb5760405162461bcd60e51b81526004016100c790611074565b60026040516376225e7360e01b81526001600160a01b038316906376225e739061062b908a908a90600401610f6f565b602060405180830381600087803b15801561064557600080fd5b505af1158015610659573d6000803e3d6000fd5b505050506040513d601f19601f8201168201806040525081019061067d9190610dfd565b600581111561069c57634e487b7160e01b600052602160045260246000fd5b146106b95760405162461bcd60e51b81526004016100c790611044565b6040516330490e9160e01b81526001600160a01b038716906330490e91906106e5908890600401610eb6565b600060405180830381600087803b1580156106ff57600080fd5b505af1158015610713573d6000803e3d6000fd5b5050604051632c9f4b5b60e11b8152600092506001600160a01b038916915063593e96b690610766907fea0ca03c7adbe41dc655fec28a9209dc8e6e042f3d991a67765ba285b9cf73a090600401610eb6565b60206040518083038186803b15801561077e57600080fd5b505afa158015610792573d6000803e3d6000fd5b505050506040513d601f19601f820116820180604052508101906107b69190610c6b565b604080850151602086015191516339c6941f60e01b81529293506001600160a01b038416926339c6941f926107f4928c9261dead9290600401610f07565b600060405180830381600087803b15801561080e57600080fd5b505af1158015610822573d6000803e3d6000fd5b505084516040808701516020880151915163036d74dd60e11b81526001600160a01b03871695506306dae9ba9450610861938d93909291600401610f07565b600060405180830381600087803b15801561087b57600080fd5b505af115801561088f573d6000803e3d6000fd5b505050505050506108a08282610b3e565b50505050565b6108ae610c28565b5a81600001818152505043826001600160a01b031663b21634826040518163ffffffff1660e01b815260040160206040518083038186803b1580156108f257600080fd5b505afa158015610906573d6000803e3d6000fd5b505050506040513d601f19601f8201168201806040525081019061092a9190610e1c565b14156109485760405162461bcd60e51b81526004016100c79061101a565b816001600160a01b03166310fdb0a26040518163ffffffff1660e01b8152600401600060405180830381600087803b15801561098357600080fd5b505af1158015610997573d6000803e3d6000fd5b50506040516372c6838f60e01b8152600092506001600160a01b03851691506372c6838f906109ea907f1f2fd42ad6a6cacd573c4b212beb7a4e2499ad45d742a65337097f130e71daff90600401610eb6565b60206040518083038186803b158015610a0257600080fd5b505afa158015610a16573d6000803e3d6000fd5b505050506040513d601f19601f82011682018060405250810190610a3a9190610c6b565b90506001600160a01b038116610a565760006020830152610af1565b6001600160a01b0381166060830181905282516040516343a8a3f160e01b8152600092839290916343a8a3f191610a9291899190600401610f6f565b604080518083038186803b158015610aa957600080fd5b505afa158015610abd573d6000803e3d6000fd5b505050506040513d601f19601f82011682018060405250810190610ae19190610cd3565b9015156020860152604085015250505b50919050565b60006001600160a01b03821661dead14801590610b1f57506001600160a01b03821661babe14155b8015610b3657506001600160a01b038216614bec14155b90505b919050565b610b49828233610b4d565b5050565b816020015115610bd05781606001516001600160a01b0316635e5eb01384835a8651610b7991906110d4565b86604001516040518563ffffffff1660e01b8152600401610b9d9493929190610ede565b600060405180830381600087803b158015610bb757600080fd5b505af1158015610bcb573d6000803e3d6000fd5b505050505b826001600160a01b031663d4f7af436040518163ffffffff1660e01b8152600401600060405180830381600087803b158015610c0b57600080fd5b505af1158015610c1f573d6000803e3d6000fd5b50505050505050565b6040518060800160405280600081526020016000151581526020016000815260200160006001600160a01b031681525090565b80518015158114610b3957600080fd5b600060208284031215610c7c578081fd5b8151610c878161110d565b9392505050565b60008060408385031215610ca0578081fd5b8235610cab8161110d565b946020939093013593505050565b600060208284031215610cca578081fd5b610c8782610c5b565b60008060408385031215610ce5578182fd5b610cee83610c5b565b9150602083015190509250929050565b60008060408385031215610ca0578182fd5b60008060008060008060c08789031215610d28578182fd5b8635610d338161110d565b955060208781013595506040880135610d4b8161110d565b94506060880135610d5b8161110d565b93506080880135925060a088013567ffffffffffffffff80821115610d7e578384fd5b818a0191508a601f830112610d91578384fd5b813581811115610da357610da36110f7565b604051601f8201601f1916810185018381118282101715610dc657610dc66110f7565b60405281815283820185018d1015610ddc578586fd5b81858501868301378585838301015280955050505050509295509295509295565b600060208284031215610e0e578081fd5b815160068110610c87578182fd5b600060208284031215610e2d578081fd5b5051919050565b60008151808452815b81811015610e5957602081850181015186830182015201610e3d565b81811115610e6a5782602083870101525b50601f01601f19169290920160200192915050565b6001600160a01b0391909116815260200190565b6001600160a01b0393841681526020810192909252909116604082015260600190565b90815260200190565b9283526001600160a01b03918216602084015216604082015260600190565b6001600160a01b0394851681529290931660208301526040820152606081019190915260800190565b6001600160a01b039485168152928416602084015292166040820152606081019190915260800190565b600060018060a01b038087168352808616602084015260806040840152610f5b6080840186610e34565b915080841660608401525095945050505050565b6001600160a01b03929092168252602082015260400190565b600060018060a01b038516825283602083015260606040830152610faf6060830184610e34565b95945050505050565b60208082526018908201527f696e76616c69642072657175657374656420616d6f756e740000000000000000604082015260600190565b6020808252601190820152701d1bdad95b881b9bdd08185b1b1bddd959607a1b604082015260600190565b60208082526010908201526f1c99595b9d1c985b98de4819dd585c9960821b604082015260600190565b60208082526016908201527570726f706f73616c206e6565647320746f207061737360501b604082015260600190565b6020808252601190820152701859185c1d195c881b9bdd08199bdd5b99607a1b604082015260600190565b6020808252818101527f6170706c6963616e74207573696e672072657365727665642061646472657373604082015260600190565b6000828210156110f257634e487b7160e01b81526011600452602481fd5b500390565b634e487b7160e01b600052604160045260246000fd5b6001600160a01b038116811461112257600080fd5b5056fea2646970667358221220835dfd0fb78203dfc6816878a75589f919a5251cb16b1e55c120fe3a67b21a1864736f6c63430008000033",
  "linkReferences": {},
  "deployedLinkReferences": {}
}