{
  "_format": "hh-sol-artifact-1",
  "contractName": "GuildKickContract",
  "sourceName": "build/contracts/adapters/GuildKick.sol",
  "abi": [
    {
      "inputs": [
        {
          "internalType": "address",
          "name": "",
          "type": "address"
        },
        {
          "internalType": "bytes32",
          "name": "",
          "type": "bytes32"
        }
      ],
      "name": "kicks",
      "outputs": [
        {
          "internalType": "address",
          "name": "memberToKick",
          "type": "address"
        }
      ],
      "stateMutability": "view",
      "type": "function"
    },
    {
      "inputs": [
        {
          "internalType": "contract DaoRegistry",
          "name": "dao",
          "type": "address"
        },
        {
          "internalType": "bytes32",
          "name": "proposalId",
          "type": "bytes32"
        }
      ],
      "name": "processProposal",
      "outputs": [],
      "stateMutability": "nonpayable",
      "type": "function"
    },
    {
      "inputs": [
        {
          "internalType": "contract DaoRegistry",
          "name": "dao",
          "type": "address"
        },
        {
          "internalType": "bytes32",
          "name": "proposalId",
          "type": "bytes32"
        },
        {
          "internalType": "address",
          "name": "memberToKick",
          "type": "address"
        },
        {
          "internalType": "bytes",
          "name": "data",
          "type": "bytes"
        }
      ],
      "name": "submitProposal",
      "outputs": [],
      "stateMutability": "nonpayable",
      "type": "function"
    }
  ],
  "bytecode": "0x608060405234801561001057600080fd5b50612071806100206000396000f3fe608060405234801561001057600080fd5b50600436106100415760003560e01c806314604a20146100465780633981538e1461005b5780639573167d14610084575b600080fd5b610059610054366004611b6c565b610097565b005b61006e610069366004611afe565b6105ed565b60405161007b9190611c67565b60405180910390f35b610059610092366004611b5a565b610610565b8460006100a3826108b0565b90506000876001600160a01b03166317ba7d857f0e49311626a26ba5be58a3b13d239908e80ce0dffdd5c50bf1d9c82ff35d1ab36040518263ffffffff1660e01b81526004016100f39190611c95565b60206040518083038186803b15801561010b57600080fd5b505afa15801561011f573d6000803e3d6000fd5b505050506040513d601f19601f820116820180604052508101906101439190611ae2565b90506000816001600160a01b031663966917d08a308989336040518663ffffffff1660e01b815260040161017b959493929190611d43565b602060405180830381600087803b15801561019557600080fd5b505af11580156101a9573d6000803e3d6000fd5b505050506040513d601f19601f820116820180604052508101906101cd9190611ae2565b9050866001600160a01b0316816001600160a01b0316141561020a5760405162461bcd60e51b815260040161020190611f13565b60405180910390fd5b60405163b73dc38960e01b81526001600160a01b038a169063b73dc38990610236908b90600401611c95565b600060405180830381600087803b15801561025057600080fd5b505af1158015610264573d6000803e3d6000fd5b5050604051632c9f4b5b60e11b8152600092506001600160a01b038c16915063593e96b6906102a59060008051602061201c83398151915290600401611c95565b60206040518083038186803b1580156102bd57600080fd5b505afa1580156102d1573d6000803e3d6000fd5b505050506040513d601f19601f820116820180604052508101906102f59190611ae2565b90506000816001600160a01b031663f7888aec8a620ff1ce6040518363ffffffff1660e01b815260040161032a929190611c7b565b60206040518083038186803b15801561034257600080fd5b505afa158015610356573d6000803e3d6000fd5b505050506040513d601f19601f8201168201806040525081019061037a9190611ae2565b6001600160a01b031690506000826001600160a01b031663f7888aec8b63b105f00d6040518363ffffffff1660e01b81526004016103b9929190611c7b565b60206040518083038186803b1580156103d157600080fd5b505afa1580156103e5573d6000803e3d6000fd5b505050506040513d601f19601f820116820180604052508101906104099190611ae2565b6001600160a01b0316905060006104208284611f64565b1161043d5760405162461bcd60e51b815260040161020190611dce565b60405180602001604052808b6001600160a01b03168152506000808e6001600160a01b03166001600160a01b0316815260200190815260200160002060008d815260200190815260200160002060008201518160000160006101000a8154816001600160a01b0302191690836001600160a01b03160217905550905050846001600160a01b0316632b0974d08d8d8c8c6040518563ffffffff1660e01b81526004016104ec9493929190611d9c565b600060405180830381600087803b15801561050657600080fd5b505af115801561051a573d6000803e3d6000fd5b505050506105738c6000808f6001600160a01b03166001600160a01b0316815260200190815260200160002060008e815260200190815260200160002060000160009054906101000a90046001600160a01b0316610b01565b6040516344b574dd60e11b81526001600160a01b038d169063896ae9ba906105a3908e9088908a90600401611c9e565b600060405180830381600087803b1580156105bd57600080fd5b505af11580156105d1573d6000803e3d6000fd5b5050505050505050506105e48282610f1b565b50505050505050565b60006020818152928152604080822090935290815220546001600160a01b031681565b81600061061c826108b0565b6040516330490e9160e01b81529091506001600160a01b038516906330490e919061064b908690600401611c95565b600060405180830381600087803b15801561066557600080fd5b505af1158015610679573d6000803e3d6000fd5b505060405163206f381f60e11b8152600092506001600160a01b03871691506340de703e906106ac908790600401611c95565b60206040518083038186803b1580156106c457600080fd5b505afa1580156106d8573d6000803e3d6000fd5b505050506040513d601f19601f820116820180604052508101906106fc9190611ae2565b90506001600160a01b0381166107245760405162461bcd60e51b815260040161020190611ee8565b6040516376225e7360e01b81526000906001600160a01b038316906376225e73906107559089908990600401611d83565b602060405180830381600087803b15801561076f57600080fd5b505af1158015610783573d6000803e3d6000fd5b505050506040513d601f19601f820116820180604052508101906107a79190611c06565b905060028160058111156107cb57634e487b7160e01b600052602160045260246000fd5b1415610805576001600160a01b0380871660009081526020818152604080832089845290915290205461080091889116610f2a565b61089e565b600381600581111561082757634e487b7160e01b600052602160045260246000fd5b14806108525750600181600581111561085057634e487b7160e01b600052602160045260246000fd5b145b15610886576001600160a01b03808716600090815260208181526040808320898452909152902054610800918891166113f0565b60405162461bcd60e51b815260040161020190611eb1565b50506108aa8282610f1b565b50505050565b6108b8611aaf565b5a81600001818152505043826001600160a01b031663b21634826040518163ffffffff1660e01b815260040160206040518083038186803b1580156108fc57600080fd5b505afa158015610910573d6000803e3d6000fd5b505050506040513d601f19601f820116820180604052508101906109349190611c25565b14156109525760405162461bcd60e51b815260040161020190611e39565b816001600160a01b03166310fdb0a26040518163ffffffff1660e01b8152600401600060405180830381600087803b15801561098d57600080fd5b505af11580156109a1573d6000803e3d6000fd5b50506040516372c6838f60e01b8152600092506001600160a01b03851691506372c6838f906109f4907f1f2fd42ad6a6cacd573c4b212beb7a4e2499ad45d742a65337097f130e71daff90600401611c95565b60206040518083038186803b158015610a0c57600080fd5b505afa158015610a20573d6000803e3d6000fd5b505050506040513d601f19601f82011682018060405250810190610a449190611ae2565b90506001600160a01b038116610a605760006020830152610afb565b6001600160a01b0381166060830181905282516040516343a8a3f160e01b8152600092839290916343a8a3f191610a9c91899190600401611d83565b604080518083038186803b158015610ab357600080fd5b505afa158015610ac7573d6000803e3d6000fd5b505050506040513d601f19601f82011682018060405250810190610aeb9190611b29565b9015156020860152604085015250505b50919050565b604051632c9f4b5b60e11b81526000906001600160a01b0384169063593e96b690610b3e9060008051602061201c83398151915290600401611c95565b60206040518083038186803b158015610b5657600080fd5b505afa158015610b6a573d6000803e3d6000fd5b505050506040513d601f19601f82011682018060405250810190610b8e9190611ae2565b90506000816001600160a01b031663f7888aec84620ff1ce6040518363ffffffff1660e01b8152600401610bc3929190611c7b565b60206040518083038186803b158015610bdb57600080fd5b505afa158015610bef573d6000803e3d6000fd5b505050506040513d601f19601f82011682018060405250810190610c139190611ae2565b6001600160a01b031690506000826001600160a01b031663f7888aec8563b105f00d6040518363ffffffff1660e01b8152600401610c52929190611c7b565b60206040518083038186803b158015610c6a57600080fd5b505afa158015610c7e573d6000803e3d6000fd5b505050506040513d601f19601f82011682018060405250810190610ca29190611ae2565b6001600160a01b03169050826001600160a01b03166350c7c8608662fff1ce6040518363ffffffff1660e01b8152600401610cde929190611c7b565b600060405180830381600087803b158015610cf857600080fd5b505af1158015610d0c573d6000803e3d6000fd5b50506040516302863e4360e51b81526001600160a01b03861692506350c7c8609150610d43908890640bb105f00d90600401611c7b565b600060405180830381600087803b158015610d5d57600080fd5b505af1158015610d71573d6000803e3d6000fd5b505060405163036d74dd60e11b81526001600160a01b03861692506306dae9ba9150610daa908890889062fff1ce908890600401611d19565b600060405180830381600087803b158015610dc457600080fd5b505af1158015610dd8573d6000803e3d6000fd5b50506040516339c6941f60e01b81526001600160a01b03861692506339c6941f9150610e119088908890620ff1ce908890600401611d19565b600060405180830381600087803b158015610e2b57600080fd5b505af1158015610e3f573d6000803e3d6000fd5b505060405163036d74dd60e11b81526001600160a01b03861692506306dae9ba9150610e7a9088908890640bb105f00d908790600401611d19565b600060405180830381600087803b158015610e9457600080fd5b505af1158015610ea8573d6000803e3d6000fd5b50506040516339c6941f60e01b81526001600160a01b03861692506339c6941f9150610ee2908890889063b105f00d908790600401611d19565b600060405180830381600087803b158015610efc57600080fd5b505af1158015610f10573d6000803e3d6000fd5b505050505050505050565b610f2682823361170a565b5050565b604051632c9f4b5b60e11b81526000906001600160a01b0384169063593e96b690610f679060008051602061201c83398151915290600401611c95565b60206040518083038186803b158015610f7f57600080fd5b505afa158015610f93573d6000803e3d6000fd5b505050506040513d601f19601f82011682018060405250810190610fb79190611ae2565b90506000816001600160a01b0316637de66b6d6040518163ffffffff1660e01b815260040160206040518083038186803b158015610ff457600080fd5b505afa158015611008573d6000803e3d6000fd5b505050506040513d601f19601f8201168201806040525081019061102c9190611c25565b90506000611039836117dc565b90506000836001600160a01b031663f7888aec8662fff1ce6040518363ffffffff1660e01b815260040161106e929190611c7b565b60206040518083038186803b15801561108657600080fd5b505afa15801561109a573d6000803e3d6000fd5b505050506040513d601f19601f820116820180604052508101906110be9190611ae2565b6001600160a01b031690506000846001600160a01b031663f7888aec87640bb105f00d6040518363ffffffff1660e01b81526004016110fe929190611c7b565b60206040518083038186803b15801561111657600080fd5b505afa15801561112a573d6000803e3d6000fd5b505050506040513d601f19601f8201168201806040525081019061114e9190611ae2565b6001600160a01b0316905060006111658284611f64565b905080156113e65760005b8581101561131457604051631c96a19760e31b81526000906001600160a01b0389169063e4b50cb8906111a7908590600401611c95565b60206040518083038186803b1580156111bf57600080fd5b505afa1580156111d3573d6000803e3d6000fd5b505050506040513d601f19601f820116820180604052508101906111f79190611ae2565b9050600061128e896001600160a01b031663f7888aec61dead856040518363ffffffff1660e01b815260040161122e929190611c7b565b60206040518083038186803b15801561124657600080fd5b505afa15801561125a573d6000803e3d6000fd5b505050506040513d601f19601f8201168201806040525081019061127e9190611ae2565b6001600160a01b03168589611806565b905080156112ff5760405163413c1be360e11b81526001600160a01b038a169063827837c6906112cc908e9061dead908f9088908890600401611ce6565b600060405180830381600087803b1580156112e657600080fd5b505af11580156112fa573d6000803e3d6000fd5b505050505b5050808061130c90611fd2565b915050611170565b506040516339c6941f60e01b81526001600160a01b038716906339c6941f9061134a908b908b9062fff1ce908990600401611d19565b600060405180830381600087803b15801561136457600080fd5b505af1158015611378573d6000803e3d6000fd5b50506040516339c6941f60e01b81526001600160a01b03891692506339c6941f91506113b3908b908b90640bb105f00d908890600401611d19565b600060405180830381600087803b1580156113cd57600080fd5b505af11580156113e1573d6000803e3d6000fd5b505050505b5050505050505050565b604051632c9f4b5b60e11b81526000906001600160a01b0384169063593e96b69061142d9060008051602061201c83398151915290600401611c95565b60206040518083038186803b15801561144557600080fd5b505afa158015611459573d6000803e3d6000fd5b505050506040513d601f19601f8201168201806040525081019061147d9190611ae2565b90506000816001600160a01b031663f7888aec8462fff1ce6040518363ffffffff1660e01b81526004016114b2929190611c7b565b60206040518083038186803b1580156114ca57600080fd5b505afa1580156114de573d6000803e3d6000fd5b505050506040513d601f19601f820116820180604052508101906115029190611ae2565b6001600160a01b031690506000826001600160a01b031663f7888aec85640bb105f00d6040518363ffffffff1660e01b8152600401611542929190611c7b565b60206040518083038186803b15801561155a57600080fd5b505afa15801561156e573d6000803e3d6000fd5b505050506040513d601f19601f820116820180604052508101906115929190611ae2565b6001600160a01b03169050826001600160a01b03166306dae9ba8686620ff1ce866040518563ffffffff1660e01b81526004016115d29493929190611d19565b600060405180830381600087803b1580156115ec57600080fd5b505af1158015611600573d6000803e3d6000fd5b50506040516339c6941f60e01b81526001600160a01b03861692506339c6941f9150611639908890889062fff1ce908890600401611d19565b600060405180830381600087803b15801561165357600080fd5b505af1158015611667573d6000803e3d6000fd5b505060405163036d74dd60e11b81526001600160a01b03861692506306dae9ba91506116a1908890889063b105f00d908790600401611d19565b600060405180830381600087803b1580156116bb57600080fd5b505af11580156116cf573d6000803e3d6000fd5b50506040516339c6941f60e01b81526001600160a01b03861692506339c6941f9150610ee29088908890640bb105f00d908790600401611d19565b81602001511561178d5781606001516001600160a01b0316635e5eb01384835a86516117369190611fbb565b86604001516040518563ffffffff1660e01b815260040161175a9493929190611cbd565b600060405180830381600087803b15801561177457600080fd5b505af1158015611788573d6000803e3d6000fd5b505050505b826001600160a01b031663d4f7af436040518163ffffffff1660e01b8152600401600060405180830381600087803b1580156117c857600080fd5b505af11580156105e4573d6000803e3d6000fd5b60006117ea8261dead611877565b6117f68361babe611877565b6118009190611fbb565b92915050565b60008082116118275760405162461bcd60e51b815260040161020190611df8565b818311156118475760405162461bcd60e51b815260040161020190611e63565b8361185457506000611870565b60006118608486611f9c565b905061186c8382611f7c565b9150505b9392505050565b604051633de222bb60e21b81526000906001600160a01b0384169063f7888aec906118ad908590640bb105f00d90600401611c7b565b60206040518083038186803b1580156118c557600080fd5b505afa1580156118d9573d6000803e3d6000fd5b505050506040513d601f19601f820116820180604052508101906118fd9190611ae2565b604051633de222bb60e21b81526001600160a01b0385169063f7888aec9061192f90869063b105f00d90600401611c7b565b60206040518083038186803b15801561194757600080fd5b505afa15801561195b573d6000803e3d6000fd5b505050506040513d601f19601f8201168201806040525081019061197f9190611ae2565b604051633de222bb60e21b81526001600160a01b0386169063f7888aec906119b090879062fff1ce90600401611c7b565b60206040518083038186803b1580156119c857600080fd5b505afa1580156119dc573d6000803e3d6000fd5b505050506040513d601f19601f82011682018060405250810190611a009190611ae2565b604051633de222bb60e21b81526001600160a01b0387169063f7888aec90611a31908890620ff1ce90600401611c7b565b60206040518083038186803b158015611a4957600080fd5b505afa158015611a5d573d6000803e3d6000fd5b505050506040513d601f19601f82011682018060405250810190611a819190611ae2565b611a8b9190611f39565b611a959190611f39565b611a9f9190611f39565b6001600160a01b03169392505050565b6040518060800160405280600081526020016000151581526020016000815260200160006001600160a01b031681525090565b600060208284031215611af3578081fd5b815161187081612003565b60008060408385031215611b10578081fd5b8235611b1b81612003565b946020939093013593505050565b60008060408385031215611b3b578182fd5b82518015158114611b4a578283fd5b6020939093015192949293505050565b60008060408385031215611b10578182fd5b600080600080600060808688031215611b83578081fd5b8535611b8e81612003565b9450602086013593506040860135611ba581612003565b9250606086013567ffffffffffffffff80821115611bc1578283fd5b818801915088601f830112611bd4578283fd5b813581811115611be2578384fd5b896020828501011115611bf3578384fd5b9699959850939650602001949392505050565b600060208284031215611c17578081fd5b815160068110611870578182fd5b600060208284031215611c36578081fd5b5051919050565b60008284528282602086013780602084860101526020601f19601f85011685010190509392505050565b6001600160a01b0391909116815260200190565b6001600160a01b0392831681529116602082015260400190565b90815260200190565b9283526001600160a01b03918216602084015216604082015260600190565b6001600160a01b0394851681529290931660208301526040820152606081019190915260800190565b6001600160a01b039586168152938516602085015291841660408401529092166060820152608081019190915260a00190565b6001600160a01b039485168152928416602084015292166040820152606081019190915260800190565b600060018060a01b038088168352808716602084015260806040840152611d6e608084018688611c3d565b91508084166060840152509695505050505050565b6001600160a01b03929092168252602082015260400190565b600060018060a01b038616825284602083015260606040830152611dc4606083018486611c3d565b9695505050505050565b60208082526010908201526f1b9bc81d5b9a5d1cc81bdc881b1bdbdd60821b604082015260600190565b60208082526021908201527f746f74616c556e697473206d7573742062652067726561746572207468616e206040820152600360fc1b606082015260800190565b60208082526010908201526f1c99595b9d1c985b98de4819dd585c9960821b604082015260600190565b6020808252602e908201527f756e697473206d757374206265206c657373207468616e206f7220657175616c60408201526d20746f20746f74616c556e69747360901b606082015260800190565b6020808252601b908201527f766f74696e67206973207374696c6c20696e2070726f67726573730000000000604082015260600190565b6020808252601190820152701859185c1d195c881b9bdd08199bdd5b99607a1b604082015260600190565b6020808252600c908201526b1d5cd9481c9859d95c5d5a5d60a21b604082015260600190565b60006001600160a01b03828116848216808303821115611f5b57611f5b611fed565b01949350505050565b60008219821115611f7757611f77611fed565b500190565b600082611f9757634e487b7160e01b81526012600452602481fd5b500490565b6000816000190483118215151615611fb657611fb6611fed565b500290565b600082821015611fcd57611fcd611fed565b500390565b6000600019821415611fe657611fe6611fed565b5060010190565b634e487b7160e01b600052601160045260246000fd5b6001600160a01b038116811461201857600080fd5b5056feea0ca03c7adbe41dc655fec28a9209dc8e6e042f3d991a67765ba285b9cf73a0a2646970667358221220dba132dbde539ac6c9ac46ec80249f916fe25fce7e7c46accd3461f771df090464736f6c63430008000033",
  "linkReferences": {},
  "deployedLinkReferences": {}
}