{
  "_format": "hh-sol-artifact-1",
  "contractName": "SignaturesContract",
  "sourceName": "build/contracts/adapters/Signatures.sol",
  "abi": [
    {
      "inputs": [
        {
          "internalType": "contract DaoRegistry",
          "name": "dao",
          "type": "address"
        },
        {
          "internalType": "bytes32",
          "name": "proposalId",
          "type": "bytes32"
        }
      ],
      "name": "processProposal",
      "outputs": [],
      "stateMutability": "nonpayable",
      "type": "function"
    },
    {
      "inputs": [
        {
          "internalType": "address",
          "name": "",
          "type": "address"
        },
        {
          "internalType": "bytes32",
          "name": "",
          "type": "bytes32"
        }
      ],
      "name": "proposals",
      "outputs": [
        {
          "internalType": "bytes32",
          "name": "permissionHash",
          "type": "bytes32"
        },
        {
          "internalType": "bytes32",
          "name": "signatureHash",
          "type": "bytes32"
        },
        {
          "internalType": "bytes4",
          "name": "magicValue",
          "type": "bytes4"
        }
      ],
      "stateMutability": "view",
      "type": "function"
    },
    {
      "inputs": [
        {
          "internalType": "contract DaoRegistry",
          "name": "dao",
          "type": "address"
        },
        {
          "internalType": "bytes32",
          "name": "proposalId",
          "type": "bytes32"
        },
        {
          "internalType": "bytes32",
          "name": "permissionHash",
          "type": "bytes32"
        },
        {
          "internalType": "bytes32",
          "name": "signatureHash",
          "type": "bytes32"
        },
        {
          "internalType": "bytes4",
          "name": "magicValue",
          "type": "bytes4"
        },
        {
          "internalType": "bytes",
          "name": "data",
          "type": "bytes"
        }
      ],
      "name": "submitProposal",
      "outputs": [],
      "stateMutability": "nonpayable",
      "type": "function"
    }
  ],
  "bytecode": "0x608060405234801561001057600080fd5b50610e52806100206000396000f3fe608060405234801561001057600080fd5b50600436106100415760003560e01c80635cb7527614610046578063604bdfb7146100715780639573167d14610086575b600080fd5b610059610054366004610a3e565b610099565b60405161006893929190610c46565b60405180910390f35b61008461007f366004610aac565b6100c5565b005b610084610094366004610a9a565b61036c565b600060208181529281526040808220909352908152208054600182015460029092015490919060e01b83565b8560006100d1826106ad565b60405163b73dc38960e01b81529091506001600160a01b0389169063b73dc38990610100908a90600401610c1e565b600060405180830381600087803b15801561011a57600080fd5b505af115801561012e573d6000803e3d6000fd5b505050506001600160a01b0388166000818152602081815260408083208b84529091528082208981556001810189905560028101805463ffffffff191660e08a901c17905590516317ba7d8560e01b81529092906317ba7d85906101b6907f0e49311626a26ba5be58a3b13d239908e80ce0dffdd5c50bf1d9c82ff35d1ab390600401610c1e565b60206040518083038186803b1580156101ce57600080fd5b505afa1580156101e2573d6000803e3d6000fd5b505050506040513d601f19601f820116820180604052508101906102069190610a1b565b90506000816001600160a01b031663966917d08c3089336040518563ffffffff1660e01b815260040161023c9493929190610c8f565b602060405180830381600087803b15801561025657600080fd5b505af115801561026a573d6000803e3d6000fd5b505050506040513d601f19601f8201168201806040525081019061028e9190610a1b565b6040516344b574dd60e11b81529091506001600160a01b038c169063896ae9ba906102c1908d9085908790600401610c27565b600060405180830381600087803b1580156102db57600080fd5b505af11580156102ef573d6000803e3d6000fd5b50506040516302b0974d60e41b81526001600160a01b0385169250632b0974d09150610323908e908e908b90600401610d16565b600060405180830381600087803b15801561033d57600080fd5b505af1158015610351573d6000803e3d6000fd5b5050505050505061036282826108fe565b5050505050505050565b816000610378826106ad565b6001600160a01b03851660008181526020818152604080832088845282528083208151606081018352815481526001820154938101939093526002015460e01b6001600160e01b031916828201525163206f381f60e11b8152939450929091906340de703e906103ec908890600401610c1e565b60206040518083038186803b15801561040457600080fd5b505afa158015610418573d6000803e3d6000fd5b505050506040513d601f19601f8201168201806040525081019061043c9190610a1b565b90506001600160a01b03811661046d5760405162461bcd60e51b815260040161046490610da0565b60405180910390fd5b60026040516376225e7360e01b81526001600160a01b038316906376225e739061049d908a908a90600401610ccd565b602060405180830381600087803b1580156104b757600080fd5b505af11580156104cb573d6000803e3d6000fd5b505050506040513d601f19601f820116820180604052508101906104ef9190610b9c565b600581111561050e57634e487b7160e01b600052602160045260246000fd5b1461052b5760405162461bcd60e51b815260040161046490610d70565b6040516330490e9160e01b81526001600160a01b038716906330490e9190610557908890600401610c1e565b600060405180830381600087803b15801561057157600080fd5b505af1158015610585573d6000803e3d6000fd5b5050604051632c9f4b5b60e11b8152600092506001600160a01b038916915063593e96b6906105d8907fb14d84a476034f030ccbb775809e5e0bf701d09b86feedbb6007cad56c24d80c90600401610c1e565b60206040518083038186803b1580156105f057600080fd5b505afa158015610604573d6000803e3d6000fd5b505050506040513d601f19601f820116820180604052508101906106289190610a1b565b9050806001600160a01b0316631d2b36f4888560000151866020015187604001516040518563ffffffff1660e01b81526004016106689493929190610ce6565b600060405180830381600087803b15801561068257600080fd5b505af1158015610696573d6000803e3d6000fd5b505050505050506106a782826108fe565b50505050565b6106b56109e8565b5a81600001818152505043826001600160a01b031663b21634826040518163ffffffff1660e01b815260040160206040518083038186803b1580156106f957600080fd5b505afa15801561070d573d6000803e3d6000fd5b505050506040513d601f19601f820116820180604052508101906107319190610bbb565b141561074f5760405162461bcd60e51b815260040161046490610d46565b816001600160a01b03166310fdb0a26040518163ffffffff1660e01b8152600401600060405180830381600087803b15801561078a57600080fd5b505af115801561079e573d6000803e3d6000fd5b50506040516372c6838f60e01b8152600092506001600160a01b03851691506372c6838f906107f1907f1f2fd42ad6a6cacd573c4b212beb7a4e2499ad45d742a65337097f130e71daff90600401610c1e565b60206040518083038186803b15801561080957600080fd5b505afa15801561081d573d6000803e3d6000fd5b505050506040513d601f19601f820116820180604052508101906108419190610a1b565b90506001600160a01b03811661085d57600060208301526108f8565b6001600160a01b0381166060830181905282516040516343a8a3f160e01b8152600092839290916343a8a3f19161089991899190600401610ccd565b604080518083038186803b1580156108b057600080fd5b505afa1580156108c4573d6000803e3d6000fd5b505050506040513d601f19601f820116820180604052508101906108e89190610a69565b9015156020860152604085015250505b50919050565b61090982823361090d565b5050565b8160200151156109905781606001516001600160a01b0316635e5eb01384835a86516109399190610dcb565b86604001516040518563ffffffff1660e01b815260040161095d9493929190610c66565b600060405180830381600087803b15801561097757600080fd5b505af115801561098b573d6000803e3d6000fd5b505050505b826001600160a01b031663d4f7af436040518163ffffffff1660e01b8152600401600060405180830381600087803b1580156109cb57600080fd5b505af11580156109df573d6000803e3d6000fd5b50505050505050565b6040518060800160405280600081526020016000151581526020016000815260200160006001600160a01b031681525090565b600060208284031215610a2c578081fd5b8151610a3781610e04565b9392505050565b60008060408385031215610a50578081fd5b8235610a5b81610e04565b946020939093013593505050565b60008060408385031215610a7b578182fd5b82518015158114610a8a578283fd5b6020939093015192949293505050565b60008060408385031215610a50578182fd5b60008060008060008060c08789031215610ac4578182fd5b8635610acf81610e04565b95506020878101359550604088013594506060880135935060808801356001600160e01b031981168114610b01578384fd5b925060a088013567ffffffffffffffff80821115610b1d578384fd5b818a0191508a601f830112610b30578384fd5b813581811115610b4257610b42610dee565b604051601f8201601f1916810185018381118282101715610b6557610b65610dee565b60405281815283820185018d1015610b7b578586fd5b81858501868301378585838301015280955050505050509295509295509295565b600060208284031215610bad578081fd5b815160068110610a37578182fd5b600060208284031215610bcc578081fd5b5051919050565b60008151808452815b81811015610bf857602081850181015186830182015201610bdc565b81811115610c095782602083870101525b50601f01601f19169290920160200192915050565b90815260200190565b9283526001600160a01b03918216602084015216604082015260600190565b92835260208301919091526001600160e01b031916604082015260600190565b6001600160a01b0394851681529290931660208301526040820152606081019190915260800190565b600060018060a01b038087168352808616602084015260806040840152610cb96080840186610bd3565b915080841660608401525095945050505050565b6001600160a01b03929092168252602082015260400190565b6001600160a01b03949094168452602084019290925260408301526001600160e01b031916606082015260800190565b600060018060a01b038516825283602083015260606040830152610d3d6060830184610bd3565b95945050505050565b60208082526010908201526f1c99595b9d1c985b98de4819dd585c9960821b604082015260600190565b60208082526016908201527570726f706f73616c206e6565647320746f207061737360501b604082015260600190565b6020808252601190820152701859185c1d195c881b9bdd08199bdd5b99607a1b604082015260600190565b600082821015610de957634e487b7160e01b81526011600452602481fd5b500390565b634e487b7160e01b600052604160045260246000fd5b6001600160a01b0381168114610e1957600080fd5b5056fea2646970667358221220df44b9042d2206a3037ad9b60410f2be3a835285611131333e7e49041de7f6a064736f6c63430008000033",
  "linkReferences": {},
  "deployedLinkReferences": {}
}