{
  "_format": "hh-sol-artifact-1",
  "contractName": "SnapshotProposalContract",
  "sourceName": "build/contracts/adapters/voting/SnapshotProposalContract.sol",
  "abi": [
    {
      "inputs": [
        {
          "internalType": "contract DaoRegistry",
          "name": "dao",
          "type": "address"
        },
        {
          "internalType": "address",
          "name": "actionId",
          "type": "address"
        }
      ],
      "name": "DOMAIN_SEPARATOR",
      "outputs": [
        {
          "internalType": "bytes32",
          "name": "",
          "type": "bytes32"
        }
      ],
      "stateMutability": "view",
      "type": "function"
    },
    {
      "inputs": [],
      "name": "EIP712_DOMAIN",
      "outputs": [
        {
          "internalType": "string",
          "name": "",
          "type": "string"
        }
      ],
      "stateMutability": "view",
      "type": "function"
    },
    {
      "inputs": [],
      "name": "EIP712_DOMAIN_TYPEHASH",
      "outputs": [
        {
          "internalType": "bytes32",
          "name": "",
          "type": "bytes32"
        }
      ],
      "stateMutability": "view",
      "type": "function"
    },
    {
      "inputs": [],
      "name": "PROPOSAL_MESSAGE_TYPE",
      "outputs": [
        {
          "internalType": "string",
          "name": "",
          "type": "string"
        }
      ],
      "stateMutability": "view",
      "type": "function"
    },
    {
      "inputs": [],
      "name": "PROPOSAL_MESSAGE_TYPEHASH",
      "outputs": [
        {
          "internalType": "bytes32",
          "name": "",
          "type": "bytes32"
        }
      ],
      "stateMutability": "view",
      "type": "function"
    },
    {
      "inputs": [],
      "name": "PROPOSAL_PAYLOAD_TYPE",
      "outputs": [
        {
          "internalType": "string",
          "name": "",
          "type": "string"
        }
      ],
      "stateMutability": "view",
      "type": "function"
    },
    {
      "inputs": [],
      "name": "PROPOSAL_PAYLOAD_TYPEHASH",
      "outputs": [
        {
          "internalType": "bytes32",
          "name": "",
          "type": "bytes32"
        }
      ],
      "stateMutability": "view",
      "type": "function"
    },
    {
      "inputs": [],
      "name": "VOTE_MESSAGE_TYPE",
      "outputs": [
        {
          "internalType": "string",
          "name": "",
          "type": "string"
        }
      ],
      "stateMutability": "view",
      "type": "function"
    },
    {
      "inputs": [],
      "name": "VOTE_MESSAGE_TYPEHASH",
      "outputs": [
        {
          "internalType": "bytes32",
          "name": "",
          "type": "bytes32"
        }
      ],
      "stateMutability": "view",
      "type": "function"
    },
    {
      "inputs": [],
      "name": "VOTE_PAYLOAD_TYPE",
      "outputs": [
        {
          "internalType": "string",
          "name": "",
          "type": "string"
        }
      ],
      "stateMutability": "view",
      "type": "function"
    },
    {
      "inputs": [],
      "name": "VOTE_PAYLOAD_TYPEHASH",
      "outputs": [
        {
          "internalType": "bytes32",
          "name": "",
          "type": "bytes32"
        }
      ],
      "stateMutability": "view",
      "type": "function"
    },
    {
      "inputs": [
        {
          "internalType": "contract DaoRegistry",
          "name": "dao",
          "type": "address"
        },
        {
          "internalType": "address",
          "name": "actionId",
          "type": "address"
        },
        {
          "components": [
            {
              "internalType": "uint256",
              "name": "timestamp",
              "type": "uint256"
            },
            {
              "internalType": "bytes32",
              "name": "spaceHash",
              "type": "bytes32"
            },
            {
              "internalType": "address",
              "name": "submitter",
              "type": "address"
            },
            {
              "components": [
                {
                  "internalType": "bytes32",
                  "name": "nameHash",
                  "type": "bytes32"
                },
                {
                  "internalType": "bytes32",
                  "name": "bodyHash",
                  "type": "bytes32"
                },
                {
                  "internalType": "string[]",
                  "name": "choices",
                  "type": "string[]"
                },
                {
                  "internalType": "uint256",
                  "name": "start",
                  "type": "uint256"
                },
                {
                  "internalType": "uint256",
                  "name": "end",
                  "type": "uint256"
                },
                {
                  "internalType": "string",
                  "name": "snapshot",
                  "type": "string"
                }
              ],
              "internalType": "struct SnapshotProposalContract.ProposalPayload",
              "name": "payload",
              "type": "tuple"
            },
            {
              "internalType": "bytes",
              "name": "sig",
              "type": "bytes"
            }
          ],
          "internalType": "struct SnapshotProposalContract.ProposalMessage",
          "name": "message",
          "type": "tuple"
        }
      ],
      "name": "hashMessage",
      "outputs": [
        {
          "internalType": "bytes32",
          "name": "",
          "type": "bytes32"
        }
      ],
      "stateMutability": "view",
      "type": "function"
    },
    {
      "inputs": [
        {
          "components": [
            {
              "internalType": "uint256",
              "name": "timestamp",
              "type": "uint256"
            },
            {
              "internalType": "bytes32",
              "name": "spaceHash",
              "type": "bytes32"
            },
            {
              "internalType": "address",
              "name": "submitter",
              "type": "address"
            },
            {
              "components": [
                {
                  "internalType": "bytes32",
                  "name": "nameHash",
                  "type": "bytes32"
                },
                {
                  "internalType": "bytes32",
                  "name": "bodyHash",
                  "type": "bytes32"
                },
                {
                  "internalType": "string[]",
                  "name": "choices",
                  "type": "string[]"
                },
                {
                  "internalType": "uint256",
                  "name": "start",
                  "type": "uint256"
                },
                {
                  "internalType": "uint256",
                  "name": "end",
                  "type": "uint256"
                },
                {
                  "internalType": "string",
                  "name": "snapshot",
                  "type": "string"
                }
              ],
              "internalType": "struct SnapshotProposalContract.ProposalPayload",
              "name": "payload",
              "type": "tuple"
            },
            {
              "internalType": "bytes",
              "name": "sig",
              "type": "bytes"
            }
          ],
          "internalType": "struct SnapshotProposalContract.ProposalMessage",
          "name": "message",
          "type": "tuple"
        }
      ],
      "name": "hashProposalMessage",
      "outputs": [
        {
          "internalType": "bytes32",
          "name": "",
          "type": "bytes32"
        }
      ],
      "stateMutability": "pure",
      "type": "function"
    },
    {
      "inputs": [
        {
          "components": [
            {
              "internalType": "bytes32",
              "name": "nameHash",
              "type": "bytes32"
            },
            {
              "internalType": "bytes32",
              "name": "bodyHash",
              "type": "bytes32"
            },
            {
              "internalType": "string[]",
              "name": "choices",
              "type": "string[]"
            },
            {
              "internalType": "uint256",
              "name": "start",
              "type": "uint256"
            },
            {
              "internalType": "uint256",
              "name": "end",
              "type": "uint256"
            },
            {
              "internalType": "string",
              "name": "snapshot",
              "type": "string"
            }
          ],
          "internalType": "struct SnapshotProposalContract.ProposalPayload",
          "name": "payload",
          "type": "tuple"
        }
      ],
      "name": "hashProposalPayload",
      "outputs": [
        {
          "internalType": "bytes32",
          "name": "",
          "type": "bytes32"
        }
      ],
      "stateMutability": "pure",
      "type": "function"
    },
    {
      "inputs": [
        {
          "internalType": "contract DaoRegistry",
          "name": "dao",
          "type": "address"
        },
        {
          "internalType": "address",
          "name": "actionId",
          "type": "address"
        },
        {
          "components": [
            {
              "internalType": "uint256",
              "name": "timestamp",
              "type": "uint256"
            },
            {
              "components": [
                {
                  "internalType": "uint32",
                  "name": "choice",
                  "type": "uint32"
                },
                {
                  "internalType": "bytes32",
                  "name": "proposalId",
                  "type": "bytes32"
                }
              ],
              "internalType": "struct SnapshotProposalContract.VotePayload",
              "name": "payload",
              "type": "tuple"
            }
          ],
          "internalType": "struct SnapshotProposalContract.VoteMessage",
          "name": "message",
          "type": "tuple"
        }
      ],
      "name": "hashVote",
      "outputs": [
        {
          "internalType": "bytes32",
          "name": "",
          "type": "bytes32"
        }
      ],
      "stateMutability": "view",
      "type": "function"
    },
    {
      "inputs": [
        {
          "components": [
            {
              "internalType": "uint256",
              "name": "timestamp",
              "type": "uint256"
            },
            {
              "components": [
                {
                  "internalType": "uint32",
                  "name": "choice",
                  "type": "uint32"
                },
                {
                  "internalType": "bytes32",
                  "name": "proposalId",
                  "type": "bytes32"
                }
              ],
              "internalType": "struct SnapshotProposalContract.VotePayload",
              "name": "payload",
              "type": "tuple"
            }
          ],
          "internalType": "struct SnapshotProposalContract.VoteMessage",
          "name": "message",
          "type": "tuple"
        }
      ],
      "name": "hashVoteInternal",
      "outputs": [
        {
          "internalType": "bytes32",
          "name": "",
          "type": "bytes32"
        }
      ],
      "stateMutability": "pure",
      "type": "function"
    },
    {
      "inputs": [
        {
          "components": [
            {
              "internalType": "uint32",
              "name": "choice",
              "type": "uint32"
            },
            {
              "internalType": "bytes32",
              "name": "proposalId",
              "type": "bytes32"
            }
          ],
          "internalType": "struct SnapshotProposalContract.VotePayload",
          "name": "payload",
          "type": "tuple"
        }
      ],
      "name": "hashVotePayload",
      "outputs": [
        {
          "internalType": "bytes32",
          "name": "",
          "type": "bytes32"
        }
      ],
      "stateMutability": "pure",
      "type": "function"
    }
  ],
  "bytecode": "0x608060405234801561001057600080fd5b50611055806100206000396000f3fe608060405234801561001057600080fd5b506004361061010b5760003560e01c8063938d8d21116100a2578063bb387d9c11610071578063bb387d9c146101d5578063c7977be7146101dd578063e1b11da4146101e5578063ec6678b7146101ed578063fefbf7ce146102005761010b565b8063938d8d21146101b55780639c953573146101bd578063a0e320f6146101c5578063b7b80378146101cd5761010b565b80633ed14e46116100de5780633ed14e4614610169578063591e23711461017c5780635c92fcbf1461018f578063769b1cec146101a25761010b565b806307b47ae81461011057806321c0bc491461012e5780633084557f1461014357806336b501c314610156575b600080fd5b610118610208565b6040516101259190610d34565b60405180910390f35b610136610224565b6040516101259190610c7a565b610136610151366004610abb565b610266565b610136610164366004610bd0565b6102ab565b610136610177366004610bf2565b61032e565b61013661018a366004610a83565b61038b565b61013661019d366004610b62565b610444565b6101366101b0366004610b9d565b6104af565b610118610578565b610136610594565b6101186105bd565b6101366105d9565b610118610602565b61013661061e565b610118610647565b6101366101fb366004610b1b565b610663565b610136610678565b604051806080016040528060608152602001610e176060913981565b604051806080016040528060608152602001610e176060913960405160200161024d9190610c43565b6040516020818303038152906040528051906020012081565b6000610272848461038b565b61027b83610444565b60405160200161028c929190610c5f565b6040516020818303038152906040528051906020012090509392505050565b6000604051806080016040528060608152602001610e17606091396040516020016102d69190610c43565b6040516020818303038152906040528051906020012082600001516102fe846020015161032e565b60405160200161031093929190610ce7565b6040516020818303038152906040528051906020012090505b919050565b6000604051806060016040528060308152602001610f86603091396040516020016103599190610c43565b604051602081830303815290604052805190602001208260000151836020015160405160200161031093929190610d18565b60006040518060a0016040528060638152602001610e77606391396040516020016103b69190610c43565b604051602081830303815290604052805190602001207fe2ffb2e2c8bf0b9b360ecefb7de0735865e605d6ba933b6c7e12cee0e178c8bf7f13600b294191fc92924bb3ce4b969c1e7e2bab8f4c93c3fc6d0a51733df3c06046868660405160200161042696959493929190610cb3565b60405160208183030381529060405280519060200120905092915050565b60006040518060e0016040528060ac8152602001610eda60ac913960405160200161046f9190610c43565b604051602081830303815290604052805190602001208260000151836020015161049c85606001516104af565b6040516020016103109493929190610cfd565b60006040518060a00160405280606a8152602001610fb6606a91396040516020016104da9190610c43565b604051602081830303815290604052805190602001208260000151836020015161050785604001516106a1565b6040516020016105179190610c0d565b60405160208183030381529060405280519060200120856060015186608001518760a0015160405160200161054c9190610c43565b604051602081830303815290604052805190602001206040516020016103109796959493929190610c83565b604051806060016040528060308152602001610f866030913981565b604051806060016040528060308152602001610f866030913960405160200161024d9190610c43565b6040518060a00160405280606a8152602001610fb6606a913981565b6040518060a00160405280606a8152602001610fb6606a913960405160200161024d9190610c43565b6040518060e0016040528060ac8152602001610eda60ac913981565b6040518060a0016040528060638152602001610e776063913960405160200161024d9190610c43565b6040518060a0016040528060638152602001610e776063913981565b600061066f848461038b565b61027b836102ab565b6040518060e0016040528060ac8152602001610eda60ac913960405160200161024d9190610c43565b6060815167ffffffffffffffff8111156106cb57634e487b7160e01b600052604160045260246000fd5b6040519080825280602002602001820160405280156106f4578160200160208202803683370190505b50905060005b825181101561078e5782818151811061072357634e487b7160e01b600052603260045260246000fd5b602002602001015160405160200161073b9190610c43565b6040516020818303038152906040528051906020012082828151811061077157634e487b7160e01b600052603260045260246000fd5b60209081029190910101528061078681610dc1565b9150506106fa565b50919050565b803561032981610dfe565b600082601f8301126107af578081fd5b8135602067ffffffffffffffff8211156107cb576107cb610de8565b6107d88182840201610d67565b82815281810190858301855b8581101561080d576107fb898684358b010161081a565b845292840192908401906001016107e4565b5090979650505050505050565b600082601f83011261082a578081fd5b813567ffffffffffffffff81111561084457610844610de8565b610857601f8201601f1916602001610d67565b81815284602083860101111561086b578283fd5b816020850160208301379081016020019190915292915050565b600060a08284031215610896578081fd5b60405160a0810167ffffffffffffffff82821081831117156108ba576108ba610de8565b8160405282935084358352602085013560208401526108db60408601610794565b604084015260608501359150808211156108f457600080fd5b61090086838701610933565b6060840152608085013591508082111561091957600080fd5b506109268582860161081a565b6080830152505092915050565b600060c08284031215610944578081fd5b61094e60c0610d67565b90508135815260208201356020820152604082013567ffffffffffffffff8082111561097957600080fd5b6109858583860161079f565b6040840152606084013560608401526080840135608084015260a08401359150808211156109b257600080fd5b506109bf8482850161081a565b60a08301525092915050565b6000606082840312156109dc578081fd5b6040516040810181811067ffffffffffffffff821117156109ff576109ff610de8565b60405282358152905080610a168460208501610a22565b60208201525092915050565b600060408284031215610a33578081fd5b6040516040810181811067ffffffffffffffff82111715610a5657610a56610de8565b604052905080823563ffffffff81168114610a7057600080fd5b8152602092830135920191909152919050565b60008060408385031215610a95578182fd5b8235610aa081610dfe565b91506020830135610ab081610dfe565b809150509250929050565b600080600060608486031215610acf578081fd5b8335610ada81610dfe565b92506020840135610aea81610dfe565b9150604084013567ffffffffffffffff811115610b05578182fd5b610b1186828701610885565b9150509250925092565b600080600060a08486031215610b2f578283fd5b8335610b3a81610dfe565b92506020840135610b4a81610dfe565b9150610b5985604086016109cb565b90509250925092565b600060208284031215610b73578081fd5b813567ffffffffffffffff811115610b89578182fd5b610b9584828501610885565b949350505050565b600060208284031215610bae578081fd5b813567ffffffffffffffff811115610bc4578182fd5b610b9584828501610933565b600060608284031215610be1578081fd5b610beb83836109cb565b9392505050565b600060408284031215610c03578081fd5b610beb8383610a22565b815160009082906020808601845b83811015610c3757815185529382019390820190600101610c1b565b50929695505050505050565b60008251610c55818460208701610d91565b9190910192915050565b61190160f01b81526002810192909252602282015260420190565b90815260200190565b968752602087019590955260408601939093526060850191909152608084015260a083015260c082015260e00190565b9586526020860194909452604085019290925260608401526001600160a01b0390811660808401521660a082015260c00190565b9283526020830191909152604082015260600190565b93845260208401929092526040830152606082015260800190565b92835263ffffffff919091166020830152604082015260600190565b6000602082528251806020840152610d53816040850160208701610d91565b601f01601f19169190910160400192915050565b60405181810167ffffffffffffffff81118282101715610d8957610d89610de8565b604052919050565b60005b83811015610dac578181015183820152602001610d94565b83811115610dbb576000848401525b50505050565b6000600019821415610de157634e487b7160e01b81526011600452602481fd5b5060010190565b634e487b7160e01b600052604160045260246000fd5b6001600160a01b0381168114610e1357600080fd5b5056fe4d6573736167652875696e7436342074696d657374616d702c4d6573736167655061796c6f6164207061796c6f6164294d6573736167655061796c6f61642875696e7433322063686f6963652c627974657333322070726f706f73616c496429454950373132446f6d61696e28737472696e67206e616d652c737472696e672076657273696f6e2c75696e7432353620636861696e49642c6164647265737320766572696679696e67436f6e74726163742c6164647265737320616374696f6e4964294d6573736167652875696e7436342074696d657374616d702c62797465733332207370616365486173682c4d6573736167655061796c6f6164207061796c6f6164294d6573736167655061796c6f61642862797465733332206e616d65486173682c6279746573333220626f6479486173682c737472696e675b5d2063686f696365732c75696e7436342073746172742c75696e74363420656e642c737472696e6720736e617073686f74294d6573736167655061796c6f61642875696e7433322063686f6963652c627974657333322070726f706f73616c4964294d6573736167655061796c6f61642862797465733332206e616d65486173682c6279746573333220626f6479486173682c737472696e675b5d2063686f696365732c75696e7436342073746172742c75696e74363420656e642c737472696e6720736e617073686f7429a2646970667358221220007c7e404a741883db1ea5e225959e104a09eaeb85cf09ee9d777b1510b94e0864736f6c63430008000033",
  "linkReferences": {},
  "deployedLinkReferences": {}
}