{
  "_format": "hh-sol-artifact-1",
  "contractName": "KickBadReporterAdapter",
  "sourceName": "build/contracts/adapters/voting/KickBadReporterAdapter.sol",
  "abi": [
    {
      "inputs": [
        {
          "internalType": "contract DaoRegistry",
          "name": "dao",
          "type": "address"
        },
        {
          "internalType": "address",
          "name": "_addr",
          "type": "address"
        }
      ],
      "name": "isActiveMember",
      "outputs": [
        {
          "internalType": "bool",
          "name": "",
          "type": "bool"
        }
      ],
      "stateMutability": "view",
      "type": "function"
    },
    {
      "inputs": [
        {
          "internalType": "contract DaoRegistry",
          "name": "dao",
          "type": "address"
        },
        {
          "internalType": "bytes32",
          "name": "proposalId",
          "type": "bytes32"
        }
      ],
      "name": "processProposal",
      "outputs": [],
      "stateMutability": "nonpayable",
      "type": "function"
    },
    {
      "inputs": [
        {
          "internalType": "contract DaoRegistry",
          "name": "dao",
          "type": "address"
        },
        {
          "internalType": "bytes32",
          "name": "proposalId",
          "type": "bytes32"
        },
        {
          "internalType": "bytes",
          "name": "data",
          "type": "bytes"
        }
      ],
      "name": "sponsorProposal",
      "outputs": [],
      "stateMutability": "nonpayable",
      "type": "function"
    }
  ],
  "bytecode": "0x608060405234801561001057600080fd5b50611913806100206000396000f3fe608060405234801561001057600080fd5b50600436106100415760003560e01c80638ecf7720146100465780639573167d1461006f578063cd0e42ed14610084575b600080fd5b61005961005436600461144d565b610097565b60405161006691906115e7565b60405180910390f35b61008261007d366004611485565b6102f7565b005b6100826100923660046114b0565b6105a9565b600080836001600160a01b031663fefbd8757fea0ca03c7adbe41dc655fec28a9209dc8e6e042f3d991a67765ba285b9cf73a06040518263ffffffff1660e01b81526004016100e691906115f2565b60206040518083038186803b1580156100fe57600080fd5b505afa158015610112573d6000803e3d6000fd5b505050506040513d601f19601f820116820180604052508101906101369190611411565b90506001600160a01b03811615610271576000610153858561070d565b60405163288c314960e21b81529091506001600160a01b0386169063a230c524906101829087906004016115b9565b60206040518083038186803b15801561019a57600080fd5b505afa1580156101ae573d6000803e3d6000fd5b505050506040513d601f19601f820116820180604052508101906101d2919061142d565b80156102685750604051633de222bb60e21b81526000906001600160a01b0384169063f7888aec9061020d908590620ff1ce906004016115cd565b60206040518083038186803b15801561022557600080fd5b505afa158015610239573d6000803e3d6000fd5b505050506040513d601f19601f8201168201806040525081019061025d9190611411565b6001600160a01b0316115b925050506102f1565b60405163288c314960e21b81526001600160a01b0385169063a230c5249061029d9086906004016115b9565b60206040518083038186803b1580156102b557600080fd5b505afa1580156102c9573d6000803e3d6000fd5b505050506040513d601f19601f820116820180604052508101906102ed919061142d565b9150505b92915050565b600061030283610863565b604051631bb791cd60e01b81529091506001600160a01b03821690631bb791cd906103339086908690600401611698565b600060405180830381600087803b15801561034d57600080fd5b505af1158015610361573d6000803e3d6000fd5b50506040516376225e7360e01b8152600092506001600160a01b03841691506376225e73906103969087908790600401611698565b60206040518083038186803b1580156103ae57600080fd5b505afa1580156103c2573d6000803e3d6000fd5b505050506040513d601f19601f820116820180604052508101906103e69190611534565b9050600281600581111561040a57634e487b7160e01b600052602160045260246000fd5b14156104a3576040516314d7078d60e11b81526000906001600160a01b038416906329ae0f1a906104419088908890600401611698565b604080518083038186803b15801561045857600080fd5b505afa15801561046c573d6000803e3d6000fd5b505050506040513d601f19601f82011682018060405250810190610490919061156b565b91505061049d8582610909565b506105a3565b60038160058111156104c557634e487b7160e01b600052602160045260246000fd5b14806104f0575060018160058111156104ee57634e487b7160e01b600052602160045260246000fd5b145b15610582576040516314d7078d60e11b81526000906001600160a01b038416906329ae0f1a906105269088908890600401611698565b604080518083038186803b15801561053d57600080fd5b505afa158015610551573d6000803e3d6000fd5b505050506040513d601f19601f82011682018060405250810190610575919061156b565b91505061049d8582610de1565b60405162461bcd60e51b815260040161059a906117cc565b60405180910390fd5b50505050565b60006105b485610863565b90506000816001600160a01b031663966917d087308787336040518663ffffffff1660e01b81526004016105ec959493929190611658565b60206040518083038186803b15801561060457600080fd5b505afa158015610618573d6000803e3d6000fd5b505050506040513d601f19601f8201168201806040525081019061063c9190611411565b604051637795526360e01b81529091506001600160a01b0383169063779552639061066f908990899086906004016116b1565b600060405180830381600087803b15801561068957600080fd5b505af115801561069d573d6000803e3d6000fd5b50506040516302b0974d60e41b81526001600160a01b0385169250632b0974d091506106d39089908990899089906004016116d4565b600060405180830381600087803b1580156106ed57600080fd5b505af1158015610701573d6000803e3d6000fd5b50505050505050505050565b600080836001600160a01b031663c89bb8ba846040518263ffffffff1660e01b815260040161073c91906115b9565b60206040518083038186803b15801561075457600080fd5b505afa158015610768573d6000803e3d6000fd5b505050506040513d601f19601f8201168201806040525081019061078c9190611411565b90506000846001600160a01b031663397a6947856040518263ffffffff1660e01b81526004016107bc91906115b9565b60206040518083038186803b1580156107d457600080fd5b505afa1580156107e8573d6000803e3d6000fd5b505050506040513d601f19601f8201168201806040525081019061080c9190611411565b9050806001600160a01b0316826001600160a01b0316148061083f5750836001600160a01b0316816001600160a01b0316145b61085b5760405162461bcd60e51b815260040161059a90611747565b509392505050565b600080826001600160a01b03166317ba7d857f0e49311626a26ba5be58a3b13d239908e80ce0dffdd5c50bf1d9c82ff35d1ab36040518263ffffffff1660e01b81526004016108b291906115f2565b60206040518083038186803b1580156108ca57600080fd5b505afa1580156108de573d6000803e3d6000fd5b505050506040513d601f19601f820116820180604052508101906109029190611411565b9392505050565b604051632c9f4b5b60e11b81526000906001600160a01b0384169063593e96b690610958907fea0ca03c7adbe41dc655fec28a9209dc8e6e042f3d991a67765ba285b9cf73a0906004016115f2565b60206040518083038186803b15801561097057600080fd5b505afa158015610984573d6000803e3d6000fd5b505050506040513d601f19601f820116820180604052508101906109a89190611411565b90506000816001600160a01b0316637de66b6d6040518163ffffffff1660e01b815260040160206040518083038186803b1580156109e557600080fd5b505afa1580156109f9573d6000803e3d6000fd5b505050506040513d601f19601f82011682018060405250810190610a1d9190611553565b90506000610a2a83611146565b90506000836001600160a01b031663f7888aec8662fff1ce6040518363ffffffff1660e01b8152600401610a5f9291906115cd565b60206040518083038186803b158015610a7757600080fd5b505afa158015610a8b573d6000803e3d6000fd5b505050506040513d601f19601f82011682018060405250810190610aaf9190611411565b6001600160a01b031690506000846001600160a01b031663f7888aec87640bb105f00d6040518363ffffffff1660e01b8152600401610aef9291906115cd565b60206040518083038186803b158015610b0757600080fd5b505afa158015610b1b573d6000803e3d6000fd5b505050506040513d601f19601f82011682018060405250810190610b3f9190611411565b6001600160a01b031690506000610b568284611826565b90508015610dd75760005b85811015610d0557604051631c96a19760e31b81526000906001600160a01b0389169063e4b50cb890610b989085906004016115f2565b60206040518083038186803b158015610bb057600080fd5b505afa158015610bc4573d6000803e3d6000fd5b505050506040513d601f19601f82011682018060405250810190610be89190611411565b90506000610c7f896001600160a01b031663f7888aec61dead856040518363ffffffff1660e01b8152600401610c1f9291906115cd565b60206040518083038186803b158015610c3757600080fd5b505afa158015610c4b573d6000803e3d6000fd5b505050506040513d601f19601f82011682018060405250810190610c6f9190611411565b6001600160a01b0316858961116a565b90508015610cf05760405163413c1be360e11b81526001600160a01b038a169063827837c690610cbd908e9061dead908f90889088906004016115fb565b600060405180830381600087803b158015610cd757600080fd5b505af1158015610ceb573d6000803e3d6000fd5b505050505b50508080610cfd90611894565b915050610b61565b506040516339c6941f60e01b81526001600160a01b038716906339c6941f90610d3b908b908b9062fff1ce90899060040161162e565b600060405180830381600087803b158015610d5557600080fd5b505af1158015610d69573d6000803e3d6000fd5b50506040516339c6941f60e01b81526001600160a01b03891692506339c6941f9150610da4908b908b90640bb105f00d90889060040161162e565b600060405180830381600087803b158015610dbe57600080fd5b505af1158015610dd2573d6000803e3d6000fd5b505050505b5050505050505050565b604051632c9f4b5b60e11b81526000906001600160a01b0384169063593e96b690610e30907fea0ca03c7adbe41dc655fec28a9209dc8e6e042f3d991a67765ba285b9cf73a0906004016115f2565b60206040518083038186803b158015610e4857600080fd5b505afa158015610e5c573d6000803e3d6000fd5b505050506040513d601f19601f82011682018060405250810190610e809190611411565b90506000816001600160a01b031663f7888aec8462fff1ce6040518363ffffffff1660e01b8152600401610eb59291906115cd565b60206040518083038186803b158015610ecd57600080fd5b505afa158015610ee1573d6000803e3d6000fd5b505050506040513d601f19601f82011682018060405250810190610f059190611411565b6001600160a01b031690506000826001600160a01b031663f7888aec85640bb105f00d6040518363ffffffff1660e01b8152600401610f459291906115cd565b60206040518083038186803b158015610f5d57600080fd5b505afa158015610f71573d6000803e3d6000fd5b505050506040513d601f19601f82011682018060405250810190610f959190611411565b6001600160a01b03169050826001600160a01b03166306dae9ba8686620ff1ce866040518563ffffffff1660e01b8152600401610fd5949392919061162e565b600060405180830381600087803b158015610fef57600080fd5b505af1158015611003573d6000803e3d6000fd5b50506040516339c6941f60e01b81526001600160a01b03861692506339c6941f915061103c908890889062fff1ce90889060040161162e565b600060405180830381600087803b15801561105657600080fd5b505af115801561106a573d6000803e3d6000fd5b505060405163036d74dd60e11b81526001600160a01b03861692506306dae9ba91506110a4908890889063b105f00d90879060040161162e565b600060405180830381600087803b1580156110be57600080fd5b505af11580156110d2573d6000803e3d6000fd5b50506040516339c6941f60e01b81526001600160a01b03861692506339c6941f915061110d9088908890640bb105f00d90879060040161162e565b600060405180830381600087803b15801561112757600080fd5b505af115801561113b573d6000803e3d6000fd5b505050505050505050565b60006111548261dead6111d9565b6111608361babe6111d9565b6102f1919061187d565b600080821161118b5760405162461bcd60e51b815260040161059a90611706565b818311156111ab5760405162461bcd60e51b815260040161059a9061177e565b836111b857506000610902565b60006111c4848661185e565b90506111d0838261183e565b95945050505050565b604051633de222bb60e21b81526000906001600160a01b0384169063f7888aec9061120f908590640bb105f00d906004016115cd565b60206040518083038186803b15801561122757600080fd5b505afa15801561123b573d6000803e3d6000fd5b505050506040513d601f19601f8201168201806040525081019061125f9190611411565b604051633de222bb60e21b81526001600160a01b0385169063f7888aec9061129190869063b105f00d906004016115cd565b60206040518083038186803b1580156112a957600080fd5b505afa1580156112bd573d6000803e3d6000fd5b505050506040513d601f19601f820116820180604052508101906112e19190611411565b604051633de222bb60e21b81526001600160a01b0386169063f7888aec9061131290879062fff1ce906004016115cd565b60206040518083038186803b15801561132a57600080fd5b505afa15801561133e573d6000803e3d6000fd5b505050506040513d601f19601f820116820180604052508101906113629190611411565b604051633de222bb60e21b81526001600160a01b0387169063f7888aec90611393908890620ff1ce906004016115cd565b60206040518083038186803b1580156113ab57600080fd5b505afa1580156113bf573d6000803e3d6000fd5b505050506040513d601f19601f820116820180604052508101906113e39190611411565b6113ed91906117fb565b6113f791906117fb565b61140191906117fb565b6001600160a01b03169392505050565b600060208284031215611422578081fd5b8151610902816118c5565b60006020828403121561143e578081fd5b81518015158114610902578182fd5b6000806040838503121561145f578081fd5b823561146a816118c5565b9150602083013561147a816118c5565b809150509250929050565b60008060408385031215611497578182fd5b82356114a2816118c5565b946020939093013593505050565b600080600080606085870312156114c5578182fd5b84356114d0816118c5565b935060208501359250604085013567ffffffffffffffff808211156114f3578384fd5b818701915087601f830112611506578384fd5b813581811115611514578485fd5b886020828501011115611525578485fd5b95989497505060200194505050565b600060208284031215611545578081fd5b815160068110610902578182fd5b600060208284031215611564578081fd5b5051919050565b6000806040838503121561157d578182fd5b82519150602083015161147a816118c5565b60008284528282602086013780602084860101526020601f19601f85011685010190509392505050565b6001600160a01b0391909116815260200190565b6001600160a01b0392831681529116602082015260400190565b901515815260200190565b90815260200190565b6001600160a01b039586168152938516602085015291841660408401529092166060820152608081019190915260a00190565b6001600160a01b039485168152928416602084015292166040820152606081019190915260800190565b600060018060a01b03808816835280871660208401526080604084015261168360808401868861158f565b91508084166060840152509695505050505050565b6001600160a01b03929092168252602082015260400190565b6001600160a01b0393841681526020810192909252909116604082015260600190565b600060018060a01b0386168252846020830152606060408301526116fc60608301848661158f565b9695505050505050565b60208082526021908201527f746f74616c556e697473206d7573742062652067726561746572207468616e206040820152600360fc1b606082015260800190565b6020808252601b908201527f63616c6c207769746820796f75722064656c6567617465206b65790000000000604082015260600190565b6020808252602e908201527f756e697473206d757374206265206c657373207468616e206f7220657175616c60408201526d20746f20746f74616c556e69747360901b606082015260800190565b6020808252601590820152741d9bdd19481b9bdd08199a5b9a5cda1959081e595d605a1b604082015260600190565b60006001600160a01b0382811684821680830382111561181d5761181d6118af565b01949350505050565b60008219821115611839576118396118af565b500190565b60008261185957634e487b7160e01b81526012600452602481fd5b500490565b6000816000190483118215151615611878576118786118af565b500290565b60008282101561188f5761188f6118af565b500390565b60006000198214156118a8576118a86118af565b5060010190565b634e487b7160e01b600052601160045260246000fd5b6001600160a01b03811681146118da57600080fd5b5056fea2646970667358221220177cd5a026aba5bffecdee362aaed05d4ccc8ba34a062c75a951fbc0c63ffc0264736f6c63430008000033",
  "linkReferences": {},
  "deployedLinkReferences": {}
}