{
  "_format": "hh-sol-artifact-1",
  "contractName": "ERC20TransferStrategySimple",
  "sourceName": "build/contracts/extensions/token/erc20/ERC20TransferStrategySimple.sol",
  "abi": [
    {
      "inputs": [],
      "name": "ERC20_EXT_TRANSFER_TYPE",
      "outputs": [
        {
          "internalType": "bytes32",
          "name": "",
          "type": "bytes32"
        }
      ],
      "stateMutability": "view",
      "type": "function"
    },
    {
      "inputs": [
        {
          "internalType": "contract DaoRegistry",
          "name": "dao",
          "type": "address"
        },
        {
          "internalType": "address",
          "name": "",
          "type": "address"
        },
        {
          "internalType": "address",
          "name": "",
          "type": "address"
        },
        {
          "internalType": "address",
          "name": "to",
          "type": "address"
        },
        {
          "internalType": "uint256",
          "name": "amount",
          "type": "uint256"
        },
        {
          "internalType": "address",
          "name": "caller",
          "type": "address"
        }
      ],
      "name": "evaluateTransfer",
      "outputs": [
        {
          "internalType": "enum IERC20TransferStrategy.ApprovalType",
          "name": "",
          "type": "uint8"
        },
        {
          "internalType": "uint256",
          "name": "",
          "type": "uint256"
        }
      ],
      "stateMutability": "view",
      "type": "function"
    },
    {
      "inputs": [
        {
          "internalType": "contract DaoRegistry",
          "name": "dao",
          "type": "address"
        },
        {
          "internalType": "address",
          "name": "caller",
          "type": "address"
        }
      ],
      "name": "hasBankAccess",
      "outputs": [
        {
          "internalType": "bool",
          "name": "",
          "type": "bool"
        }
      ],
      "stateMutability": "view",
      "type": "function"
    }
  ],
  "bytecode": "0x608060405234801561001057600080fd5b50610539806100206000396000f3fe608060405234801561001057600080fd5b50600436106100415760003560e01c8063a6d4902a14610046578063b5633c0814610064578063cf5d0daa14610084575b600080fd5b61004e6100a5565b60405161005b91906104b6565b60405180910390f35b6100776100723660046103a9565b6100c9565b60405161005b91906104ab565b6100976100923660046103e1565b6101ee565b60405161005b9291906104bf565b7f81e07017f0c21f87b21c9c47d301c5003a2d82e134ff6849af13b2accf13042281565b6000826001600160a01b0316636cfdc32e83856001600160a01b031663593e96b67fea0ca03c7adbe41dc655fec28a9209dc8e6e042f3d991a67765ba285b9cf73a06040518263ffffffff1660e01b815260040161012791906104b6565b60206040518083038186803b15801561013f57600080fd5b505afa158015610153573d6000803e3d6000fd5b505050506040513d601f19601f82011682018060405250810190610177919061036d565b60026040518463ffffffff1660e01b815260040161019793929190610485565b60206040518083038186803b1580156101af57600080fd5b505afa1580156101c3573d6000803e3d6000fd5b505050506040513d601f19601f820116820180604052508101906101e79190610389565b9392505050565b6000806101fb88846100c9565b1561020b57506002905082610362565b604051634941d71d60e11b81526000906001600160a01b038a1690639283ae3a9061025a907f81e07017f0c21f87b21c9c47d301c5003a2d82e134ff6849af13b2accf130422906004016104b6565b60206040518083038186803b15801561027257600080fd5b505afa158015610286573d6000803e3d6000fd5b505050506040513d601f19601f820116820180604052508101906102aa9190610459565b905080158015610331575060405163288c314960e21b81526001600160a01b038a169063a230c524906102e1908990600401610471565b60206040518083038186803b1580156102f957600080fd5b505afa15801561030d573d6000803e3d6000fd5b505050506040513d601f19601f820116820180604052508101906103319190610389565b15610343576001859250925050610362565b8060011415610359576001859250925050610362565b60008092509250505b965096945050505050565b60006020828403121561037e578081fd5b81516101e7816104eb565b60006020828403121561039a578081fd5b815180151581146101e7578182fd5b600080604083850312156103bb578081fd5b82356103c6816104eb565b915060208301356103d6816104eb565b809150509250929050565b60008060008060008060c087890312156103f9578182fd5b8635610404816104eb565b95506020870135610414816104eb565b94506040870135610424816104eb565b93506060870135610434816104eb565b92506080870135915060a087013561044b816104eb565b809150509295509295509295565b60006020828403121561046a578081fd5b5051919050565b6001600160a01b0391909116815260200190565b6001600160a01b03938416815291909216602082015260ff909116604082015260600190565b901515815260200190565b90815260200190565b60408101600384106104e157634e487b7160e01b600052602160045260246000fd5b9281526020015290565b6001600160a01b038116811461050057600080fd5b5056fea264697066735822122002ddb9f20639cd84af2c8e3b266c97ad27df1219ec4a8071db35fa8e2142cd9464736f6c63430008000033",
  "linkReferences": {},
  "deployedLinkReferences": {}
}