{
  "_format": "hh-sol-artifact-1",
  "contractName": "ERC20TokenExtensionFactory",
  "sourceName": "build/contracts/extensions/token/erc20/ERC20TokenExtensionFactory.sol",
  "abi": [
    {
      "inputs": [
        {
          "internalType": "address",
          "name": "_identityAddress",
          "type": "address"
        }
      ],
      "stateMutability": "nonpayable",
      "type": "constructor"
    },
    {
      "anonymous": false,
      "inputs": [
        {
          "indexed": false,
          "internalType": "address",
          "name": "daoAddress",
          "type": "address"
        },
        {
          "indexed": false,
          "internalType": "address",
          "name": "extensionAddress",
          "type": "address"
        }
      ],
      "name": "ERC20TokenExtensionCreated",
      "type": "event"
    },
    {
      "inputs": [
        {
          "internalType": "address",
          "name": "dao",
          "type": "address"
        },
        {
          "internalType": "string",
          "name": "tokenName",
          "type": "string"
        },
        {
          "internalType": "address",
          "name": "tokenAddress",
          "type": "address"
        },
        {
          "internalType": "string",
          "name": "tokenSymbol",
          "type": "string"
        },
        {
          "internalType": "uint8",
          "name": "decimals",
          "type": "uint8"
        }
      ],
      "name": "create",
      "outputs": [],
      "stateMutability": "nonpayable",
      "type": "function"
    },
    {
      "inputs": [
        {
          "internalType": "address",
          "name": "dao",
          "type": "address"
        }
      ],
      "name": "getExtensionAddress",
      "outputs": [
        {
          "internalType": "address",
          "name": "",
          "type": "address"
        }
      ],
      "stateMutability": "view",
      "type": "function"
    },
    {
      "inputs": [],
      "name": "identityAddress",
      "outputs": [
        {
          "internalType": "address",
          "name": "",
          "type": "address"
        }
      ],
      "stateMutability": "view",
      "type": "function"
    }
  ],
  "bytecode": "0x608060405234801561001057600080fd5b5060405161067f38038061067f83398101604081905261002f91610088565b60016000556001600160a01b0381166100635760405162461bcd60e51b815260040161005a906100b6565b60405180910390fd5b600180546001600160a01b0319166001600160a01b03929092169190911790556100dc565b600060208284031215610099578081fd5b81516001600160a01b03811681146100af578182fd5b9392505050565b6020808252600c908201526b34b73b30b634b21030b2323960a11b604082015260600190565b610594806100eb6000396000f3fe608060405234801561001057600080fd5b50600436106100415760003560e01c80633146637e14610046578063648402931461006f578063bf45767a14610084575b600080fd5b6100596100543660046103c7565b61008c565b6040516100669190610492565b60405180910390f35b61008261007d3660046103e8565b6100ad565b005b610059610308565b6001600160a01b03808216600090815260026020526040902054165b919050565b600260005414156100d95760405162461bcd60e51b81526004016100d090610519565b60405180910390fd5b60026000556001600160a01b0387166101045760405162461bcd60e51b81526004016100d0906104ef565b60015460009061011c906001600160a01b0316610317565b6001600160a01b038981166000908152600260205260409081902080546001600160a01b03191692841692831790555163c47f002760e01b8152919250829163c47f002790610171908b908b906004016104c0565b600060405180830381600087803b15801561018b57600080fd5b505af115801561019f573d6000803e3d6000fd5b505060405163144fa6d760e01b81526001600160a01b038416925063144fa6d791506101cf908990600401610492565b600060405180830381600087803b1580156101e957600080fd5b505af11580156101fd573d6000803e3d6000fd5b5050604051635c26412360e11b81526001600160a01b038416925063b84c8246915061022f90889088906004016104c0565b600060405180830381600087803b15801561024957600080fd5b505af115801561025d573d6000803e3d6000fd5b5050604051633d09cad560e11b81526001600160a01b0384169250637a1395aa915061028d908690600401610550565b600060405180830381600087803b1580156102a757600080fd5b505af11580156102bb573d6000803e3d6000fd5b505050507f65fa2e240471eb6b6577561ad4797df8d258cb447cb7b2f322dddb8ed5c7a9bb89826040516102f09291906104a6565b60405180910390a15050600160005550505050505050565b6001546001600160a01b031681565b6000808260601b9050604051733d602d80600a3d3981f3363d3d373d3d3d363d7360601b81528160148201526e5af43d82803e903d91602b57fd5bf360881b60288201526037816000f0949350505050565b80356001600160a01b03811681146100a857600080fd5b60008083601f840112610391578182fd5b50813567ffffffffffffffff8111156103a8578182fd5b6020830191508360208285010111156103c057600080fd5b9250929050565b6000602082840312156103d8578081fd5b6103e182610369565b9392505050565b600080600080600080600060a0888a031215610402578283fd5b61040b88610369565b9650602088013567ffffffffffffffff80821115610427578485fd5b6104338b838c01610380565b909850965086915061044760408b01610369565b955060608a013591508082111561045c578485fd5b506104698a828b01610380565b909450925050608088013560ff81168114610482578182fd5b8091505092959891949750929550565b6001600160a01b0391909116815260200190565b6001600160a01b0392831681529116602082015260400190565b60006020825282602083015282846040840137818301604090810191909152601f909201601f19160101919050565b60208082526010908201526f34b73b30b634b2103230b79030b2323960811b604082015260600190565b6020808252601f908201527f5265656e7472616e637947756172643a207265656e7472616e742063616c6c00604082015260600190565b60ff9190911681526020019056fea2646970667358221220763b09cf4fb4dc1ec51496e59b1d2abec3828e64acabdb5a5e25e9ad8febc69964736f6c63430008000033",
  "linkReferences": {},
  "deployedLinkReferences": {}
}