{
  "_format": "hh-sol-artifact-1",
  "contractName": "OffchainVotingContract",
  "sourceName": "build/contracts/adapters/voting/OffchainVoting.sol",
  "abi": [
    {
      "inputs": [
        {
          "internalType": "contract VotingContract",
          "name": "_c",
          "type": "address"
        },
        {
          "internalType": "contract OffchainVotingHashContract",
          "name": "_ovhc",
          "type": "address"
        },
        {
          "internalType": "contract OffchainVotingHelperContract",
          "name": "_ovhelper",
          "type": "address"
        },
        {
          "internalType": "contract SnapshotProposalContract",
          "name": "_spc",
          "type": "address"
        },
        {
          "internalType": "contract KickBadReporterAdapter",
          "name": "_hbra",
          "type": "address"
        },
        {
          "internalType": "address",
          "name": "_owner",
          "type": "address"
        }
      ],
      "stateMutability": "nonpayable",
      "type": "constructor"
    },
    {
      "anonymous": false,
      "inputs": [
        {
          "indexed": true,
          "internalType": "address",
          "name": "previousOwner",
          "type": "address"
        },
        {
          "indexed": true,
          "internalType": "address",
          "name": "newOwner",
          "type": "address"
        }
      ],
      "name": "OwnershipTransferred",
      "type": "event"
    },
    {
      "anonymous": false,
      "inputs": [
        {
          "indexed": false,
          "internalType": "address",
          "name": "daoAddress",
          "type": "address"
        },
        {
          "indexed": false,
          "internalType": "bytes32",
          "name": "proposalId",
          "type": "bytes32"
        },
        {
          "indexed": false,
          "internalType": "bytes32",
          "name": "resultRoot",
          "type": "bytes32"
        }
      ],
      "name": "ResultChallenged",
      "type": "event"
    },
    {
      "anonymous": false,
      "inputs": [
        {
          "indexed": false,
          "internalType": "address",
          "name": "daoAddress",
          "type": "address"
        },
        {
          "indexed": false,
          "internalType": "bytes32",
          "name": "proposalId",
          "type": "bytes32"
        },
        {
          "indexed": false,
          "internalType": "uint256",
          "name": "nbNo",
          "type": "uint256"
        },
        {
          "indexed": false,
          "internalType": "uint256",
          "name": "nbYes",
          "type": "uint256"
        },
        {
          "indexed": false,
          "internalType": "bytes32",
          "name": "resultRoot",
          "type": "bytes32"
        },
        {
          "indexed": false,
          "internalType": "address",
          "name": "memberAddr",
          "type": "address"
        }
      ],
      "name": "VoteResultSubmitted",
      "type": "event"
    },
    {
      "inputs": [],
      "name": "FallbackThreshold",
      "outputs": [
        {
          "internalType": "bytes32",
          "name": "",
          "type": "bytes32"
        }
      ],
      "stateMutability": "view",
      "type": "function"
    },
    {
      "inputs": [],
      "name": "GracePeriod",
      "outputs": [
        {
          "internalType": "bytes32",
          "name": "",
          "type": "bytes32"
        }
      ],
      "stateMutability": "view",
      "type": "function"
    },
    {
      "inputs": [],
      "name": "VotingPeriod",
      "outputs": [
        {
          "internalType": "bytes32",
          "name": "",
          "type": "bytes32"
        }
      ],
      "stateMutability": "view",
      "type": "function"
    },
    {
      "inputs": [
        {
          "internalType": "contract DaoRegistry",
          "name": "dao",
          "type": "address"
        },
        {
          "internalType": "bytes32",
          "name": "proposalId",
          "type": "bytes32"
        }
      ],
      "name": "adminFailProposal",
      "outputs": [],
      "stateMutability": "nonpayable",
      "type": "function"
    },
    {
      "inputs": [
        {
          "internalType": "contract DaoRegistry",
          "name": "dao",
          "type": "address"
        },
        {
          "internalType": "bytes32",
          "name": "proposalId",
          "type": "bytes32"
        },
        {
          "components": [
            {
              "internalType": "uint32",
              "name": "choice",
              "type": "uint32"
            },
            {
              "internalType": "uint64",
              "name": "index",
              "type": "uint64"
            },
            {
              "internalType": "uint64",
              "name": "timestamp",
              "type": "uint64"
            },
            {
              "internalType": "uint88",
              "name": "nbNo",
              "type": "uint88"
            },
            {
              "internalType": "uint88",
              "name": "nbYes",
              "type": "uint88"
            },
            {
              "internalType": "bytes",
              "name": "sig",
              "type": "bytes"
            },
            {
              "internalType": "bytes32",
              "name": "proposalId",
              "type": "bytes32"
            },
            {
              "internalType": "bytes32[]",
              "name": "proof",
              "type": "bytes32[]"
            }
          ],
          "internalType": "struct OffchainVotingHashContract.VoteResultNode",
          "name": "node",
          "type": "tuple"
        }
      ],
      "name": "challengeBadFirstNode",
      "outputs": [],
      "stateMutability": "nonpayable",
      "type": "function"
    },
    {
      "inputs": [
        {
          "internalType": "contract DaoRegistry",
          "name": "dao",
          "type": "address"
        },
        {
          "internalType": "bytes32",
          "name": "proposalId",
          "type": "bytes32"
        },
        {
          "components": [
            {
              "internalType": "uint32",
              "name": "choice",
              "type": "uint32"
            },
            {
              "internalType": "uint64",
              "name": "index",
              "type": "uint64"
            },
            {
              "internalType": "uint64",
              "name": "timestamp",
              "type": "uint64"
            },
            {
              "internalType": "uint88",
              "name": "nbNo",
              "type": "uint88"
            },
            {
              "internalType": "uint88",
              "name": "nbYes",
              "type": "uint88"
            },
            {
              "internalType": "bytes",
              "name": "sig",
              "type": "bytes"
            },
            {
              "internalType": "bytes32",
              "name": "proposalId",
              "type": "bytes32"
            },
            {
              "internalType": "bytes32[]",
              "name": "proof",
              "type": "bytes32[]"
            }
          ],
          "internalType": "struct OffchainVotingHashContract.VoteResultNode",
          "name": "node",
          "type": "tuple"
        }
      ],
      "name": "challengeBadNode",
      "outputs": [],
      "stateMutability": "nonpayable",
      "type": "function"
    },
    {
      "inputs": [
        {
          "internalType": "contract DaoRegistry",
          "name": "dao",
          "type": "address"
        },
        {
          "internalType": "bytes32",
          "name": "proposalId",
          "type": "bytes32"
        },
        {
          "components": [
            {
              "internalType": "uint32",
              "name": "choice",
              "type": "uint32"
            },
            {
              "internalType": "uint64",
              "name": "index",
              "type": "uint64"
            },
            {
              "internalType": "uint64",
              "name": "timestamp",
              "type": "uint64"
            },
            {
              "internalType": "uint88",
              "name": "nbNo",
              "type": "uint88"
            },
            {
              "internalType": "uint88",
              "name": "nbYes",
              "type": "uint88"
            },
            {
              "internalType": "bytes",
              "name": "sig",
              "type": "bytes"
            },
            {
              "internalType": "bytes32",
              "name": "proposalId",
              "type": "bytes32"
            },
            {
              "internalType": "bytes32[]",
              "name": "proof",
              "type": "bytes32[]"
            }
          ],
          "internalType": "struct OffchainVotingHashContract.VoteResultNode",
          "name": "nodePrevious",
          "type": "tuple"
        },
        {
          "components": [
            {
              "internalType": "uint32",
              "name": "choice",
              "type": "uint32"
            },
            {
              "internalType": "uint64",
              "name": "index",
              "type": "uint64"
            },
            {
              "internalType": "uint64",
              "name": "timestamp",
              "type": "uint64"
            },
            {
              "internalType": "uint88",
              "name": "nbNo",
              "type": "uint88"
            },
            {
              "internalType": "uint88",
              "name": "nbYes",
              "type": "uint88"
            },
            {
              "internalType": "bytes",
              "name": "sig",
              "type": "bytes"
            },
            {
              "internalType": "bytes32",
              "name": "proposalId",
              "type": "bytes32"
            },
            {
              "internalType": "bytes32[]",
              "name": "proof",
              "type": "bytes32[]"
            }
          ],
          "internalType": "struct OffchainVotingHashContract.VoteResultNode",
          "name": "nodeCurrent",
          "type": "tuple"
        }
      ],
      "name": "challengeBadStep",
      "outputs": [],
      "stateMutability": "nonpayable",
      "type": "function"
    },
    {
      "inputs": [
        {
          "internalType": "contract DaoRegistry",
          "name": "dao",
          "type": "address"
        },
        {
          "internalType": "bytes32",
          "name": "proposalId",
          "type": "bytes32"
        }
      ],
      "name": "challengeMissingStep",
      "outputs": [],
      "stateMutability": "nonpayable",
      "type": "function"
    },
    {
      "inputs": [
        {
          "internalType": "contract DaoRegistry",
          "name": "dao",
          "type": "address"
        },
        {
          "internalType": "uint256",
          "name": "votingPeriod",
          "type": "uint256"
        },
        {
          "internalType": "uint256",
          "name": "gracePeriod",
          "type": "uint256"
        },
        {
          "internalType": "uint256",
          "name": "fallbackThreshold",
          "type": "uint256"
        }
      ],
      "name": "configureDao",
      "outputs": [],
      "stateMutability": "nonpayable",
      "type": "function"
    },
    {
      "inputs": [],
      "name": "getAdapterName",
      "outputs": [
        {
          "internalType": "string",
          "name": "",
          "type": "string"
        }
      ],
      "stateMutability": "pure",
      "type": "function"
    },
    {
      "inputs": [
        {
          "internalType": "contract DaoRegistry",
          "name": "dao",
          "type": "address"
        },
        {
          "internalType": "bytes32",
          "name": "proposalId",
          "type": "bytes32"
        },
        {
          "internalType": "bool",
          "name": "submitNewVote",
          "type": "bool"
        },
        {
          "internalType": "bytes32",
          "name": "resultRoot",
          "type": "bytes32"
        },
        {
          "internalType": "uint256",
          "name": "blockNumber",
          "type": "uint256"
        },
        {
          "internalType": "uint256",
          "name": "gracePeriodStartingTime",
          "type": "uint256"
        },
        {
          "internalType": "uint256",
          "name": "nbMembers",
          "type": "uint256"
        },
        {
          "components": [
            {
              "internalType": "uint32",
              "name": "choice",
              "type": "uint32"
            },
            {
              "internalType": "uint64",
              "name": "index",
              "type": "uint64"
            },
            {
              "internalType": "uint64",
              "name": "timestamp",
              "type": "uint64"
            },
            {
              "internalType": "uint88",
              "name": "nbNo",
              "type": "uint88"
            },
            {
              "internalType": "uint88",
              "name": "nbYes",
              "type": "uint88"
            },
            {
              "internalType": "bytes",
              "name": "sig",
              "type": "bytes"
            },
            {
              "internalType": "bytes32",
              "name": "proposalId",
              "type": "bytes32"
            },
            {
              "internalType": "bytes32[]",
              "name": "proof",
              "type": "bytes32[]"
            }
          ],
          "internalType": "struct OffchainVotingHashContract.VoteResultNode",
          "name": "node",
          "type": "tuple"
        }
      ],
      "name": "getBadNodeError",
      "outputs": [
        {
          "internalType": "enum OffchainVotingHelperContract.BadNodeError",
          "name": "",
          "type": "uint8"
        }
      ],
      "stateMutability": "view",
      "type": "function"
    },
    {
      "inputs": [
        {
          "internalType": "contract DaoRegistry",
          "name": "dao",
          "type": "address"
        },
        {
          "internalType": "bytes32",
          "name": "proposalId",
          "type": "bytes32"
        }
      ],
      "name": "getChallengeDetails",
      "outputs": [
        {
          "internalType": "uint256",
          "name": "",
          "type": "uint256"
        },
        {
          "internalType": "address",
          "name": "",
          "type": "address"
        }
      ],
      "stateMutability": "view",
      "type": "function"
    },
    {
      "inputs": [
        {
          "internalType": "contract DaoRegistry",
          "name": "dao",
          "type": "address"
        },
        {
          "internalType": "address",
          "name": "actionId",
          "type": "address"
        },
        {
          "internalType": "bytes",
          "name": "data",
          "type": "bytes"
        },
        {
          "internalType": "address",
          "name": "addr",
          "type": "address"
        }
      ],
      "name": "getSenderAddress",
      "outputs": [
        {
          "internalType": "address",
          "name": "",
          "type": "address"
        }
      ],
      "stateMutability": "view",
      "type": "function"
    },
    {
      "inputs": [
        {
          "internalType": "contract DaoRegistry",
          "name": "dao",
          "type": "address"
        },
        {
          "internalType": "bytes32",
          "name": "proposalId",
          "type": "bytes32"
        }
      ],
      "name": "getVote",
      "outputs": [
        {
          "components": [
            {
              "internalType": "uint256",
              "name": "snapshot",
              "type": "uint256"
            },
            {
              "internalType": "address",
              "name": "reporter",
              "type": "address"
            },
            {
              "internalType": "bytes32",
              "name": "resultRoot",
              "type": "bytes32"
            },
            {
              "internalType": "uint256",
              "name": "nbYes",
              "type": "uint256"
            },
            {
              "internalType": "uint256",
              "name": "nbNo",
              "type": "uint256"
            },
            {
              "internalType": "uint256",
              "name": "startingTime",
              "type": "uint256"
            },
            {
              "internalType": "uint256",
              "name": "gracePeriodStartingTime",
              "type": "uint256"
            },
            {
              "internalType": "bool",
              "name": "isChallenged",
              "type": "bool"
            },
            {
              "internalType": "uint256",
              "name": "stepRequested",
              "type": "uint256"
            },
            {
              "internalType": "bool",
              "name": "forceFailed",
              "type": "bool"
            },
            {
              "internalType": "uint256",
              "name": "fallbackVotesCount",
              "type": "uint256"
            }
          ],
          "internalType": "struct OffchainVotingContract.VotingDetails",
          "name": "",
          "type": "tuple"
        }
      ],
      "stateMutability": "view",
      "type": "function"
    },
    {
      "inputs": [
        {
          "internalType": "contract DaoRegistry",
          "name": "dao",
          "type": "address"
        },
        {
          "internalType": "address",
          "name": "_addr",
          "type": "address"
        }
      ],
      "name": "isActiveMember",
      "outputs": [
        {
          "internalType": "bool",
          "name": "",
          "type": "bool"
        }
      ],
      "stateMutability": "view",
      "type": "function"
    },
    {
      "inputs": [],
      "name": "ovHash",
      "outputs": [
        {
          "internalType": "contract OffchainVotingHashContract",
          "name": "",
          "type": "address"
        }
      ],
      "stateMutability": "view",
      "type": "function"
    },
    {
      "inputs": [],
      "name": "owner",
      "outputs": [
        {
          "internalType": "address",
          "name": "",
          "type": "address"
        }
      ],
      "stateMutability": "view",
      "type": "function"
    },
    {
      "inputs": [
        {
          "internalType": "contract DaoRegistry",
          "name": "dao",
          "type": "address"
        },
        {
          "internalType": "bytes32",
          "name": "proposalId",
          "type": "bytes32"
        }
      ],
      "name": "processChallengeProposal",
      "outputs": [],
      "stateMutability": "nonpayable",
      "type": "function"
    },
    {
      "inputs": [
        {
          "internalType": "contract DaoRegistry",
          "name": "dao",
          "type": "address"
        },
        {
          "internalType": "address",
          "name": "adapterAddress",
          "type": "address"
        },
        {
          "components": [
            {
              "internalType": "uint32",
              "name": "choice",
              "type": "uint32"
            },
            {
              "internalType": "uint64",
              "name": "index",
              "type": "uint64"
            },
            {
              "internalType": "uint64",
              "name": "timestamp",
              "type": "uint64"
            },
            {
              "internalType": "uint88",
              "name": "nbNo",
              "type": "uint88"
            },
            {
              "internalType": "uint88",
              "name": "nbYes",
              "type": "uint88"
            },
            {
              "internalType": "bytes",
              "name": "sig",
              "type": "bytes"
            },
            {
              "internalType": "bytes32",
              "name": "proposalId",
              "type": "bytes32"
            },
            {
              "internalType": "bytes32[]",
              "name": "proof",
              "type": "bytes32[]"
            }
          ],
          "internalType": "struct OffchainVotingHashContract.VoteResultNode",
          "name": "node",
          "type": "tuple"
        }
      ],
      "name": "provideStep",
      "outputs": [],
      "stateMutability": "nonpayable",
      "type": "function"
    },
    {
      "inputs": [],
      "name": "renounceOwnership",
      "outputs": [],
      "stateMutability": "nonpayable",
      "type": "function"
    },
    {
      "inputs": [
        {
          "internalType": "contract DaoRegistry",
          "name": "dao",
          "type": "address"
        },
        {
          "internalType": "bytes32",
          "name": "proposalId",
          "type": "bytes32"
        }
      ],
      "name": "requestFallback",
      "outputs": [],
      "stateMutability": "nonpayable",
      "type": "function"
    },
    {
      "inputs": [
        {
          "internalType": "contract DaoRegistry",
          "name": "dao",
          "type": "address"
        },
        {
          "internalType": "bytes32",
          "name": "proposalId",
          "type": "bytes32"
        },
        {
          "internalType": "uint256",
          "name": "index",
          "type": "uint256"
        }
      ],
      "name": "requestStep",
      "outputs": [],
      "stateMutability": "nonpayable",
      "type": "function"
    },
    {
      "inputs": [
        {
          "internalType": "contract DaoRegistry",
          "name": "dao",
          "type": "address"
        },
        {
          "internalType": "bytes32",
          "name": "proposalId",
          "type": "bytes32"
        },
        {
          "internalType": "address",
          "name": "sponsoredBy",
          "type": "address"
        }
      ],
      "name": "sponsorChallengeProposal",
      "outputs": [],
      "stateMutability": "nonpayable",
      "type": "function"
    },
    {
      "inputs": [
        {
          "internalType": "contract DaoRegistry",
          "name": "dao",
          "type": "address"
        },
        {
          "internalType": "bytes32",
          "name": "proposalId",
          "type": "bytes32"
        },
        {
          "internalType": "bytes",
          "name": "data",
          "type": "bytes"
        }
      ],
      "name": "startNewVotingForProposal",
      "outputs": [],
      "stateMutability": "nonpayable",
      "type": "function"
    },
    {
      "inputs": [
        {
          "internalType": "contract DaoRegistry",
          "name": "dao",
          "type": "address"
        },
        {
          "internalType": "bytes32",
          "name": "proposalId",
          "type": "bytes32"
        },
        {
          "internalType": "bytes32",
          "name": "resultRoot",
          "type": "bytes32"
        },
        {
          "internalType": "address",
          "name": "reporter",
          "type": "address"
        },
        {
          "components": [
            {
              "internalType": "uint32",
              "name": "choice",
              "type": "uint32"
            },
            {
              "internalType": "uint64",
              "name": "index",
              "type": "uint64"
            },
            {
              "internalType": "uint64",
              "name": "timestamp",
              "type": "uint64"
            },
            {
              "internalType": "uint88",
              "name": "nbNo",
              "type": "uint88"
            },
            {
              "internalType": "uint88",
              "name": "nbYes",
              "type": "uint88"
            },
            {
              "internalType": "bytes",
              "name": "sig",
              "type": "bytes"
            },
            {
              "internalType": "bytes32",
              "name": "proposalId",
              "type": "bytes32"
            },
            {
              "internalType": "bytes32[]",
              "name": "proof",
              "type": "bytes32[]"
            }
          ],
          "internalType": "struct OffchainVotingHashContract.VoteResultNode",
          "name": "result",
          "type": "tuple"
        },
        {
          "internalType": "bytes",
          "name": "rootSig",
          "type": "bytes"
        }
      ],
      "name": "submitVoteResult",
      "outputs": [],
      "stateMutability": "nonpayable",
      "type": "function"
    },
    {
      "inputs": [
        {
          "internalType": "address",
          "name": "newOwner",
          "type": "address"
        }
      ],
      "name": "transferOwnership",
      "outputs": [],
      "stateMutability": "nonpayable",
      "type": "function"
    },
    {
      "inputs": [
        {
          "internalType": "contract DaoRegistry",
          "name": "dao",
          "type": "address"
        },
        {
          "internalType": "bytes32",
          "name": "proposalId",
          "type": "bytes32"
        }
      ],
      "name": "voteResult",
      "outputs": [
        {
          "internalType": "enum IVoting.VotingState",
          "name": "state",
          "type": "uint8"
        }
      ],
      "stateMutability": "view",
      "type": "function"
    }
  ],
  "bytecode": "0x60806040523480156200001157600080fd5b5060405162005ca338038062005ca38339810160408190526200003491620001ac565b620000486200004262000158565b6200015c565b6001600160a01b0386166200007a5760405162461bcd60e51b81526004016200007190620002ad565b60405180910390fd5b6001600160a01b038516620000a35760405162461bcd60e51b8152600401620000719062000276565b6001600160a01b038316620000cc5760405162461bcd60e51b81526004016200007190620002d6565b6001600160a01b038216620000f55760405162461bcd60e51b815260040162000071906200023f565b50600680546001600160a01b03199081166001600160a01b0397881617909155600280548216958716959095179094556004805485169186169190911790556001805484169185169190911790556003805490921692169190911790556200031a565b3390565b600080546001600160a01b038381166001600160a01b0319831681178455604051919092169283917f8be0079c531659141344cd1fd0a4f28419497f9722a3daafe3b4186f6b6457e09190a35050565b60008060008060008060c08789031215620001c5578182fd5b8651620001d28162000301565b6020880151909650620001e58162000301565b6040880151909550620001f88162000301565b60608801519094506200020b8162000301565b60808801519093506200021e8162000301565b60a0880151909250620002318162000301565b809150509295509295509295565b60208082526013908201527f68616e646c6520626164207265706f7274657200000000000000000000000000604082015260600190565b6020808252601d908201527f6f6666636861696e20766f74696e6720686173682070726f706f73616c000000604082015260600190565b6020808252600f908201526e1d9bdd1a5b99c818dbdb9d1c9858dd608a1b604082015260600190565b6020808252601190820152701cdb985c1cda1bdd081c1c9bdc1bdcd85b607a1b604082015260600190565b6001600160a01b03811681146200031757600080fd5b50565b615979806200032a6000396000f3fe608060405234801561001057600080fd5b50600436106101a95760003560e01c806376225e73116100f9578063966917d011610097578063c8ebc33411610071578063c8ebc3341461037d578063cab730ab14610390578063f1228feb146103a3578063f2fde38b146103c3576101a9565b8063966917d01461035a5780639bbf347f1461036d578063b1028a3514610375576101a9565b80638da5cb5b116100d35780638da5cb5b146102ff5780638ecf77201461030757806390c4643c14610327578063944fe52114610347576101a9565b806376225e73146102b957806377955263146102d95780638d167097146102ec576101a9565b80632bd197d61161016657806355ace0bb1161014057806355ace0bb146102785780635d5b45221461028b5780636778bc561461029e578063715018a6146102b1576101a9565b80632bd197d61461023b578063345c76a41461025057806337647da814610263576101a9565b80630a477c7f146101ae57806316b60b7d146101c35780631bb791cd146101d65780631f86f5b3146101e957806329ae0f1a146102075780632b0974d014610228575b600080fd5b6101c16101bc36600461468b565b6103d6565b005b6101c16101d1366004614747565b6105ad565b6101c16101e43660046144ac565b61075c565b6101f1610922565b6040516101fe9190614f1e565b60405180910390f35b61021a6102153660046144ac565b610952565b6040516101fe9291906155b7565b6101c161023636600461463f565b610988565b610243610d58565b6040516101fe9190614a2d565b6101c161025e3660046145a8565b610d67565b61026b6114c3565b6040516101fe9190614aef565b6101c16102863660046146cb565b6114d5565b6101c16102993660046144ac565b6116e0565b6101c16102ac3660046144ac565b6118a5565b6101c16119db565b6102cc6102c73660046144ac565b611a26565b6040516101fe9190614f0a565b6101c16102e73660046144d7565b611d40565b6101c16102fa36600461444d565b611f01565b610243611fb1565b61031a6103153660046143a3565b611fc0565b6040516101fe9190614ae4565b61033a610335366004614518565b612216565b6040516101fe9190614ef0565b6101c161035536600461477b565b6122b2565b6102436103683660046143db565b6124be565b61026b612555565b61026b612567565b6101c161038b36600461468b565b61258b565b6101c161039e3660046144ac565b612757565b6103b66103b13660046144ac565b612b65565b6040516101fe9190615526565b6101c16103d13660046142c5565b612c2b565b8260006103e282612c9c565b6001600160a01b038616600090815260086020908152604080832088845290915281209192506003546002830154835460058501546001600160a01b03909316926390c4643c928b928b926000929190600160401b90046001600160401b031661044b86612eed565b8a5460405163faaf38b360e01b81526001600160a01b03929092169163faaf38b3916104839161babe9163decafbad91600401614a5b565b60206040518083038186803b15801561049b57600080fd5b505afa1580156104af573d6000803e3d6000fd5b505050506040513d601f19601f820116820180604052508101906104d39190614363565b8d6040518963ffffffff1660e01b81526004016104f7989796959493929190614e4d565b60206040518083038186803b15801561050f57600080fd5b505afa158015610523573d6000803e3d6000fd5b505050506040513d601f19601f8201168201806040525081019061054791906147b5565b600681111561056657634e487b7160e01b600052602160045260246000fd5b1461057a576105758686612f94565b61059b565b60405162461bcd60e51b8152600401610592906152e2565b60405180910390fd5b506105a682826131c0565b5050505050565b8260006105b982612c9c565b9050846105c681336131cf565b6001600160a01b038616600090815260086020908152604080832088845290915290206006810154851061060c5760405162461bcd60e51b815260040161059290615286565b600281015460009081526005602052604081208161062c610100896156fc565b8152602001908152602001600020549050610654816101008861064f9190615874565b6131f5565b156106715760405162461bcd60e51b8152600401610592906152b2565b6106888161068161010089615874565b6001613212565b60028301546000908152600560205260408120906106a86101008a6156fc565b81526020810191909152604001600020556007820154156106db5760405162461bcd60e51b815260040161059290615310565b60056106e78989611a26565b600581111561070657634e487b7160e01b600052602160045260246000fd5b146107235760405162461bcd60e51b8152600401610592906153ee565b5060078101859055600501805467ffffffffffffffff60401b1916600160401b426001600160401b031602179055506105a682826131c0565b8143816001600160a01b031663b21634826040518163ffffffff1660e01b815260040160206040518083038186803b15801561079757600080fd5b505afa1580156107ab573d6000803e3d6000fd5b505050506040513d601f19601f820116820180604052508101906107cf9190614363565b14156107ed5760405162461bcd60e51b81526004016105929061513b565b806001600160a01b03166310fdb0a26040518163ffffffff1660e01b8152600401600060405180830381600087803b15801561082857600080fd5b505af115801561083c573d6000803e3d6000fd5b50506004546001600160a01b03163314915061086c90505760405162461bcd60e51b81526004016105929061520a565b6040516330490e9160e01b81526001600160a01b038416906330490e9190610898908590600401614aef565b600060405180830381600087803b1580156108b257600080fd5b505af11580156108c6573d6000803e3d6000fd5b50505050806001600160a01b031663d4f7af436040518163ffffffff1660e01b8152600401600060405180830381600087803b15801561090557600080fd5b505af1158015610919573d6000803e3d6000fd5b50505050505050565b60408051808201909152601681527513d99998da185a5b959bdd1a5b99d0dbdb9d1c9858dd60521b602082015290565b6001600160a01b0382811660009081526007602090815260408083208584529091529020600181015490549091165b9250929050565b6040516368c18beb60e01b815283906001600160a01b038216906368c18beb906109b6903390600401614a2d565b60206040518083038186803b1580156109ce57600080fd5b505afa1580156109e2573d6000803e3d6000fd5b505050506040513d601f19601f82011682018060405250810190610a06919061432a565b80610a155750610a158161326e565b610a315760405162461bcd60e51b8152600401610592906154a2565b600082806020019051810190610a479190614812565b600254606082015160a00151604051631bd9515560e01b815292935060009283926001600160a01b031691631bd9515591610a859190600401614f1e565b604080518083038186803b158015610a9c57600080fd5b505afa158015610ab0573d6000803e3d6000fd5b505050506040513d601f19601f82011682018060405250810190610ad49190614346565b9150915081610af55760405162461bcd60e51b8152600401610592906154c7565b43811115610b155760405162461bcd60e51b815260040161059290615104565b60008111610b355760405162461bcd60e51b8152600401610592906151d3565b6001600160a01b0387166000908152600860209081526040808320898452909152812060058101805467ffffffffffffffff1916426001600160401b0316179055829055610b8288612eed565b6001600160a01b031663f7888aec896001600160a01b031663c89bb8ba87604001516040518263ffffffff1660e01b8152600401610bc09190614a2d565b60206040518083038186803b158015610bd857600080fd5b505afa158015610bec573d6000803e3d6000fd5b505050506040513d601f19601f82011682018060405250810190610c1091906142e1565b620ff1ce6040518363ffffffff1660e01b8152600401610c31929190614a41565b60206040518083038186803b158015610c4957600080fd5b505afa158015610c5d573d6000803e3d6000fd5b505050506040513d601f19601f82011682018060405250810190610c8191906142e1565b6001600160a01b031611610ca75760405162461bcd60e51b8152600401610592906154fe565b6040808401516001549151633084557f60e01b8152610d3c926001600160a01b031690633084557f90610ce2908c9033908a90600401614be5565b60206040518083038186803b158015610cfa57600080fd5b505afa158015610d0e573d6000803e3d6000fd5b505050506040513d601f19601f82011682018060405250810190610d329190614363565b856080015161347f565b6109195760405162461bcd60e51b815260040161059290614f8b565b6002546001600160a01b031681565b856000610d7382612c9c565b6001600160a01b03891660009081526008602090815260408083208b84529091529020805491925090610db85760405162461bcd60e51b815260040161059290615050565b60028101541580610dd457506005810154600160801b900460ff165b15610f2c5760035460058201548254604051634941d71d60e11b81526001600160a01b03938416936399ee8250938e9360ff600160881b8304169390926001600160401b0390921691851690639283ae3a90610e429060008051602061592483398151915290600401614aef565b60206040518083038186803b158015610e5a57600080fd5b505afa158015610e6e573d6000803e3d6000fd5b505050506040513d601f19601f82011682018060405250810190610e929190614363565b8b608001518c60600151426040518963ffffffff1660e01b8152600401610ec0989796959493929190614d87565b60206040518083038186803b158015610ed857600080fd5b505afa158015610eec573d6000803e3d6000fd5b505050506040513d601f19601f82011682018060405250810190610f10919061432a565b610f2c5760405162461bcd60e51b815260040161059290615442565b6005810154600160401b90046001600160401b03161580610ff65750604051634941d71d60e11b815242906001600160a01b038b1690639283ae3a90610f849060008051602061592483398151915290600401614aef565b60206040518083038186803b158015610f9c57600080fd5b505afa158015610fb0573d6000803e3d6000fd5b505050506040513d601f19601f82011682018060405250810190610fd49190614363565b6005830154610ff39190600160401b90046001600160401b0316615697565b11155b6110125760405162461bcd60e51b815260040161059290615347565b61101c8987611fc0565b6110385760405162461bcd60e51b815260040161059290614fb0565b60035460208601518254604051630dfc098360e01b81526000936001600160a01b031692630dfc098392611072928f929190600401614ec6565b60206040518083038186803b15801561108a57600080fd5b505afa15801561109e573d6000803e3d6000fd5b505050506040513d601f19601f820116820180604052508101906110c29190614363565b9050600360009054906101000a90046001600160a01b03166001600160a01b0316637783b9578b8b60018c87600001546000888e6040518963ffffffff1660e01b8152600401611119989796959493929190614df6565b60006040518083038186803b15801561113157600080fd5b505afa158015611145573d6000803e3d6000fd5b5050604051631976ad8960e11b8152600092506001600160a01b038d1691506332ed5b1290611178908d90600401614aef565b604080518083038186803b15801561118f57600080fd5b505afa1580156111a3573d6000803e3d6000fd5b505050506040513d601f19601f820116820180604052508101906111c791906142fd565b50905061126988600260009054906101000a90046001600160a01b03166001600160a01b0316634a87400b8e858e6040518463ffffffff1660e01b815260040161121393929190614a5b565b60206040518083038186803b15801561122b57600080fd5b505afa15801561123f573d6000803e3d6000fd5b505050506040513d601f19601f820116820180604052508101906112639190614363565b8861347f565b6112855760405162461bcd60e51b815260040161059290614f8b565b6112918b82898c6135d9565b866060015187608001516112a591906156da565b6001600160581b0316836004015484600301546112c29190615697565b106112df5760405162461bcd60e51b815260040161059290614fdb565b6005830154600160401b90046001600160401b0316158061132a575086608001516001600160581b031687606001516001600160581b03161115158360030154846004015411151514155b156113575760058301805467ffffffffffffffff60401b1916600160401b426001600160401b0316021790555b60608701516001600160581b0390811660048086019190915560808901519091166003850155600284018a905560405163644ddc5d60e11b81526001600160a01b038d169163c89bb8ba916113ae918c9101614a2d565b60206040518083038186803b1580156113c657600080fd5b505afa1580156113da573d6000803e3d6000fd5b505050506040513d601f19601f820116820180604052508101906113fe91906142e1565b8360010160006101000a8154816001600160a01b0302191690836001600160a01b0316021790555060008360050160106101000a81548160ff0219169083151502179055508183600601819055507f26b56fcc9004f69ddd03d0186a1d1756c74544ac1b277dff770cfe4330eea3858b8b89606001518a608001518d8860010160009054906101000a90046001600160a01b03166040516114a496959493929190614aa0565b60405180910390a15050506114b982826131c0565b5050505050505050565b60008051602061592483398151915281565b8360006114e182612c9c565b6001600160a01b03871660008181526008602090815260408083208a845290915280822060028101549151631976ad8960e11b8152949550939092906332ed5b1290611531908b90600401614aef565b604080518083038186803b15801561154857600080fd5b505afa15801561155c573d6000803e3d6000fd5b505050506040513d601f19601f8201168201806040525081019061158091906142fd565b509050816115a05760405162461bcd60e51b81526004016105929061541e565b60208701516115b09060016156af565b6001600160401b031686602001516001600160401b0316146115e45760405162461bcd60e51b815260040161059290615479565b6115f489828886600201546135d9565b61160489828986600201546135d9565b604080516060808201835260808a01516001600160581b039081168352908a01511660208201528082018a90526002548554925163ca51726760e01b815291926001600160a01b039091169163ca5172679161166b918e9187918d91908890600401614d2e565b60206040518083038186803b15801561168357600080fd5b505afa158015611697573d6000803e3d6000fd5b505050506040513d601f19601f820116820180604052508101906116bb919061432a565b1561057a576116ca8a8a612f94565b505050506116d882826131c0565b505050505050565b6116e861368a565b6001600160a01b03166116f9611fb1565b6001600160a01b03161461171f5760405162461bcd60e51b815260040161059290615251565b8143816001600160a01b031663b21634826040518163ffffffff1660e01b815260040160206040518083038186803b15801561175a57600080fd5b505afa15801561176e573d6000803e3d6000fd5b505050506040513d601f19601f820116820180604052508101906117929190614363565b14156117b05760405162461bcd60e51b81526004016105929061513b565b806001600160a01b03166310fdb0a26040518163ffffffff1660e01b8152600401600060405180830381600087803b1580156117eb57600080fd5b505af11580156117ff573d6000803e3d6000fd5b505050506001600160a01b0383166000908152600860209081526040808320858452909152902060058101546001600160401b03166118505760405162461bcd60e51b81526004016105929061519c565b600501805460ff60881b1916600160881b1790556040805163d4f7af4360e01b815290516001600160a01b0383169163d4f7af4391600480830192600092919082900301818387803b15801561090557600080fd5b8160006118b182612c9c565b6001600160a01b03851660008181526008602090815260408083208884529091528082209051634941d71d60e11b815293945092909190639283ae3a9061190a9060008051602061590483398151915290600401614aef565b60206040518083038186803b15801561192257600080fd5b505afa158015611936573d6000803e3d6000fd5b505050506040513d601f19601f8201168201806040525081019061195a9190614363565b905060008260070154116119805760405162461bcd60e51b8152600401610592906153c5565b60058201546119a0908290600160401b90046001600160401b0316615697565b4210156119bf5760405162461bcd60e51b81526004016105929061539f565b6119c98686612f94565b50506119d582826131c0565b50505050565b6119e361368a565b6001600160a01b03166119f4611fb1565b6001600160a01b031614611a1a5760405162461bcd60e51b815260040161059290615251565b611a24600061368e565b565b6001600160a01b038083166000908152600860208181526040808420868552909152808320600354928101549151636a12127d60e01b815293949093921691636a12127d91611a7a91889190600401614ddd565b60206040518083038186803b158015611a9257600080fd5b505afa158015611aa6573d6000803e3d6000fd5b505050506040513d601f19601f82011682018060405250810190611aca919061432a565b15611b59576006546040516376225e7360e01b81526001600160a01b03909116906376225e7390611b019087908790600401614ddd565b60206040518083038186803b158015611b1957600080fd5b505afa158015611b2d573d6000803e3d6000fd5b505050506040513d601f19601f82011682018060405250810190611b5191906147f3565b915050611d3a565b600380546005830154600784015492840154600480860154604051634941d71d60e11b81526001600160a01b039586169663f770fae0966001600160401b038088169760ff600160881b8204811698600160801b8304909116979496600160401b90920490921694919390928f1691639283ae3a91611be8916000805160206159248339815191529101614aef565b60206040518083038186803b158015611c0057600080fd5b505afa158015611c14573d6000803e3d6000fd5b505050506040513d601f19601f82011682018060405250810190611c389190614363565b604051634941d71d60e11b81526001600160a01b038f1690639283ae3a90611c729060008051602061590483398151915290600401614aef565b60206040518083038186803b158015611c8a57600080fd5b505afa158015611c9e573d6000803e3d6000fd5b505050506040513d601f19601f82011682018060405250810190611cc29190614363565b6040518a63ffffffff1660e01b8152600401611ce6999897969594939291906155ce565b60206040518083038186803b158015611cfe57600080fd5b505afa158015611d12573d6000803e3d6000fd5b505050506040513d601f19601f82011682018060405250810190611d3691906147f3565b9150505b92915050565b8243816001600160a01b031663b21634826040518163ffffffff1660e01b815260040160206040518083038186803b158015611d7b57600080fd5b505afa158015611d8f573d6000803e3d6000fd5b505050506040513d601f19601f82011682018060405250810190611db39190614363565b1415611dd15760405162461bcd60e51b81526004016105929061513b565b806001600160a01b03166310fdb0a26040518163ffffffff1660e01b8152600401600060405180830381600087803b158015611e0c57600080fd5b505af1158015611e20573d6000803e3d6000fd5b50506004546001600160a01b031633149150611e5090505760405162461bcd60e51b81526004016105929061520a565b6040516344b574dd60e11b81526001600160a01b0385169063896ae9ba90611e8090869086903090600401614af8565b600060405180830381600087803b158015611e9a57600080fd5b505af1158015611eae573d6000803e3d6000fd5b50505050806001600160a01b031663d4f7af436040518163ffffffff1660e01b8152600401600060405180830381600087803b158015611eed57600080fd5b505af11580156114b9573d6000803e3d6000fd5b826000611f0d82612c9c565b6001600160a01b038616600090815260086020908152604080832060c08801518452825290912090850151600782015492935090916001600160401b0390911614611f6a5760405162461bcd60e51b8152600401610592906150d7565b611f7a86868684600201546135d9565b60006007820155600501805467ffffffffffffffff60401b1916600160401b426001600160401b0316021790556105a682826131c0565b6000546001600160a01b031690565b600080836001600160a01b031663fefbd8757fea0ca03c7adbe41dc655fec28a9209dc8e6e042f3d991a67765ba285b9cf73a06040518263ffffffff1660e01b815260040161200f9190614aef565b60206040518083038186803b15801561202757600080fd5b505afa15801561203b573d6000803e3d6000fd5b505050506040513d601f19601f8201168201806040525081019061205f91906142e1565b90506001600160a01b0381161561219a57600061207c85856136de565b60405163288c314960e21b81529091506001600160a01b0386169063a230c524906120ab908790600401614a2d565b60206040518083038186803b1580156120c357600080fd5b505afa1580156120d7573d6000803e3d6000fd5b505050506040513d601f19601f820116820180604052508101906120fb919061432a565b80156121915750604051633de222bb60e21b81526000906001600160a01b0384169063f7888aec90612136908590620ff1ce90600401614a41565b60206040518083038186803b15801561214e57600080fd5b505afa158015612162573d6000803e3d6000fd5b505050506040513d601f19601f8201168201806040525081019061218691906142e1565b6001600160a01b0316115b92505050611d3a565b60405163288c314960e21b81526001600160a01b0385169063a230c524906121c6908690600401614a2d565b60206040518083038186803b1580156121de57600080fd5b505afa1580156121f2573d6000803e3d6000fd5b505050506040513d601f19601f82011682018060405250810190611d36919061432a565b600354604051632431190f60e21b81526000916001600160a01b0316906390c4643c90612255908c908c908c908c908c908c908c908c90600401614df6565b60206040518083038186803b15801561226d57600080fd5b505afa158015612281573d6000803e3d6000fd5b505050506040513d601f19601f820116820180604052508101906122a591906147b5565b9998505050505050505050565b6040516368c18beb60e01b815284906001600160a01b038216906368c18beb906122e0903390600401614a2d565b60206040518083038186803b1580156122f857600080fd5b505afa15801561230c573d6000803e3d6000fd5b505050506040513d601f19601f82011682018060405250810190612330919061432a565b8061233f575061233f8161326e565b61235b5760405162461bcd60e51b8152600401610592906154a2565b604051630da0f6c760e41b81526001600160a01b0386169063da0f6c709061239790600080516020615924833981519152908890600401614a03565b600060405180830381600087803b1580156123b157600080fd5b505af11580156123c5573d6000803e3d6000fd5b5050604051630da0f6c760e41b81526001600160a01b038816925063da0f6c70915061240590600080516020615904833981519152908790600401614a03565b600060405180830381600087803b15801561241f57600080fd5b505af1158015612433573d6000803e3d6000fd5b5050604051630da0f6c760e41b81526001600160a01b038816925063da0f6c709150612485907f7781b80638de1bad375fa02f17b809bb0037ecfaca3f762ca34d55e5b2968732908690600401614a03565b600060405180830381600087803b15801561249f57600080fd5b505af11580156124b3573d6000803e3d6000fd5b505050505050505050565b600354600154604051631bafee4760e11b81526000926001600160a01b039081169263375fdc8e926124fc928a928a928a928a921690600401614ba1565b60206040518083038186803b15801561251457600080fd5b505afa158015612528573d6000803e3d6000fd5b505050506040513d601f19601f8201168201806040525081019061254c91906142e1565b95945050505050565b60008051602061590483398151915281565b7f7781b80638de1bad375fa02f17b809bb0037ecfaca3f762ca34d55e5b296873281565b82600061259782612c9c565b905082602001516001600160401b03166000146125c65760405162461bcd60e51b815260040161059290615376565b6001600160a01b03851660009081526008602090815260408083208784529091529020600281015461260a5760405162461bcd60e51b8152600401610592906150a0565b604051631976ad8960e11b81526000906001600160a01b038816906332ed5b1290612639908990600401614aef565b604080518083038186803b15801561265057600080fd5b505afa158015612664573d6000803e3d6000fd5b505050506040513d601f19601f8201168201806040525081019061268891906142fd565b50905061269b87828785600201546135d9565b600254825460408051606081018252600080825260208201528082018a9052905163ca51726760e01b81526001600160a01b039093169263ca517267926126ec928c9287928c929091600401614d2e565b60206040518083038186803b15801561270457600080fd5b505afa158015612718573d6000803e3d6000fd5b505050506040513d601f19601f8201168201806040525081019061273c919061432a565b1561057a5761274b8787612f94565b50506105a682826131c0565b8143816001600160a01b031663b21634826040518163ffffffff1660e01b815260040160206040518083038186803b15801561279257600080fd5b505afa1580156127a6573d6000803e3d6000fd5b505050506040513d601f19601f820116820180604052508101906127ca9190614363565b14156127e85760405162461bcd60e51b81526004016105929061513b565b806001600160a01b03166310fdb0a26040518163ffffffff1660e01b8152600401600060405180830381600087803b15801561282357600080fd5b505af1158015612837573d6000803e3d6000fd5b505050508261284681336131cf565b60006128528585611a26565b9050600281600581111561287657634e487b7160e01b600052602160045260246000fd5b141580156128a4575060038160058111156128a157634e487b7160e01b600052602160045260246000fd5b14155b80156128d0575060018160058111156128cd57634e487b7160e01b600052602160045260246000fd5b14155b6128ec5760405162461bcd60e51b81526004016105929061507a565b60405163644ddc5d60e11b81526000906001600160a01b0387169063c89bb8ba9061291b903390600401614a2d565b60206040518083038186803b15801561293357600080fd5b505afa158015612947573d6000803e3d6000fd5b505050506040513d601f19601f8201168201806040525081019061296b91906142e1565b6001600160a01b0380881660009081526008602090815260408083208a84528252808320938516835260099093019052205490915060ff16156129c05760405162461bcd60e51b815260040161059290614f54565b6001600160a01b0380871660009081526008602081815260408084208a85528083528185209587168552600986018352908420805460ff191660019081179091558a8552915292018054909190612a18908490615697565b90915550506003546001600160a01b0387811660009081526008602081815260408084208b85529091529182902001549051636a12127d60e01b81529190921691636a12127d91612a6d918a91600401614ddd565b60206040518083038186803b158015612a8557600080fd5b505afa158015612a99573d6000803e3d6000fd5b505050506040513d601f19601f82011682018060405250810190612abd919061432a565b15612b27576006546040516302b0974d60e41b81526001600160a01b0390911690632b0974d090612af49089908990600401614e9e565b600060405180830381600087803b158015612b0e57600080fd5b505af1158015612b22573d6000803e3d6000fd5b505050505b505050806001600160a01b031663d4f7af436040518163ffffffff1660e01b8152600401600060405180830381600087803b15801561090557600080fd5b612b6d613f1c565b506001600160a01b0391821660009081526008602081815260408084209484529381529183902083516101608101855281548152600182015490951692850192909252600282015492840192909252600381015460608401526004810154608084015260058101546001600160401b0380821660a0860152600160401b82041660c085015260ff600160801b82048116151560e08601526007830154610100860152600160881b909104161515610120840152015461014082015290565b612c3361368a565b6001600160a01b0316612c44611fb1565b6001600160a01b031614612c6a5760405162461bcd60e51b815260040161059290615251565b6001600160a01b038116612c905760405162461bcd60e51b81526004016105929061500a565b612c998161368e565b50565b612ca4613f86565b5a81600001818152505043826001600160a01b031663b21634826040518163ffffffff1660e01b815260040160206040518083038186803b158015612ce857600080fd5b505afa158015612cfc573d6000803e3d6000fd5b505050506040513d601f19601f82011682018060405250810190612d209190614363565b1415612d3e5760405162461bcd60e51b81526004016105929061513b565b816001600160a01b03166310fdb0a26040518163ffffffff1660e01b8152600401600060405180830381600087803b158015612d7957600080fd5b505af1158015612d8d573d6000803e3d6000fd5b50506040516372c6838f60e01b8152600092506001600160a01b03851691506372c6838f90612de0907f1f2fd42ad6a6cacd573c4b212beb7a4e2499ad45d742a65337097f130e71daff90600401614aef565b60206040518083038186803b158015612df857600080fd5b505afa158015612e0c573d6000803e3d6000fd5b505050506040513d601f19601f82011682018060405250810190612e3091906142e1565b90506001600160a01b038116612e4c5760006020830152612ee7565b6001600160a01b0381166060830181905282516040516343a8a3f160e01b8152600092839290916343a8a3f191612e8891899190600401614ddd565b604080518083038186803b158015612e9f57600080fd5b505afa158015612eb3573d6000803e3d6000fd5b505050506040513d601f19601f82011682018060405250810190612ed79190614346565b9015156020860152604085015250505b50919050565b604051632c9f4b5b60e11b81526000906001600160a01b0383169063593e96b690612f3c907fea0ca03c7adbe41dc655fec28a9209dc8e6e042f3d991a67765ba285b9cf73a090600401614aef565b60206040518083038186803b158015612f5457600080fd5b505afa158015612f68573d6000803e3d6000fd5b505050506040513d601f19601f82011682018060405250810190612f8c91906142e1565b90505b919050565b6001600160a01b038281166000908152600860209081526040808320858452825280832060058101805460ff60801b1916600160801b17905560018101546002909101549151941693612fea9286929101614a03565b6040516020818303038152906040528051906020012090506040518060400160405280836001600160a01b0316815260200161302586612eed565b6001600160a01b031663f7888aec85620ff1ce6040518363ffffffff1660e01b8152600401613055929190614a41565b60206040518083038186803b15801561306d57600080fd5b505afa158015613081573d6000803e3d6000fd5b505050506040513d601f19601f820116820180604052508101906130a591906142e1565b6001600160a01b0390811690915285811660009081526007602090815260408083208684528252909120835181546001600160a01b031916931692909217825591909101516001909101556130fa8483613834565b60405163b73dc38960e01b81526001600160a01b0385169063b73dc38990613126908490600401614aef565b600060405180830381600087803b15801561314057600080fd5b505af1158015613154573d6000803e3d6000fd5b505050506001600160a01b0384166000908152600860209081526040808320868452909152908190206002015490517f188baee4c03f6d9f89dad9866b70e8a29f291b0bd80b7b5ec4b54ead04522a3c916131b29187918791614a7f565b60405180910390a150505050565b6131cb828233613c27565b5050565b6131d98282611fc0565b6131cb5760405162461bcd60e51b81526004016105929061522d565b6000613208600260ff841685901c615874565b6001149392505050565b600081151561322185856131f5565b15151461326457811561324a5761323983600261574d565b6132439085615697565b9050613267565b61325583600261574d565b6132439085615816565b613267565b50825b9392505050565b600080826001600160a01b031663c19d93fb6040518163ffffffff1660e01b815260040160206040518083038186803b1580156132aa57600080fd5b505afa1580156132be573d6000803e3d6000fd5b505050506040513d601f19601f820116820180604052508101906132e291906147d4565b600181111561330157634e487b7160e01b600052602160045260246000fd5b148015612f8c5750816001600160a01b031663c67143666040518163ffffffff1660e01b815260040160206040518083038186803b15801561334257600080fd5b505afa158015613356573d6000803e3d6000fd5b505050506040513d601f19601f8201168201806040525081019061337a9190614363565b15806133fd575060405163288c314960e21b81526001600160a01b0383169063a230c524906133ad903390600401614a2d565b60206040518083038186803b1580156133c557600080fd5b505afa1580156133d9573d6000803e3d6000fd5b505050506040513d601f19601f820116820180604052508101906133fd919061432a565b80612f8c57506040516368c18beb60e01b81526001600160a01b038316906368c18beb9061342f903390600401614a2d565b60206040518083038186803b15801561344757600080fd5b505afa15801561345b573d6000803e3d6000fd5b505050506040513d601f19601f82011682018060405250810190612f8c919061432a565b600080600061348e8585613ce5565b909250905060008160048111156134b557634e487b7160e01b600052602160045260246000fd5b1480156134d35750856001600160a01b0316826001600160a01b0316145b156134e357600192505050613267565b600080876001600160a01b0316631626ba7e60e01b888860405160240161350b929190614b17565b60408051601f198184030181529181526020820180516001600160e01b03166001600160e01b03199094169390931790925290516135499190614a11565b600060405180830381855afa9150503d8060008114613584576040519150601f19603f3d011682016040523d82523d6000602084013e613589565b606091505b509150915081801561359c575080516020145b80156135cd57508051630b135d3f60e11b906135c1908301602090810190840161437b565b6001600160e01b031916145b98975050505050505050565b60e0820151600254604051636a71d09b60e01b815261366e929184916001600160a01b0390911690636a71d09b90613619908a908a908a90600401614d02565b60206040518083038186803b15801561363157600080fd5b505afa158015613645573d6000803e3d6000fd5b505050506040513d601f19601f820116820180604052508101906136699190614363565b613d52565b6119d55760405162461bcd60e51b815260040161059290614f31565b3390565b600080546001600160a01b038381166001600160a01b0319831681178455604051919092169283917f8be0079c531659141344cd1fd0a4f28419497f9722a3daafe3b4186f6b6457e09190a35050565b600080836001600160a01b031663c89bb8ba846040518263ffffffff1660e01b815260040161370d9190614a2d565b60206040518083038186803b15801561372557600080fd5b505afa158015613739573d6000803e3d6000fd5b505050506040513d601f19601f8201168201806040525081019061375d91906142e1565b90506000846001600160a01b031663397a6947856040518263ffffffff1660e01b815260040161378d9190614a2d565b60206040518083038186803b1580156137a557600080fd5b505afa1580156137b9573d6000803e3d6000fd5b505050506040513d601f19601f820116820180604052508101906137dd91906142e1565b9050806001600160a01b0316826001600160a01b031614806138105750836001600160a01b0316816001600160a01b0316145b61382c5760405162461bcd60e51b815260040161059290615165565b509392505050565b604051632c9f4b5b60e11b81526000906001600160a01b0384169063593e96b690613883907fea0ca03c7adbe41dc655fec28a9209dc8e6e042f3d991a67765ba285b9cf73a090600401614aef565b60206040518083038186803b15801561389b57600080fd5b505afa1580156138af573d6000803e3d6000fd5b505050506040513d601f19601f820116820180604052508101906138d391906142e1565b90506000816001600160a01b031663f7888aec84620ff1ce6040518363ffffffff1660e01b8152600401613908929190614a41565b60206040518083038186803b15801561392057600080fd5b505afa158015613934573d6000803e3d6000fd5b505050506040513d601f19601f8201168201806040525081019061395891906142e1565b6001600160a01b031690506000826001600160a01b031663f7888aec8563b105f00d6040518363ffffffff1660e01b8152600401613997929190614a41565b60206040518083038186803b1580156139af57600080fd5b505afa1580156139c3573d6000803e3d6000fd5b505050506040513d601f19601f820116820180604052508101906139e791906142e1565b6001600160a01b03169050826001600160a01b03166350c7c8608662fff1ce6040518363ffffffff1660e01b8152600401613a23929190614a41565b600060405180830381600087803b158015613a3d57600080fd5b505af1158015613a51573d6000803e3d6000fd5b50506040516302863e4360e51b81526001600160a01b03861692506350c7c8609150613a88908890640bb105f00d90600401614a41565b600060405180830381600087803b158015613aa257600080fd5b505af1158015613ab6573d6000803e3d6000fd5b505060405163036d74dd60e11b81526001600160a01b03861692506306dae9ba9150613aef908890889062fff1ce908890600401614b77565b600060405180830381600087803b158015613b0957600080fd5b505af1158015613b1d573d6000803e3d6000fd5b50506040516339c6941f60e01b81526001600160a01b03861692506339c6941f9150613b569088908890620ff1ce908890600401614b77565b600060405180830381600087803b158015613b7057600080fd5b505af1158015613b84573d6000803e3d6000fd5b505060405163036d74dd60e11b81526001600160a01b03861692506306dae9ba9150613bbf9088908890640bb105f00d908790600401614b77565b600060405180830381600087803b158015613bd957600080fd5b505af1158015613bed573d6000803e3d6000fd5b50506040516339c6941f60e01b81526001600160a01b03861692506339c6941f9150612485908890889063b105f00d908790600401614b77565b816020015115613caa5781606001516001600160a01b0316635e5eb01384835a8651613c539190615816565b86604001516040518563ffffffff1660e01b8152600401613c779493929190614b4e565b600060405180830381600087803b158015613c9157600080fd5b505af1158015613ca5573d6000803e3d6000fd5b505050505b826001600160a01b031663d4f7af436040518163ffffffff1660e01b8152600401600060405180830381600087803b15801561090557600080fd5b600080825160411415613d1c5760208301516040840151606085015160001a613d1087828585613e0d565b94509450505050610981565b825160401415613d465760208301516040840151613d3b868383613eed565b935093505050610981565b50600090506002610981565b600081815b8551811015613e02576000868281518110613d8257634e487b7160e01b600052603260045260246000fd5b60200260200101519050808311613dc3578281604051602001613da6929190614a03565b604051602081830303815290604052805190602001209250613def565b8083604051602001613dd6929190614a03565b6040516020818303038152906040528051906020012092505b5080613dfa81615859565b915050613d57565b509092149392505050565b6000807f7fffffffffffffffffffffffffffffff5d576e7357a4501ddfe92f46681b20a0831115613e445750600090506003613ee4565b8460ff16601b14158015613e5c57508460ff16601c14155b15613e6d5750600090506004613ee4565b600060018787878760405160008152602001604052604051613e929493929190614b30565b6020604051602081039080840390855afa158015613eb4573d6000803e3d6000fd5b5050604051601f1901519150506001600160a01b038116613edd57600060019250925050613ee4565b9150600090505b94509492505050565b6000806001600160ff1b03831660ff84901c601b01613f0e87828885613e0d565b935093505050935093915050565b6040518061016001604052806000815260200160006001600160a01b03168152602001600080191681526020016000815260200160008152602001600081526020016000815260200160001515815260200160008152602001600015158152602001600081525090565b6040518060800160405280600081526020016000151581526020016000815260200160006001600160a01b031681525090565b8051612f8f816158e0565b600082601f830112613fd4578081fd5b81356020613fe9613fe48361564d565b615624565b8281528181019085830183850287018401881015614005578586fd5b855b8581101561402357813584529284019290840190600101614007565b5090979650505050505050565b600082601f830112614040578081fd5b81516020614050613fe48361564d565b82815281810190858301855b8581101561402357614073898684518b01016140d1565b8452928401929084019060010161405c565b600082601f830112614095578081fd5b81356140a3613fe482615670565b8181528460208386010111156140b7578283fd5b816020850160208301379081016020019190915292915050565b600082601f8301126140e1578081fd5b81516140ef613fe482615670565b818152846020838601011115614103578283fd5b61411482602083016020870161582d565b949350505050565b600060c0828403121561412d578081fd5b61413760c0615624565b9050815181526020820151602082015260408201516001600160401b038082111561416157600080fd5b61416d85838601614030565b6040840152606084015160608401526080840151608084015260a084015191508082111561419a57600080fd5b506141a7848285016140d1565b60a08301525092915050565b60006101008083850312156141c6578182fd5b6141cf81615624565b9150506141db82614283565b81526141e960208301614297565b60208201526141fa60408301614297565b604082015261420b606083016142ae565b606082015261421c608083016142ae565b608082015260a08201356001600160401b038082111561423b57600080fd5b61424785838601614085565b60a084015260c084013560c084015260e084013591508082111561426a57600080fd5b5061427784828501613fc4565b60e08301525092915050565b803563ffffffff81168114612f8f57600080fd5b80356001600160401b0381168114612f8f57600080fd5b80356001600160581b0381168114612f8f57600080fd5b6000602082840312156142d6578081fd5b8135613267816158e0565b6000602082840312156142f2578081fd5b8151613267816158e0565b6000806040838503121561430f578081fd5b825161431a816158e0565b6020939093015192949293505050565b60006020828403121561433b578081fd5b8151613267816158f5565b60008060408385031215614358578182fd5b825161431a816158f5565b600060208284031215614374578081fd5b5051919050565b60006020828403121561438c578081fd5b81516001600160e01b031981168114613267578182fd5b600080604083850312156143b5578182fd5b82356143c0816158e0565b915060208301356143d0816158e0565b809150509250929050565b600080600080608085870312156143f0578182fd5b84356143fb816158e0565b9350602085013561440b816158e0565b925060408501356001600160401b03811115614425578283fd5b61443187828801614085565b9250506060850135614442816158e0565b939692955090935050565b600080600060608486031215614461578081fd5b833561446c816158e0565b9250602084013561447c816158e0565b915060408401356001600160401b03811115614496578182fd5b6144a2868287016141b3565b9150509250925092565b600080604083850312156144be578182fd5b82356144c9816158e0565b946020939093013593505050565b6000806000606084860312156144eb578081fd5b83356144f6816158e0565b925060208401359150604084013561450d816158e0565b809150509250925092565b600080600080600080600080610100898b031215614534578586fd5b883561453f816158e0565b9750602089013596506040890135614556816158f5565b9550606089013594506080890135935060a0890135925060c0890135915060e08901356001600160401b0381111561458c578182fd5b6145988b828c016141b3565b9150509295985092959890939650565b60008060008060008060c087890312156145c0578384fd5b86356145cb816158e0565b9550602087013594506040870135935060608701356145e9816158e0565b925060808701356001600160401b0380821115614604578384fd5b6146108a838b016141b3565b935060a0890135915080821115614625578283fd5b5061463289828a01614085565b9150509295509295509295565b600080600060608486031215614653578081fd5b833561465e816158e0565b92506020840135915060408401356001600160401b0381111561467f578182fd5b6144a286828701614085565b60008060006060848603121561469f578081fd5b83356146aa816158e0565b92506020840135915060408401356001600160401b03811115614496578182fd5b600080600080608085870312156146e0578182fd5b84356146eb816158e0565b93506020850135925060408501356001600160401b038082111561470d578384fd5b614719888389016141b3565b9350606087013591508082111561472e578283fd5b5061473b878288016141b3565b91505092959194509250565b60008060006060848603121561475b578081fd5b8335614766816158e0565b95602085013595506040909401359392505050565b60008060008060808587031215614790578182fd5b843561479b816158e0565b966020860135965060408601359560600135945092505050565b6000602082840312156147c6578081fd5b815160078110613267578182fd5b6000602082840312156147e5578081fd5b815160028110613267578182fd5b600060208284031215614804578081fd5b815160068110613267578182fd5b600060208284031215614823578081fd5b81516001600160401b0380821115614839578283fd5b9083019060a0828603121561484c578283fd5b60405160a081018181108382111715614867576148676158ca565b8060405250825181526020830151602082015261488660408401613fb9565b604082015260608301518281111561489c578485fd5b6148a88782860161411c565b6060830152506080830151828111156148bf578485fd5b6148cb878286016140d1565b60808301525095945050505050565b6001600160a01b03169052565b6000815180845260208085019450808401835b83811015614916578151875295820195908201906001016148fa565b509495945050505050565b15159052565b6000815180845261493f81602086016020860161582d565b601f01601f19169290920160200192915050565b600061010063ffffffff83511684526001600160401b036020840151166020850152604083015161498760408601826149e9565b50606083015161499a60608601826149f6565b5060808301516149ad60808601826149f6565b5060a08301518160a08601526149c582860182614927565b91505060c083015160c085015260e083015184820360e086015261254c82826148e7565b6001600160401b03169052565b6001600160581b03169052565b918252602082015260400190565b60008251614a2381846020870161582d565b9190910192915050565b6001600160a01b0391909116815260200190565b6001600160a01b0392831681529116602082015260400190565b6001600160a01b039384168152919092166020820152604081019190915260600190565b6001600160a01b039390931683526020830191909152604082015260600190565b6001600160a01b03968716815260208101959095526001600160581b039384166040860152919092166060840152608083019190915290911660a082015260c00190565b901515815260200190565b90815260200190565b9283526001600160a01b03918216602084015216604082015260600190565b6000838252604060208301526141146040830184614927565b93845260ff9290921660208401526040830152606082015260800190565b6001600160a01b0394851681529290931660208301526040820152606081019190915260800190565b6001600160a01b039485168152928416602084015292166040820152606081019190915260800190565b600060018060a01b038088168352808716602084015260a06040840152614bcb60a0840187614927565b948116606084015292909216608090910152509392505050565b600060018060a01b03808616835260208186168185015260606040850152845160608501528085015160808501528160408601511660a08501526060850151915060a060c08501526101c08401825161010086015281830151610120860152604083015160c06101408701528181518084526101e0935083880191508385820289010193508483019250865b81811015614ca0576101df19898603018352614c8e858551614927565b94509285019291850191600101614c71565b505050506060830151610160860152608083015161018086015260a09092015184830360ff19016101a086015291614cd88184614927565b925050506080840151605f198483030160e0850152614cf78282614927565b979650505050505050565b6001600160a01b0384811682528316602082015260606040820181905260009061254c90830184614953565b6001600160a01b0386811682528516602082015260e060408201819052600090614d5a90830186614953565b905083606083015282516080830152602083015160a0830152604083015160c08301529695505050505050565b6001600160a01b03989098168852951515602088015260408701949094526001600160401b0392909216606086015260808501526001600160581b0390811660a08501521660c083015260e08201526101000190565b6001600160a01b03929092168252602082015260400190565b600061010060018060a01b038b16835289602084015288151560408401528760608401528660808401528560a08401528460c08401528060e0840152614e3e81840185614953565b9b9a5050505050505050505050565b600061010060018060a01b038b16835289602084015288151560408401528760608401528660808401526001600160401b03861660a08401528460c08401528060e0840152614e3e81840185614953565b6001600160a01b03929092168252602082015260606040820181905260009082015260800190565b6001600160a01b039390931683526001600160401b03919091166020830152604082015260600190565b6020810160078310614f0457614f046158b4565b91905290565b6020810160068310614f0457614f046158b4565b6000602082526132676020830184614927565b6020808252600990820152681c1c9bdbd98e98985960ba1b604082015260600190565b60208082526017908201527f66616c6c6261636b20766f7465206475706c6963617465000000000000000000604082015260600190565b6020808252600b908201526a696e76616c69642073696760a81b604082015260600190565b6020808252601190820152703737ba1030b1ba34bb329036b2b6b132b960791b604082015260600190565b602080825260159082015274726573756c742077656967687420746f6f206c6f7760581b604082015260600190565b60208082526026908201527f4f776e61626c653a206e6577206f776e657220697320746865207a65726f206160408201526564647265737360d01b606082015260800190565b60208082526010908201526f1d9bdd194e9b9bdd081cdd185c9d195960821b604082015260600190565b6020808252600c908201526b1d9bdd1a5b99c8195b99195960a21b604082015260600190565b60208082526018908201527f6e6f20726573756c7420617661696c61626c6520796574210000000000000000604082015260600190565b6020808252601390820152721ddc9bdb99c81cdd195c081c1c9bdd9a591959606a1b604082015260600190565b60208082526018908201527f736e617073686f7420626c6f636b20696e206675747572650000000000000000604082015260600190565b60208082526010908201526f1c99595b9d1c985b98de4819dd585c9960821b604082015260600190565b6020808252601b908201527f63616c6c207769746820796f75722064656c6567617465206b65790000000000604082015260600190565b6020808252601c908201527f70726f706f73616c20686173206e6f7420737461727465642079657400000000604082015260600190565b60208082526018908201527f626c6f636b206e756d6265722063616e6e6f7420626520300000000000000000604082015260600190565b6020808252600990820152686f6e6c793a6862726160b81b604082015260600190565b6020808252600a908201526937b7363ca6b2b6b132b960b11b604082015260600190565b6020808252818101527f4f776e61626c653a2063616c6c6572206973206e6f7420746865206f776e6572604082015260600190565b6020808252601290820152711a5b99195e081bdd5d081bd988189bdd5b9960721b604082015260600190565b6020808252601690820152751cdd195c08185b1c9958591e481c995c5d595cdd195960521b604082015260600190565b6020808252601490820152736e6f7468696e6720746f206368616c6c656e676560601b604082015260600190565b6020808252601c908201527f6f74686572207374657020616c72656164792072657175657374656400000000604082015260600190565b6020808252601590820152746772616365706572696f642066696e69736865642160581b604082015260600190565b6020808252600f908201526e6f6e6c79206669727374206e6f646560881b604082015260600190565b6020808252600c908201526b19dc9858d9481c195c9a5bd960a21b604082015260600190565b6020808252600f908201526e1b9bc81cdd195c081c995c5d595cdd608a1b604082015260600190565b6020808252601690820152751cda1bdd5b190818994819dc9858d9481c195c9a5bd960521b604082015260600190565b6020808252600a90820152696e6f20726573756c742160b01b604082015260600190565b6020808252601b908201527f766f74653a6e6f745265616479546f5375626d6974526573756c740000000000604082015260600190565b6020808252600f908201526e6e6f7420636f6e736563757469766560881b604082015260600190565b6020808252600b908201526a37b7363ca0b230b83a32b960a91b604082015260600190565b60208082526019908201527f736e617073686f7420636f6e76657273696f6e206572726f7200000000000000604082015260600190565b6020808252600e908201526d3737a0b1ba34bb32a6b2b6b132b960911b604082015260600190565b81518152602080830151610160830191615542908401826148da565b5060408301516040830152606083015160608301526080830151608083015260a083015160a083015260c083015160c083015260e083015161558760e0840182614921565b506101008381015190830152610120808401516155a682850182614921565b505061014092830151919092015290565b9182526001600160a01b0316602082015260400190565b6001600160401b03998a16815297151560208901529515156040880152606087019490945291909516608085015260a084019490945260c083019390935260e08201929092526101008101919091526101200190565b6040518181016001600160401b0381118282101715615645576156456158ca565b604052919050565b60006001600160401b03821115615666576156666158ca565b5060209081020190565b60006001600160401b03821115615689576156896158ca565b50601f01601f191660200190565b600082198211156156aa576156aa615888565b500190565b60006001600160401b038083168185168083038211156156d1576156d1615888565b01949350505050565b60006001600160581b038083168185168083038211156156d1576156d1615888565b60008261570b5761570b61589e565b500490565b80825b60018086116157225750613ee4565b81870482111561573457615734615888565b8086161561574157918102915b9490941c938002615713565b6000613267600019848460008261576657506001613267565b8161577357506000613267565b81600181146157895760028114615793576157c0565b6001915050613267565b60ff8411156157a4576157a4615888565b6001841b9150848211156157ba576157ba615888565b50613267565b5060208310610133831016604e8410600b84101617156157ee575081810a8381111561325f5761325f615888565b6157fb8484846001615710565b80860482111561580d5761580d615888565b02949350505050565b60008282101561582857615828615888565b500390565b60005b83811015615848578181015183820152602001615830565b838111156119d55750506000910152565b600060001982141561586d5761586d615888565b5060010190565b6000826158835761588361589e565b500690565b634e487b7160e01b600052601160045260246000fd5b634e487b7160e01b600052601260045260246000fd5b634e487b7160e01b600052602160045260246000fd5b634e487b7160e01b600052604160045260246000fd5b6001600160a01b0381168114612c9957600080fd5b8015158114612c9957600080fdfe2324ddf5530d2241228494f4f2da5f930e5133943b8dd5669a10fe763085bf8c5747c91a28cbec9252486e322546a68a0eb195f6f01518b0442207980ad3884ca2646970667358221220ad9cf72e6dfac4ad13deb4ed62789d534d308d219d04ae75f337d9ca641e3bdb64736f6c63430008000033",
  "linkReferences": {},
  "deployedLinkReferences": {}
}