{
  "_format": "hh-sol-artifact-1",
  "contractName": "OnboardingContract",
  "sourceName": "build/contracts/adapters/Onboarding.sol",
  "abi": [
    {
      "inputs": [
        {
          "internalType": "contract DaoRegistry",
          "name": "dao",
          "type": "address"
        },
        {
          "internalType": "address",
          "name": "unitsToMint",
          "type": "address"
        },
        {
          "internalType": "uint256",
          "name": "chunkSize",
          "type": "uint256"
        },
        {
          "internalType": "uint256",
          "name": "unitsPerChunk",
          "type": "uint256"
        },
        {
          "internalType": "uint256",
          "name": "maximumChunks",
          "type": "uint256"
        },
        {
          "internalType": "address",
          "name": "tokenAddr",
          "type": "address"
        }
      ],
      "name": "configureDao",
      "outputs": [],
      "stateMutability": "nonpayable",
      "type": "function"
    },
    {
      "inputs": [
        {
          "internalType": "contract DaoRegistry",
          "name": "dao",
          "type": "address"
        },
        {
          "internalType": "bytes32",
          "name": "proposalId",
          "type": "bytes32"
        }
      ],
      "name": "processProposal",
      "outputs": [],
      "stateMutability": "payable",
      "type": "function"
    },
    {
      "inputs": [
        {
          "internalType": "contract DaoRegistry",
          "name": "",
          "type": "address"
        },
        {
          "internalType": "bytes32",
          "name": "",
          "type": "bytes32"
        }
      ],
      "name": "proposals",
      "outputs": [
        {
          "internalType": "bytes32",
          "name": "id",
          "type": "bytes32"
        },
        {
          "internalType": "address",
          "name": "unitsToMint",
          "type": "address"
        },
        {
          "internalType": "uint160",
          "name": "amount",
          "type": "uint160"
        },
        {
          "internalType": "uint88",
          "name": "unitsRequested",
          "type": "uint88"
        },
        {
          "internalType": "address",
          "name": "token",
          "type": "address"
        },
        {
          "internalType": "address payable",
          "name": "applicant",
          "type": "address"
        }
      ],
      "stateMutability": "view",
      "type": "function"
    },
    {
      "inputs": [
        {
          "internalType": "contract DaoRegistry",
          "name": "dao",
          "type": "address"
        },
        {
          "internalType": "bytes32",
          "name": "proposalId",
          "type": "bytes32"
        },
        {
          "internalType": "address payable",
          "name": "applicant",
          "type": "address"
        },
        {
          "internalType": "address",
          "name": "tokenToMint",
          "type": "address"
        },
        {
          "internalType": "uint256",
          "name": "tokenAmount",
          "type": "uint256"
        },
        {
          "internalType": "bytes",
          "name": "data",
          "type": "bytes"
        }
      ],
      "name": "submitProposal",
      "outputs": [],
      "stateMutability": "nonpayable",
      "type": "function"
    },
    {
      "inputs": [
        {
          "internalType": "contract DaoRegistry",
          "name": "",
          "type": "address"
        },
        {
          "internalType": "address",
          "name": "",
          "type": "address"
        },
        {
          "internalType": "address",
          "name": "",
          "type": "address"
        }
      ],
      "name": "units",
      "outputs": [
        {
          "internalType": "uint88",
          "name": "",
          "type": "uint88"
        }
      ],
      "stateMutability": "view",
      "type": "function"
    }
  ],
  "bytecode": "0x608060405234801561001057600080fd5b50612c90806100206000396000f3fe60806040526004361061004a5760003560e01c80631e6f76721461004f5780632e88038d146100715780635cb75276146100a75780639573167d146100d9578063bbc8b5f2146100ec575b600080fd5b34801561005b57600080fd5b5061006f61006a36600461226e565b61010c565b005b34801561007d57600080fd5b5061009161008c366004612193565b6102c6565b60405161009e9190612af1565b60405180910390f35b3480156100b357600080fd5b506100c76100c2366004612243565b6102f2565b60405161009e969594939291906124a6565b61006f6100e7366004612243565b61034b565b3480156100f857600080fd5b5061006f6101073660046121dd565b610a93565b85600061011882610f91565b9050610123866111e2565b6101485760405162461bcd60e51b815260040161013f90612624565b60405180910390fd5b6101ee86898a6001600160a01b031663593e96b67fea0ca03c7adbe41dc655fec28a9209dc8e6e042f3d991a67765ba285b9cf73a06040518263ffffffff1660e01b81526004016101999190612467565b60206040518083038186803b1580156101b157600080fd5b505afa1580156101c5573d6000803e3d6000fd5b505050506040513d601f19601f820116820180604052508101906101e99190612132565b611229565b6000886001600160a01b031663fd310d29610229887fca5e51d871c2bd0fbb1f1e373766b041e8f8bc14987d5ac31c3115292d1338406113ba565b6040518263ffffffff1660e01b81526004016102459190612467565b60206040518083038186803b15801561025d57600080fd5b505afa158015610271573d6000803e3d6000fd5b505050506040513d601f19601f820116820180604052508101906102959190612132565b90506102a58989888a89866113ed565b506102b1898986611942565b506102bc8282611b37565b5050505050505050565b60016020908152600093845260408085208252928452828420905282529020546001600160581b031681565b60006020818152928152604080822090935290815220805460018201546002830154600384015460049094015492936001600160a01b039283169383831693600160a01b9093046001600160581b031692918216911686565b81600061035782610f91565b6001600160a01b0385166000908152602081815260408083208784529091529020805491925090841461039c5760405162461bcd60e51b815260040161013f9061278f565b60405163f941f69160e01b81526001600160a01b0386169063f941f691906103cb9087906002906004016124e5565b60206040518083038186803b1580156103e357600080fd5b505afa1580156103f7573d6000803e3d6000fd5b505050506040513d601f19601f8201168201806040525081019061041b919061214e565b156104385760405162461bcd60e51b815260040161013f906127f6565b60405163206f381f60e11b81526000906001600160a01b038716906340de703e90610467908890600401612467565b60206040518083038186803b15801561047f57600080fd5b505afa158015610493573d6000803e3d6000fd5b505050506040513d601f19601f820116820180604052508101906104b79190612132565b90506001600160a01b0381166104df5760405162461bcd60e51b815260040161013f90612aa1565b6040516376225e7360e01b81526000906001600160a01b038316906376225e7390610510908a908a9060040161244e565b602060405180830381600087803b15801561052a57600080fd5b505af115801561053e573d6000803e3d6000fd5b505050506040513d601f19601f82011682018060405250810190610562919061237a565b6040516330490e9160e01b81529091506001600160a01b038816906330490e9190610591908990600401612467565b600060405180830381600087803b1580156105ab57600080fd5b505af11580156105bf573d6000803e3d6000fd5b50600292506105cc915050565b8160058111156105ec57634e487b7160e01b600052602160045260246000fd5b1415610a015760018301546002840154600480860154604051632c9f4b5b60e11b81526001600160a01b0394851694600160a01b9094046001600160581b031693918216926000928d169163593e96b691610669917fea0ca03c7adbe41dc655fec28a9209dc8e6e042f3d991a67765ba285b9cf73a09101612467565b60206040518083038186803b15801561068157600080fd5b505afa158015610695573d6000803e3d6000fd5b505050506040513d601f19601f820116820180604052508101906106b99190612132565b604051630a51990b60e11b81529091506001600160a01b038216906314a33216906106e89087906004016123fc565b60206040518083038186803b15801561070057600080fd5b505afa158015610714573d6000803e3d6000fd5b505050506040513d601f19601f82011682018060405250810190610738919061214e565b6107545760405162461bcd60e51b815260040161013f90612902565b60405163036d74dd60e11b81526001600160a01b038216906306dae9ba90610786908e9086908990899060040161254e565b600060405180830381600087803b1580156107a057600080fd5b505af11580156107b4573d6000803e3d6000fd5b5050505060038701546001600160a01b03166108bd57806001600160a01b03166306dae9ba8860020160009054906101000a90046001600160a01b03166001600160a01b03168d61dead8b60030160009054906101000a90046001600160a01b03168c60020160009054906101000a90046001600160a01b03166040518663ffffffff1660e01b815260040161084d9493929190612578565b6000604051808303818588803b15801561086657600080fd5b505af115801561087a573d6000803e3d6000fd5b5050505060028801546001600160a01b031634111590506108b85760028701546108b8906108b1906001600160a01b031634612bbd565b3390611b46565b610975565b806001600160a01b03166306dae9ba8c61dead8a60030160009054906101000a90046001600160a01b03168b60020160009054906101000a90046001600160a01b03166040518563ffffffff1660e01b815260040161091f9493929190612578565b600060405180830381600087803b15801561093957600080fd5b505af115801561094d573d6000803e3d6000fd5b5050506002880154600389015461097592506001600160a01b03908116913391859116611be2565b6002870154600090600160a01b90046001600160581b03166109988d8786611c3a565b6109a29190612b05565b6001600160a01b038d8116600090815260016020908152604080832099841683529881528882209690921681529490529490922080546affffffffffffffffffffff19166001600160581b039095169490941790935550610a80915050565b6003816005811115610a2357634e487b7160e01b600052602160045260246000fd5b1480610a4e57506001816005811115610a4c57634e487b7160e01b600052602160045260246000fd5b145b15610a68573415610a6357610a633334611b46565b610a80565b60405162461bcd60e51b815260040161013f90612859565b505050610a8d8282611b37565b50505050565b6040516368c18beb60e01b815286906001600160a01b038216906368c18beb90610ac19033906004016123fc565b60206040518083038186803b158015610ad957600080fd5b505afa158015610aed573d6000803e3d6000fd5b505050506040513d601f19601f82011682018060405250810190610b11919061214e565b80610b205750610b2081611c7b565b610b3c5760405162461bcd60e51b815260040161013f90612acc565b600085118015610b5257506001600160581b0385105b610b6e5760405162461bcd60e51b815260040161013f9061282d565b600083118015610b8457506001600160581b0383105b610ba05760405162461bcd60e51b815260040161013f906128d2565b600084118015610bb657506001600160581b0384105b610bd25760405162461bcd60e51b815260040161013f906127c6565b6001600160581b03610be48585612b6f565b10610c015760405162461bcd60e51b815260040161013f90612960565b866001600160a01b031663da0f6c70610c3a887f4db46213baf202d5a8ce8e25a9de875449eb3e84a2ada17e34244b3195e199fd6113ba565b856040518363ffffffff1660e01b8152600401610c58929190612517565b600060405180830381600087803b158015610c7257600080fd5b505af1158015610c86573d6000803e3d6000fd5b50505050866001600160a01b031663da0f6c70610cc3887fa4de78b7a2e3ac2c4deb7d71d777f1d6eca4a7c95700e5cf48246bd8fef00f3d6113ba565b876040518363ffffffff1660e01b8152600401610ce1929190612517565b600060405180830381600087803b158015610cfb57600080fd5b505af1158015610d0f573d6000803e3d6000fd5b50505050866001600160a01b031663da0f6c70610d4c887f6c6a4284369e63b6d1ce10e2c6430ce3e9fdd08e44e4189708679315f8a905336113ba565b866040518363ffffffff1660e01b8152600401610d6a929190612517565b600060405180830381600087803b158015610d8457600080fd5b505af1158015610d98573d6000803e3d6000fd5b50505050866001600160a01b0316633b4f921a610dd5887fca5e51d871c2bd0fbb1f1e373766b041e8f8bc14987d5ac31c3115292d1338406113ba565b846040518363ffffffff1660e01b8152600401610df3929190612470565b600060405180830381600087803b158015610e0d57600080fd5b505af1158015610e21573d6000803e3d6000fd5b5050604051632c9f4b5b60e11b8152600092506001600160a01b038a16915063593e96b690610e74907fea0ca03c7adbe41dc655fec28a9209dc8e6e042f3d991a67765ba285b9cf73a090600401612467565b60206040518083038186803b158015610e8c57600080fd5b505afa158015610ea0573d6000803e3d6000fd5b505050506040513d601f19601f82011682018060405250810190610ec49190612132565b6040516358d50c5560e01b81529091506001600160a01b038216906358d50c5590610ef5908b908b90600401612410565b600060405180830381600087803b158015610f0f57600080fd5b505af1158015610f23573d6000803e3d6000fd5b50506040516302863e4360e51b81526001600160a01b03841692506350c7c8609150610f55908b908790600401612410565b600060405180830381600087803b158015610f6f57600080fd5b505af1158015610f83573d6000803e3d6000fd5b505050505050505050505050565b610f996120ef565b5a81600001818152505043826001600160a01b031663b21634826040518163ffffffff1660e01b815260040160206040518083038186803b158015610fdd57600080fd5b505afa158015610ff1573d6000803e3d6000fd5b505050506040513d601f19601f820116820180604052508101906110159190612399565b14156110335760405162461bcd60e51b815260040161013f90612765565b816001600160a01b03166310fdb0a26040518163ffffffff1660e01b8152600401600060405180830381600087803b15801561106e57600080fd5b505af1158015611082573d6000803e3d6000fd5b50506040516372c6838f60e01b8152600092506001600160a01b03851691506372c6838f906110d5907f1f2fd42ad6a6cacd573c4b212beb7a4e2499ad45d742a65337097f130e71daff90600401612467565b60206040518083038186803b1580156110ed57600080fd5b505afa158015611101573d6000803e3d6000fd5b505050506040513d601f19601f820116820180604052508101906111259190612132565b90506001600160a01b03811661114157600060208301526111dc565b6001600160a01b0381166060830181905282516040516343a8a3f160e01b8152600092839290916343a8a3f19161117d9189919060040161244e565b604080518083038186803b15801561119457600080fd5b505afa1580156111a8573d6000803e3d6000fd5b505050506040513d601f19601f820116820180604052508101906111cc9190612168565b9015156020860152604085015250505b50919050565b60006001600160a01b03821661dead1480159061120a57506001600160a01b03821661babe14155b801561122157506001600160a01b038216614bec14155b90505b919050565b604051636e494fa560e11b81526001600160a01b0383169063dc929f4a906112559086906004016123fc565b600060405180830381600087803b15801561126f57600080fd5b505af1158015611283573d6000803e3d6000fd5b505050506001600160a01b0383166112ad5760405162461bcd60e51b815260040161013f90612735565b6001600160a01b038116156113b557604051633de222bb60e21b81526001600160a01b0382169063f7888aec906112ee90869063decafbad90600401612410565b60206040518083038186803b15801561130657600080fd5b505afa15801561131a573d6000803e3d6000fd5b505050506040513d601f19601f8201168201806040525081019061133e9190612132565b6001600160a01b03166113b55760405163036d74dd60e11b81526001600160a01b038216906306dae9ba90611382908590879063decafbad9060019060040161254e565b600060405180830381600087803b15801561139c57600080fd5b505af11580156113b0573d6000803e3d6000fd5b505050505b505050565b600082826040516020016113cf92919061244e565b60405160208183030381529060405280519060200120905092915050565b6040805160c081018252600080825260208201819052918101829052606081018290526080810182905260a081018290526001600160a01b038816639283ae3a611457887fa4de78b7a2e3ac2c4deb7d71d777f1d6eca4a7c95700e5cf48246bd8fef00f3d6113ba565b6040518263ffffffff1660e01b81526004016114739190612467565b60206040518083038186803b15801561148b57600080fd5b505afa15801561149f573d6000803e3d6000fd5b505050506040513d601f19601f820116820180604052508101906114c39190612399565b6001600160581b03168082526114eb5760405162461bcd60e51b815260040161013f9061289b565b8051611500906001600160581b031685612b30565b6001600160581b03166020820181905261152c5760405162461bcd60e51b815260040161013f90612932565b876001600160a01b0316639283ae3a611565887f6c6a4284369e63b6d1ce10e2c6430ce3e9fdd08e44e4189708679315f8a905336113ba565b6040518263ffffffff1660e01b81526004016115819190612467565b60206040518083038186803b15801561159957600080fd5b505afa1580156115ad573d6000803e3d6000fd5b505050506040513d601f19601f820116820180604052508101906115d19190612399565b6001600160581b0316604082018190526115fd5760405162461bcd60e51b815260040161013f90612a20565b8051602082015161160e9190612b8e565b6001600160581b031660a0820152604081015160208201516116309190612b8e565b6001600160581b03166060820181905261164b898588611c3a565b6116559190612b05565b6001600160581b031660808201526001600160a01b038816639283ae3a61169c887f4db46213baf202d5a8ce8e25a9de875449eb3e84a2ada17e34244b3195e199fd6113ba565b6040518263ffffffff1660e01b81526004016116b89190612467565b60206040518083038186803b1580156116d057600080fd5b505afa1580156116e4573d6000803e3d6000fd5b505050506040513d601f19601f820116820180604052508101906117089190612399565b81604001516001600160581b031682608001516117259190612b44565b6bffffffffffffffffffffffff16106117505760405162461bcd60e51b815260040161013f9061298c565b6040518060c00160405280888152602001876001600160a01b031681526020018260a001516001600160a01b0316815260200182606001516001600160581b03168152602001846001600160a01b03168152602001866001600160a01b03168152506000808a6001600160a01b03166001600160a01b0316815260200190815260200160002060008981526020019081526020016000206000820151816000015560208201518160010160006101000a8154816001600160a01b0302191690836001600160a01b0316021790555060408201518160020160006101000a8154816001600160a01b0302191690836001600160a01b0316021790555060608201518160020160146101000a8154816001600160581b0302191690836001600160581b0316021790555060808201518160030160006101000a8154816001600160a01b0302191690836001600160a01b0316021790555060a08201518160040160006101000a8154816001600160a01b0302191690836001600160a01b03160217905550905050876001600160a01b031663b73dc389886040518263ffffffff1660e01b81526004016119019190612467565b600060405180830381600087803b15801561191b57600080fd5b505af115801561192f573d6000803e3d6000fd5b5050505060a00151979650505050505050565b6040516317ba7d8560e01b81526000906001600160a01b038516906317ba7d8590611991907f0e49311626a26ba5be58a3b13d239908e80ce0dffdd5c50bf1d9c82ff35d1ab390600401612467565b60206040518083038186803b1580156119a957600080fd5b505afa1580156119bd573d6000803e3d6000fd5b505050506040513d601f19601f820116820180604052508101906119e19190612132565b90506000816001600160a01b031663966917d0863086336040518563ffffffff1660e01b8152600401611a1794939291906125a3565b602060405180830381600087803b158015611a3157600080fd5b505af1158015611a45573d6000803e3d6000fd5b505050506040513d601f19601f82011682018060405250810190611a699190612132565b6040516344b574dd60e11b81529091506001600160a01b0386169063896ae9ba90611a9c90879085908790600401612487565b600060405180830381600087803b158015611ab657600080fd5b505af1158015611aca573d6000803e3d6000fd5b50506040516302b0974d60e41b81526001600160a01b0385169250632b0974d09150611afe908890889088906004016125e1565b600060405180830381600087803b158015611b1857600080fd5b505af1158015611b2c573d6000803e3d6000fd5b505050505050505050565b611b42828233611e8c565b5050565b80471015611b665760405162461bcd60e51b815260040161013f906126b8565b6000826001600160a01b031682604051611b7f906123f9565b60006040518083038185875af1925050503d8060008114611bbc576040519150601f19603f3d011682016040523d82523d6000602084013e611bc1565b606091505b50509050806113b55760405162461bcd60e51b815260040161013f9061265b565b610a8d846323b872dd60e01b858585604051602401611c039392919061242a565b60408051601f198184030181529190526020810180516001600160e01b03166001600160e01b031990931692909217909152611f4a565b6001600160a01b03808416600090815260016020908152604080832086851684528252808320938516835292905220546001600160581b03165b9392505050565b600080826001600160a01b031663c19d93fb6040518163ffffffff1660e01b815260040160206040518083038186803b158015611cb757600080fd5b505afa158015611ccb573d6000803e3d6000fd5b505050506040513d601f19601f82011682018060405250810190611cef919061235b565b6001811115611d0e57634e487b7160e01b600052602160045260246000fd5b1480156112215750816001600160a01b031663c67143666040518163ffffffff1660e01b815260040160206040518083038186803b158015611d4f57600080fd5b505afa158015611d63573d6000803e3d6000fd5b505050506040513d601f19601f82011682018060405250810190611d879190612399565b1580611e0a575060405163288c314960e21b81526001600160a01b0383169063a230c52490611dba9033906004016123fc565b60206040518083038186803b158015611dd257600080fd5b505afa158015611de6573d6000803e3d6000fd5b505050506040513d601f19601f82011682018060405250810190611e0a919061214e565b8061122157506040516368c18beb60e01b81526001600160a01b038316906368c18beb90611e3c9033906004016123fc565b60206040518083038186803b158015611e5457600080fd5b505afa158015611e68573d6000803e3d6000fd5b505050506040513d601f19601f82011682018060405250810190611221919061214e565b816020015115611f0f5781606001516001600160a01b0316635e5eb01384835a8651611eb89190612bbd565b86604001516040518563ffffffff1660e01b8152600401611edc9493929190612525565b600060405180830381600087803b158015611ef657600080fd5b505af1158015611f0a573d6000803e3d6000fd5b505050505b826001600160a01b031663d4f7af436040518163ffffffff1660e01b8152600401600060405180830381600087803b15801561139c57600080fd5b6000611f9f826040518060400160405280602081526020017f5361666545524332303a206c6f772d6c6576656c2063616c6c206661696c6564815250856001600160a01b0316611fd99092919063ffffffff16565b8051909150156113b55780806020019051810190611fbd919061214e565b6113b55760405162461bcd60e51b815260040161013f90612a57565b6060611fe88484600085611ff0565b949350505050565b6060824710156120125760405162461bcd60e51b815260040161013f906126ef565b61201b856120b0565b6120375760405162461bcd60e51b815260040161013f906129e9565b600080866001600160a01b0316858760405161205391906123dd565b60006040518083038185875af1925050503d8060008114612090576040519150601f19603f3d011682016040523d82523d6000602084013e612095565b606091505b50915091506120a58282866120b6565b979650505050505050565b3b151590565b606083156120c5575081611c74565b8251156120d55782518084602001fd5b8160405162461bcd60e51b815260040161013f9190612611565b6040518060800160405280600081526020016000151581526020016000815260200160006001600160a01b031681525090565b8051801515811461122457600080fd5b600060208284031215612143578081fd5b8151611c7481612c42565b60006020828403121561215f578081fd5b611c7482612122565b6000806040838503121561217a578081fd5b61218383612122565b9150602083015190509250929050565b6000806000606084860312156121a7578081fd5b83356121b281612c42565b925060208401356121c281612c42565b915060408401356121d281612c42565b809150509250925092565b60008060008060008060c087890312156121f5578182fd5b863561220081612c42565b9550602087013561221081612c42565b945060408701359350606087013592506080870135915060a087013561223581612c42565b809150509295509295509295565b60008060408385031215612255578182fd5b823561226081612c42565b946020939093013593505050565b60008060008060008060c08789031215612286578182fd5b863561229181612c42565b9550602087810135955060408801356122a981612c42565b945060608801356122b981612c42565b93506080880135925060a088013567ffffffffffffffff808211156122dc578384fd5b818a0191508a601f8301126122ef578384fd5b81358181111561230157612301612c2c565b604051601f8201601f191681018501838111828210171561232457612324612c2c565b60405281815283820185018d101561233a578586fd5b81858501868301378585838301015280955050505050509295509295509295565b60006020828403121561236c578081fd5b815160028110611c74578182fd5b60006020828403121561238b578081fd5b815160068110611c74578182fd5b6000602082840312156123aa578081fd5b5051919050565b600081518084526123c9816020860160208601612bd4565b601f01601f19169290920160200192915050565b600082516123ef818460208701612bd4565b9190910192915050565b90565b6001600160a01b0391909116815260200190565b6001600160a01b0392831681529116602082015260400190565b6001600160a01b039384168152919092166020820152604081019190915260600190565b6001600160a01b03929092168252602082015260400190565b90815260200190565b9182526001600160a01b0316602082015260400190565b9283526001600160a01b03918216602084015216604082015260600190565b9586526001600160a01b03948516602087015292841660408601526001600160581b03919091166060850152821660808401521660a082015260c00190565b828152604081016003831061250a57634e487b7160e01b600052602160045260246000fd5b8260208301529392505050565b918252602082015260400190565b6001600160a01b0394851681529290931660208301526040820152606081019190915260800190565b6001600160a01b039485168152928416602084015292166040820152606081019190915260800190565b6001600160a01b03948516815292841660208401529083166040830152909116606082015260800190565b600060018060a01b0380871683528086166020840152608060408401526125cd60808401866123b1565b915080841660608401525095945050505050565b600060018060a01b03851682528360208301526060604083015261260860608301846123b1565b95945050505050565b600060208252611c7460208301846123b1565b6020808252601d908201527f6170706c6963616e742069732072657365727665642061646472657373000000604082015260600190565b6020808252603a908201527f416464726573733a20756e61626c6520746f2073656e642076616c75652c207260408201527f6563697069656e74206d61792068617665207265766572746564000000000000606082015260800190565b6020808252601d908201527f416464726573733a20696e73756666696369656e742062616c616e6365000000604082015260600190565b60208082526026908201527f416464726573733a20696e73756666696369656e742062616c616e636520666f6040820152651c8818d85b1b60d21b606082015260800190565b602080825260169082015275696e76616c6964206d656d626572206164647265737360501b604082015260600190565b60208082526010908201526f1c99595b9d1c985b98de4819dd585c9960821b604082015260600190565b60208082526017908201527f70726f706f73616c20646f6573206e6f74206578697374000000000000000000604082015260600190565b6020808252601690820152751d5b9a5d1cd4195c90da1d5b9ace8e9a5b9d985b1a5960521b604082015260600190565b6020808252601a908201527f70726f706f73616c20616c72656164792070726f636573736564000000000000604082015260600190565b60208082526012908201527118da1d5b9ad4da5e994e8e9a5b9d985b1a5960721b604082015260600190565b60208082526022908201527f70726f706f73616c20686173206e6f74206265656e20766f746564206f6e2079604082015261195d60f21b606082015260800190565b60208082526018908201527f636f6e666967206368756e6b53697a65206d697373696e670000000000000000604082015260600190565b6020808252601690820152751b585e1a5b5d5b50da1d5b9adcce8e9a5b9d985b1a5960521b604082015260600190565b60208082526016908201527569742063616e206f6e6c79206d696e7420756e69747360501b604082015260600190565b6020808252601490820152736e6f742073756666696369656e742066756e647360601b604082015260600190565b602080825260129082015271706f74656e7469616c206f766572666c6f7760701b604082015260600190565b6020808252603a908201527f746f74616c20756e69747320666f722074686973206d656d626572206d75737460408201527f206265206c6f776572207468616e20746865206d6178696d756d000000000000606082015260800190565b6020808252601d908201527f416464726573733a2063616c6c20746f206e6f6e2d636f6e7472616374000000604082015260600190565b6020808252601c908201527f636f6e66696720756e6974735065724368756e6b206d697373696e6700000000604082015260600190565b6020808252602a908201527f5361666545524332303a204552433230206f7065726174696f6e20646964206e6040820152691bdd081cdd58d8d9595960b21b606082015260800190565b6020808252601190820152701859185c1d195c881b9bdd08199bdd5b99607a1b604082015260600190565b6020808252600b908201526a37b7363ca0b230b83a32b960a91b604082015260600190565b6001600160581b0391909116815260200190565b60006001600160581b03808316818516808303821115612b2757612b27612c00565b01949350505050565b600082612b3f57612b3f612c16565b500490565b60006bffffffffffffffffffffffff80841680612b6357612b63612c16565b92169190910492915050565b6000816000190483118215151615612b8957612b89612c00565b500290565b60006001600160581b0380831681851681830481118215151615612bb457612bb4612c00565b02949350505050565b600082821015612bcf57612bcf612c00565b500390565b60005b83811015612bef578181015183820152602001612bd7565b83811115610a8d5750506000910152565b634e487b7160e01b600052601160045260246000fd5b634e487b7160e01b600052601260045260246000fd5b634e487b7160e01b600052604160045260246000fd5b6001600160a01b0381168114612c5757600080fd5b5056fea2646970667358221220748d6f7b63b695fe0af6ad4a79e84b997bd2dee70daf464d4a73f7ec163c2b2764736f6c63430008000033",
  "linkReferences": {},
  "deployedLinkReferences": {}
}