{
  "_format": "hh-sol-artifact-1",
  "contractName": "TributeNFTContract",
  "sourceName": "build/contracts/adapters/TributeNFT.sol",
  "abi": [
    {
      "inputs": [
        {
          "internalType": "contract DaoRegistry",
          "name": "dao",
          "type": "address"
        },
        {
          "internalType": "address",
          "name": "tokenAddrToMint",
          "type": "address"
        }
      ],
      "name": "configureDao",
      "outputs": [],
      "stateMutability": "nonpayable",
      "type": "function"
    },
    {
      "inputs": [
        {
          "internalType": "address",
          "name": "",
          "type": "address"
        },
        {
          "internalType": "address",
          "name": "",
          "type": "address"
        },
        {
          "internalType": "uint256[]",
          "name": "",
          "type": "uint256[]"
        },
        {
          "internalType": "uint256[]",
          "name": "",
          "type": "uint256[]"
        },
        {
          "internalType": "bytes",
          "name": "",
          "type": "bytes"
        }
      ],
      "name": "onERC1155BatchReceived",
      "outputs": [
        {
          "internalType": "bytes4",
          "name": "",
          "type": "bytes4"
        }
      ],
      "stateMutability": "pure",
      "type": "function"
    },
    {
      "inputs": [
        {
          "internalType": "address",
          "name": "",
          "type": "address"
        },
        {
          "internalType": "address",
          "name": "from",
          "type": "address"
        },
        {
          "internalType": "uint256",
          "name": "id",
          "type": "uint256"
        },
        {
          "internalType": "uint256",
          "name": "value",
          "type": "uint256"
        },
        {
          "internalType": "bytes",
          "name": "data",
          "type": "bytes"
        }
      ],
      "name": "onERC1155Received",
      "outputs": [
        {
          "internalType": "bytes4",
          "name": "",
          "type": "bytes4"
        }
      ],
      "stateMutability": "nonpayable",
      "type": "function"
    },
    {
      "inputs": [
        {
          "internalType": "address",
          "name": "",
          "type": "address"
        },
        {
          "internalType": "address",
          "name": "from",
          "type": "address"
        },
        {
          "internalType": "uint256",
          "name": "tokenId",
          "type": "uint256"
        },
        {
          "internalType": "bytes",
          "name": "data",
          "type": "bytes"
        }
      ],
      "name": "onERC721Received",
      "outputs": [
        {
          "internalType": "bytes4",
          "name": "",
          "type": "bytes4"
        }
      ],
      "stateMutability": "nonpayable",
      "type": "function"
    },
    {
      "inputs": [
        {
          "internalType": "address",
          "name": "",
          "type": "address"
        },
        {
          "internalType": "bytes32",
          "name": "",
          "type": "bytes32"
        }
      ],
      "name": "proposals",
      "outputs": [
        {
          "internalType": "bytes32",
          "name": "id",
          "type": "bytes32"
        },
        {
          "internalType": "address",
          "name": "applicant",
          "type": "address"
        },
        {
          "internalType": "address",
          "name": "nftAddr",
          "type": "address"
        },
        {
          "internalType": "uint256",
          "name": "nftTokenId",
          "type": "uint256"
        },
        {
          "internalType": "uint256",
          "name": "requestAmount",
          "type": "uint256"
        }
      ],
      "stateMutability": "view",
      "type": "function"
    },
    {
      "inputs": [
        {
          "internalType": "contract DaoRegistry",
          "name": "dao",
          "type": "address"
        },
        {
          "internalType": "bytes32",
          "name": "proposalId",
          "type": "bytes32"
        },
        {
          "internalType": "address",
          "name": "applicant",
          "type": "address"
        },
        {
          "internalType": "address",
          "name": "nftAddr",
          "type": "address"
        },
        {
          "internalType": "uint256",
          "name": "nftTokenId",
          "type": "uint256"
        },
        {
          "internalType": "uint256",
          "name": "requestAmount",
          "type": "uint256"
        },
        {
          "internalType": "bytes",
          "name": "data",
          "type": "bytes"
        }
      ],
      "name": "submitProposal",
      "outputs": [],
      "stateMutability": "nonpayable",
      "type": "function"
    },
    {
      "inputs": [
        {
          "internalType": "bytes4",
          "name": "interfaceID",
          "type": "bytes4"
        }
      ],
      "name": "supportsInterface",
      "outputs": [
        {
          "internalType": "bool",
          "name": "",
          "type": "bool"
        }
      ],
      "stateMutability": "pure",
      "type": "function"
    }
  ],
  "bytecode": "0x608060405234801561001057600080fd5b506122d2806100206000396000f3fe608060405234801561001057600080fd5b506004361061007d5760003560e01c80639f2a360b1161005b5780639f2a360b146100ef578063bc197c8114610104578063c9c35c0814610117578063f23a6e611461012a5761007d565b806301ffc9a714610082578063150b7a02146100ab5780635cb75276146100cb575b600080fd5b610095610090366004611b90565b61013d565b6040516100a29190611e70565b60405180910390f35b6100be6100b9366004611a35565b610191565b6040516100a29190611f04565b6100de6100d9366004611b20565b61044e565b6040516100a2959493929190611ea3565b6101026100fd366004611bf0565b610491565b005b6100be61011236600461197a565b6108b6565b610102610125366004611bb8565b6108d0565b6100be610138366004611aa6565b610a81565b60006001600160e01b031982166301ffc9a760e01b148061016e57506001600160e01b0319821663f23a6e6160e01b145b8061018957506001600160e01b03198216630a85bd0160e11b145b90505b919050565b6000806101a083850185611d13565b905060006101b18260000151610cc8565b90506000806101c884600001518560200151610f19565b91509150878260030154146101f85760405162461bcd60e51b81526004016101ef906121fe565b60405180910390fd5b60028201546001600160a01b031633146102245760405162461bcd60e51b81526004016101ef90612100565b33600282600581111561024757634e487b7160e01b600052602160045260246000fd5b14156103c7578451604051632c9f4b5b60e11b81526000916001600160a01b03169063593e96b69061029d907f7dd481eb4b63b94bb55e6b98aabb06c3b8484f82a4d656d6bca0b0cf9b446be090600401611e7b565b60206040518083038186803b1580156102b557600080fd5b505afa1580156102c9573d6000803e3d6000fd5b505050506040513d601f19601f820116820180604052508101906102ed9190611957565b600385015460405163095ea7b360e01b81529192506001600160a01b0384169163095ea7b39161032291859190600401611e57565b600060405180830381600087803b15801561033c57600080fd5b505af1158015610350573d6000803e3d6000fd5b505087516002870154600388015460405163c8fea2fb60e01b81526001600160a01b03808816965063c8fea2fb955061038f9493169190600401611dfb565b600060405180830381600087803b1580156103a957600080fd5b505af11580156103bd573d6000803e3d6000fd5b505050505061042a565b604051632142170760e11b81526001600160a01b038216906342842e0e906103f79030908e908e90600401611dfb565b600060405180830381600087803b15801561041157600080fd5b505af1158015610425573d6000803e3d6000fd5b505050505b845161043790858c6113de565b50630a85bd0160e11b9a9950505050505050505050565b60006020818152928152604080822090935290815220805460018201546002830154600384015460049094015492936001600160a01b0392831693929091169185565b86600061049d82610cc8565b90506104a8876114b9565b6104c45760405162461bcd60e51b81526004016101ef90611fda565b60405163b73dc38960e01b81526001600160a01b038a169063b73dc389906104f0908b90600401611e7b565b600060405180830381600087803b15801561050a57600080fd5b505af115801561051e573d6000803e3d6000fd5b50506040516317ba7d8560e01b8152600092506001600160a01b038c1691506317ba7d8590610571907f0e49311626a26ba5be58a3b13d239908e80ce0dffdd5c50bf1d9c82ff35d1ab390600401611e7b565b60206040518083038186803b15801561058957600080fd5b505afa15801561059d573d6000803e3d6000fd5b505050506040513d601f19601f820116820180604052508101906105c19190611957565b90506000816001600160a01b031663966917d08c3088336040518563ffffffff1660e01b81526004016105f79493929190611f6c565b602060405180830381600087803b15801561061157600080fd5b505af1158015610625573d6000803e3d6000fd5b505050506040513d601f19601f820116820180604052508101906106499190611957565b6040516344b574dd60e11b81529091506001600160a01b038c169063896ae9ba9061067c908d9085908790600401611e84565b600060405180830381600087803b15801561069657600080fd5b505af11580156106aa573d6000803e3d6000fd5b50505050610754898c8d6001600160a01b031663593e96b67fea0ca03c7adbe41dc655fec28a9209dc8e6e042f3d991a67765ba285b9cf73a06040518263ffffffff1660e01b81526004016106ff9190611e7b565b60206040518083038186803b15801561071757600080fd5b505afa15801561072b573d6000803e3d6000fd5b505050506040513d601f19601f8201168201806040525081019061074f9190611957565b6114fa565b6040516302b0974d60e41b81526001600160a01b03831690632b0974d090610784908e908e908a90600401611faa565b600060405180830381600087803b15801561079e57600080fd5b505af11580156107b2573d6000803e3d6000fd5b505050506040518060a001604052808b81526020018a6001600160a01b03168152602001896001600160a01b03168152602001888152602001878152506000808d6001600160a01b03166001600160a01b0316815260200190815260200160002060008c81526020019081526020016000206000820151816000015560208201518160010160006101000a8154816001600160a01b0302191690836001600160a01b0316021790555060408201518160020160006101000a8154816001600160a01b0302191690836001600160a01b03160217905550606082015181600301556080820151816004015590505050506108ab8282611672565b505050505050505050565b600060405162461bcd60e51b81526004016101ef906120d9565b6040516368c18beb60e01b815282906001600160a01b038216906368c18beb906108fe903390600401611dcd565b60206040518083038186803b15801561091657600080fd5b505afa15801561092a573d6000803e3d6000fd5b505050506040513d601f19601f8201168201806040525081019061094e9190611b4b565b8061095d575061095d81611681565b6109795760405162461bcd60e51b81526004016101ef906121d9565b604051632c9f4b5b60e11b81526000906001600160a01b0385169063593e96b6906109c8907fea0ca03c7adbe41dc655fec28a9209dc8e6e042f3d991a67765ba285b9cf73a090600401611e7b565b60206040518083038186803b1580156109e057600080fd5b505afa1580156109f4573d6000803e3d6000fd5b505050506040513d601f19601f82011682018060405250810190610a189190611957565b6040516358d50c5560e01b81529091506001600160a01b038216906358d50c5590610a499087908790600401611de1565b600060405180830381600087803b158015610a6357600080fd5b505af1158015610a77573d6000803e3d6000fd5b5050505050505050565b600080610a9083850185611d13565b90506000610aa18260000151610cc8565b9050600080610ab884600001518560200151610f19565b9150915088826003015414610adf5760405162461bcd60e51b81526004016101ef906121fe565b60028201546001600160a01b03163314610b0b5760405162461bcd60e51b81526004016101ef90612100565b6002816005811115610b2d57634e487b7160e01b600052602160045260246000fd5b1415610c45578351604051632c9f4b5b60e11b81526000916001600160a01b03169063593e96b690610b83907f38a57c12f369d37609a339de2f7bfc1ada61e073ae7c75a85c930af9dbe7202b90600401611e7b565b60206040518083038186803b158015610b9b57600080fd5b505afa158015610baf573d6000803e3d6000fd5b505050506040513d601f19601f82011682018060405250810190610bd39190611957565b90506000339050806001600160a01b031663f242432a30848e8e6040518563ffffffff1660e01b8152600401610c0c9493929190611e1f565b600060405180830381600087803b158015610c2657600080fd5b505af1158015610c3a573d6000803e3d6000fd5b505050505050610ca4565b604051637921219560e11b81523390819063f242432a90610c709030908f908f908f90600401611e1f565b600060405180830381600087803b158015610c8a57600080fd5b505af1158015610c9e573d6000803e3d6000fd5b50505050505b8351610cb190848c6113de565b5063f23a6e6160e01b9a9950505050505050505050565b610cd0611892565b5a81600001818152505043826001600160a01b031663b21634826040518163ffffffff1660e01b815260040160206040518083038186803b158015610d1457600080fd5b505afa158015610d28573d6000803e3d6000fd5b505050506040513d601f19601f82011682018060405250810190610d4c9190611d6a565b1415610d6a5760405162461bcd60e51b81526004016101ef90612041565b816001600160a01b03166310fdb0a26040518163ffffffff1660e01b8152600401600060405180830381600087803b158015610da557600080fd5b505af1158015610db9573d6000803e3d6000fd5b50506040516372c6838f60e01b8152600092506001600160a01b03851691506372c6838f90610e0c907f1f2fd42ad6a6cacd573c4b212beb7a4e2499ad45d742a65337097f130e71daff90600401611e7b565b60206040518083038186803b158015610e2457600080fd5b505afa158015610e38573d6000803e3d6000fd5b505050506040513d601f19601f82011682018060405250810190610e5c9190611957565b90506001600160a01b038116610e785760006020830152610f13565b6001600160a01b0381166060830181905282516040516343a8a3f160e01b8152600092839290916343a8a3f191610eb491899190600401611e57565b604080518083038186803b158015610ecb57600080fd5b505afa158015610edf573d6000803e3d6000fd5b505050506040513d601f19601f82011682018060405250810190610f039190611b65565b9015156020860152604085015250505b50919050565b6001600160a01b038216600090815260208181526040808320848452909152812080549091908314610f5d5760405162461bcd60e51b81526004016101ef9061206b565b60405163f941f69160e01b81526001600160a01b0385169063f941f69190610f8c908690600290600401611ed2565b60206040518083038186803b158015610fa457600080fd5b505afa158015610fb8573d6000803e3d6000fd5b505050506040513d601f19601f82011682018060405250810190610fdc9190611b4b565b15610ff95760405162461bcd60e51b81526004016101ef906120a2565b60405163206f381f60e11b81526000906001600160a01b038616906340de703e90611028908790600401611e7b565b60206040518083038186803b15801561104057600080fd5b505afa158015611054573d6000803e3d6000fd5b505050506040513d601f19601f820116820180604052508101906110789190611957565b90506001600160a01b0381166110a05760405162461bcd60e51b81526004016101ef906121ae565b6040516376225e7360e01b81526001600160a01b038216906376225e73906110ce9088908890600401611e57565b602060405180830381600087803b1580156110e857600080fd5b505af11580156110fc573d6000803e3d6000fd5b505050506040513d601f19601f820116820180604052508101906111209190611cf4565b6040516330490e9160e01b81529092506001600160a01b038616906330490e919061114f908790600401611e7b565b600060405180830381600087803b15801561116957600080fd5b505af115801561117d573d6000803e3d6000fd5b506002925061118a915050565b8260058111156111aa57634e487b7160e01b600052602160045260246000fd5b141561136757604051632c9f4b5b60e11b81526000906001600160a01b0387169063593e96b6906111ff907fea0ca03c7adbe41dc655fec28a9209dc8e6e042f3d991a67765ba285b9cf73a090600401611e7b565b60206040518083038186803b15801561121757600080fd5b505afa15801561122b573d6000803e3d6000fd5b505050506040513d601f19601f8201168201806040525081019061124f9190611957565b604051630a51990b60e11b81529091506001600160a01b038216906314a332169061128190620ff1ce90600401611dcd565b60206040518083038186803b15801561129957600080fd5b505afa1580156112ad573d6000803e3d6000fd5b505050506040513d601f19601f820116820180604052508101906112d19190611b4b565b6112ed5760405162461bcd60e51b81526004016101ef9061216a565b600184015460048086015460405163036d74dd60e11b81526001600160a01b03858116946306dae9ba9461132e948d949390921692620ff1ce929101611f42565b600060405180830381600087803b15801561134857600080fd5b505af115801561135c573d6000803e3d6000fd5b5050505050506113d7565b600382600581111561138957634e487b7160e01b600052602160045260246000fd5b14806113b4575060018260058111156113b257634e487b7160e01b600052602160045260246000fd5b145b156113bf57506113d7565b60405162461bcd60e51b81526004016101ef90612128565b9250929050565b8160200151156114615781606001516001600160a01b0316635e5eb01384835a865161140a919061224b565b86604001516040518563ffffffff1660e01b815260040161142e9493929190611f19565b600060405180830381600087803b15801561144857600080fd5b505af115801561145c573d6000803e3d6000fd5b505050505b826001600160a01b031663d4f7af436040518163ffffffff1660e01b8152600401600060405180830381600087803b15801561149c57600080fd5b505af11580156114b0573d6000803e3d6000fd5b50505050505050565b60006001600160a01b03821661dead148015906114e157506001600160a01b03821661babe14155b80156101895750506001600160a01b0316614bec141590565b604051636e494fa560e11b81526001600160a01b0383169063dc929f4a90611526908690600401611dcd565b600060405180830381600087803b15801561154057600080fd5b505af1158015611554573d6000803e3d6000fd5b505050506001600160a01b03831661157e5760405162461bcd60e51b81526004016101ef90612011565b6001600160a01b0381161561166d57604051633de222bb60e21b81526001600160a01b0382169063f7888aec906115bf90869063decafbad90600401611de1565b60206040518083038186803b1580156115d757600080fd5b505afa1580156115eb573d6000803e3d6000fd5b505050506040513d601f19601f8201168201806040525081019061160f9190611957565b6001600160a01b031661166d5760405163036d74dd60e11b81526001600160a01b038216906306dae9ba90611653908590879063decafbad90600190600401611f42565b600060405180830381600087803b15801561149c57600080fd5b505050565b61167d8282336113de565b5050565b600080826001600160a01b031663c19d93fb6040518163ffffffff1660e01b815260040160206040518083038186803b1580156116bd57600080fd5b505afa1580156116d1573d6000803e3d6000fd5b505050506040513d601f19601f820116820180604052508101906116f59190611cd5565b600181111561171457634e487b7160e01b600052602160045260246000fd5b1480156101895750816001600160a01b031663c67143666040518163ffffffff1660e01b815260040160206040518083038186803b15801561175557600080fd5b505afa158015611769573d6000803e3d6000fd5b505050506040513d601f19601f8201168201806040525081019061178d9190611d6a565b1580611810575060405163288c314960e21b81526001600160a01b0383169063a230c524906117c0903390600401611dcd565b60206040518083038186803b1580156117d857600080fd5b505afa1580156117ec573d6000803e3d6000fd5b505050506040513d601f19601f820116820180604052508101906118109190611b4b565b8061018957506040516368c18beb60e01b81526001600160a01b038316906368c18beb90611842903390600401611dcd565b60206040518083038186803b15801561185a57600080fd5b505afa15801561186e573d6000803e3d6000fd5b505050506040513d601f19601f820116820180604052508101906101899190611b4b565b6040518060800160405280600081526020016000151581526020016000815260200160006001600160a01b031681525090565b60008083601f8401126118d6578081fd5b50813567ffffffffffffffff8111156118ed578182fd5b60208301915083602080830285010111156113d757600080fd5b8051801515811461018c57600080fd5b60008083601f840112611928578182fd5b50813567ffffffffffffffff81111561193f578182fd5b6020830191508360208285010111156113d757600080fd5b600060208284031215611968578081fd5b815161197381612284565b9392505050565b60008060008060008060008060a0898b031215611995578384fd5b88356119a081612284565b975060208901356119b081612284565b9650604089013567ffffffffffffffff808211156119cc578586fd5b6119d88c838d016118c5565b909850965060608b01359150808211156119f0578586fd5b6119fc8c838d016118c5565b909650945060808b0135915080821115611a14578384fd5b50611a218b828c01611917565b999c989b5096995094979396929594505050565b600080600080600060808688031215611a4c578081fd5b8535611a5781612284565b94506020860135611a6781612284565b935060408601359250606086013567ffffffffffffffff811115611a89578182fd5b611a9588828901611917565b969995985093965092949392505050565b60008060008060008060a08789031215611abe578182fd5b8635611ac981612284565b95506020870135611ad981612284565b94506040870135935060608701359250608087013567ffffffffffffffff811115611b02578283fd5b611b0e89828a01611917565b979a9699509497509295939492505050565b60008060408385031215611b32578182fd5b8235611b3d81612284565b946020939093013593505050565b600060208284031215611b5c578081fd5b61197382611907565b60008060408385031215611b77578182fd5b611b8083611907565b9150602083015190509250929050565b600060208284031215611ba1578081fd5b81356001600160e01b031981168114611973578182fd5b60008060408385031215611bca578182fd5b8235611bd581612284565b91506020830135611be581612284565b809150509250929050565b600080600080600080600060e0888a031215611c0a578081fd5b8735611c1581612284565b965060208881013596506040890135611c2d81612284565b95506060890135611c3d81612284565b94506080890135935060a0890135925060c089013567ffffffffffffffff80821115611c67578384fd5b818b0191508b601f830112611c7a578384fd5b813581811115611c8c57611c8c61226e565b611c9e601f8201601f19168501612221565b91508082528c84828501011115611cb3578485fd5b8084840185840137848482840101525080935050505092959891949750929550565b600060208284031215611ce6578081fd5b815160028110611973578182fd5b600060208284031215611d05578081fd5b815160068110611973578182fd5b600060408284031215611d24578081fd5b6040516040810181811067ffffffffffffffff82111715611d4757611d4761226e565b6040528235611d5581612284565b81526020928301359281019290925250919050565b600060208284031215611d7b578081fd5b5051919050565b60008151808452815b81811015611da757602081850181015186830182015201611d8b565b81811115611db85782602083870101525b50601f01601f19169290920160200192915050565b6001600160a01b0391909116815260200190565b6001600160a01b0392831681529116602082015260400190565b6001600160a01b039384168152919092166020820152604081019190915260600190565b6001600160a01b0394851681529290931660208301526040820152606081019190915260a06080820181905260009082015260c00190565b6001600160a01b03929092168252602082015260400190565b901515815260200190565b90815260200190565b9283526001600160a01b03918216602084015216604082015260600190565b9485526001600160a01b0393841660208601529190921660408401526060830191909152608082015260a00190565b8281526040810160038310611ef757634e487b7160e01b600052602160045260246000fd5b8260208301529392505050565b6001600160e01b031991909116815260200190565b6001600160a01b0394851681529290931660208301526040820152606081019190915260800190565b6001600160a01b039485168152928416602084015292166040820152606081019190915260800190565b600060018060a01b038087168352808616602084015260806040840152611f966080840186611d82565b915080841660608401525095945050505050565b600060018060a01b038516825283602083015260606040830152611fd16060830184611d82565b95945050505050565b6020808252601d908201527f6170706c6963616e742069732072657365727665642061646472657373000000604082015260600190565b602080825260169082015275696e76616c6964206d656d626572206164647265737360501b604082015260600190565b60208082526010908201526f1c99595b9d1c985b98de4819dd585c9960821b604082015260600190565b60208082526017908201527f70726f706f73616c20646f6573206e6f74206578697374000000000000000000604082015260600190565b6020808252601a908201527f70726f706f73616c20616c72656164792070726f636573736564000000000000604082015260600190565b6020808252600d908201526c1b9bdd081cdd5c1c1bdc9d1959609a1b604082015260600190565b6020808252600e908201526d3bb937b7339027232a1030b2323960911b604082015260600190565b60208082526022908201527f70726f706f73616c20686173206e6f74206265656e20766f746564206f6e2079604082015261195d60f21b606082015260800190565b60208082526024908201527f554e49545320746f6b656e206973206e6f7420616e20696e7465726e616c207460408201526337b5b2b760e11b606082015260800190565b6020808252601190820152701859185c1d195c881b9bdd08199bdd5b99607a1b604082015260600190565b6020808252600b908201526a37b7363ca0b230b83a32b960a91b604082015260600190565b6020808252600990820152681ddc9bdb99c813919560ba1b604082015260600190565b60405181810167ffffffffffffffff811182821017156122435761224361226e565b604052919050565b60008282101561226957634e487b7160e01b81526011600452602481fd5b500390565b634e487b7160e01b600052604160045260246000fd5b6001600160a01b038116811461229957600080fd5b5056fea2646970667358221220765f6d1ab5f4ee47733ef8d22d45240d31d1acdfc2a1399ca027d54954439f5264736f6c63430008000033",
  "linkReferences": {},
  "deployedLinkReferences": {}
}