{
  "_format": "hh-sol-artifact-1",
  "contractName": "ERC1155AdapterContract",
  "sourceName": "build/contracts/adapters/ERC1155Adapter.sol",
  "abi": [
    {
      "inputs": [
        {
          "internalType": "contract DaoRegistry",
          "name": "dao",
          "type": "address"
        },
        {
          "internalType": "address",
          "name": "toOwner",
          "type": "address"
        },
        {
          "internalType": "address",
          "name": "nftAddr",
          "type": "address"
        },
        {
          "internalType": "uint256",
          "name": "nftTokenId",
          "type": "uint256"
        },
        {
          "internalType": "uint256",
          "name": "amount",
          "type": "uint256"
        }
      ],
      "name": "internalTransfer",
      "outputs": [],
      "stateMutability": "nonpayable",
      "type": "function"
    }
  ],
  "bytecode": "0x608060405234801561001057600080fd5b50610591806100206000396000f3fe608060405234801561001057600080fd5b506004361061002b5760003560e01c8063f3d0e92914610030575b600080fd5b61004361003e366004610419565b610045565b005b8443816001600160a01b031663b21634826040518163ffffffff1660e01b815260040160206040518083038186803b15801561008057600080fd5b505afa158015610094573d6000803e3d6000fd5b505050506040513d601f19601f820116820180604052508101906100b89190610473565b14156100df5760405162461bcd60e51b81526004016100d6906104e2565b60405180910390fd5b806001600160a01b03166310fdb0a26040518163ffffffff1660e01b8152600401600060405180830381600087803b15801561011a57600080fd5b505af115801561012e573d6000803e3d6000fd5b5050604051632c9f4b5b60e11b8152600092506001600160a01b038916915063593e96b690610181907f38a57c12f369d37609a339de2f7bfc1ada61e073ae7c75a85c930af9dbe7202b9060040161049f565b60206040518083038186803b15801561019957600080fd5b505afa1580156101ad573d6000803e3d6000fd5b505050506040513d601f19601f820116820180604052508101906101d191906103f6565b9050806001600160a01b03166373114aa6886101ed8a336102a0565b898989896040518763ffffffff1660e01b8152600401610212969594939291906104a8565b600060405180830381600087803b15801561022c57600080fd5b505af1158015610240573d6000803e3d6000fd5b5050505050806001600160a01b031663d4f7af436040518163ffffffff1660e01b8152600401600060405180830381600087803b15801561028057600080fd5b505af1158015610294573d6000803e3d6000fd5b50505050505050505050565b600080836001600160a01b031663c89bb8ba846040518263ffffffff1660e01b81526004016102cf919061048b565b60206040518083038186803b1580156102e757600080fd5b505afa1580156102fb573d6000803e3d6000fd5b505050506040513d601f19601f8201168201806040525081019061031f91906103f6565b90506000846001600160a01b031663397a6947856040518263ffffffff1660e01b815260040161034f919061048b565b60206040518083038186803b15801561036757600080fd5b505afa15801561037b573d6000803e3d6000fd5b505050506040513d601f19601f8201168201806040525081019061039f91906103f6565b9050806001600160a01b0316826001600160a01b031614806103d25750836001600160a01b0316816001600160a01b0316145b6103ee5760405162461bcd60e51b81526004016100d69061050c565b509392505050565b600060208284031215610407578081fd5b815161041281610543565b9392505050565b600080600080600060a08688031215610430578081fd5b853561043b81610543565b9450602086013561044b81610543565b9350604086013561045b81610543565b94979396509394606081013594506080013592915050565b600060208284031215610484578081fd5b5051919050565b6001600160a01b0391909116815260200190565b90815260200190565b6001600160a01b0396871681529486166020860152928516604085015293166060830152608082019290925260a081019190915260c00190565b60208082526010908201526f1c99595b9d1c985b98de4819dd585c9960821b604082015260600190565b6020808252601b908201527f63616c6c207769746820796f75722064656c6567617465206b65790000000000604082015260600190565b6001600160a01b038116811461055857600080fd5b5056fea2646970667358221220196db13bb36f6187eac3927fa6c231ac70704da14c0a3c038be697bbbc6e0c9064736f6c63430008000033",
  "linkReferences": {},
  "deployedLinkReferences": {}
}