{
  "_format": "hh-sol-artifact-1",
  "contractName": "CouponOnboardingContract",
  "sourceName": "build/contracts/adapters/CouponOnboarding.sol",
  "abi": [
    {
      "anonymous": false,
      "inputs": [
        {
          "indexed": false,
          "internalType": "address",
          "name": "daoAddress",
          "type": "address"
        },
        {
          "indexed": false,
          "internalType": "uint256",
          "name": "nonce",
          "type": "uint256"
        },
        {
          "indexed": false,
          "internalType": "address",
          "name": "authorizedMember",
          "type": "address"
        },
        {
          "indexed": false,
          "internalType": "uint256",
          "name": "amount",
          "type": "uint256"
        }
      ],
      "name": "CouponRedeemed",
      "type": "event"
    },
    {
      "inputs": [],
      "name": "COUPON_MESSAGE_TYPE",
      "outputs": [
        {
          "internalType": "string",
          "name": "",
          "type": "string"
        }
      ],
      "stateMutability": "view",
      "type": "function"
    },
    {
      "inputs": [],
      "name": "COUPON_MESSAGE_TYPEHASH",
      "outputs": [
        {
          "internalType": "bytes32",
          "name": "",
          "type": "bytes32"
        }
      ],
      "stateMutability": "view",
      "type": "function"
    },
    {
      "inputs": [],
      "name": "EIP712_DOMAIN",
      "outputs": [
        {
          "internalType": "string",
          "name": "",
          "type": "string"
        }
      ],
      "stateMutability": "view",
      "type": "function"
    },
    {
      "inputs": [],
      "name": "EIP712_DOMAIN_TYPEHASH",
      "outputs": [
        {
          "internalType": "bytes32",
          "name": "",
          "type": "bytes32"
        }
      ],
      "stateMutability": "view",
      "type": "function"
    },
    {
      "inputs": [
        {
          "internalType": "contract DaoRegistry",
          "name": "dao",
          "type": "address"
        },
        {
          "internalType": "address",
          "name": "signerAddress",
          "type": "address"
        },
        {
          "internalType": "address",
          "name": "erc20",
          "type": "address"
        },
        {
          "internalType": "address",
          "name": "tokenAddrToMint",
          "type": "address"
        },
        {
          "internalType": "uint88",
          "name": "maxAmount",
          "type": "uint88"
        }
      ],
      "name": "configureDao",
      "outputs": [],
      "stateMutability": "nonpayable",
      "type": "function"
    },
    {
      "inputs": [
        {
          "internalType": "contract DaoRegistry",
          "name": "dao",
          "type": "address"
        },
        {
          "internalType": "address",
          "name": "actionId",
          "type": "address"
        }
      ],
      "name": "domainSeparator",
      "outputs": [
        {
          "internalType": "bytes32",
          "name": "",
          "type": "bytes32"
        }
      ],
      "stateMutability": "view",
      "type": "function"
    },
    {
      "inputs": [
        {
          "internalType": "contract DaoRegistry",
          "name": "dao",
          "type": "address"
        },
        {
          "components": [
            {
              "internalType": "address",
              "name": "authorizedMember",
              "type": "address"
            },
            {
              "internalType": "uint256",
              "name": "amount",
              "type": "uint256"
            },
            {
              "internalType": "uint256",
              "name": "nonce",
              "type": "uint256"
            }
          ],
          "internalType": "struct CouponOnboardingContract.Coupon",
          "name": "coupon",
          "type": "tuple"
        }
      ],
      "name": "hashCouponMessage",
      "outputs": [
        {
          "internalType": "bytes32",
          "name": "",
          "type": "bytes32"
        }
      ],
      "stateMutability": "view",
      "type": "function"
    },
    {
      "inputs": [
        {
          "internalType": "contract DaoRegistry",
          "name": "dao",
          "type": "address"
        },
        {
          "internalType": "address",
          "name": "actionId",
          "type": "address"
        },
        {
          "internalType": "bytes32",
          "name": "message",
          "type": "bytes32"
        }
      ],
      "name": "hashMessage",
      "outputs": [
        {
          "internalType": "bytes32",
          "name": "",
          "type": "bytes32"
        }
      ],
      "stateMutability": "view",
      "type": "function"
    },
    {
      "inputs": [
        {
          "internalType": "address",
          "name": "signer",
          "type": "address"
        },
        {
          "internalType": "bytes32",
          "name": "hash",
          "type": "bytes32"
        },
        {
          "internalType": "bytes",
          "name": "sig",
          "type": "bytes"
        }
      ],
      "name": "isValidSignature",
      "outputs": [
        {
          "internalType": "bool",
          "name": "",
          "type": "bool"
        }
      ],
      "stateMutability": "view",
      "type": "function"
    },
    {
      "inputs": [
        {
          "internalType": "contract DaoRegistry",
          "name": "dao",
          "type": "address"
        },
        {
          "internalType": "address",
          "name": "authorizedMember",
          "type": "address"
        },
        {
          "internalType": "uint256",
          "name": "amount",
          "type": "uint256"
        },
        {
          "internalType": "uint256",
          "name": "nonce",
          "type": "uint256"
        },
        {
          "internalType": "bytes",
          "name": "signature",
          "type": "bytes"
        }
      ],
      "name": "redeemCoupon",
      "outputs": [],
      "stateMutability": "nonpayable",
      "type": "function"
    }
  ],
  "bytecode": "0x608060405234801561001057600080fd5b506122fb806100206000396000f3fe608060405234801561001057600080fd5b506004361061009e5760003560e01c8063c7977be711610066578063c7977be714610129578063e1b11da414610131578063e7975f2214610139578063ed53a9631461014c578063fa5091a1146101545761009e565b8063238a4d1e146100a357806363a9fed7146100cc57806364920c1b146100e1578063942cb4bd14610101578063b84d2c1214610116575b600080fd5b6100b66100b136600461195a565b610167565b6040516100c39190611d26565b60405180910390f35b6100d461017e565b6040516100c39190611eaa565b6100f46100ef366004611a1e565b61019a565b6040516100c39190611d31565b61011461010f366004611b15565b610253565b005b610114610124366004611a56565b6106eb565b6100f4610b40565b6100d4610b82565b6100f4610147366004611b89565b610b9e565b6100f4610c2d565b6100f4610162366004611ad5565b610c56565b6000610174848484610c93565b90505b9392505050565b6040518060600160405280603e8152602001612288603e913981565b60006040518060a0016040528060638152602001612225606391396040516020016101c59190611c73565b604051602081830303815290604052805190602001207fe2ffb2e2c8bf0b9b360ecefb7de0735865e605d6ba933b6c7e12cee0e178c8bf7f13600b294191fc92924bb3ce4b969c1e7e2bab8f4c93c3fc6d0a51733df3c06046868660405160200161023596959493929190611d75565b60405160208183030381529060405280519060200120905092915050565b84600061025f82610ded565b6001600160a01b0388166000908152602081905260408120919250908161028861010088612031565b81526020019081526020016000205490506102b281610100876102ab91906121b6565b600161103e565b6001600160a01b0389166000908152602081905260408120906102d761010089612031565b81526020810191909152604001600020556102fd816102f8610100886121b6565b611097565b156103235760405162461bcd60e51b815260040161031a90611ee2565b60405180910390fd5b50604080516060810182526001600160a01b03881681526020810187905290810185905260006103538983610b9e565b90506103fb896001600160a01b031663fd310d297f2b2d04f280ad63526e525ab4a58c15135c57704db39b1bad89a9d025e200b01d6040518263ffffffff1660e01b81526004016103a49190611d31565b60206040518083038186803b1580156103bc57600080fd5b505afa1580156103d0573d6000803e3d6000fd5b505050506040513d601f19601f820116820180604052508101906103f4919061193e565b8287610c93565b6104175760405162461bcd60e51b815260040161031a90611ebd565b60405163fd310d2960e01b81526000906001600160a01b038b169063fd310d2990610466907fc3822a9c67e4f036263ce2090243d49036f0e785a7941e37f8d7dc87ca52ccf090600401611d31565b60206040518083038186803b15801561047e57600080fd5b505afa158015610492573d6000803e3d6000fd5b505050506040513d601f19601f820116820180604052508101906104b6919061193e565b905060008a6001600160a01b031663593e96b67fea0ca03c7adbe41dc655fec28a9209dc8e6e042f3d991a67765ba285b9cf73a06040518263ffffffff1660e01b81526004016105069190611d31565b60206040518083038186803b15801561051e57600080fd5b505afa158015610532573d6000803e3d6000fd5b505050506040513d601f19601f82011682018060405250810190610556919061193e565b90506001600160a01b0382166106805760405163fd310d2960e01b81526000906001600160a01b038d169063fd310d29906105b5907f3b5ad57de63defb963621e54aa93d557db5ea5d33bdab9bb2d34c5b97311062990600401611d31565b60206040518083038186803b1580156105cd57600080fd5b505afa1580156105e1573d6000803e3d6000fd5b505050506040513d601f19601f82011682018060405250810190610605919061193e565b9050816001600160a01b031663827837c68d61dead8e858f6040518663ffffffff1660e01b815260040161063d959493929190611e09565b600060405180830381600087803b15801561065757600080fd5b505af115801561066b573d6000803e3d6000fd5b5050505061067a8b8d846110b4565b50610697565b6106976001600160a01b03831661dead8c8c611240565b7fc761c7e179107268c13117c13d4201d156d9e466dc50fd48486d025f00f280c48b898c8c6040516106cc9493929190611cfc565b60405180910390a1505050506106e2828261129e565b50505050505050565b6040516368c18beb60e01b815285906001600160a01b038216906368c18beb90610719903390600401611caa565b60206040518083038186803b15801561073157600080fd5b505afa158015610745573d6000803e3d6000fd5b505050506040513d601f19601f8201168201806040525081019061076991906119b1565b806107785750610778816112ad565b6107945760405162461bcd60e51b815260040161031a90611ff4565b604051631da7c90d60e11b81526001600160a01b03871690633b4f921a906107e2907f2b2d04f280ad63526e525ab4a58c15135c57704db39b1bad89a9d025e200b01d908990600401611d3a565b600060405180830381600087803b1580156107fc57600080fd5b505af1158015610810573d6000803e3d6000fd5b5050604051631da7c90d60e11b81526001600160a01b0389169250633b4f921a9150610862907fc3822a9c67e4f036263ce2090243d49036f0e785a7941e37f8d7dc87ca52ccf0908890600401611d3a565b600060405180830381600087803b15801561087c57600080fd5b505af1158015610890573d6000803e3d6000fd5b5050604051631da7c90d60e11b81526001600160a01b0389169250633b4f921a91506108e2907f3b5ad57de63defb963621e54aa93d557db5ea5d33bdab9bb2d34c5b973110629908790600401611d3a565b600060405180830381600087803b1580156108fc57600080fd5b505af1158015610910573d6000803e3d6000fd5b5050604051632c9f4b5b60e11b8152600092506001600160a01b038916915063593e96b690610963907fea0ca03c7adbe41dc655fec28a9209dc8e6e042f3d991a67765ba285b9cf73a090600401611d31565b60206040518083038186803b15801561097b57600080fd5b505afa15801561098f573d6000803e3d6000fd5b505050506040513d601f19601f820116820180604052508101906109b3919061193e565b6040516358d50c5560e01b81529091506001600160a01b038216906358d50c55906109e4908a908890600401611cbe565b600060405180830381600087803b1580156109fe57600080fd5b505af1158015610a12573d6000803e3d6000fd5b5050604051633de222bb60e21b8152600092506001600160a01b038416915063f7888aec90610a499061babe908990600401611cbe565b60206040518083038186803b158015610a6157600080fd5b505afa158015610a75573d6000803e3d6000fd5b505050506040513d601f19601f82011682018060405250810190610a99919061193e565b9050836affffffffffffffffffffff16816001600160a01b03161015610b36576001600160a01b0382166306dae9ba8961dead88610ae4866affffffffffffffffffffff8b1661214b565b6040518563ffffffff1660e01b8152600401610b039493929190611e66565b600060405180830381600087803b158015610b1d57600080fd5b505af1158015610b31573d6000803e3d6000fd5b505050505b5050505050505050565b6040518060a001604052806063815260200161222560639139604051602001610b699190611c73565b6040516020818303038152906040528051906020012081565b6040518060a00160405280606381526020016122256063913981565b6000806040518060600160405280603e8152602001612288603e9139604051602001610bca9190611c73565b60405160208183030381529060405280519060200120836000015184602001518560400151604051602001610c029493929190611d51565b604051602081830303815290604052805190602001209050610c25843083610c56565b949350505050565b6040518060600160405280603e8152602001612288603e9139604051602001610b699190611c73565b6000610c62848461019a565b82604051602001610c74929190611c8f565b6040516020818303038152906040528051906020012090509392505050565b6000806000610ca285856114c6565b90925090506000816004811115610cc957634e487b7160e01b600052602160045260246000fd5b148015610ce75750856001600160a01b0316826001600160a01b0316145b15610cf757600192505050610177565b600080876001600160a01b0316631626ba7e60e01b8888604051602401610d1f929190611da9565b60408051601f198184030181529181526020820180516001600160e01b03166001600160e01b0319909416939093179092529051610d5d9190611c73565b600060405180830381855afa9150503d8060008114610d98576040519150601f19603f3d011682016040523d82523d6000602084013e610d9d565b606091505b5091509150818015610db0575080516020145b8015610de157508051630b135d3f60e11b90610dd590830160209081019084016119f6565b6001600160e01b031916145b98975050505050505050565b610df561187a565b5a81600001818152505043826001600160a01b031663b21634826040518163ffffffff1660e01b815260040160206040518083038186803b158015610e3957600080fd5b505afa158015610e4d573d6000803e3d6000fd5b505050506040513d601f19601f82011682018060405250810190610e719190611c2f565b1415610e8f5760405162461bcd60e51b815260040161031a90611f49565b816001600160a01b03166310fdb0a26040518163ffffffff1660e01b8152600401600060405180830381600087803b158015610eca57600080fd5b505af1158015610ede573d6000803e3d6000fd5b50506040516372c6838f60e01b8152600092506001600160a01b03851691506372c6838f90610f31907f1f2fd42ad6a6cacd573c4b212beb7a4e2499ad45d742a65337097f130e71daff90600401611d31565b60206040518083038186803b158015610f4957600080fd5b505afa158015610f5d573d6000803e3d6000fd5b505050506040513d601f19601f82011682018060405250810190610f81919061193e565b90506001600160a01b038116610f9d5760006020830152611038565b6001600160a01b0381166060830181905282516040516343a8a3f160e01b8152600092839290916343a8a3f191610fd991899190600401611e91565b604080518083038186803b158015610ff057600080fd5b505afa158015611004573d6000803e3d6000fd5b505050506040513d601f19601f8201168201806040525081019061102891906119cb565b9015156020860152604085015250505b50919050565b600081151561104d8585611097565b15151461109057811561107657611065836002612082565b61106f9085612019565b9050610177565b611081836002612082565b61106f9085612173565b610177565b5082610177565b60006110aa600260ff841685901c6121b6565b6001149392505050565b604051636e494fa560e11b81526001600160a01b0383169063dc929f4a906110e0908690600401611caa565b600060405180830381600087803b1580156110fa57600080fd5b505af115801561110e573d6000803e3d6000fd5b505050506001600160a01b0383166111385760405162461bcd60e51b815260040161031a90611f19565b6001600160a01b0381161561123b57604051633de222bb60e21b81526001600160a01b0382169063f7888aec9061117990869063decafbad90600401611cbe565b60206040518083038186803b15801561119157600080fd5b505afa1580156111a5573d6000803e3d6000fd5b505050506040513d601f19601f820116820180604052508101906111c9919061193e565b6001600160a01b031661123b5760405163036d74dd60e11b81526001600160a01b038216906306dae9ba9061120d908590879063decafbad90600190600401611e3c565b600060405180830381600087803b15801561122757600080fd5b505af11580156106e2573d6000803e3d6000fd5b505050565b611298846323b872dd60e01b85858560405160240161126193929190611cd8565b60408051601f198184030181529190526020810180516001600160e01b03166001600160e01b031990931692909217909152611536565b50505050565b6112a98282336115c5565b5050565b600080826001600160a01b031663c19d93fb6040518163ffffffff1660e01b815260040160206040518083038186803b1580156112e957600080fd5b505afa1580156112fd573d6000803e3d6000fd5b505050506040513d601f19601f820116820180604052508101906113219190611c10565b600181111561134057634e487b7160e01b600052602160045260246000fd5b1480156114be5750816001600160a01b031663c67143666040518163ffffffff1660e01b815260040160206040518083038186803b15801561138157600080fd5b505afa158015611395573d6000803e3d6000fd5b505050506040513d601f19601f820116820180604052508101906113b99190611c2f565b158061143c575060405163288c314960e21b81526001600160a01b0383169063a230c524906113ec903390600401611caa565b60206040518083038186803b15801561140457600080fd5b505afa158015611418573d6000803e3d6000fd5b505050506040513d601f19601f8201168201806040525081019061143c91906119b1565b806114be57506040516368c18beb60e01b81526001600160a01b038316906368c18beb9061146e903390600401611caa565b60206040518083038186803b15801561148657600080fd5b505afa15801561149a573d6000803e3d6000fd5b505050506040513d601f19601f820116820180604052508101906114be91906119b1565b90505b919050565b6000808251604114156114fd5760208301516040840151606085015160001a6114f187828585611683565b9450945050505061152f565b825160401415611527576020830151604084015161151c868383611763565b93509350505061152f565b506000905060025b9250929050565b600061158b826040518060400160405280602081526020017f5361666545524332303a206c6f772d6c6576656c2063616c6c206661696c6564815250856001600160a01b03166117929092919063ffffffff16565b80519091501561123b57808060200190518101906115a991906119b1565b61123b5760405162461bcd60e51b815260040161031a90611faa565b8160200151156116485781606001516001600160a01b0316635e5eb01384835a86516115f19190612173565b86604001516040518563ffffffff1660e01b81526004016116159493929190611de0565b600060405180830381600087803b15801561162f57600080fd5b505af1158015611643573d6000803e3d6000fd5b505050505b826001600160a01b031663d4f7af436040518163ffffffff1660e01b8152600401600060405180830381600087803b15801561122757600080fd5b6000807f7fffffffffffffffffffffffffffffff5d576e7357a4501ddfe92f46681b20a08311156116ba575060009050600361175a565b8460ff16601b141580156116d257508460ff16601c14155b156116e3575060009050600461175a565b6000600187878787604051600081526020016040526040516117089493929190611dc2565b6020604051602081039080840390855afa15801561172a573d6000803e3d6000fd5b5050604051601f1901519150506001600160a01b0381166117535760006001925092505061175a565b9150600090505b94509492505050565b6000806001600160ff1b03831660ff84901c601b0161178487828885611683565b935093505050935093915050565b60606101748484600085856117a68561183b565b6117c25760405162461bcd60e51b815260040161031a90611f73565b600080866001600160a01b031685876040516117de9190611c73565b60006040518083038185875af1925050503d806000811461181b576040519150601f19603f3d011682016040523d82523d6000602084013e611820565b606091505b5091509150611830828286611841565b979650505050505050565b3b151590565b60608315611850575081610177565b8251156118605782518084602001fd5b8160405162461bcd60e51b815260040161031a9190611eaa565b6040518060800160405280600081526020016000151581526020016000815260200160006001600160a01b031681525090565b805180151581146114c157600080fd5b600082601f8301126118cd578081fd5b813567ffffffffffffffff808211156118e8576118e86121f6565b604051601f8301601f19168101602001828111828210171561190c5761190c6121f6565b604052828152848301602001861015611923578384fd5b82602086016020830137918201602001929092529392505050565b60006020828403121561194f578081fd5b81516101778161220c565b60008060006060848603121561196e578182fd5b83356119798161220c565b925060208401359150604084013567ffffffffffffffff81111561199b578182fd5b6119a7868287016118bd565b9150509250925092565b6000602082840312156119c2578081fd5b610177826118ad565b600080604083850312156119dd578182fd5b6119e6836118ad565b9150602083015190509250929050565b600060208284031215611a07578081fd5b81516001600160e01b031981168114610177578182fd5b60008060408385031215611a30578182fd5b8235611a3b8161220c565b91506020830135611a4b8161220c565b809150509250929050565b600080600080600060a08688031215611a6d578081fd5b8535611a788161220c565b94506020860135611a888161220c565b93506040860135611a988161220c565b92506060860135611aa88161220c565b915060808601356affffffffffffffffffffff81168114611ac7578182fd5b809150509295509295909350565b600080600060608486031215611ae9578283fd5b8335611af48161220c565b92506020840135611b048161220c565b929592945050506040919091013590565b600080600080600060a08688031215611b2c578081fd5b8535611b378161220c565b94506020860135611b478161220c565b93506040860135925060608601359150608086013567ffffffffffffffff811115611b70578182fd5b611b7c888289016118bd565b9150509295509295909350565b6000808284036080811215611b9c578283fd5b8335611ba78161220c565b92506060601f1982011215611bba578182fd5b506040516060810181811067ffffffffffffffff82111715611bde57611bde6121f6565b6040526020840135611bef8161220c565b81526040848101356020830152606090940135938101939093525092909150565b600060208284031215611c21578081fd5b815160028110610177578182fd5b600060208284031215611c40578081fd5b5051919050565b60008151808452611c5f81602086016020860161218a565b601f01601f19169290920160200192915050565b60008251611c8581846020870161218a565b9190910192915050565b61190160f01b81526002810192909252602282015260420190565b6001600160a01b0391909116815260200190565b6001600160a01b0392831681529116602082015260400190565b6001600160a01b039384168152919092166020820152604081019190915260600190565b6001600160a01b039485168152602081019390935292166040820152606081019190915260800190565b901515815260200190565b90815260200190565b9182526001600160a01b0316602082015260400190565b9384526001600160a01b039290921660208401526040830152606082015260800190565b9586526020860194909452604085019290925260608401526001600160a01b0390811660808401521660a082015260c00190565b6000838252604060208301526101746040830184611c47565b93845260ff9290921660208401526040830152606082015260800190565b6001600160a01b0394851681529290931660208301526040820152606081019190915260800190565b6001600160a01b039586168152938516602085015291841660408401529092166060820152608081019190915260a00190565b6001600160a01b039485168152928416602084015292166040820152606081019190915260800190565b6001600160a01b03948516815292841660208401529083166040830152909116606082015260800190565b6001600160a01b03929092168252602082015260400190565b6000602082526101776020830184611c47565b6020808252600b908201526a696e76616c69642073696760a81b604082015260600190565b60208082526017908201527f636f75706f6e20616c72656164792072656465656d6564000000000000000000604082015260600190565b602080825260169082015275696e76616c6964206d656d626572206164647265737360501b604082015260600190565b60208082526010908201526f1c99595b9d1c985b98de4819dd585c9960821b604082015260600190565b6020808252601d908201527f416464726573733a2063616c6c20746f206e6f6e2d636f6e7472616374000000604082015260600190565b6020808252602a908201527f5361666545524332303a204552433230206f7065726174696f6e20646964206e6040820152691bdd081cdd58d8d9595960b21b606082015260800190565b6020808252600b908201526a37b7363ca0b230b83a32b960a91b604082015260600190565b6000821982111561202c5761202c6121ca565b500190565b600082612040576120406121e0565b500490565b80825b6001808611612057575061175a565b818704821115612069576120696121ca565b8086161561207657918102915b9490941c938002612048565b6000610177600019848460008261209b57506001610177565b816120a857506000610177565b81600181146120be57600281146120c8576120f5565b6001915050610177565b60ff8411156120d9576120d96121ca565b6001841b9150848211156120ef576120ef6121ca565b50610177565b5060208310610133831016604e8410600b8410161715612123575081810a8381111561108b5761108b6121ca565b6121308484846001612045565b808604821115612142576121426121ca565b02949350505050565b60006001600160a01b038381169083168181101561216b5761216b6121ca565b039392505050565b600082821015612185576121856121ca565b500390565b60005b838110156121a557818101518382015260200161218d565b838111156112985750506000910152565b6000826121c5576121c56121e0565b500690565b634e487b7160e01b600052601160045260246000fd5b634e487b7160e01b600052601260045260246000fd5b634e487b7160e01b600052604160045260246000fd5b6001600160a01b038116811461222157600080fd5b5056fe454950373132446f6d61696e28737472696e67206e616d652c737472696e672076657273696f6e2c75696e7432353620636861696e49642c6164647265737320766572696679696e67436f6e74726163742c6164647265737320616374696f6e4964294d657373616765286164647265737320617574686f72697a65644d656d6265722c75696e7432353620616d6f756e742c75696e74323536206e6f6e636529a264697066735822122048052c42a969ab4490e877864dc84dbf428cb30c0a588bcde530a5ac6212fee864736f6c63430008000033",
  "linkReferences": {},
  "deployedLinkReferences": {}
}