{
  "_format": "hh-sol-artifact-1",
  "contractName": "GelatoRelay",
  "sourceName": "build/contracts/companion/GelatoRelay.sol",
  "abi": [
    {
      "inputs": [
        {
          "internalType": "address payable",
          "name": "_gelato",
          "type": "address"
        }
      ],
      "stateMutability": "nonpayable",
      "type": "constructor"
    },
    {
      "inputs": [
        {
          "internalType": "address",
          "name": "_dest",
          "type": "address"
        },
        {
          "internalType": "bytes",
          "name": "_data",
          "type": "bytes"
        },
        {
          "internalType": "uint256",
          "name": "_desiredFee",
          "type": "uint256"
        },
        {
          "internalType": "address",
          "name": "",
          "type": "address"
        }
      ],
      "name": "exec",
      "outputs": [],
      "stateMutability": "nonpayable",
      "type": "function"
    },
    {
      "inputs": [],
      "name": "gelato",
      "outputs": [
        {
          "internalType": "address payable",
          "name": "",
          "type": "address"
        }
      ],
      "stateMutability": "view",
      "type": "function"
    },
    {
      "stateMutability": "payable",
      "type": "receive"
    }
  ],
  "bytecode": "0x60a060405234801561001057600080fd5b50604051610cb1380380610cb183398101604081905261002f91610075565b806001600160a01b03811661005f5760405162461bcd60e51b8152600401610056906100a3565b60405180910390fd5b60601b6001600160601b031916608052506100da565b600060208284031215610086578081fd5b81516001600160a01b038116811461009c578182fd5b9392505050565b6020808252601e908201527f47656c61746f2063616e206e6f74206265207a65726f20616464726573730000604082015260600190565b60805160601c610b8361012e6000396000818160880152818160d901528181610115015281816102a70152818161032c015281816103c00152818161044e015281816104d301526106670152610b836000f3fe60806040526004361061002d5760003560e01c8063573ea57514610039578063b561d6f71461006457610034565b3661003457005b600080fd5b34801561004557600080fd5b5061004e610086565b60405161005b9190610972565b60405180910390f35b34801561007057600080fd5b5061008461007f3660046107cb565b6100aa565b005b7f000000000000000000000000000000000000000000000000000000000000000081565b60006100b5846100ca565b90506100c3818686866100d5565b5050505050565b60248101515b919050565b83817f00000000000000000000000000000000000000000000000000000000000000006001600160a01b0316600114806101375750336001600160a01b037f000000000000000000000000000000000000000000000000000000000000000016145b61015c5760405162461bcd60e51b815260040161015390610a34565b60405180910390fd5b604051632c9f4b5b60e11b81526000906001600160a01b0384169063593e96b6906101ab907fea0ca03c7adbe41dc655fec28a9209dc8e6e042f3d991a67765ba285b9cf73a090600401610986565b60206040518083038186803b1580156101c357600080fd5b505afa1580156101d7573d6000803e3d6000fd5b505050506040513d601f19601f820116820180604052508101906101fb91906107a8565b6040516301ffc9a760e01b81529091506001600160a01b038216906301ffc9a7906102319063207fea1360e21b9060040161098f565b60206040518083038186803b15801561024957600080fd5b505afa925050508015610279575060408051601f3d908101601f1916820190925261027691810190610899565b60015b6103905760405163413c1be360e11b81526001600160a01b0382169063827837c6906102d490869061dead907f00000000000000000000000000000000000000000000000000000000000000009060009089906004016109ce565b600060405180830381600087803b1580156102ee57600080fd5b505af1158015610302573d6000803e3d6000fd5b5050604051630b620b8160e01b81526001600160a01b0384169250630b620b8191506103599086907f00000000000000000000000000000000000000000000000000000000000000009060009088906004016109a4565b600060405180830381600087803b15801561037357600080fd5b505af1158015610387573d6000803e3d6000fd5b50505050610535565b80156104245760405163207fea1360e21b81526001600160a01b038316906381ffa84c906103ed90879061dead907f0000000000000000000000000000000000000000000000000000000000000000906000908a906004016109ce565b600060405180830381600087803b15801561040757600080fd5b505af115801561041b573d6000803e3d6000fd5b50505050610533565b60405163413c1be360e11b81526001600160a01b0383169063827837c69061047b90879061dead907f0000000000000000000000000000000000000000000000000000000000000000906000908a906004016109ce565b600060405180830381600087803b15801561049557600080fd5b505af11580156104a9573d6000803e3d6000fd5b5050604051630b620b8160e01b81526001600160a01b0385169250630b620b8191506105009087907f00000000000000000000000000000000000000000000000000000000000000009060009089906004016109a4565b600060405180830381600087803b15801561051a57600080fd5b505af115801561052e573d6000803e3d6000fd5b505050505b505b6040516368c18beb60e01b81526001600160a01b038816906368c18beb90610561908990600401610972565b60206040518083038186803b15801561057957600080fd5b505afa15801561058d573d6000803e3d6000fd5b505050506040513d601f19601f820116820180604052508101906105b19190610899565b6105cd5760405162461bcd60e51b815260040161015390610a6b565b600080876001600160a01b0316876040516105e891906108b9565b6000604051808303816000865af19150503d8060008114610625576040519150601f19603f3d011682016040523d82523d6000602084013e61062a565b606091505b5091509150816106615760408051808201909152600b81526a2932b630bc9732bc32b19d60a91b6020820152610661908290610709565b505060007f00000000000000000000000000000000000000000000000000000000000000006001600160a01b03168360405161069c9061096f565b60006040518083038185875af1925050503d80600081146106d9576040519150601f19603f3d011682016040523d82523d6000602084013e6106de565b606091505b50509050806106ff5760405162461bcd60e51b815260040161015390610a98565b5050505050505050565b602082516107179190610aff565b6004141561078c57602082015162461bcd60e51b6001600160e01b03198216141561077b5760448301925081836040516020016107559291906108d5565b60408051601f198184030181529082905262461bcd60e51b825261015391600401610a01565b816040516020016107559190610904565b806040516020016107559190610937565b80356100d081610b35565b6000602082840312156107b9578081fd5b81516107c481610b35565b9392505050565b600080600080608085870312156107e0578283fd5b84356107eb81610b35565b935060208581013567ffffffffffffffff80821115610808578586fd5b818801915088601f83011261081b578586fd5b81358181111561082d5761082d610b1f565b604051601f8201601f191681018501838111828210171561085057610850610b1f565b60405281815283820185018b1015610866578788fd5b8185850186830137908101909301959095525092506040850135915061088e6060860161079d565b905092959194509250565b6000602082840312156108aa578081fd5b815180151581146107c4578182fd5b600082516108cb818460208701610acf565b9190910192915050565b600083516108e7818460208801610acf565b8351908301906108fb818360208801610acf565b01949350505050565b60008251610916818460208701610acf565b6e2737a2b93937b929b2b632b1ba37b960891b920191825250600f01919050565b60008251610949818460208701610acf565b73556e657870656374656452657475726e6461746160601b920191825250601401919050565b90565b6001600160a01b0391909116815260200190565b90815260200190565b6001600160e01b031991909116815260200190565b6001600160a01b039485168152928416602084015292166040820152606081019190915260800190565b6001600160a01b039586168152938516602085015291841660408401529092166060820152608081019190915260a00190565b6000602082528251806020840152610a20816040850160208701610acf565b601f01601f19169190910160400192915050565b60208082526017908201527f47656c61746f666965643a204f6e6c792067656c61746f000000000000000000604082015260600190565b6020808252601390820152726e6f742070617274206f66207468652064616f60681b604082015260600190565b6020808252601d908201527f47656c61746f666965643a2047656c61746f20666565206661696c6564000000604082015260600190565b60005b83811015610aea578181015183820152602001610ad2565b83811115610af9576000848401525b50505050565b600082610b1a57634e487b7160e01b81526012600452602481fd5b500690565b634e487b7160e01b600052604160045260246000fd5b6001600160a01b0381168114610b4a57600080fd5b5056fea2646970667358221220cda96b6ebdb4b8060f494ef5b3fd02b0535eb3f2ecf46bb2ef821cf286dac58a64736f6c63430008000033",
  "linkReferences": {},
  "deployedLinkReferences": {}
}