{
  "_format": "hh-sol-artifact-1",
  "contractName": "BankAdapterContract",
  "sourceName": "build/contracts/adapters/BankAdapter.sol",
  "abi": [
    {
      "inputs": [
        {
          "internalType": "contract DaoRegistry",
          "name": "dao",
          "type": "address"
        }
      ],
      "name": "sendEth",
      "outputs": [],
      "stateMutability": "payable",
      "type": "function"
    },
    {
      "inputs": [
        {
          "internalType": "contract DaoRegistry",
          "name": "dao",
          "type": "address"
        },
        {
          "internalType": "address",
          "name": "token",
          "type": "address"
        }
      ],
      "name": "updateToken",
      "outputs": [],
      "stateMutability": "nonpayable",
      "type": "function"
    },
    {
      "inputs": [
        {
          "internalType": "contract DaoRegistry",
          "name": "dao",
          "type": "address"
        },
        {
          "internalType": "address payable",
          "name": "account",
          "type": "address"
        },
        {
          "internalType": "address",
          "name": "token",
          "type": "address"
        }
      ],
      "name": "withdraw",
      "outputs": [],
      "stateMutability": "nonpayable",
      "type": "function"
    }
  ],
  "bytecode": "0x608060405234801561001057600080fd5b50610c58806100206000396000f3fe6080604052600436106100345760003560e01c8063366d2dba1461003957806376a54c601461005b578063ff7885e81461006e575b600080fd5b34801561004557600080fd5b50610059610054366004610a0a565b61008e565b005b6100596100693660046109ee565b6102ce565b34801561007a57600080fd5b50610059610089366004610a42565b61040e565b8143816001600160a01b031663b21634826040518163ffffffff1660e01b815260040160206040518083038186803b1580156100c957600080fd5b505afa1580156100dd573d6000803e3d6000fd5b505050506040513d601f19601f820116820180604052508101906101019190610a8c565b14156101285760405162461bcd60e51b815260040161011f90610b6a565b60405180910390fd5b806001600160a01b03166310fdb0a26040518163ffffffff1660e01b8152600401600060405180830381600087803b15801561016357600080fd5b505af1158015610177573d6000803e3d6000fd5b5050604051632c9f4b5b60e11b81526001600160a01b038616925063593e96b691506101c7907fea0ca03c7adbe41dc655fec28a9209dc8e6e042f3d991a67765ba285b9cf73a090600401610abe565b60206040518083038186803b1580156101df57600080fd5b505afa1580156101f3573d6000803e3d6000fd5b505050506040513d601f19601f82011682018060405250810190610217919061099a565b6001600160a01b031663366d2dba84846040518363ffffffff1660e01b8152600401610244929190610aa4565b600060405180830381600087803b15801561025e57600080fd5b505af1158015610272573d6000803e3d6000fd5b50505050806001600160a01b031663d4f7af436040518163ffffffff1660e01b8152600401600060405180830381600087803b1580156102b157600080fd5b505af11580156102c5573d6000803e3d6000fd5b50505050505050565b8060006102da82610604565b9050600034116102fc5760405162461bcd60e51b815260040161011f90610b94565b604051632c9f4b5b60e11b81526001600160a01b0384169063593e96b690610348907fea0ca03c7adbe41dc655fec28a9209dc8e6e042f3d991a67765ba285b9cf73a090600401610abe565b60206040518083038186803b15801561036057600080fd5b505afa158015610374573d6000803e3d6000fd5b505050506040513d601f19601f82011682018060405250810190610398919061099a565b6001600160a01b03166306dae9ba348561dead6000346040518663ffffffff1660e01b81526004016103cd9493929190610ac7565b6000604051808303818588803b1580156103e657600080fd5b505af11580156103fa573d6000803e3d6000fd5b50505050506104098282610855565b505050565b82600061041a82610604565b905061042584610864565b6104415760405162461bcd60e51b815260040161011f90610b33565b604051632c9f4b5b60e11b81526000906001600160a01b0387169063593e96b690610490907fea0ca03c7adbe41dc655fec28a9209dc8e6e042f3d991a67765ba285b9cf73a090600401610abe565b60206040518083038186803b1580156104a857600080fd5b505afa1580156104bc573d6000803e3d6000fd5b505050506040513d601f19601f820116820180604052508101906104e0919061099a565b90506000816001600160a01b031663f7888aec87876040518363ffffffff1660e01b8152600401610512929190610aa4565b60206040518083038186803b15801561052a57600080fd5b505afa15801561053e573d6000803e3d6000fd5b505050506040513d601f19601f82011682018060405250810190610562919061099a565b6001600160a01b031690506000811161058d5760405162461bcd60e51b815260040161011f90610bba565b604051630b620b8160e01b81526001600160a01b03831690630b620b81906105bf908a908a908a908790600401610ac7565b600060405180830381600087803b1580156105d957600080fd5b505af11580156105ed573d6000803e3d6000fd5b5050505050506105fd8282610855565b5050505050565b61060c610967565b5a81600001818152505043826001600160a01b031663b21634826040518163ffffffff1660e01b815260040160206040518083038186803b15801561065057600080fd5b505afa158015610664573d6000803e3d6000fd5b505050506040513d601f19601f820116820180604052508101906106889190610a8c565b14156106a65760405162461bcd60e51b815260040161011f90610b6a565b816001600160a01b03166310fdb0a26040518163ffffffff1660e01b8152600401600060405180830381600087803b1580156106e157600080fd5b505af11580156106f5573d6000803e3d6000fd5b50506040516372c6838f60e01b8152600092506001600160a01b03851691506372c6838f90610748907f1f2fd42ad6a6cacd573c4b212beb7a4e2499ad45d742a65337097f130e71daff90600401610abe565b60206040518083038186803b15801561076057600080fd5b505afa158015610774573d6000803e3d6000fd5b505050506040513d601f19601f82011682018060405250810190610798919061099a565b90506001600160a01b0381166107b4576000602083015261084f565b6001600160a01b0381166060830181905282516040516343a8a3f160e01b8152600092839290916343a8a3f1916107f091899190600401610b1a565b604080518083038186803b15801561080757600080fd5b505afa15801561081b573d6000803e3d6000fd5b505050506040513d601f19601f8201168201806040525081019061083f91906109bd565b9015156020860152604085015250505b50919050565b6108608282336108a9565b5050565b60006001600160a01b03821661dead1480159061088c57506001600160a01b03821661babe14155b80156108a357506001600160a01b038216614bec14155b92915050565b81602001511561092c5781606001516001600160a01b0316635e5eb01384835a86516108d59190610be7565b86604001516040518563ffffffff1660e01b81526004016108f99493929190610af1565b600060405180830381600087803b15801561091357600080fd5b505af1158015610927573d6000803e3d6000fd5b505050505b826001600160a01b031663d4f7af436040518163ffffffff1660e01b8152600401600060405180830381600087803b1580156102b157600080fd5b6040518060800160405280600081526020016000151581526020016000815260200160006001600160a01b031681525090565b6000602082840312156109ab578081fd5b81516109b681610c0a565b9392505050565b600080604083850312156109cf578081fd5b825180151581146109de578182fd5b6020939093015192949293505050565b6000602082840312156109ff578081fd5b81356109b681610c0a565b60008060408385031215610a1c578182fd5b8235610a2781610c0a565b91506020830135610a3781610c0a565b809150509250929050565b600080600060608486031215610a56578081fd5b8335610a6181610c0a565b92506020840135610a7181610c0a565b91506040840135610a8181610c0a565b809150509250925092565b600060208284031215610a9d578081fd5b5051919050565b6001600160a01b0392831681529116602082015260400190565b90815260200190565b6001600160a01b039485168152928416602084015292166040820152606081019190915260800190565b6001600160a01b0394851681529290931660208301526040820152606081019190915260800190565b6001600160a01b03929092168252602082015260400190565b6020808252601a908201527f77697468647261773a3a72657365727665642061646472657373000000000000604082015260600190565b60208082526010908201526f1c99595b9d1c985b98de4819dd585c9960821b604082015260600190565b6020808252600c908201526b6e6f206574682073656e742160a01b604082015260600190565b6020808252601390820152726e6f7468696e6720746f20776974686472617760681b604082015260600190565b600082821015610c0557634e487b7160e01b81526011600452602481fd5b500390565b6001600160a01b0381168114610c1f57600080fd5b5056fea26469706673582212205c58d7f16020a56968b6831cb4e28bdd5337220b814dfebd5490887f8bae41e064736f6c63430008000033",
  "linkReferences": {},
  "deployedLinkReferences": {}
}