{
  "_format": "hh-sol-artifact-1",
  "contractName": "DaoRegistryAdapterContract",
  "sourceName": "build/contracts/adapters/DaoRegistryAdapter.sol",
  "abi": [
    {
      "inputs": [
        {
          "internalType": "contract DaoRegistry",
          "name": "dao",
          "type": "address"
        },
        {
          "internalType": "address",
          "name": "_addr",
          "type": "address"
        }
      ],
      "name": "isActiveMember",
      "outputs": [
        {
          "internalType": "bool",
          "name": "",
          "type": "bool"
        }
      ],
      "stateMutability": "view",
      "type": "function"
    },
    {
      "inputs": [
        {
          "internalType": "contract DaoRegistry",
          "name": "dao",
          "type": "address"
        },
        {
          "internalType": "address",
          "name": "delegateKey",
          "type": "address"
        }
      ],
      "name": "updateDelegateKey",
      "outputs": [],
      "stateMutability": "nonpayable",
      "type": "function"
    }
  ],
  "bytecode": "0x608060405234801561001057600080fd5b5061099b806100206000396000f3fe608060405234801561001057600080fd5b50600436106100365760003560e01c80638ecf77201461003b578063ac8359b814610064575b600080fd5b61004e610049366004610835565b610079565b60405161005b91906108b3565b60405180910390f35b610077610072366004610835565b6102d9565b005b600080836001600160a01b031663fefbd8757fea0ca03c7adbe41dc655fec28a9209dc8e6e042f3d991a67765ba285b9cf73a06040518263ffffffff1660e01b81526004016100c891906108be565b60206040518083038186803b1580156100e057600080fd5b505afa1580156100f4573d6000803e3d6000fd5b505050506040513d601f19601f8201168201806040525081019061011891906107f2565b90506001600160a01b03811615610253576000610135858561069c565b60405163288c314960e21b81529091506001600160a01b0386169063a230c52490610164908790600401610885565b60206040518083038186803b15801561017c57600080fd5b505afa158015610190573d6000803e3d6000fd5b505050506040513d601f19601f820116820180604052508101906101b49190610815565b801561024a5750604051633de222bb60e21b81526000906001600160a01b0384169063f7888aec906101ef908590620ff1ce90600401610899565b60206040518083038186803b15801561020757600080fd5b505afa15801561021b573d6000803e3d6000fd5b505050506040513d601f19601f8201168201806040525081019061023f91906107f2565b6001600160a01b0316115b925050506102d3565b60405163288c314960e21b81526001600160a01b0385169063a230c5249061027f908690600401610885565b60206040518083038186803b15801561029757600080fd5b505afa1580156102ab573d6000803e3d6000fd5b505050506040513d601f19601f820116820180604052508101906102cf9190610815565b9150505b92915050565b8143816001600160a01b031663b21634826040518163ffffffff1660e01b815260040160206040518083038186803b15801561031457600080fd5b505afa158015610328573d6000803e3d6000fd5b505050506040513d601f19601f8201168201806040525081019061034c919061086d565b14156103735760405162461bcd60e51b815260040161036a906108c7565b60405180910390fd5b806001600160a01b03166310fdb0a26040518163ffffffff1660e01b8152600401600060405180830381600087803b1580156103ae57600080fd5b505af11580156103c2573d6000803e3d6000fd5b505060405163397a694760e01b8152600092506001600160a01b038616915063397a6947906103f5903390600401610885565b60206040518083038186803b15801561040d57600080fd5b505afa158015610421573d6000803e3d6000fd5b505050506040513d601f19601f8201168201806040525081019061044591906107f2565b90506001600160a01b03811633148015906104d7575060405163288c314960e21b81526001600160a01b0385169063a230c52490610487908490600401610885565b60206040518083038186803b15801561049f57600080fd5b505afa1580156104b3573d6000803e3d6000fd5b505050506040513d601f19601f820116820180604052508101906104d79190610815565b15610541576040516315906b3760e31b81526001600160a01b0385169063ac8359b89061050a9033908790600401610899565b600060405180830381600087803b15801561052457600080fd5b505af1158015610538573d6000803e3d6000fd5b50505050610643565b60405163288c314960e21b81526001600160a01b0385169063a230c5249061056d903390600401610885565b60206040518083038186803b15801561058557600080fd5b505afa158015610599573d6000803e3d6000fd5b505050506040513d601f19601f820116820180604052508101906105bd9190610815565b6105d95760405162461bcd60e51b815260040161036a90610928565b836001600160a01b031663ac8359b86105f2863361069c565b856040518363ffffffff1660e01b8152600401610610929190610899565b600060405180830381600087803b15801561062a57600080fd5b505af115801561063e573d6000803e3d6000fd5b505050505b50806001600160a01b031663d4f7af436040518163ffffffff1660e01b8152600401600060405180830381600087803b15801561067f57600080fd5b505af1158015610693573d6000803e3d6000fd5b50505050505050565b600080836001600160a01b031663c89bb8ba846040518263ffffffff1660e01b81526004016106cb9190610885565b60206040518083038186803b1580156106e357600080fd5b505afa1580156106f7573d6000803e3d6000fd5b505050506040513d601f19601f8201168201806040525081019061071b91906107f2565b90506000846001600160a01b031663397a6947856040518263ffffffff1660e01b815260040161074b9190610885565b60206040518083038186803b15801561076357600080fd5b505afa158015610777573d6000803e3d6000fd5b505050506040513d601f19601f8201168201806040525081019061079b91906107f2565b9050806001600160a01b0316826001600160a01b031614806107ce5750836001600160a01b0316816001600160a01b0316145b6107ea5760405162461bcd60e51b815260040161036a906108f1565b509392505050565b600060208284031215610803578081fd5b815161080e8161094d565b9392505050565b600060208284031215610826578081fd5b8151801515811461080e578182fd5b60008060408385031215610847578081fd5b82356108528161094d565b915060208301356108628161094d565b809150509250929050565b60006020828403121561087e578081fd5b5051919050565b6001600160a01b0391909116815260200190565b6001600160a01b0392831681529116602082015260400190565b901515815260200190565b90815260200190565b60208082526010908201526f1c99595b9d1c985b98de4819dd585c9960821b604082015260600190565b6020808252601b908201527f63616c6c207769746820796f75722064656c6567617465206b65790000000000604082015260600190565b6020808252600b908201526a37b7363c9036b2b6b132b960a91b604082015260600190565b6001600160a01b038116811461096257600080fd5b5056fea26469706673582212205d4e84e38a40250c4e6999ae3686294338287e90dccb26f0c992ec27b41f081a64736f6c63430008000033",
  "linkReferences": {},
  "deployedLinkReferences": {}
}