{
  "_format": "hh-sol-artifact-1",
  "contractName": "DaoFactory",
  "sourceName": "build/contracts/core/DaoFactory.sol",
  "abi": [
    {
      "inputs": [
        {
          "internalType": "address",
          "name": "_identityAddress",
          "type": "address"
        }
      ],
      "stateMutability": "nonpayable",
      "type": "constructor"
    },
    {
      "anonymous": false,
      "inputs": [
        {
          "indexed": false,
          "internalType": "address",
          "name": "_address",
          "type": "address"
        },
        {
          "indexed": false,
          "internalType": "string",
          "name": "_name",
          "type": "string"
        }
      ],
      "name": "DAOCreated",
      "type": "event"
    },
    {
      "inputs": [
        {
          "internalType": "contract DaoRegistry",
          "name": "dao",
          "type": "address"
        },
        {
          "components": [
            {
              "internalType": "bytes32",
              "name": "id",
              "type": "bytes32"
            },
            {
              "internalType": "address",
              "name": "addr",
              "type": "address"
            },
            {
              "internalType": "uint128",
              "name": "flags",
              "type": "uint128"
            }
          ],
          "internalType": "struct DaoFactory.Adapter[]",
          "name": "adapters",
          "type": "tuple[]"
        }
      ],
      "name": "addAdapters",
      "outputs": [],
      "stateMutability": "nonpayable",
      "type": "function"
    },
    {
      "inputs": [
        {
          "internalType": "bytes32",
          "name": "",
          "type": "bytes32"
        }
      ],
      "name": "addresses",
      "outputs": [
        {
          "internalType": "address",
          "name": "",
          "type": "address"
        }
      ],
      "stateMutability": "view",
      "type": "function"
    },
    {
      "inputs": [
        {
          "internalType": "contract DaoRegistry",
          "name": "dao",
          "type": "address"
        },
        {
          "internalType": "address",
          "name": "extension",
          "type": "address"
        },
        {
          "components": [
            {
              "internalType": "bytes32",
              "name": "id",
              "type": "bytes32"
            },
            {
              "internalType": "address",
              "name": "addr",
              "type": "address"
            },
            {
              "internalType": "uint128",
              "name": "flags",
              "type": "uint128"
            }
          ],
          "internalType": "struct DaoFactory.Adapter[]",
          "name": "adapters",
          "type": "tuple[]"
        }
      ],
      "name": "configureExtension",
      "outputs": [],
      "stateMutability": "nonpayable",
      "type": "function"
    },
    {
      "inputs": [
        {
          "internalType": "string",
          "name": "daoName",
          "type": "string"
        },
        {
          "internalType": "address",
          "name": "creator",
          "type": "address"
        }
      ],
      "name": "createDao",
      "outputs": [],
      "stateMutability": "nonpayable",
      "type": "function"
    },
    {
      "inputs": [
        {
          "internalType": "address",
          "name": "",
          "type": "address"
        }
      ],
      "name": "daos",
      "outputs": [
        {
          "internalType": "bytes32",
          "name": "",
          "type": "bytes32"
        }
      ],
      "stateMutability": "view",
      "type": "function"
    },
    {
      "inputs": [
        {
          "internalType": "string",
          "name": "daoName",
          "type": "string"
        }
      ],
      "name": "getDaoAddress",
      "outputs": [
        {
          "internalType": "address",
          "name": "",
          "type": "address"
        }
      ],
      "stateMutability": "view",
      "type": "function"
    },
    {
      "inputs": [],
      "name": "identityAddress",
      "outputs": [
        {
          "internalType": "address",
          "name": "",
          "type": "address"
        }
      ],
      "stateMutability": "view",
      "type": "function"
    },
    {
      "inputs": [
        {
          "internalType": "contract DaoRegistry",
          "name": "dao",
          "type": "address"
        },
        {
          "components": [
            {
              "internalType": "bytes32",
              "name": "id",
              "type": "bytes32"
            },
            {
              "internalType": "address",
              "name": "addr",
              "type": "address"
            },
            {
              "internalType": "uint128",
              "name": "flags",
              "type": "uint128"
            }
          ],
          "internalType": "struct DaoFactory.Adapter",
          "name": "adapter",
          "type": "tuple"
        }
      ],
      "name": "updateAdapter",
      "outputs": [],
      "stateMutability": "nonpayable",
      "type": "function"
    }
  ],
  "bytecode": "0x608060405234801561001057600080fd5b506040516110b03803806110b083398101604081905261002f91610083565b6001600160a01b03811661005e5760405162461bcd60e51b8152600401610055906100b1565b60405180910390fd5b600280546001600160a01b0319166001600160a01b03929092169190911790556100d7565b600060208284031215610094578081fd5b81516001600160a01b03811681146100aa578182fd5b9392505050565b6020808252600c908201526b34b73b30b634b21030b2323960a11b604082015260600190565b610fca806100e66000396000f3fe608060405234801561001057600080fd5b50600436106100885760003560e01c80639bb200841161005b5780639bb20084146100f1578063ac704cbe14610104578063bf45767a14610117578063c25f3cf61461011f57610088565b80631d1f0a271461008d57806329ca12ed146100b65780633baeff3f146100cb578063699f200f146100de575b600080fd5b6100a061009b366004610c35565b61013f565b6040516100ad9190610d54565b60405180910390f35b6100c96100c4366004610b21565b61018e565b005b6100c96100d9366004610c75565b6103d3565b6100a06100ec366004610b09565b610548565b6100c96100ff366004610b84565b610563565b6100c9610112366004610bd7565b6107e2565b6100a06109c9565b61013261012d366004610ac6565b6109d8565b6040516100ad9190610ddc565b6000600160008484604051602001610158929190610e8b565b60408051808303601f19018152918152815160209283012083529082019290925201600020546001600160a01b03169392505050565b60405163288c314960e21b81526001600160a01b0385169063a230c524906101ba903390600401610d54565b60206040518083038186803b1580156101d257600080fd5b505afa1580156101e6573d6000803e3d6000fd5b505050506040513d601f19601f8201168201806040525081019061020a9190610ae9565b61022f5760405162461bcd60e51b815260040161022690610efa565b60405180910390fd5b6000846001600160a01b031663c19d93fb6040518163ffffffff1660e01b815260040160206040518083038186803b15801561026a57600080fd5b505afa15801561027e573d6000803e3d6000fd5b505050506040513d601f19601f820116820180604052508101906102a29190610c16565b60018111156102c157634e487b7160e01b600052602160045260246000fd5b146102de5760405162461bcd60e51b815260040161022690610f1e565b60005b818110156103cc57846001600160a01b031663179986f88585858581811061031957634e487b7160e01b600052603260045260246000fd5b90506060020160200160208101906103319190610ac6565b86868681811061035157634e487b7160e01b600052603260045260246000fd5b90506060020160400160208101906103699190610cca565b6040518463ffffffff1660e01b815260040161038793929190610d82565b600060405180830381600087803b1580156103a157600080fd5b505af11580156103b5573d6000803e3d6000fd5b5050505080806103c490610f55565b9150506102e1565b5050505050565b600083836040516020016103e8929190610e8b565b60408051808303601f19018152828252805160209182012060008181526001835292909220549193506001600160a01b03909116159161042c918791879101610d1b565b604051602081830303815290604052906104595760405162461bcd60e51b81526004016102269190610ea7565b50600254600090610472906001600160a01b03166109ea565b600083815260016020908152604080832080546001600160a01b0319166001600160a01b0386169081179091558084529183905291829020859055905163485cc95560e01b8152919250829163485cc955906104d49087903390600401610d68565b600060405180830381600087803b1580156104ee57600080fd5b505af1158015610502573d6000803e3d6000fd5b505050507e1d639484c46792ffbaa78827c6f9e6563478dac823f4e2a8ece68cf4d4867381878760405161053893929190610dae565b60405180910390a1505050505050565b6001602052600090815260409020546001600160a01b031681565b60405163288c314960e21b81526001600160a01b0384169063a230c5249061058f903390600401610d54565b60206040518083038186803b1580156105a757600080fd5b505afa1580156105bb573d6000803e3d6000fd5b505050506040513d601f19601f820116820180604052508101906105df9190610ae9565b6105fb5760405162461bcd60e51b815260040161022690610efa565b6000836001600160a01b031663c19d93fb6040518163ffffffff1660e01b815260040160206040518083038186803b15801561063657600080fd5b505afa15801561064a573d6000803e3d6000fd5b505050506040513d601f19601f8201168201806040525081019061066e9190610c16565b600181111561068d57634e487b7160e01b600052602160045260246000fd5b146106aa5760405162461bcd60e51b815260040161022690610f1e565b60005b818110156107dc57836001600160a01b031663a37ff5e48484848181106106e457634e487b7160e01b600052603260045260246000fd5b9050606002016000013585858581811061070e57634e487b7160e01b600052603260045260246000fd5b90506060020160200160208101906107269190610ac6565b86868681811061074657634e487b7160e01b600052603260045260246000fd5b905060600201604001602081019061075e9190610cca565b60408051600080825260208201908152818301928390526001600160e01b031960e088901b169092526107979493929160448201610de5565b600060405180830381600087803b1580156107b157600080fd5b505af11580156107c5573d6000803e3d6000fd5b5050505080806107d490610f55565b9150506106ad565b50505050565b60405163288c314960e21b81526001600160a01b0383169063a230c5249061080e903390600401610d54565b60206040518083038186803b15801561082657600080fd5b505afa15801561083a573d6000803e3d6000fd5b505050506040513d601f19601f8201168201806040525081019061085e9190610ae9565b61087a5760405162461bcd60e51b815260040161022690610efa565b6000826001600160a01b031663c19d93fb6040518163ffffffff1660e01b815260040160206040518083038186803b1580156108b557600080fd5b505afa1580156108c9573d6000803e3d6000fd5b505050506040513d601f19601f820116820180604052508101906108ed9190610c16565b600181111561090c57634e487b7160e01b600052602160045260246000fd5b146109295760405162461bcd60e51b815260040161022690610f1e565b6001600160a01b03821663a37ff5e4823561094a6040850160208601610ac6565b61095a6060860160408701610cca565b60408051600080825260208201908152818301928390526001600160e01b031960e088901b169092526109939493929160448201610de5565b600060405180830381600087803b1580156109ad57600080fd5b505af11580156109c1573d6000803e3d6000fd5b505050505050565b6002546001600160a01b031681565b60006020819052908152604090205481565b6000808260601b9050604051733d602d80600a3d3981f3363d3d373d3d3d363d7360601b81528160148201526e5af43d82803e903d91602b57fd5bf360881b60288201526037816000f0949350505050565b60008083601f840112610a4d578182fd5b50813567ffffffffffffffff811115610a64578182fd5b602083019150836020606083028501011115610a7f57600080fd5b9250929050565b60008083601f840112610a97578182fd5b50813567ffffffffffffffff811115610aae578182fd5b602083019150836020828501011115610a7f57600080fd5b600060208284031215610ad7578081fd5b8135610ae281610f7c565b9392505050565b600060208284031215610afa578081fd5b81518015158114610ae2578182fd5b600060208284031215610b1a578081fd5b5035919050565b60008060008060608587031215610b36578283fd5b8435610b4181610f7c565b93506020850135610b5181610f7c565b9250604085013567ffffffffffffffff811115610b6c578283fd5b610b7887828801610a3c565b95989497509550505050565b600080600060408486031215610b98578283fd5b8335610ba381610f7c565b9250602084013567ffffffffffffffff811115610bbe578283fd5b610bca86828701610a3c565b9497909650939450505050565b6000808284036080811215610bea578283fd5b8335610bf581610f7c565b92506060601f1982011215610c08578182fd5b506020830190509250929050565b600060208284031215610c27578081fd5b815160028110610ae2578182fd5b60008060208385031215610c47578182fd5b823567ffffffffffffffff811115610c5d578283fd5b610c6985828601610a86565b90969095509350505050565b600080600060408486031215610c89578283fd5b833567ffffffffffffffff811115610c9f578384fd5b610cab86828701610a86565b9094509250506020840135610cbf81610f7c565b809150509250925092565b600060208284031215610cdb578081fd5b81356001600160801b0381168114610ae2578182fd5b60008284528282602086013780602084860101526020601f19601f85011685010190509392505050565b60006403730b6b2960dd1b825282846005840137506d1030b63932b0b23c903a30b5b2b760911b91016005810191909152601301919050565b6001600160a01b0391909116815260200190565b6001600160a01b0392831681529116602082015260400190565b6001600160a01b0393841681529190921660208201526001600160801b03909116604082015260600190565b6001600160a01b0384168152604060208201819052600090610dd39083018486610cf1565b95945050505050565b90815260200190565b8581526001600160a01b0385166020808301919091526001600160801b038516604083015260a06060830181905284519083018190526000918581019160c0850190845b81811015610e4557845183529383019391830191600101610e29565b505084810360808601528551808252908201925081860190845b81811015610e7b57825185529383019391830191600101610e5f565b50929a9950505050505050505050565b600060208252610e9f602083018486610cf1565b949350505050565b6000602080835283518082850152825b81811015610ed357858101830151858201604001528201610eb7565b81811115610ee45783604083870101525b50601f01601f1916929092016040019392505050565b6020808252600a90820152693737ba1036b2b6b132b960b11b604082015260600190565b6020808252601f908201527f746869732044414f2068617320616c7265616479206265656e20736574757000604082015260600190565b6000600019821415610f7557634e487b7160e01b81526011600452602481fd5b5060010190565b6001600160a01b0381168114610f9157600080fd5b5056fea2646970667358221220bdba0402de211a474775da2da7ada63816e2ffb7c8fd4284cdf18896b083b30364736f6c63430008000033",
  "linkReferences": {},
  "deployedLinkReferences": {}
}