{
  "_format": "hh-sol-artifact-1",
  "contractName": "ERC1271ExtensionFactory",
  "sourceName": "build/contracts/extensions/erc1271/ERC1271Factory.sol",
  "abi": [
    {
      "inputs": [
        {
          "internalType": "address",
          "name": "_identityAddress",
          "type": "address"
        }
      ],
      "stateMutability": "nonpayable",
      "type": "constructor"
    },
    {
      "anonymous": false,
      "inputs": [
        {
          "indexed": false,
          "internalType": "address",
          "name": "daoAddress",
          "type": "address"
        },
        {
          "indexed": false,
          "internalType": "address",
          "name": "extensionAddress",
          "type": "address"
        }
      ],
      "name": "ERC1271Created",
      "type": "event"
    },
    {
      "inputs": [
        {
          "internalType": "address",
          "name": "dao",
          "type": "address"
        }
      ],
      "name": "create",
      "outputs": [],
      "stateMutability": "nonpayable",
      "type": "function"
    },
    {
      "inputs": [
        {
          "internalType": "address",
          "name": "dao",
          "type": "address"
        }
      ],
      "name": "getExtensionAddress",
      "outputs": [
        {
          "internalType": "address",
          "name": "",
          "type": "address"
        }
      ],
      "stateMutability": "view",
      "type": "function"
    },
    {
      "inputs": [],
      "name": "identityAddress",
      "outputs": [
        {
          "internalType": "address",
          "name": "",
          "type": "address"
        }
      ],
      "stateMutability": "view",
      "type": "function"
    }
  ],
  "bytecode": "0x608060405234801561001057600080fd5b506040516103d03803806103d083398101604081905261002f91610088565b60016000556001600160a01b0381166100635760405162461bcd60e51b815260040161005a906100b6565b60405180910390fd5b600180546001600160a01b0319166001600160a01b03929092169190911790556100dc565b600060208284031215610099578081fd5b81516001600160a01b03811681146100af578182fd5b9392505050565b6020808252600c908201526b34b73b30b634b21030b2323960a11b604082015260600190565b6102e5806100eb6000396000f3fe608060405234801561001057600080fd5b50600436106100415760003560e01c80633146637e146100465780639ed933181461006f578063bf45767a14610084575b600080fd5b6100596100543660046101f2565b61008c565b6040516100669190610220565b60405180910390f35b61008261007d3660046101f2565b6100aa565b005b610059610191565b6001600160a01b039081166000908152600260205260409020541690565b600260005414156100d65760405162461bcd60e51b81526004016100cd90610278565b60405180910390fd5b60026000556001600160a01b0381166101015760405162461bcd60e51b81526004016100cd9061024e565b600154600090610119906001600160a01b03166101a0565b6001600160a01b038381166000908152600260205260409081902080546001600160a01b031916928416929092179091555190915081907f6d81014c4ba5f7f41ae2cd769631d96c2460c65a1670dcc27be5b3139bd13bd99061017f9085908490610234565b60405180910390a15050600160005550565b6001546001600160a01b031681565b6000808260601b9050604051733d602d80600a3d3981f3363d3d373d3d3d363d7360601b81528160148201526e5af43d82803e903d91602b57fd5bf360881b60288201526037816000f0949350505050565b600060208284031215610203578081fd5b81356001600160a01b0381168114610219578182fd5b9392505050565b6001600160a01b0391909116815260200190565b6001600160a01b0392831681529116602082015260400190565b60208082526010908201526f34b73b30b634b2103230b79030b2323960811b604082015260600190565b6020808252601f908201527f5265656e7472616e637947756172643a207265656e7472616e742063616c6c0060408201526060019056fea26469706673582212200b6ef8382d4ca36f7788e81e70791b9f3c67575a109e7fccddd765a15aef5ae164736f6c63430008000033",
  "linkReferences": {},
  "deployedLinkReferences": {}
}