{
  "_format": "hh-sol-artifact-1",
  "contractName": "ERC20Extension",
  "sourceName": "build/contracts/extensions/token/erc20/ERC20TokenExtension.sol",
  "abi": [
    {
      "inputs": [],
      "stateMutability": "nonpayable",
      "type": "constructor"
    },
    {
      "anonymous": false,
      "inputs": [
        {
          "indexed": true,
          "internalType": "address",
          "name": "owner",
          "type": "address"
        },
        {
          "indexed": true,
          "internalType": "address",
          "name": "spender",
          "type": "address"
        },
        {
          "indexed": false,
          "internalType": "uint256",
          "name": "value",
          "type": "uint256"
        }
      ],
      "name": "Approval",
      "type": "event"
    },
    {
      "anonymous": false,
      "inputs": [
        {
          "indexed": true,
          "internalType": "address",
          "name": "from",
          "type": "address"
        },
        {
          "indexed": true,
          "internalType": "address",
          "name": "to",
          "type": "address"
        },
        {
          "indexed": false,
          "internalType": "uint256",
          "name": "value",
          "type": "uint256"
        }
      ],
      "name": "Transfer",
      "type": "event"
    },
    {
      "inputs": [
        {
          "internalType": "address",
          "name": "owner",
          "type": "address"
        },
        {
          "internalType": "address",
          "name": "spender",
          "type": "address"
        }
      ],
      "name": "allowance",
      "outputs": [
        {
          "internalType": "uint256",
          "name": "",
          "type": "uint256"
        }
      ],
      "stateMutability": "view",
      "type": "function"
    },
    {
      "inputs": [
        {
          "internalType": "address",
          "name": "spender",
          "type": "address"
        },
        {
          "internalType": "uint256",
          "name": "amount",
          "type": "uint256"
        }
      ],
      "name": "approve",
      "outputs": [
        {
          "internalType": "bool",
          "name": "",
          "type": "bool"
        }
      ],
      "stateMutability": "nonpayable",
      "type": "function"
    },
    {
      "inputs": [
        {
          "internalType": "address",
          "name": "account",
          "type": "address"
        }
      ],
      "name": "balanceOf",
      "outputs": [
        {
          "internalType": "uint256",
          "name": "",
          "type": "uint256"
        }
      ],
      "stateMutability": "view",
      "type": "function"
    },
    {
      "inputs": [],
      "name": "dao",
      "outputs": [
        {
          "internalType": "contract DaoRegistry",
          "name": "",
          "type": "address"
        }
      ],
      "stateMutability": "view",
      "type": "function"
    },
    {
      "inputs": [],
      "name": "decimals",
      "outputs": [
        {
          "internalType": "uint8",
          "name": "",
          "type": "uint8"
        }
      ],
      "stateMutability": "view",
      "type": "function"
    },
    {
      "inputs": [
        {
          "internalType": "address",
          "name": "account",
          "type": "address"
        },
        {
          "internalType": "uint256",
          "name": "snapshot",
          "type": "uint256"
        }
      ],
      "name": "getPriorAmount",
      "outputs": [
        {
          "internalType": "uint256",
          "name": "",
          "type": "uint256"
        }
      ],
      "stateMutability": "view",
      "type": "function"
    },
    {
      "inputs": [
        {
          "internalType": "contract DaoRegistry",
          "name": "_dao",
          "type": "address"
        },
        {
          "internalType": "address",
          "name": "creator",
          "type": "address"
        }
      ],
      "name": "initialize",
      "outputs": [],
      "stateMutability": "nonpayable",
      "type": "function"
    },
    {
      "inputs": [],
      "name": "initialized",
      "outputs": [
        {
          "internalType": "bool",
          "name": "",
          "type": "bool"
        }
      ],
      "stateMutability": "view",
      "type": "function"
    },
    {
      "inputs": [],
      "name": "name",
      "outputs": [
        {
          "internalType": "string",
          "name": "",
          "type": "string"
        }
      ],
      "stateMutability": "view",
      "type": "function"
    },
    {
      "inputs": [
        {
          "internalType": "uint8",
          "name": "_decimals",
          "type": "uint8"
        }
      ],
      "name": "setDecimals",
      "outputs": [],
      "stateMutability": "nonpayable",
      "type": "function"
    },
    {
      "inputs": [
        {
          "internalType": "string",
          "name": "_name",
          "type": "string"
        }
      ],
      "name": "setName",
      "outputs": [],
      "stateMutability": "nonpayable",
      "type": "function"
    },
    {
      "inputs": [
        {
          "internalType": "string",
          "name": "_symbol",
          "type": "string"
        }
      ],
      "name": "setSymbol",
      "outputs": [],
      "stateMutability": "nonpayable",
      "type": "function"
    },
    {
      "inputs": [
        {
          "internalType": "address",
          "name": "_tokenAddress",
          "type": "address"
        }
      ],
      "name": "setToken",
      "outputs": [],
      "stateMutability": "nonpayable",
      "type": "function"
    },
    {
      "inputs": [],
      "name": "symbol",
      "outputs": [
        {
          "internalType": "string",
          "name": "",
          "type": "string"
        }
      ],
      "stateMutability": "view",
      "type": "function"
    },
    {
      "inputs": [],
      "name": "token",
      "outputs": [
        {
          "internalType": "address",
          "name": "",
          "type": "address"
        }
      ],
      "stateMutability": "view",
      "type": "function"
    },
    {
      "inputs": [],
      "name": "tokenAddress",
      "outputs": [
        {
          "internalType": "address",
          "name": "",
          "type": "address"
        }
      ],
      "stateMutability": "view",
      "type": "function"
    },
    {
      "inputs": [],
      "name": "tokenDecimals",
      "outputs": [
        {
          "internalType": "uint8",
          "name": "",
          "type": "uint8"
        }
      ],
      "stateMutability": "view",
      "type": "function"
    },
    {
      "inputs": [],
      "name": "tokenName",
      "outputs": [
        {
          "internalType": "string",
          "name": "",
          "type": "string"
        }
      ],
      "stateMutability": "view",
      "type": "function"
    },
    {
      "inputs": [],
      "name": "tokenSymbol",
      "outputs": [
        {
          "internalType": "string",
          "name": "",
          "type": "string"
        }
      ],
      "stateMutability": "view",
      "type": "function"
    },
    {
      "inputs": [],
      "name": "totalSupply",
      "outputs": [
        {
          "internalType": "uint256",
          "name": "",
          "type": "uint256"
        }
      ],
      "stateMutability": "view",
      "type": "function"
    },
    {
      "inputs": [
        {
          "internalType": "address",
          "name": "recipient",
          "type": "address"
        },
        {
          "internalType": "uint256",
          "name": "amount",
          "type": "uint256"
        }
      ],
      "name": "transfer",
      "outputs": [
        {
          "internalType": "bool",
          "name": "",
          "type": "bool"
        }
      ],
      "stateMutability": "nonpayable",
      "type": "function"
    },
    {
      "inputs": [
        {
          "internalType": "address",
          "name": "sender",
          "type": "address"
        },
        {
          "internalType": "address",
          "name": "recipient",
          "type": "address"
        },
        {
          "internalType": "uint256",
          "name": "amount",
          "type": "uint256"
        }
      ],
      "name": "transferFrom",
      "outputs": [
        {
          "internalType": "bool",
          "name": "",
          "type": "bool"
        }
      ],
      "stateMutability": "nonpayable",
      "type": "function"
    }
  ],
  "bytecode": "0x60806040526000805460ff60a01b1916905534801561001d57600080fd5b50611ca88061002d6000396000f3fe608060405234801561001057600080fd5b50600436106101425760003560e01c80636c02a931116100b85780639d76ea581161007c5780639d76ea5814610260578063a9059cbb14610268578063b84c82461461027b578063c47f00271461028e578063dd62ed3e146102a1578063fc0c546a146102b457610142565b80636c02a9311461022257806370a082311461022a5780637a1395aa1461023d5780637b61c3201461025057806395d89b411461025857610142565b806318160ddd1161010a57806318160ddd146101c257806323b872dd146101ca578063313ce567146101dd5780633b97e856146101f25780634162169f146101fa578063485cc9551461020f57610142565b80630435f48b1461014757806306fdde0314610170578063095ea7b314610185578063144fa6d7146101a5578063158ef93e146101ba575b600080fd5b61015a6101553660046115b3565b6102bc565b6040516101679190611777565b60405180910390f35b6101786103db565b6040516101679190611815565b6101986101933660046115b3565b61046d565b604051610167919061176c565b6101b86101b3366004611503565b6107c0565b005b610198610857565b61015a610867565b6101986101d8366004611573565b61098d565b6101e5610d00565b6040516101679190611bb8565b6101e5610d09565b610202610d12565b604051610167919061171a565b6101b861021d3660046115fe565b610d21565b610178610e97565b61015a610238366004611503565b610f25565b6101b861024b3660046116f9565b61104a565b61017861108a565b610178611097565b6102026110a6565b6101986102763660046115b3565b6110b5565b6101b8610289366004611640565b61113f565b6101b861029c366004611640565b611180565b61015a6102af36600461153b565b6111bd565b6102026111e8565b60008054604051632c9f4b5b60e11b815282916001600160a01b03169063593e96b6906102fb90600080516020611c5383398151915290600401611777565b60206040518083038186803b15801561031357600080fd5b505afa158015610327573d6000803e3d6000fd5b505050506040513d601f19601f8201168201806040525081019061034b919061151f565b60015460405163faaf38b360e01b81529192506001600160a01b038084169263faaf38b3926103839289929116908890600401611748565b60206040518083038186803b15801561039b57600080fd5b505afa1580156103af573d6000803e3d6000fd5b505050506040513d601f19601f820116820180604052508101906103d391906116e1565b949350505050565b6060600280546103ea90611be9565b80601f016020809104026020016040519081016040528092919081815260200182805461041690611be9565b80156104635780601f1061043857610100808354040283529160200191610463565b820191906000526020600020905b81548152906001019060200180831161044657829003601f168201915b5050505050905090565b60008060009054906101000a90046001600160a01b031643816001600160a01b031663b21634826040518163ffffffff1660e01b815260040160206040518083038186803b1580156104be57600080fd5b505afa1580156104d2573d6000803e3d6000fd5b505050506040513d601f19601f820116820180604052508101906104f691906116e1565b141561051d5760405162461bcd60e51b8152600401610514906119ef565b60405180910390fd5b806001600160a01b03166310fdb0a26040518163ffffffff1660e01b8152600401600060405180830381600087803b15801561055857600080fd5b505af115801561056c573d6000803e3d6000fd5b50506000805460405163644ddc5d60e11b81529193506001600160a01b0316915063c89bb8ba906105a190339060040161171a565b60206040518083038186803b1580156105b957600080fd5b505afa1580156105cd573d6000803e3d6000fd5b505050506040513d601f19601f820116820180604052508101906105f1919061151f565b90506105fc816111f7565b6106185760405162461bcd60e51b815260040161051490611ae2565b610621856111f7565b61063d5760405162461bcd60e51b815260040161051490611908565b60005460405163288c314960e21b81526001600160a01b039091169063a230c5249061066d90849060040161171a565b60206040518083038186803b15801561068557600080fd5b505afa158015610699573d6000803e3d6000fd5b505050506040513d601f19601f820116820180604052508101906106bd91906115de565b6106d95760405162461bcd60e51b81526004016105149061194a565b6106e285611205565b6106fe5760405162461bcd60e51b81526004016105149061197a565b6001600160a01b038082166000818152600560209081526040808320948a168084529490915290819020879055517f8c5be1e5ebec7d5bd14f71427d1e84f3dd0314c0f7b2291e5b200ac8c7c3b92590610759908890611777565b60405180910390a36001925050806001600160a01b031663d4f7af436040518163ffffffff1660e01b8152600401600060405180830381600087803b1580156107a157600080fd5b505af11580156107b5573d6000803e3d6000fd5b505050505092915050565b600054600160a01b900460ff16156107ea5760405162461bcd60e51b815260040161051490611a19565b6001600160a01b0381166108105760405162461bcd60e51b8152600401610514906118d9565b61081981611205565b6108355760405162461bcd60e51b815260040161051490611b52565b600180546001600160a01b0319166001600160a01b0392909216919091179055565b600054600160a01b900460ff1681565b60008054604051632c9f4b5b60e11b815282916001600160a01b03169063593e96b6906108a690600080516020611c5383398151915290600401611777565b60206040518083038186803b1580156108be57600080fd5b505afa1580156108d2573d6000803e3d6000fd5b505050506040513d601f19601f820116820180604052508101906108f6919061151f565b600154604051633de222bb60e21b81529192506001600160a01b038084169263f7888aec9261092e9261babe9291169060040161172e565b60206040518083038186803b15801561094657600080fd5b505afa15801561095a573d6000803e3d6000fd5b505050506040513d601f19601f8201168201806040525081019061097e919061151f565b6001600160a01b031691505090565b6000610998836111f7565b6109b45760405162461bcd60e51b815260040161051490611868565b600080546040516317ba7d8560e01b81526001600160a01b03909116906317ba7d8590610a05907f3b502cf501326dc803b7dc895a7a37d8a718496cf2bf54da8a486e0a1f099da190600401611777565b60206040518083038186803b158015610a1d57600080fd5b505afa158015610a31573d6000803e3d6000fd5b505050506040513d601f19601f82011682018060405250810190610a55919061151f565b600080546001546040516367ae86d560e11b8152939450919283926001600160a01b038087169363cf5d0daa93610a9e9391831692909116908c908c908c9033906004016117b3565b604080518083038186803b158015610ab557600080fd5b505afa158015610ac9573d6000803e3d6000fd5b505050506040513d601f19601f82011682018060405250810190610aed9190611610565b60008054604051632c9f4b5b60e11b8152939550919350916001600160a01b039091169063593e96b690610b3390600080516020611c5383398151915290600401611777565b60206040518083038186803b158015610b4b57600080fd5b505afa158015610b5f573d6000803e3d6000fd5b505050506040513d601f19601f82011682018060405250810190610b83919061151f565b90506000836002811115610ba757634e487b7160e01b600052602160045260246000fd5b1415610bc55760405162461bcd60e51b8152600401610514906118ab565b6002836002811115610be757634e487b7160e01b600052602160045260246000fd5b1415610c5157610bf98888888461124a565b866001600160a01b0316886001600160a01b03167fddf252ad1be2c89b69c2b068fc378daa952ba7f163c4a11628f55a4df523b3ef88604051610c3c9190611777565b60405180910390a36001945050505050610cf9565b6001600160a01b0388163314610cdd576001600160a01b038816600090815260056020908152604080832033845290915290205486811015610ca55760405162461bcd60e51b815260040161051490611a6c565b868310610cdb57610cb68782611bc6565b6001600160a01b038a1660009081526005602090815260408083203384529091529020555b505b858210610cf057610bf98888888461124a565b60009450505050505b9392505050565b60045460ff1690565b60045460ff1681565b6000546001600160a01b031681565b600054600160a01b900460ff1615610d4b5760405162461bcd60e51b815260040161051490611a19565b60405163288c314960e21b81526001600160a01b0383169063a230c52490610d7790849060040161171a565b60206040518083038186803b158015610d8f57600080fd5b505afa158015610da3573d6000803e3d6000fd5b505050506040513d601f19601f82011682018060405250810190610dc791906115de565b610de35760405162461bcd60e51b815260040161051490611a46565b6001546001600160a01b0316610e0b5760405162461bcd60e51b815260040161051490611b89565b60028054610e1890611be9565b15159050610e385760405162461bcd60e51b815260040161051490611b26565b60038054610e4590611be9565b15159050610e655760405162461bcd60e51b815260040161051490611ab4565b5060008054600160a01b60ff60a01b19909116176001600160a01b0319166001600160a01b0392909216919091179055565b60028054610ea490611be9565b80601f0160208091040260200160405190810160405280929190818152602001828054610ed090611be9565b8015610f1d5780601f10610ef257610100808354040283529160200191610f1d565b820191906000526020600020905b815481529060010190602001808311610f0057829003601f168201915b505050505081565b60008054604051632c9f4b5b60e11b815282916001600160a01b03169063593e96b690610f6490600080516020611c5383398151915290600401611777565b60206040518083038186803b158015610f7c57600080fd5b505afa158015610f90573d6000803e3d6000fd5b505050506040513d601f19601f82011682018060405250810190610fb4919061151f565b600154604051633de222bb60e21b81529192506001600160a01b038084169263f7888aec92610fea92889291169060040161172e565b60206040518083038186803b15801561100257600080fd5b505afa158015611016573d6000803e3d6000fd5b505050506040513d601f19601f8201168201806040525081019061103a919061151f565b6001600160a01b03169392505050565b600054600160a01b900460ff16156110745760405162461bcd60e51b815260040161051490611a19565b6004805460ff191660ff92909216919091179055565b60038054610ea490611be9565b6060600380546103ea90611be9565b6001546001600160a01b031681565b6000805460405163644ddc5d60e11b8152610cf9916001600160a01b03169063c89bb8ba906110e890339060040161171a565b60206040518083038186803b15801561110057600080fd5b505afa158015611114573d6000803e3d6000fd5b505050506040513d601f19601f82011682018060405250810190611138919061151f565b848461098d565b600054600160a01b900460ff16156111695760405162461bcd60e51b815260040161051490611a19565b805161117c90600390602084019061146a565b5050565b600054600160a01b900460ff16156111aa5760405162461bcd60e51b815260040161051490611a19565b805161117c90600290602084019061146a565b6001600160a01b03918216600090815260056020908152604080832093909416825291909152205490565b6001546001600160a01b031690565b6001600160a01b0316151590565b60006001600160a01b03821661dead1480159061122d57506001600160a01b03821661babe14155b801561124457506001600160a01b038216614bec14155b92915050565b6000546112629084906001600160a01b0316836112d9565b60005460015460405163413c1be360e11b81526001600160a01b038085169363827837c6936112a193918316928a928a92909116908990600401611780565b600060405180830381600087803b1580156112bb57600080fd5b505af11580156112cf573d6000803e3d6000fd5b5050505050505050565b604051636e494fa560e11b81526001600160a01b0383169063dc929f4a9061130590869060040161171a565b600060405180830381600087803b15801561131f57600080fd5b505af1158015611333573d6000803e3d6000fd5b505050506001600160a01b03831661135d5760405162461bcd60e51b8152600401610514906119bf565b6001600160a01b0381161561146557604051633de222bb60e21b81526001600160a01b0382169063f7888aec9061139e90869063decafbad9060040161172e565b60206040518083038186803b1580156113b657600080fd5b505afa1580156113ca573d6000803e3d6000fd5b505050506040513d601f19601f820116820180604052508101906113ee919061151f565b6001600160a01b03166114655760405163036d74dd60e11b81526001600160a01b038216906306dae9ba90611432908590879063decafbad906001906004016117eb565b600060405180830381600087803b15801561144c57600080fd5b505af1158015611460573d6000803e3d6000fd5b505050505b505050565b82805461147690611be9565b90600052602060002090601f01602090048101928261149857600085556114de565b82601f106114b157805160ff19168380011785556114de565b828001600101855582156114de579182015b828111156114de5782518255916020019190600101906114c3565b506114ea9291506114ee565b5090565b5b808211156114ea57600081556001016114ef565b600060208284031215611514578081fd5b8135610cf981611c3a565b600060208284031215611530578081fd5b8151610cf981611c3a565b6000806040838503121561154d578081fd5b823561155881611c3a565b9150602083013561156881611c3a565b809150509250929050565b600080600060608486031215611587578081fd5b833561159281611c3a565b925060208401356115a281611c3a565b929592945050506040919091013590565b600080604083850312156115c5578182fd5b82356115d081611c3a565b946020939093013593505050565b6000602082840312156115ef578081fd5b81518015158114610cf9578182fd5b6000806040838503121561154d578182fd5b60008060408385031215611622578182fd5b825160038110611630578283fd5b6020939093015192949293505050565b60006020808385031215611652578182fd5b823567ffffffffffffffff80821115611669578384fd5b818501915085601f83011261167c578384fd5b81358181111561168e5761168e611c24565b604051601f8201601f19168101850183811182821017156116b1576116b1611c24565b60405281815283820185018810156116c7578586fd5b818585018683013790810190930193909352509392505050565b6000602082840312156116f2578081fd5b5051919050565b60006020828403121561170a578081fd5b813560ff81168114610cf9578182fd5b6001600160a01b0391909116815260200190565b6001600160a01b0392831681529116602082015260400190565b6001600160a01b039384168152919092166020820152604081019190915260600190565b901515815260200190565b90815260200190565b6001600160a01b039586168152938516602085015291841660408401529092166060820152608081019190915260a00190565b6001600160a01b039687168152948616602086015292851660408501529084166060840152608083015290911660a082015260c00190565b6001600160a01b039485168152928416602084015292166040820152606081019190915260800190565b6000602080835283518082850152825b8181101561184157858101830151858201604001528201611825565b818111156118525783604083870101525b50601f01601f1916929092016040019392505050565b60208082526023908201527f45524332303a207472616e7366657220746f20746865207a65726f206164647260408201526265737360e81b606082015260800190565b6020808252601490820152731d1c985b9cd9995c881b9bdd08185b1b1bddd95960621b604082015260600190565b602080825260159082015274696e76616c696420746f6b656e206164647265737360581b604082015260600190565b60208082526022908201527f45524332303a20617070726f766520746f20746865207a65726f206164647265604082015261737360f01b606082015260800190565b60208082526016908201527539b2b73232b91034b9903737ba10309036b2b6b132b960511b604082015260600190565b60208082526025908201527f7370656e6465722063616e206e6f742062652061207265736572766564206164604082015264647265737360d81b606082015260800190565b602080825260169082015275696e76616c6964206d656d626572206164647265737360501b604082015260600190565b60208082526010908201526f1c99595b9d1c985b98de4819dd585c9960821b604082015260600190565b602080825260139082015272185b1c9958591e481a5b9a5d1a585b1a5e9959606a1b604082015260600190565b6020808252600c908201526b3737ba10309036b2b6b132b960a11b604082015260600190565b60208082526028908201527f45524332303a207472616e7366657220616d6f756e74206578636565647320616040820152676c6c6f77616e636560c01b606082015260800190565b6020808252601490820152731b5a5cdcda5b99c81d1bdad95b881cde5b589bdb60621b604082015260600190565b60208082526024908201527f45524332303a20617070726f76652066726f6d20746865207a65726f206164646040820152637265737360e01b606082015260800190565b6020808252601290820152716d697373696e6720746f6b656e206e616d6560701b604082015260600190565b6020808252601c908201527f746f6b656e206164647265737320616c726561647920696e2075736500000000604082015260600190565b6020808252601590820152746d697373696e6720746f6b656e206164647265737360581b604082015260600190565b60ff91909116815260200190565b600082821015611be457634e487b7160e01b81526011600452602481fd5b500390565b600281046001821680611bfd57607f821691505b60208210811415611c1e57634e487b7160e01b600052602260045260246000fd5b50919050565b634e487b7160e01b600052604160045260246000fd5b6001600160a01b0381168114611c4f57600080fd5b5056feea0ca03c7adbe41dc655fec28a9209dc8e6e042f3d991a67765ba285b9cf73a0a2646970667358221220efb4a859ce4c35dcb4b87c41ebc4b0e15737e010dd839927352b9397374dbc3864736f6c63430008000033",
  "linkReferences": {},
  "deployedLinkReferences": {}
}