{
  "_format": "hh-sol-artifact-1",
  "contractName": "ExecutorExtension",
  "sourceName": "build/contracts/extensions/executor/Executor.sol",
  "abi": [
    {
      "inputs": [],
      "stateMutability": "nonpayable",
      "type": "constructor"
    },
    {
      "stateMutability": "payable",
      "type": "fallback"
    },
    {
      "inputs": [],
      "name": "dao",
      "outputs": [
        {
          "internalType": "contract DaoRegistry",
          "name": "",
          "type": "address"
        }
      ],
      "stateMutability": "view",
      "type": "function"
    },
    {
      "inputs": [
        {
          "internalType": "contract DaoRegistry",
          "name": "_dao",
          "type": "address"
        },
        {
          "internalType": "address",
          "name": "creator",
          "type": "address"
        }
      ],
      "name": "initialize",
      "outputs": [],
      "stateMutability": "nonpayable",
      "type": "function"
    },
    {
      "inputs": [],
      "name": "initialized",
      "outputs": [
        {
          "internalType": "bool",
          "name": "",
          "type": "bool"
        }
      ],
      "stateMutability": "view",
      "type": "function"
    },
    {
      "stateMutability": "payable",
      "type": "receive"
    }
  ],
  "bytecode": "0x60806040526000805460ff1916905534801561001a57600080fd5b506108ac8061002a6000396000f3fe6080604052600436106100385760003560e01c8063158ef93e1461004f5780634162169f1461007a578063485cc9551461009c57610047565b36610047576100456100bc565b005b6100456100bc565b34801561005b57600080fd5b506100646100c7565b60405161007191906106f6565b60405180910390f35b34801561008657600080fd5b5061008f6100d0565b60405161007191906106bc565b3480156100a857600080fd5b506100456100b736600461064d565b6100e4565b6100c5336101d8565b565b60005460ff1681565b60005461010090046001600160a01b031681565b60005460ff16156101105760405162461bcd60e51b815260040161010790610785565b60405180910390fd5b60405163288c314960e21b81526001600160a01b0383169063a230c5249061013c9084906004016106bc565b60206040518083038186803b15801561015457600080fd5b505afa158015610168573d6000803e3d6000fd5b505050506040513d601f19601f8201168201806040525081019061018c9190610626565b6101a85760405162461bcd60e51b8152600401610107906107ba565b506000805460ff196001600160a01b0390931661010002610100600160a81b031990911617919091166001179055565b6000303314806101f7575060005461010090046001600160a01b031633145b8061021757506000546102179061010090046001600160a01b03166103c0565b806102c0575060005461010090046001600160a01b0316636cfdc32e333084801561025257634e487b7160e01b600052602160045260246000fd5b6040518463ffffffff1660e01b8152600401610270939291906106d0565b60206040518083038186803b15801561028857600080fd5b505afa15801561029c573d6000803e3d6000fd5b505050506040513d601f19601f820116820180604052508101906102c09190610626565b6102dc5760405162461bcd60e51b815260040161010790610701565b6102e5826105d7565b6103015760405162461bcd60e51b815260040161010790610815565b61030a826105e5565b6103265760405162461bcd60e51b815260040161010790610738565b6000806000368080601f01602080910402602001604051908101604052809392919081815260200183838082843760009201829052506024850151905490965093945050505061010090046001600160a01b039081169083161461039c5760405162461bcd60e51b8152600401610107906107f1565b3660008037600080366000875af43d6000803e8080156103bb573d6000f35b3d6000fd5b600080826001600160a01b031663c19d93fb6040518163ffffffff1660e01b815260040160206040518083038186803b1580156103fc57600080fd5b505afa158015610410573d6000803e3d6000fd5b505050506040513d601f19601f820116820180604052508101906104349190610685565b600181111561045357634e487b7160e01b600052602160045260246000fd5b1480156105d15750816001600160a01b031663c67143666040518163ffffffff1660e01b815260040160206040518083038186803b15801561049457600080fd5b505afa1580156104a8573d6000803e3d6000fd5b505050506040513d601f19601f820116820180604052508101906104cc91906106a4565b158061054f575060405163288c314960e21b81526001600160a01b0383169063a230c524906104ff9033906004016106bc565b60206040518083038186803b15801561051757600080fd5b505afa15801561052b573d6000803e3d6000fd5b505050506040513d601f19601f8201168201806040525081019061054f9190610626565b806105d157506040516368c18beb60e01b81526001600160a01b038316906368c18beb906105819033906004016106bc565b60206040518083038186803b15801561059957600080fd5b505afa1580156105ad573d6000803e3d6000fd5b505050506040513d601f19601f820116820180604052508101906105d19190610626565b92915050565b6001600160a01b0316151590565b60006001600160a01b03821661dead1480159061060d57506001600160a01b03821661babe14155b80156105d15750506001600160a01b0316614bec141590565b600060208284031215610637578081fd5b81518015158114610646578182fd5b9392505050565b6000806040838503121561065f578081fd5b823561066a8161085e565b9150602083013561067a8161085e565b809150509250929050565b600060208284031215610696578081fd5b815160028110610646578182fd5b6000602082840312156106b5578081fd5b5051919050565b6001600160a01b0391909116815260200190565b6001600160a01b03938416815291909216602082015260ff909116604082015260600190565b901515815260200190565b60208082526019908201527f6578656375746f724578743a3a61636365737344656e69656400000000000000604082015260600190565b6020808252602d908201527f6578656375746f724578743a20696d706c20616464726573732063616e206e6f60408201526c1d081899481c995cd95c9d9959609a1b606082015260800190565b6020808252818101527f6578656375746f724578743a3a616c726561647920696e697469616c697a6564604082015260600190565b60208082526017908201527f6578656375746f724578743a3a6e6f74206d656d626572000000000000000000604082015260600190565b6020808252600a908201526977726f6e672064616f2160b01b604082015260600190565b60208082526029908201527f6578656375746f724578743a20696d706c20616464726573732063616e206e6f60408201526874206265207a65726f60b81b606082015260800190565b6001600160a01b038116811461087357600080fd5b5056fea26469706673582212202dd982bf1eb2469086c3f3f58986ff7fcfd20946b17e0ad5755dd7e7991adaee64736f6c63430008000033",
  "linkReferences": {},
  "deployedLinkReferences": {}
}