{
  "_format": "hh-sol-artifact-1",
  "contractName": "OffchainVotingHashContract",
  "sourceName": "build/contracts/adapters/voting/OffchainVotingHash.sol",
  "abi": [
    {
      "inputs": [
        {
          "internalType": "contract SnapshotProposalContract",
          "name": "_spc",
          "type": "address"
        }
      ],
      "stateMutability": "nonpayable",
      "type": "constructor"
    },
    {
      "inputs": [],
      "name": "VOTE_RESULT_NODE_TYPE",
      "outputs": [
        {
          "internalType": "string",
          "name": "",
          "type": "string"
        }
      ],
      "stateMutability": "view",
      "type": "function"
    },
    {
      "inputs": [],
      "name": "VOTE_RESULT_NODE_TYPEHASH",
      "outputs": [
        {
          "internalType": "bytes32",
          "name": "",
          "type": "bytes32"
        }
      ],
      "stateMutability": "view",
      "type": "function"
    },
    {
      "inputs": [],
      "name": "VOTE_RESULT_ROOT_TYPE",
      "outputs": [
        {
          "internalType": "string",
          "name": "",
          "type": "string"
        }
      ],
      "stateMutability": "view",
      "type": "function"
    },
    {
      "inputs": [],
      "name": "VOTE_RESULT_ROOT_TYPEHASH",
      "outputs": [
        {
          "internalType": "bytes32",
          "name": "",
          "type": "bytes32"
        }
      ],
      "stateMutability": "view",
      "type": "function"
    },
    {
      "inputs": [
        {
          "internalType": "contract DaoRegistry",
          "name": "dao",
          "type": "address"
        },
        {
          "internalType": "address",
          "name": "actionId",
          "type": "address"
        },
        {
          "components": [
            {
              "internalType": "uint32",
              "name": "choice",
              "type": "uint32"
            },
            {
              "internalType": "uint64",
              "name": "index",
              "type": "uint64"
            },
            {
              "internalType": "uint64",
              "name": "timestamp",
              "type": "uint64"
            },
            {
              "internalType": "uint88",
              "name": "nbNo",
              "type": "uint88"
            },
            {
              "internalType": "uint88",
              "name": "nbYes",
              "type": "uint88"
            },
            {
              "internalType": "bytes",
              "name": "sig",
              "type": "bytes"
            },
            {
              "internalType": "bytes32",
              "name": "proposalId",
              "type": "bytes32"
            },
            {
              "internalType": "bytes32[]",
              "name": "proof",
              "type": "bytes32[]"
            }
          ],
          "internalType": "struct OffchainVotingHashContract.VoteResultNode",
          "name": "node",
          "type": "tuple"
        },
        {
          "internalType": "uint256",
          "name": "snapshot",
          "type": "uint256"
        },
        {
          "components": [
            {
              "internalType": "uint256",
              "name": "previousYes",
              "type": "uint256"
            },
            {
              "internalType": "uint256",
              "name": "previousNo",
              "type": "uint256"
            },
            {
              "internalType": "bytes32",
              "name": "proposalId",
              "type": "bytes32"
            }
          ],
          "internalType": "struct OffchainVotingHashContract.VoteStepParams",
          "name": "params",
          "type": "tuple"
        }
      ],
      "name": "checkStep",
      "outputs": [
        {
          "internalType": "bool",
          "name": "",
          "type": "bool"
        }
      ],
      "stateMutability": "view",
      "type": "function"
    },
    {
      "inputs": [
        {
          "internalType": "contract DaoRegistry",
          "name": "dao",
          "type": "address"
        },
        {
          "internalType": "address",
          "name": "actionId",
          "type": "address"
        },
        {
          "internalType": "address",
          "name": "voter",
          "type": "address"
        },
        {
          "internalType": "uint64",
          "name": "timestamp",
          "type": "uint64"
        },
        {
          "internalType": "bytes32",
          "name": "proposalId",
          "type": "bytes32"
        },
        {
          "internalType": "uint32",
          "name": "choiceIdx",
          "type": "uint32"
        },
        {
          "internalType": "bytes",
          "name": "sig",
          "type": "bytes"
        }
      ],
      "name": "hasVoted",
      "outputs": [
        {
          "internalType": "bool",
          "name": "",
          "type": "bool"
        }
      ],
      "stateMutability": "view",
      "type": "function"
    },
    {
      "inputs": [
        {
          "internalType": "contract DaoRegistry",
          "name": "dao",
          "type": "address"
        },
        {
          "internalType": "address",
          "name": "actionId",
          "type": "address"
        },
        {
          "internalType": "bytes32",
          "name": "resultRoot",
          "type": "bytes32"
        }
      ],
      "name": "hashResultRoot",
      "outputs": [
        {
          "internalType": "bytes32",
          "name": "",
          "type": "bytes32"
        }
      ],
      "stateMutability": "view",
      "type": "function"
    },
    {
      "inputs": [
        {
          "components": [
            {
              "internalType": "uint32",
              "name": "choice",
              "type": "uint32"
            },
            {
              "internalType": "uint64",
              "name": "index",
              "type": "uint64"
            },
            {
              "internalType": "uint64",
              "name": "timestamp",
              "type": "uint64"
            },
            {
              "internalType": "uint88",
              "name": "nbNo",
              "type": "uint88"
            },
            {
              "internalType": "uint88",
              "name": "nbYes",
              "type": "uint88"
            },
            {
              "internalType": "bytes",
              "name": "sig",
              "type": "bytes"
            },
            {
              "internalType": "bytes32",
              "name": "proposalId",
              "type": "bytes32"
            },
            {
              "internalType": "bytes32[]",
              "name": "proof",
              "type": "bytes32[]"
            }
          ],
          "internalType": "struct OffchainVotingHashContract.VoteResultNode",
          "name": "node",
          "type": "tuple"
        }
      ],
      "name": "hashVotingResultNode",
      "outputs": [
        {
          "internalType": "bytes32",
          "name": "",
          "type": "bytes32"
        }
      ],
      "stateMutability": "pure",
      "type": "function"
    },
    {
      "inputs": [
        {
          "internalType": "contract DaoRegistry",
          "name": "dao",
          "type": "address"
        },
        {
          "internalType": "address",
          "name": "actionId",
          "type": "address"
        },
        {
          "components": [
            {
              "internalType": "uint32",
              "name": "choice",
              "type": "uint32"
            },
            {
              "internalType": "uint64",
              "name": "index",
              "type": "uint64"
            },
            {
              "internalType": "uint64",
              "name": "timestamp",
              "type": "uint64"
            },
            {
              "internalType": "uint88",
              "name": "nbNo",
              "type": "uint88"
            },
            {
              "internalType": "uint88",
              "name": "nbYes",
              "type": "uint88"
            },
            {
              "internalType": "bytes",
              "name": "sig",
              "type": "bytes"
            },
            {
              "internalType": "bytes32",
              "name": "proposalId",
              "type": "bytes32"
            },
            {
              "internalType": "bytes32[]",
              "name": "proof",
              "type": "bytes32[]"
            }
          ],
          "internalType": "struct OffchainVotingHashContract.VoteResultNode",
          "name": "node",
          "type": "tuple"
        }
      ],
      "name": "nodeHash",
      "outputs": [
        {
          "internalType": "bytes32",
          "name": "",
          "type": "bytes32"
        }
      ],
      "stateMutability": "view",
      "type": "function"
    },
    {
      "inputs": [],
      "name": "snapshotContract",
      "outputs": [
        {
          "internalType": "contract SnapshotProposalContract",
          "name": "",
          "type": "address"
        }
      ],
      "stateMutability": "view",
      "type": "function"
    },
    {
      "inputs": [
        {
          "internalType": "string",
          "name": "s",
          "type": "string"
        }
      ],
      "name": "stringToUint",
      "outputs": [
        {
          "internalType": "bool",
          "name": "success",
          "type": "bool"
        },
        {
          "internalType": "uint256",
          "name": "result",
          "type": "uint256"
        }
      ],
      "stateMutability": "pure",
      "type": "function"
    }
  ],
  "bytecode": "0x60806040523480156200001157600080fd5b5060405162001bef38038062001bef83398101604081905262000034916200008c565b6001600160a01b038116620000665760405162461bcd60e51b81526004016200005d90620000bc565b60405180910390fd5b600180546001600160a01b0319166001600160a01b0392909216919091179055620000e7565b6000602082840312156200009e578081fd5b81516001600160a01b0381168114620000b5578182fd5b9392505050565b6020808252601190820152701cdb985c1cda1bdd081c1c9bdc1bdcd85b607a1b604082015260600190565b611af880620000f76000396000f3fe608060405234801561001057600080fd5b50600436106100a95760003560e01c8063a4d08a9c11610071578063a4d08a9c14610126578063ca5172671461013b578063df6197cc1461015b578063ee3e7a281461016e578063ee772d2214610176578063f83ae4bb1461018b576100a9565b80631bd95155146100ae5780632f9abe8d146100d85780634a87400b146100f85780635bae28f51461010b5780636a71d09b14610113575b600080fd5b6100c16100bc366004611657565b610193565b6040516100cf9291906117ef565b60405180910390f35b6100eb6100e636600461169c565b610284565b6040516100cf91906117ff565b6100eb6101063660046114f7565b610317565b6100eb610447565b6100eb610121366004611537565b610489565b61012e610526565b6040516100cf91906118f2565b61014e610149366004611596565b610557565b6040516100cf91906117e4565b61014e61016936600461145a565b6107b4565b6100eb610884565b61017e6108c2565b6040516100cf9190611793565b61012e6108d1565b60008082815b815181101561027d5760308282815181106101c457634e487b7160e01b600052603260045260246000fd5b016020015160f81c10801590610202575060398282815181106101f757634e487b7160e01b600052603260045260246000fd5b016020015160f81c11155b1561025e57603082828151811061022957634e487b7160e01b600052603260045260246000fd5b016020015161023b919060f81c6119b0565b60ff1661024984600a611991565b6102539190611979565b92506001935061026b565b600092506000935061027d565b8061027581611a03565b915050610199565b5050915091565b6000604051806080016040528060608152602001611a63606091396040516020016102af91906116fa565b60405160208183030381529060405280519060200120826040015183608001518460600151856020015186600001518760c001516040516020016102f9979695949392919061182f565b6040516020818303038152906040528051906020012090505b919050565b60015460405163591e237160e01b81526000916001600160a01b03169063591e23719061034a9087908790600401611897565b60206040518083038186803b15801561036257600080fd5b505afa158015610376573d6000803e3d6000fd5b505050506040513d601f19601f8201168201806040525081019061039a919061141a565b604051806040016040528060158152602001744d657373616765286279746573333220726f6f742960581b8152506040516020016103d891906116fa565b6040516020818303038152906040528051906020012083604051602001610400929190611808565b60405160208183030381529060405280519060200120604051602001610427929190611778565b6040516020818303038152906040528051906020012090505b9392505050565b604051806080016040528060608152602001611a636060913960405160200161047091906116fa565b6040516020818303038152906040528051906020012081565b60015460405163591e237160e01b81526000916001600160a01b03169063591e2371906104bc9087908790600401611897565b60206040518083038186803b1580156104d457600080fd5b505afa1580156104e8573d6000803e3d6000fd5b505050506040513d601f19601f8201168201806040525081019061050c919061141a565b61051583610284565b604051602001610427929190611778565b604051806040016040528060158152602001744d657373616765286279746573333220726f6f742960581b81525081565b600080866001600160a01b0316634a19d91e886001600160a01b0316639029444a88602001516040518263ffffffff1660e01b8152600401610599919061193c565b60206040518083038186803b1580156105b157600080fd5b505afa1580156105c5573d6000803e3d6000fd5b505050506040513d601f19601f820116820180604052508101906105e991906113b1565b866040518363ffffffff1660e01b81526004016106079291906117cb565b60206040518083038186803b15801561061f57600080fd5b505afa158015610633573d6000803e3d6000fd5b505050506040513d601f19601f8201168201806040525081019061065791906113b1565b9050600061066b88838860c00151886108ed565b865190915063ffffffff166106c05785608001516001600160581b031684600001511461069d576001925050506107ab565b85606001516001600160581b03168460200151146106c0576001925050506107ab565b6106dc88888489604001518a60c0015160018c60a001516107b4565b156107325785608001516001600160581b03168185600001516106ff9190611979565b1461070f576001925050506107ab565b85606001516001600160581b0316846020015114610732576001925050506107ab565b61074e88888489604001518a60c0015160028c60a001516107b4565b156107a45785608001516001600160581b0316846000015114610776576001925050506107ab565b85606001516001600160581b03168185602001516107949190611979565b146107a4576001925050506107ab565b6000925050505b95945050505050565b6001546040805180820182526001600160401b03871681528151808301835263ffffffff861681526020818101889052820152905163ec6678b760e01b815260009283926001600160a01b039091169163ec6678b79161081a918d918d916004016118b1565b60206040518083038186803b15801561083257600080fd5b505afa158015610846573d6000803e3d6000fd5b505050506040513d601f19601f8201168201806040525081019061086a919061141a565b9050610877878285610c72565b9998505050505050505050565b604051806040016040528060158152602001744d657373616765286279746573333220726f6f742960581b81525060405160200161047091906116fa565b6001546001600160a01b031681565b604051806080016040528060608152602001611a636060913981565b600080856001600160a01b03166332ed5b12856040518263ffffffff1660e01b815260040161091c91906117ff565b604080518083038186803b15801561093357600080fd5b505afa158015610947573d6000803e3d6000fd5b505050506040513d601f19601f8201168201806040525081019061096b91906113cd565b5090506000866001600160a01b031663fd310d296040518060400160405280601081526020016f33b7bb32b93730b731b2973937b6329760811b815250846040516020016109ba929190611716565b604051602081830303815290604052805190602001206040518263ffffffff1660e01b81526004016109ec91906117ff565b60206040518083038186803b158015610a0457600080fd5b505afa158015610a18573d6000803e3d6000fd5b505050506040513d601f19601f82011682018060405250810190610a3c91906113b1565b9050610a4781610dcc565b15610a6157610a5887828887610dda565b92505050610c6a565b866001600160a01b031663fd310d296040518060400160405280601081526020016f33b7bb32b93730b731b2973937b6329760811b815250604051602001610aa9919061174d565b604051602081830303815290604052805190602001206040518263ffffffff1660e01b8152600401610adb91906117ff565b60206040518083038186803b158015610af357600080fd5b505afa158015610b07573d6000803e3d6000fd5b505050506040513d601f19601f82011682018060405250810190610b2b91906113b1565b9050610b3681610dcc565b15610b4757610a5887828887610dda565b604051632c9f4b5b60e11b81526001600160a01b0388169063593e96b690610b93907fea0ca03c7adbe41dc655fec28a9209dc8e6e042f3d991a67765ba285b9cf73a0906004016117ff565b60206040518083038186803b158015610bab57600080fd5b505afa158015610bbf573d6000803e3d6000fd5b505050506040513d601f19601f82011682018060405250810190610be391906113b1565b6001600160a01b031663faaf38b387620ff1ce876040518463ffffffff1660e01b8152600401610c15939291906117a7565b60206040518083038186803b158015610c2d57600080fd5b505afa158015610c41573d6000803e3d6000fd5b505050506040513d601f19601f82011682018060405250810190610c65919061141a565b925050505b949350505050565b6000806000610c818585611029565b90925090506000816004811115610ca857634e487b7160e01b600052602160045260246000fd5b148015610cc65750856001600160a01b0316826001600160a01b0316145b15610cd657600192505050610440565b600080876001600160a01b0316631626ba7e60e01b8888604051602401610cfe929190611816565b60408051601f198184030181529181526020820180516001600160e01b03166001600160e01b0319909416939093179092529051610d3c91906116fa565b600060405180830381855afa9150503d8060008114610d77576040519150601f19603f3d011682016040523d82523d6000602084013e610d7c565b606091505b5091509150818015610d8f575080516020145b8015610dc057508051630b135d3f60e11b90610db49083016020908101908401611432565b6001600160e01b031916145b98975050505050505050565b6001600160a01b0316151590565b600080856001600160a01b031663593e96b67fea0ca03c7adbe41dc655fec28a9209dc8e6e042f3d991a67765ba285b9cf73a06040518263ffffffff1660e01b8152600401610e2991906117ff565b60206040518083038186803b158015610e4157600080fd5b505afa158015610e55573d6000803e3d6000fd5b505050506040513d601f19601f82011682018060405250810190610e7991906113b1565b604051630a51990b60e11b81529091506001600160a01b038216906314a3321690610ea8908890600401611793565b60206040518083038186803b158015610ec057600080fd5b505afa158015610ed4573d6000803e3d6000fd5b505050506040513d601f19601f82011682018060405250810190610ef891906113fa565b15610f855760405163faaf38b360e01b81526001600160a01b0382169063faaf38b390610f2d908790899088906004016117a7565b60206040518083038186803b158015610f4557600080fd5b505afa158015610f59573d6000803e3d6000fd5b505050506040513d601f19601f82011682018060405250810190610f7d919061141a565b915050610c6a565b604051630435f48b60e01b81526001600160a01b03861690630435f48b90610fb390879087906004016117cb565b60206040518083038186803b158015610fcb57600080fd5b505afa925050508015610ffb575060408051601f3d908101601f19168201909252610ff89181019061141a565b60015b6110205760405162461bcd60e51b815260040161101790611905565b60405180910390fd5b9150610c6a9050565b6000808251604114156110605760208301516040840151606085015160001a61105487828585611099565b94509450505050611092565b82516040141561108a576020830151604084015161107f868383611179565b935093505050611092565b506000905060025b9250929050565b6000807f7fffffffffffffffffffffffffffffff5d576e7357a4501ddfe92f46681b20a08311156110d05750600090506003611170565b8460ff16601b141580156110e857508460ff16601c14155b156110f95750600090506004611170565b60006001878787876040516000815260200160405260405161111e9493929190611879565b6020604051602081039080840390855afa158015611140573d6000803e3d6000fd5b5050604051601f1901519150506001600160a01b03811661116957600060019250925050611170565b9150600090505b94509492505050565b6000806001600160ff1b03831660ff84901c601b0161119a87828885611099565b935093505050935093915050565b60006001600160401b038311156111c1576111c1611a34565b6111d4601f8401601f1916602001611950565b90508281528383830111156111e857600080fd5b828260208301376000602084830101529392505050565b600082601f83011261120f578081fd5b813560206001600160401b0382111561122a5761122a611a34565b808202611238828201611950565b838152828101908684018388018501891015611252578687fd5b8693505b85841015611274578035835260019390930192918401918401611256565b50979650505050505050565b600082601f830112611290578081fd5b610440838335602085016111a8565b60006101008083850312156112b2578182fd5b6112bb81611950565b9150506112c78261136f565b81526112d560208301611383565b60208201526112e660408301611383565b60408201526112f76060830161139a565b60608201526113086080830161139a565b608082015260a08201356001600160401b038082111561132757600080fd5b61133385838601611280565b60a084015260c084013560c084015260e084013591508082111561135657600080fd5b50611363848285016111ff565b60e08301525092915050565b803563ffffffff8116811461031257600080fd5b80356001600160401b038116811461031257600080fd5b80356001600160581b038116811461031257600080fd5b6000602082840312156113c2578081fd5b815161044081611a4a565b600080604083850312156113df578081fd5b82516113ea81611a4a565b6020939093015192949293505050565b60006020828403121561140b578081fd5b81518015158114610440578182fd5b60006020828403121561142b578081fd5b5051919050565b600060208284031215611443578081fd5b81516001600160e01b031981168114610440578182fd5b600080600080600080600060e0888a031215611474578283fd5b873561147f81611a4a565b9650602088013561148f81611a4a565b9550604088013561149f81611a4a565b94506114ad60608901611383565b9350608088013592506114c260a0890161136f565b915060c08801356001600160401b038111156114dc578182fd5b6114e88a828b01611280565b91505092959891949750929550565b60008060006060848603121561150b578081fd5b833561151681611a4a565b9250602084013561152681611a4a565b929592945050506040919091013590565b60008060006060848603121561154b578081fd5b833561155681611a4a565b9250602084013561156681611a4a565b915060408401356001600160401b03811115611580578182fd5b61158c8682870161129f565b9150509250925092565b600080600080600085870360e08112156115ae578384fd5b86356115b981611a4a565b955060208701356115c981611a4a565b945060408701356001600160401b03808211156115e4578586fd5b6115f08a838b0161129f565b95506060898101359550607f1984011215611609578384fd5b6040519250606083019150828210818311171561162857611628611a34565b5080604052506080870135815260a0870135602082015260c08701356040820152809150509295509295909350565b600060208284031215611668578081fd5b81356001600160401b0381111561167d578182fd5b8201601f8101841361168d578182fd5b610c6a848235602084016111a8565b6000602082840312156116ad578081fd5b81356001600160401b038111156116c2578182fd5b610c6a8482850161129f565b600081518084526116e68160208601602086016119d3565b601f01601f19169290920160200192915050565b6000825161170c8184602087016119d3565b9190910192915050565b600083516117288184602088016119d3565b60609390931b6bffffffffffffffffffffffff19169190920190815260140192915050565b6000825161175f8184602087016119d3565b66191959985d5b1d60ca1b920191825250600701919050565b61190160f01b81526002810192909252602282015260420190565b6001600160a01b0391909116815260200190565b6001600160a01b039384168152919092166020820152604081019190915260600190565b6001600160a01b03929092168252602082015260400190565b901515815260200190565b9115158252602082015260400190565b90815260200190565b918252602082015260400190565b600083825260406020830152610c6a60408301846116ce565b9687526001600160401b0395861660208801526001600160581b039485166040880152929093166060860152909216608084015263ffffffff1660a083015260c082015260e00190565b93845260ff9290921660208401526040830152606082015260800190565b6001600160a01b0392831681529116602082015260400190565b6001600160a01b039384168152919092166020808301919091528251604083015291820151805163ffffffff16606083015290910151608082015260a00190565b60006020825261044060208301846116ce565b6020808252601e908201527f6765745072696f72416d6f756e74206e6f7420696d706c656d656e7465640000604082015260600190565b6001600160401b0391909116815260200190565b6040518181016001600160401b038111828210171561197157611971611a34565b604052919050565b6000821982111561198c5761198c611a1e565b500190565b60008160001904831182151516156119ab576119ab611a1e565b500290565b600060ff821660ff8416808210156119ca576119ca611a1e565b90039392505050565b60005b838110156119ee5781810151838201526020016119d6565b838111156119fd576000848401525b50505050565b6000600019821415611a1757611a17611a1e565b5060010190565b634e487b7160e01b600052601160045260246000fd5b634e487b7160e01b600052604160045260246000fd5b6001600160a01b0381168114611a5f57600080fd5b5056fe4d6573736167652875696e7436342074696d657374616d702c75696e743838206e625965732c75696e743838206e624e6f2c75696e74333220696e6465782c75696e7433322063686f6963652c627974657333322070726f706f73616c496429a26469706673582212201a57cef9c3d365c8cfdb0e72c1141957d1209bf8f7983442ce36213707a5bf4664736f6c63430008000033",
  "linkReferences": {},
  "deployedLinkReferences": {}
}