{
  "_format": "hh-sol-artifact-1",
  "contractName": "KycOnboardingContract",
  "sourceName": "build/contracts/adapters/KycOnboarding.sol",
  "abi": [
    {
      "inputs": [
        {
          "internalType": "address payable",
          "name": "weth",
          "type": "address"
        }
      ],
      "stateMutability": "nonpayable",
      "type": "constructor"
    },
    {
      "anonymous": false,
      "inputs": [
        {
          "indexed": false,
          "internalType": "contract DaoRegistry",
          "name": "dao",
          "type": "address"
        },
        {
          "indexed": false,
          "internalType": "address",
          "name": "member",
          "type": "address"
        },
        {
          "indexed": false,
          "internalType": "uint256",
          "name": "units",
          "type": "uint256"
        }
      ],
      "name": "Onboarded",
      "type": "event"
    },
    {
      "inputs": [],
      "name": "COUPON_MESSAGE_TYPE",
      "outputs": [
        {
          "internalType": "string",
          "name": "",
          "type": "string"
        }
      ],
      "stateMutability": "view",
      "type": "function"
    },
    {
      "inputs": [],
      "name": "COUPON_MESSAGE_TYPEHASH",
      "outputs": [
        {
          "internalType": "bytes32",
          "name": "",
          "type": "bytes32"
        }
      ],
      "stateMutability": "view",
      "type": "function"
    },
    {
      "inputs": [],
      "name": "EIP712_DOMAIN",
      "outputs": [
        {
          "internalType": "string",
          "name": "",
          "type": "string"
        }
      ],
      "stateMutability": "view",
      "type": "function"
    },
    {
      "inputs": [],
      "name": "EIP712_DOMAIN_TYPEHASH",
      "outputs": [
        {
          "internalType": "bytes32",
          "name": "",
          "type": "bytes32"
        }
      ],
      "stateMutability": "view",
      "type": "function"
    },
    {
      "inputs": [
        {
          "internalType": "contract DaoRegistry",
          "name": "dao",
          "type": "address"
        },
        {
          "internalType": "address",
          "name": "signerAddress",
          "type": "address"
        },
        {
          "internalType": "uint256",
          "name": "chunkSize",
          "type": "uint256"
        },
        {
          "internalType": "uint256",
          "name": "unitsPerChunk",
          "type": "uint256"
        },
        {
          "internalType": "uint256",
          "name": "maximumChunks",
          "type": "uint256"
        },
        {
          "internalType": "uint256",
          "name": "maxUnits",
          "type": "uint256"
        },
        {
          "internalType": "uint256",
          "name": "maxMembers",
          "type": "uint256"
        },
        {
          "internalType": "address",
          "name": "fundTargetAddress",
          "type": "address"
        },
        {
          "internalType": "address",
          "name": "tokenAddr",
          "type": "address"
        },
        {
          "internalType": "address",
          "name": "internalTokensToMint",
          "type": "address"
        }
      ],
      "name": "configureDao",
      "outputs": [],
      "stateMutability": "nonpayable",
      "type": "function"
    },
    {
      "inputs": [
        {
          "internalType": "contract DaoRegistry",
          "name": "dao",
          "type": "address"
        },
        {
          "internalType": "address",
          "name": "actionId",
          "type": "address"
        }
      ],
      "name": "domainSeparator",
      "outputs": [
        {
          "internalType": "bytes32",
          "name": "",
          "type": "bytes32"
        }
      ],
      "stateMutability": "view",
      "type": "function"
    },
    {
      "inputs": [
        {
          "internalType": "contract DaoRegistry",
          "name": "dao",
          "type": "address"
        },
        {
          "components": [
            {
              "internalType": "address",
              "name": "kycedMember",
              "type": "address"
            }
          ],
          "internalType": "struct KycOnboardingContract.Coupon",
          "name": "coupon",
          "type": "tuple"
        }
      ],
      "name": "hashCouponMessage",
      "outputs": [
        {
          "internalType": "bytes32",
          "name": "",
          "type": "bytes32"
        }
      ],
      "stateMutability": "view",
      "type": "function"
    },
    {
      "inputs": [
        {
          "internalType": "contract DaoRegistry",
          "name": "dao",
          "type": "address"
        },
        {
          "internalType": "address",
          "name": "actionId",
          "type": "address"
        },
        {
          "internalType": "bytes32",
          "name": "message",
          "type": "bytes32"
        }
      ],
      "name": "hashMessage",
      "outputs": [
        {
          "internalType": "bytes32",
          "name": "",
          "type": "bytes32"
        }
      ],
      "stateMutability": "view",
      "type": "function"
    },
    {
      "inputs": [
        {
          "internalType": "contract DaoRegistry",
          "name": "dao",
          "type": "address"
        },
        {
          "internalType": "address",
          "name": "_addr",
          "type": "address"
        }
      ],
      "name": "isActiveMember",
      "outputs": [
        {
          "internalType": "bool",
          "name": "",
          "type": "bool"
        }
      ],
      "stateMutability": "view",
      "type": "function"
    },
    {
      "inputs": [
        {
          "internalType": "address",
          "name": "signer",
          "type": "address"
        },
        {
          "internalType": "bytes32",
          "name": "hash",
          "type": "bytes32"
        },
        {
          "internalType": "bytes",
          "name": "sig",
          "type": "bytes"
        }
      ],
      "name": "isValidSignature",
      "outputs": [
        {
          "internalType": "bool",
          "name": "",
          "type": "bool"
        }
      ],
      "stateMutability": "view",
      "type": "function"
    },
    {
      "inputs": [
        {
          "internalType": "contract DaoRegistry",
          "name": "dao",
          "type": "address"
        },
        {
          "internalType": "address",
          "name": "kycedMember",
          "type": "address"
        },
        {
          "internalType": "address",
          "name": "tokenAddr",
          "type": "address"
        },
        {
          "internalType": "uint256",
          "name": "amount",
          "type": "uint256"
        },
        {
          "internalType": "bytes",
          "name": "signature",
          "type": "bytes"
        }
      ],
      "name": "onboard",
      "outputs": [],
      "stateMutability": "nonpayable",
      "type": "function"
    },
    {
      "inputs": [
        {
          "internalType": "contract DaoRegistry",
          "name": "dao",
          "type": "address"
        },
        {
          "internalType": "address",
          "name": "kycedMember",
          "type": "address"
        },
        {
          "internalType": "bytes",
          "name": "signature",
          "type": "bytes"
        }
      ],
      "name": "onboardEth",
      "outputs": [],
      "stateMutability": "payable",
      "type": "function"
    },
    {
      "inputs": [
        {
          "internalType": "contract DaoRegistry",
          "name": "",
          "type": "address"
        },
        {
          "internalType": "address",
          "name": "",
          "type": "address"
        }
      ],
      "name": "totalUnits",
      "outputs": [
        {
          "internalType": "uint256",
          "name": "",
          "type": "uint256"
        }
      ],
      "stateMutability": "view",
      "type": "function"
    }
  ],
  "bytecode": "0x60806040523480156200001157600080fd5b50604051620038c7380380620038c7833981016040819052620000349162000064565b600080546001600160a01b039092166001600160a01b031992831681179091556001805490921617905562000094565b60006020828403121562000076578081fd5b81516001600160a01b03811681146200008d578182fd5b9392505050565b61382380620000a46000396000f3fe6080604052600436106100c25760003560e01c80638ecf77201161007f578063c7977be711610059578063c7977be714610201578063e1b11da414610216578063ed53a9631461022b578063fa5091a114610240576100c2565b80638ecf7720146101a15780639e1b3812146101c1578063c3f114f4146101e1576100c2565b80630aa8f7b7146100c7578063238a4d1e146100e95780633d1f1e511461011f5780635ad3b0061461014c57806363a9fed71461015f57806364920c1b14610181575b600080fd5b3480156100d357600080fd5b506100e76100e2366004612c01565b610260565b005b3480156100f557600080fd5b50610109610104366004612b05565b610274565b6040516101169190612f25565b60405180910390f35b34801561012b57600080fd5b5061013f61013a366004612bc9565b61028b565b6040516101169190612f30565b6100e761015a366004612cbe565b6102a8565b34801561016b57600080fd5b506101746102bb565b60405161011691906130a5565b34801561018d57600080fd5b5061013f61019c366004612bc9565b6102f4565b3480156101ad57600080fd5b506101096101bc366004612bc9565b6103ae565b3480156101cd57600080fd5b506100e76101dc366004612d08565b61060c565b3480156101ed57600080fd5b5061013f6101fc366004612daa565b610dec565b34801561020d57600080fd5b5061013f610e84565b34801561022257600080fd5b50610174610ec6565b34801561023757600080fd5b5061013f610ee2565b34801561024c57600080fd5b5061013f61025b366004612c7e565b610f28565b61026d8585858585610f65565b5050505050565b6000610281848484611620565b90505b9392505050565b600260209081526000928352604080842090915290825290205481565b6102b6838360003485610f65565b505050565b6040518060400160405280601c81526020017f4d6573736167652861646472657373206b796365644d656d626572290000000081525081565b60006040518060a001604052806063815260200161378b6063913960405160200161031f9190612e80565b604051602081830303815290604052805190602001207fe2ffb2e2c8bf0b9b360ecefb7de0735865e605d6ba933b6c7e12cee0e178c8bf7f13600b294191fc92924bb3ce4b969c1e7e2bab8f4c93c3fc6d0a51733df3c06046868660405160200161038f96959493929190612f50565b6040516020818303038152906040528051906020012090505b92915050565b600080836001600160a01b031663fefbd8757fea0ca03c7adbe41dc655fec28a9209dc8e6e042f3d991a67765ba285b9cf73a06040518263ffffffff1660e01b81526004016103fd9190612f30565b60206040518083038186803b15801561041557600080fd5b505afa158015610429573d6000803e3d6000fd5b505050506040513d601f19601f8201168201806040525081019061044d9190612ae9565b90506001600160a01b0381161561058857600061046a858561177a565b60405163288c314960e21b81529091506001600160a01b0386169063a230c52490610499908790600401612eba565b60206040518083038186803b1580156104b157600080fd5b505afa1580156104c5573d6000803e3d6000fd5b505050506040513d601f19601f820116820180604052508101906104e99190612b5c565b801561057f5750604051633de222bb60e21b81526000906001600160a01b0384169063f7888aec90610524908590620ff1ce90600401612ece565b60206040518083038186803b15801561053c57600080fd5b505afa158015610550573d6000803e3d6000fd5b505050506040513d601f19601f820116820180604052508101906105749190612ae9565b6001600160a01b0316115b925050506103a8565b60405163288c314960e21b81526001600160a01b0385169063a230c524906105b4908690600401612eba565b60206040518083038186803b1580156105cc57600080fd5b505afa1580156105e0573d6000803e3d6000fd5b505050506040513d601f19601f820116820180604052508101906106049190612b5c565b949350505050565b6040516368c18beb60e01b81528a906001600160a01b038216906368c18beb9061063a903390600401612eba565b60206040518083038186803b15801561065257600080fd5b505afa158015610666573d6000803e3d6000fd5b505050506040513d601f19601f8201168201806040525081019061068a9190612b5c565b806106995750610699816118d0565b6106be5760405162461bcd60e51b81526004016106b59061365b565b60405180910390fd5b6000891180156106d457506001600160581b0389105b6106f05760405162461bcd60e51b81526004016106b590613407565b60008511801561070657506001600160581b0385105b6107225760405162461bcd60e51b81526004016106b59061314b565b60008711801561073857506001600160581b0387105b6107545760405162461bcd60e51b81526004016106b5906134c3565b60008611801561076a57506001600160581b0386105b6107865760405162461bcd60e51b81526004016106b590613433565b60008811801561079c57506001600160581b0388105b6107b85760405162461bcd60e51b81526004016106b5906132a8565b6001600160581b036107ca89896136b8565b106107e75760405162461bcd60e51b81526004016106b5906134f3565b6107f08a611ae9565b61080c5760405162461bcd60e51b81526004016106b59061351f565b61081582611ae9565b6108315760405162461bcd60e51b81526004016106b590613338565b8a6001600160a01b0316633b4f921a61086a857f62fc88784e0c19cc8b8b751f1752ac9b0faec53f227474e9c143736b1b053bd2611af7565b8c6040518363ffffffff1660e01b8152600401610888929190612f39565b600060405180830381600087803b1580156108a257600080fd5b505af11580156108b6573d6000803e3d6000fd5b505050508a6001600160a01b0316633b4f921a6108f3857fac22e216410db4a745e4c58279e55c551b17605a4393bcf3b64fa9262d9979dd611af7565b866040518363ffffffff1660e01b8152600401610911929190612f39565b600060405180830381600087803b15801561092b57600080fd5b505af115801561093f573d6000803e3d6000fd5b505050508a6001600160a01b031663da0f6c7061097c857fb024dc66daa5f76b3a0f3ca4879dc87b33f90cea509e863f3e0955b6222a3a1e611af7565b8b6040518363ffffffff1660e01b815260040161099a929190612f9d565b600060405180830381600087803b1580156109b457600080fd5b505af11580156109c8573d6000803e3d6000fd5b505050508a6001600160a01b031663da0f6c70610a05857fe731ae3a43606ed081c5398551cfc363c835a134e5bde100a63ae178b3e84175611af7565b8a6040518363ffffffff1660e01b8152600401610a23929190612f9d565b600060405180830381600087803b158015610a3d57600080fd5b505af1158015610a51573d6000803e3d6000fd5b505050508a6001600160a01b031663da0f6c70610a8e857f30671f20b402b0209c539f216c8370ad5c14d6756f759a0bb3e1c2b4869e9f2f611af7565b896040518363ffffffff1660e01b8152600401610aac929190612f9d565b600060405180830381600087803b158015610ac657600080fd5b505af1158015610ada573d6000803e3d6000fd5b505050508a6001600160a01b031663da0f6c70610b17857ffdf6c9ba9b500ecb9379c7c8a8798f57b5727856cdf3b739640e2d178eaaa894611af7565b886040518363ffffffff1660e01b8152600401610b35929190612f9d565b600060405180830381600087803b158015610b4f57600080fd5b505af1158015610b63573d6000803e3d6000fd5b505050508a6001600160a01b031663da0f6c70610ba0857f8f2f3c9bc35994511794a3bbcf840c067fce8d0a24cd068e9b0d4ce1f4b13ef0611af7565b876040518363ffffffff1660e01b8152600401610bbe929190612f9d565b600060405180830381600087803b158015610bd857600080fd5b505af1158015610bec573d6000803e3d6000fd5b505050508a6001600160a01b0316633b4f921a610c29857f1563be206c04f4a19d217b21c8dfa32bcc7747bde5e98f7760f02fa4bd4612ca611af7565b846040518363ffffffff1660e01b8152600401610c47929190612f39565b600060405180830381600087803b158015610c6157600080fd5b505af1158015610c75573d6000803e3d6000fd5b5050604051632c9f4b5b60e11b8152600092506001600160a01b038e16915063593e96b690610cc8907fea0ca03c7adbe41dc655fec28a9209dc8e6e042f3d991a67765ba285b9cf73a090600401612f30565b60206040518083038186803b158015610ce057600080fd5b505afa158015610cf4573d6000803e3d6000fd5b505050506040513d601f19601f82011682018060405250810190610d189190612ae9565b6040516358d50c5560e01b81529091506001600160a01b038216906358d50c5590610d4c908f90620ff1ce90600401612ece565b600060405180830381600087803b158015610d6657600080fd5b505af1158015610d7a573d6000803e3d6000fd5b50506040516302863e4360e51b81526001600160a01b03841692506350c7c8609150610dac908f908890600401612ece565b600060405180830381600087803b158015610dc657600080fd5b505af1158015610dda573d6000803e3d6000fd5b50505050505050505050505050505050565b6000806040518060400160405280601c81526020017f4d6573736167652861646472657373206b796365644d656d6265722900000000815250604051602001610e359190612e80565b604051602081830303815290604052805190602001208360000151604051602001610e61929190612f39565b604051602081830303815290604052805190602001209050610604843083610f28565b6040518060a001604052806063815260200161378b60639139604051602001610ead9190612e80565b6040516020818303038152906040528051906020012081565b6040518060a001604052806063815260200161378b6063913981565b6040518060400160405280601c81526020017f4d6573736167652861646472657373206b796365644d656d6265722900000000815250604051602001610ead9190612e80565b6000610f3484846102f4565b82604051602001610f46929190612e9c565b6040516020818303038152906040528051906020012090509392505050565b846000610f7182611b0c565b9050610ff387886001600160a01b031663397a6947896040518263ffffffff1660e01b8152600401610fa39190612eba565b60206040518083038186803b158015610fbb57600080fd5b505afa158015610fcf573d6000803e3d6000fd5b505050506040513d601f19601f820116820180604052508101906101bc9190612ae9565b156110105760405162461bcd60e51b81526004016106b5906133df565b6000876001600160a01b0316639283ae3a61104b887f8f2f3c9bc35994511794a3bbcf840c067fce8d0a24cd068e9b0d4ce1f4b13ef0611af7565b6040518263ffffffff1660e01b81526004016110679190612f30565b60206040518083038186803b15801561107f57600080fd5b505afa158015611093573d6000803e3d6000fd5b505050506040513d601f19601f820116820180604052508101906110b79190612e3c565b9050600081116110d95760405162461bcd60e51b81526004016106b59061345e565b80886001600160a01b031663c67143666040518163ffffffff1660e01b815260040160206040518083038186803b15801561111357600080fd5b505afa158015611127573d6000803e3d6000fd5b505050506040513d601f19601f8201168201806040525081019061114b9190612e3c565b106111685760405162461bcd60e51b81526004016106b59061330f565b61117488888887611d5d565b6000611181898888611e61565b60608101516001600160a01b03808c166000908152600260209081526040808320938d16835292905290812080549394506001600160581b03909216926111c9908490613680565b9091555050604051632c9f4b5b60e11b81526000906001600160a01b038b169063593e96b69061121d907fea0ca03c7adbe41dc655fec28a9209dc8e6e042f3d991a67765ba285b9cf73a090600401612f30565b60206040518083038186803b15801561123557600080fd5b505afa158015611249573d6000803e3d6000fd5b505050506040513d601f19601f8201168201806040525081019061126d9190612ae9565b905061127a898b83612266565b60008a6001600160a01b031663fd310d296112b58b7fac22e216410db4a745e4c58279e55c551b17605a4393bcf3b64fa9262d9979dd611af7565b6040518263ffffffff1660e01b81526004016112d19190612f30565b60206040518083038186803b1580156112e957600080fd5b505afa1580156112fd573d6000803e3d6000fd5b505050506040513d601f19601f820116820180604052508101906113219190612ae9565b90506001600160a01b03811661144e576001600160a01b0389166113bd57816001600160a01b03166306dae9ba8460a001516001600160a01b03168d61dead60008860a001516040518663ffffffff1660e01b8152600401611386949392919061301c565b6000604051808303818588803b15801561139f57600080fd5b505af11580156113b3573d6000803e3d6000fd5b5050505050611449565b60a083015160405163036d74dd60e11b81526001600160a01b038416916306dae9ba916113f4918f9161dead918f9160040161301c565b600060405180830381600087803b15801561140e57600080fd5b505af1158015611422573d6000803e3d6000fd5b50505060a08401518a9150611447906001600160a01b038084169133918791166123ed565b505b611515565b6001600160a01b0389166114f25760008054906101000a90046001600160a01b03166001600160a01b031663d0e30db08460a001516001600160a01b03166040518263ffffffff1660e01b81526004016000604051808303818588803b1580156114b757600080fd5b505af11580156114cb573d6000803e3d6000fd5b50505060a085015160015461144993506001600160a01b03908116925030918591166123ed565b60a08301518990611513906001600160a01b038084169133918691166123ed565b505b606083015160405163036d74dd60e11b81526001600160a01b038416916306dae9ba9161154d918f918f91620ff1ce91600401613047565b600060405180830381600087803b15801561156757600080fd5b505af115801561157b573d6000803e3d6000fd5b505050508260a001516001600160a01b0316881180156115a257506001600160a01b038916155b156115ca576115ca8360a001516001600160a01b0316346115c39190613706565b3390612445565b7fae72ee3a8d22d597e0c519e76231f6a7a76458404a08fd8299fd971da8f9915b8b8b856060015160405161160193929190613079565b60405180910390a15050505061161782826124e1565b50505050505050565b600080600061162f85856124f0565b9092509050600081600481111561165657634e487b7160e01b600052602160045260246000fd5b1480156116745750856001600160a01b0316826001600160a01b0316145b1561168457600192505050610284565b600080876001600160a01b0316631626ba7e60e01b88886040516024016116ac929190612f84565b60408051601f198184030181529181526020820180516001600160e01b03166001600160e01b03199094169390931790925290516116ea9190612e80565b600060405180830381855afa9150503d8060008114611725576040519150601f19603f3d011682016040523d82523d6000602084013e61172a565b606091505b509150915081801561173d575080516020145b801561176e57508051630b135d3f60e11b906117629083016020908101908401612ba1565b6001600160e01b031916145b98975050505050505050565b600080836001600160a01b031663c89bb8ba846040518263ffffffff1660e01b81526004016117a99190612eba565b60206040518083038186803b1580156117c157600080fd5b505afa1580156117d5573d6000803e3d6000fd5b505050506040513d601f19601f820116820180604052508101906117f99190612ae9565b90506000846001600160a01b031663397a6947856040518263ffffffff1660e01b81526004016118299190612eba565b60206040518083038186803b15801561184157600080fd5b505afa158015611855573d6000803e3d6000fd5b505050506040513d601f19601f820116820180604052508101906118799190612ae9565b9050806001600160a01b0316826001600160a01b031614806118ac5750836001600160a01b0316816001600160a01b0316145b6118c85760405162461bcd60e51b81526004016106b5906132d8565b509392505050565b600080826001600160a01b031663c19d93fb6040518163ffffffff1660e01b815260040160206040518083038186803b15801561190c57600080fd5b505afa158015611920573d6000803e3d6000fd5b505050506040513d601f19601f820116820180604052508101906119449190612e1d565b600181111561196357634e487b7160e01b600052602160045260246000fd5b148015611ae15750816001600160a01b031663c67143666040518163ffffffff1660e01b815260040160206040518083038186803b1580156119a457600080fd5b505afa1580156119b8573d6000803e3d6000fd5b505050506040513d601f19601f820116820180604052508101906119dc9190612e3c565b1580611a5f575060405163288c314960e21b81526001600160a01b0383169063a230c52490611a0f903390600401612eba565b60206040518083038186803b158015611a2757600080fd5b505afa158015611a3b573d6000803e3d6000fd5b505050506040513d601f19601f82011682018060405250810190611a5f9190612b5c565b80611ae157506040516368c18beb60e01b81526001600160a01b038316906368c18beb90611a91903390600401612eba565b60206040518083038186803b158015611aa957600080fd5b505afa158015611abd573d6000803e3d6000fd5b505050506040513d601f19601f82011682018060405250810190611ae19190612b5c565b90505b919050565b6001600160a01b0316151590565b6000828260405160200161038f929190612f0c565b611b146129f0565b5a81600001818152505043826001600160a01b031663b21634826040518163ffffffff1660e01b815260040160206040518083038186803b158015611b5857600080fd5b505afa158015611b6c573d6000803e3d6000fd5b505050506040513d601f19601f82011682018060405250810190611b909190612e3c565b1415611bae5760405162461bcd60e51b81526004016106b59061327e565b816001600160a01b03166310fdb0a26040518163ffffffff1660e01b8152600401600060405180830381600087803b158015611be957600080fd5b505af1158015611bfd573d6000803e3d6000fd5b50506040516372c6838f60e01b8152600092506001600160a01b03851691506372c6838f90611c50907f1f2fd42ad6a6cacd573c4b212beb7a4e2499ad45d742a65337097f130e71daff90600401612f30565b60206040518083038186803b158015611c6857600080fd5b505afa158015611c7c573d6000803e3d6000fd5b505050506040513d601f19601f82011682018060405250810190611ca09190612ae9565b90506001600160a01b038116611cbc5760006020830152611d57565b6001600160a01b0381166060830181905282516040516343a8a3f160e01b8152600092839290916343a8a3f191611cf891899190600401612f0c565b604080518083038186803b158015611d0f57600080fd5b505afa158015611d23573d6000803e3d6000fd5b505050506040513d601f19601f82011682018060405250810190611d479190612b76565b9015156020860152604085015250505b50919050565b836001600160a01b031663fd310d29611d96847f62fc88784e0c19cc8b8b751f1752ac9b0faec53f227474e9c143736b1b053bd2611af7565b6040518263ffffffff1660e01b8152600401611db29190612f30565b60206040518083038186803b158015611dca57600080fd5b505afa158015611dde573d6000803e3d6000fd5b505050506040513d601f19601f82011682018060405250810190611e029190612ae9565b6001600160a01b0316611e35611e2f866040518060200160405280886001600160a01b0316815250610dec565b83612560565b6001600160a01b031614611e5b5760405162461bcd60e51b81526004016106b590613126565b50505050565b611e69612a23565b836001600160a01b0316639283ae3a611ea2857fb024dc66daa5f76b3a0f3ca4879dc87b33f90cea509e863f3e0955b6222a3a1e611af7565b6040518263ffffffff1660e01b8152600401611ebe9190612f30565b60206040518083038186803b158015611ed657600080fd5b505afa158015611eea573d6000803e3d6000fd5b505050506040513d601f19601f82011682018060405250810190611f0e9190612e3c565b6001600160581b0316808252611f365760405162461bcd60e51b81526004016106b59061348c565b8051611f4b906001600160581b031683613698565b6001600160581b031660208201819052611f775760405162461bcd60e51b81526004016106b59061354f565b836001600160a01b0316639283ae3a611fb0857f30671f20b402b0209c539f216c8370ad5c14d6756f759a0bb3e1c2b4869e9f2f611af7565b6040518263ffffffff1660e01b8152600401611fcc9190612f30565b60206040518083038186803b158015611fe457600080fd5b505afa158015611ff8573d6000803e3d6000fd5b505050506040513d601f19601f8201168201806040525081019061201c9190612e3c565b81602001516001600160581b031611156120485760405162461bcd60e51b81526004016106b590613633565b836001600160a01b0316639283ae3a612081857fe731ae3a43606ed081c5398551cfc363c835a134e5bde100a63ae178b3e84175611af7565b6040518263ffffffff1660e01b815260040161209d9190612f30565b60206040518083038186803b1580156120b557600080fd5b505afa1580156120c9573d6000803e3d6000fd5b505050506040513d601f19601f820116820180604052508101906120ed9190612e3c565b6001600160581b0316604082018190526121195760405162461bcd60e51b81526004016106b5906135b2565b8051602082015161212a91906136d7565b6001600160581b031660a08201526040810151602082015161214c91906136d7565b6001600160581b031660608201526001600160a01b038416639283ae3a612193857ffdf6c9ba9b500ecb9379c7c8a8798f57b5727856cdf3b739640e2d178eaaa894611af7565b6040518263ffffffff1660e01b81526004016121af9190612f30565b60206040518083038186803b1580156121c757600080fd5b505afa1580156121db573d6000803e3d6000fd5b505050506040513d601f19601f820116820180604052508101906121ff9190612e3c565b6001600160581b03908116608083018190526001600160a01b03808716600090815260026020908152604080832093891683529290522054606084015191926122489216613680565b11156102845760405162461bcd60e51b81526004016106b59061336f565b604051636e494fa560e11b81526001600160a01b0383169063dc929f4a90612292908690600401612eba565b600060405180830381600087803b1580156122ac57600080fd5b505af11580156122c0573d6000803e3d6000fd5b505050506001600160a01b0383166122ea5760405162461bcd60e51b81526004016106b59061324e565b6001600160a01b038116156102b657604051633de222bb60e21b81526001600160a01b0382169063f7888aec9061232b90869063decafbad90600401612ece565b60206040518083038186803b15801561234357600080fd5b505afa158015612357573d6000803e3d6000fd5b505050506040513d601f19601f8201168201806040525081019061237b9190612ae9565b6001600160a01b03166102b65760405163036d74dd60e11b81526001600160a01b038216906306dae9ba906123bf908590879063decafbad90600190600401612ff2565b600060405180830381600087803b1580156123d957600080fd5b505af1158015611617573d6000803e3d6000fd5b611e5b846323b872dd60e01b85858560405160240161240e93929190612ee8565b60408051601f198184030181529190526020810180516001600160e01b03166001600160e01b03199093169290921790915261257c565b804710156124655760405162461bcd60e51b81526004016106b590613217565b6000826001600160a01b03168260405161247e90612eb7565b60006040518083038185875af1925050503d80600081146124bb576040519150601f19603f3d011682016040523d82523d6000602084013e6124c0565b606091505b50509050806102b65760405162461bcd60e51b81526004016106b590613178565b6124ec82823361260b565b5050565b6000808251604114156125275760208301516040840151606085015160001a61251b878285856126c9565b94509450505050612559565b82516040141561255157602083015160408401516125468683836127a9565b935093505050612559565b506000905060025b9250929050565b600080600061256f85856124f0565b915091506118c8816127d8565b60006125d1826040518060400160405280602081526020017f5361666545524332303a206c6f772d6c6576656c2063616c6c206661696c6564815250856001600160a01b03166129089092919063ffffffff16565b8051909150156102b657808060200190518101906125ef9190612b5c565b6102b65760405162461bcd60e51b81526004016106b5906135e9565b81602001511561268e5781606001516001600160a01b0316635e5eb01384835a86516126379190613706565b86604001516040518563ffffffff1660e01b815260040161265b9493929190612fc9565b600060405180830381600087803b15801561267557600080fd5b505af1158015612689573d6000803e3d6000fd5b505050505b826001600160a01b031663d4f7af436040518163ffffffff1660e01b8152600401600060405180830381600087803b1580156123d957600080fd5b6000807f7fffffffffffffffffffffffffffffff5d576e7357a4501ddfe92f46681b20a083111561270057506000905060036127a0565b8460ff16601b1415801561271857508460ff16601c14155b1561272957506000905060046127a0565b60006001878787876040516000815260200160405260405161274e9493929190612fab565b6020604051602081039080840390855afa158015612770573d6000803e3d6000fd5b5050604051601f1901519150506001600160a01b038116612799576000600192509250506127a0565b9150600090505b94509492505050565b6000806001600160ff1b03831660ff84901c601b016127ca878288856126c9565b935093505050935093915050565b60008160048111156127fa57634e487b7160e01b600052602160045260246000fd5b141561280557612905565b600181600481111561282757634e487b7160e01b600052602160045260246000fd5b14156128455760405162461bcd60e51b81526004016106b5906130b8565b600281600481111561286757634e487b7160e01b600052602160045260246000fd5b14156128855760405162461bcd60e51b81526004016106b5906130ef565b60038160048111156128a757634e487b7160e01b600052602160045260246000fd5b14156128c55760405162461bcd60e51b81526004016106b5906131d5565b60048160048111156128e757634e487b7160e01b600052602160045260246000fd5b14156129055760405162461bcd60e51b81526004016106b59061339d565b50565b606061028184846000858561291c856129b1565b6129385760405162461bcd60e51b81526004016106b59061357b565b600080866001600160a01b031685876040516129549190612e80565b60006040518083038185875af1925050503d8060008114612991576040519150601f19603f3d011682016040523d82523d6000602084013e612996565b606091505b50915091506129a68282866129b7565b979650505050505050565b3b151590565b606083156129c6575081610284565b8251156129d65782518084602001fd5b8160405162461bcd60e51b81526004016106b591906130a5565b6040518060800160405280600081526020016000151581526020016000815260200160006001600160a01b031681525090565b6040805160c081018252600080825260208201819052918101829052606081018290526080810182905260a081019190915290565b80518015158114611ae457600080fd5b600082601f830112612a78578081fd5b813567ffffffffffffffff80821115612a9357612a9361375f565b604051601f8301601f191681016020018281118282101715612ab757612ab761375f565b604052828152848301602001861015612ace578384fd5b82602086016020830137918201602001929092529392505050565b600060208284031215612afa578081fd5b815161028481613775565b600080600060608486031215612b19578182fd5b8335612b2481613775565b925060208401359150604084013567ffffffffffffffff811115612b46578182fd5b612b5286828701612a68565b9150509250925092565b600060208284031215612b6d578081fd5b61028482612a58565b60008060408385031215612b88578182fd5b612b9183612a58565b9150602083015190509250929050565b600060208284031215612bb2578081fd5b81516001600160e01b031981168114610284578182fd5b60008060408385031215612bdb578182fd5b8235612be681613775565b91506020830135612bf681613775565b809150509250929050565b600080600080600060a08688031215612c18578081fd5b8535612c2381613775565b94506020860135612c3381613775565b93506040860135612c4381613775565b925060608601359150608086013567ffffffffffffffff811115612c65578182fd5b612c7188828901612a68565b9150509295509295909350565b600080600060608486031215612c92578283fd5b8335612c9d81613775565b92506020840135612cad81613775565b929592945050506040919091013590565b600080600060608486031215612cd2578283fd5b8335612cdd81613775565b92506020840135612ced81613775565b9150604084013567ffffffffffffffff811115612b46578182fd5b6000806000806000806000806000806101408b8d031215612d27578485fd5b8a35612d3281613775565b995060208b0135612d4281613775565b985060408b0135975060608b0135965060808b0135955060a08b0135945060c08b0135935060e08b0135612d7581613775565b92506101008b0135612d8681613775565b91506101208b0135612d9781613775565b809150509295989b9194979a5092959850565b6000808284036040811215612dbd578283fd5b8335612dc881613775565b92506020601f1982011215612ddb578182fd5b506040516020810181811067ffffffffffffffff82111715612dff57612dff61375f565b6040526020840135612e1081613775565b8152919491935090915050565b600060208284031215612e2e578081fd5b815160028110610284578182fd5b600060208284031215612e4d578081fd5b5051919050565b60008151808452612e6c81602086016020860161371d565b601f01601f19169290920160200192915050565b60008251612e9281846020870161371d565b9190910192915050565b61190160f01b81526002810192909252602282015260420190565b90565b6001600160a01b0391909116815260200190565b6001600160a01b0392831681529116602082015260400190565b6001600160a01b039384168152919092166020820152604081019190915260600190565b6001600160a01b03929092168252602082015260400190565b901515815260200190565b90815260200190565b9182526001600160a01b0316602082015260400190565b9586526020860194909452604085019290925260608401526001600160a01b0390811660808401521660a082015260c00190565b6000838252604060208301526102816040830184612e54565b918252602082015260400190565b93845260ff9290921660208401526040830152606082015260800190565b6001600160a01b0394851681529290931660208301526040820152606081019190915260800190565b6001600160a01b039485168152928416602084015292166040820152606081019190915260800190565b6001600160a01b03948516815292841660208401529083166040830152909116606082015260800190565b6001600160a01b0394851681529284166020840152921660408201526001600160581b03909116606082015260800190565b6001600160a01b0393841681529190921660208201526001600160581b03909116604082015260600190565b6000602082526102846020830184612e54565b60208082526018908201527f45434453413a20696e76616c6964207369676e61747572650000000000000000604082015260600190565b6020808252601f908201527f45434453413a20696e76616c6964207369676e6174757265206c656e67746800604082015260600190565b6020808252600b908201526a696e76616c69642073696760a81b604082015260600190565b6020808252601390820152721b585e13595b58995c9cce8e9a5b9d985b1a59606a1b604082015260600190565b6020808252603a908201527f416464726573733a20756e61626c6520746f2073656e642076616c75652c207260408201527f6563697069656e74206d61792068617665207265766572746564000000000000606082015260800190565b60208082526022908201527f45434453413a20696e76616c6964207369676e6174757265202773272076616c604082015261756560f01b606082015260800190565b6020808252601d908201527f416464726573733a20696e73756666696369656e742062616c616e6365000000604082015260600190565b602080825260169082015275696e76616c6964206d656d626572206164647265737360501b604082015260600190565b60208082526010908201526f1c99595b9d1c985b98de4819dd585c9960821b604082015260600190565b6020808252601690820152751d5b9a5d1cd4195c90da1d5b9ace8e9a5b9d985b1a5960521b604082015260600190565b6020808252601b908201527f63616c6c207769746820796f75722064656c6567617465206b65790000000000604082015260600190565b6020808252600f908201526e1d1a1948111053c81a5cc8199d5b1b608a1b604082015260600190565b6020808252601b908201527f6e756c6c20696e7465726e616c20746f6b656e20616464726573730000000000604082015260600190565b6020808252601490820152736f766572206d617820746f74616c20756e69747360601b604082015260600190565b60208082526022908201527f45434453413a20696e76616c6964207369676e6174757265202776272076616c604082015261756560f01b606082015260800190565b6020808252600e908201526d30b63932b0b23c9036b2b6b132b960911b604082015260600190565b60208082526012908201527118da1d5b9ad4da5e994e8e9a5b9d985b1a5960721b604082015260600190565b6020808252601190820152701b585e155b9a5d1cce8e9a5b9d985b1a59607a1b604082015260600190565b6020808252601490820152731d1bdad95b881b9bdd0818dbdb999a59dd5c995960621b604082015260600190565b60208082526018908201527f636f6e666967206368756e6b53697a65206d697373696e670000000000000000604082015260600190565b6020808252601690820152751b585e1a5b5d5b50da1d5b9adcce8e9a5b9d985b1a5960521b604082015260600190565b602080825260129082015271706f74656e7469616c206f766572666c6f7760701b604082015260600190565b6020808252601690820152757369676e65722061646472657373206973206e696c2160501b604082015260600190565b602080825260129082015271696e73756666696369656e742066756e647360701b604082015260600190565b6020808252601d908201527f416464726573733a2063616c6c20746f206e6f6e2d636f6e7472616374000000604082015260600190565b6020808252601c908201527f636f6e66696720756e6974735065724368756e6b206d697373696e6700000000604082015260600190565b6020808252602a908201527f5361666545524332303a204552433230206f7065726174696f6e20646964206e6040820152691bdd081cdd58d8d9595960b21b606082015260800190565b6020808252600e908201526d746f6f206d7563682066756e647360901b604082015260600190565b6020808252600b908201526a37b7363ca0b230b83a32b960a91b604082015260600190565b6000821982111561369357613693613749565b500190565b6000826136b357634e487b7160e01b81526012600452602481fd5b500490565b60008160001904831182151516156136d2576136d2613749565b500290565b60006001600160581b03808316818516818304811182151516156136fd576136fd613749565b02949350505050565b60008282101561371857613718613749565b500390565b60005b83811015613738578181015183820152602001613720565b83811115611e5b5750506000910152565b634e487b7160e01b600052601160045260246000fd5b634e487b7160e01b600052604160045260246000fd5b6001600160a01b038116811461290557600080fdfe454950373132446f6d61696e28737472696e67206e616d652c737472696e672076657273696f6e2c75696e7432353620636861696e49642c6164647265737320766572696679696e67436f6e74726163742c6164647265737320616374696f6e496429a2646970667358221220a79ab463d70e9dd2eea474db4d419326c99d3cb7a79a5f18ebcb1bf93eaaca0a64736f6c63430008000033",
  "linkReferences": {},
  "deployedLinkReferences": {}
}