{
  "_format": "hh-sol-artifact-1",
  "contractName": "ReimbursementContract",
  "sourceName": "build/contracts/companion/Reimbursement.sol",
  "abi": [
    {
      "inputs": [
        {
          "internalType": "address payable",
          "name": "_gelato",
          "type": "address"
        }
      ],
      "stateMutability": "nonpayable",
      "type": "constructor"
    },
    {
      "inputs": [
        {
          "internalType": "contract DaoRegistry",
          "name": "dao",
          "type": "address"
        },
        {
          "internalType": "uint256",
          "name": "gasPriceLimit",
          "type": "uint256"
        },
        {
          "internalType": "uint256",
          "name": "spendLimitPeriod",
          "type": "uint256"
        },
        {
          "internalType": "uint256",
          "name": "spendLimitEth",
          "type": "uint256"
        }
      ],
      "name": "configureDao",
      "outputs": [],
      "stateMutability": "nonpayable",
      "type": "function"
    },
    {
      "inputs": [
        {
          "internalType": "address",
          "name": "_dest",
          "type": "address"
        },
        {
          "internalType": "bytes",
          "name": "_data",
          "type": "bytes"
        },
        {
          "internalType": "uint256",
          "name": "_desiredFee",
          "type": "uint256"
        },
        {
          "internalType": "address",
          "name": "",
          "type": "address"
        }
      ],
      "name": "exec",
      "outputs": [],
      "stateMutability": "nonpayable",
      "type": "function"
    },
    {
      "inputs": [],
      "name": "gelato",
      "outputs": [
        {
          "internalType": "address payable",
          "name": "",
          "type": "address"
        }
      ],
      "stateMutability": "view",
      "type": "function"
    },
    {
      "inputs": [
        {
          "internalType": "contract DaoRegistry",
          "name": "dao",
          "type": "address"
        },
        {
          "internalType": "address payable",
          "name": "caller",
          "type": "address"
        },
        {
          "internalType": "uint256",
          "name": "gasUsage",
          "type": "uint256"
        },
        {
          "internalType": "uint256",
          "name": "spendLimitPeriod",
          "type": "uint256"
        }
      ],
      "name": "reimburseTransaction",
      "outputs": [],
      "stateMutability": "nonpayable",
      "type": "function"
    },
    {
      "inputs": [
        {
          "internalType": "contract DaoRegistry",
          "name": "dao",
          "type": "address"
        },
        {
          "internalType": "uint256",
          "name": "gasLeft",
          "type": "uint256"
        }
      ],
      "name": "shouldReimburse",
      "outputs": [
        {
          "internalType": "bool",
          "name": "",
          "type": "bool"
        },
        {
          "internalType": "uint256",
          "name": "",
          "type": "uint256"
        }
      ],
      "stateMutability": "view",
      "type": "function"
    },
    {
      "stateMutability": "payable",
      "type": "receive"
    }
  ],
  "bytecode": "0x60a06040523480156200001157600080fd5b5060405162001ca838038062001ca8833981016040819052620000349162000081565b80806001600160a01b038116620000685760405162461bcd60e51b81526004016200005f90620000b1565b60405180910390fd5b60601b6001600160601b03191660805250620000e89050565b60006020828403121562000093578081fd5b81516001600160a01b0381168114620000aa578182fd5b9392505050565b6020808252601e908201527f47656c61746f2063616e206e6f74206265207a65726f20616464726573730000604082015260600190565b60805160601c611b696200013f6000396000818161050f01528181610e9901528181610ed50152818161105e015281816110e301528181611177015281816112050152818161128a015261141e0152611b696000f3fe60806040526004361061004e5760003560e01c806343a8a3f11461005a578063573ea575146100915780635e5eb013146100b3578063944fe521146100d5578063b561d6f7146100f557610055565b3661005557005b600080fd5b34801561006657600080fd5b5061007a6100753660046116ab565b610115565b60405161008892919061182e565b60405180910390f35b34801561009d57600080fd5b506100a661050d565b6040516100889190611800565b3480156100bf57600080fd5b506100d36100ce366004611666565b610531565b005b3480156100e157600080fd5b506100d36100f03660046116d6565b6109c5565b34801561010157600080fd5b506100d3610110366004611578565b610c55565b6000803330141561012b57506000905080610506565b604051634941d71d60e11b81526000906001600160a01b03861690639283ae3a9061017a907fec7fbc44d32f51f1336fed1137200bdd979bb414766376c4205ab9da7b867b939060040161183e565b60206040518083038186803b15801561019257600080fd5b505afa1580156101a6573d6000803e3d6000fd5b505050506040513d601f19601f820116820180604052508101906101ca919061172f565b90506000856001600160a01b031663593e96b67fea0ca03c7adbe41dc655fec28a9209dc8e6e042f3d991a67765ba285b9cf73a06040518263ffffffff1660e01b815260040161021a919061183e565b60206040518083038186803b15801561023257600080fd5b505afa158015610246573d6000803e3d6000fd5b505050506040513d601f19601f8201168201806040525081019061026a9190611555565b90503a82101561028257600080935093505050610506565b604051633de222bb60e21b815285906001600160a01b0383169063f7888aec906102b59061dead90600090600401611814565b60206040518083038186803b1580156102cd57600080fd5b505afa1580156102e1573d6000803e3d6000fd5b505050506040513d601f19601f820116820180604052508101906103059190611555565b6001600160a01b0316101561032257600080935093505050610506565b604051634941d71d60e11b81526000906001600160a01b03881690639283ae3a90610371907fdafac36ea303334190d13665fe20cc9becf93c72f0ccffff680e3449dd6203af9060040161183e565b60206040518083038186803b15801561038957600080fd5b505afa15801561039d573d6000803e3d6000fd5b505050506040513d601f19601f820116820180604052508101906103c1919061172f565b90506000876001600160a01b0316639283ae3a7fdef97213e20d25fff57e1c213e783b49f83596a5af479734a80c39e08986ef776040518263ffffffff1660e01b8152600401610411919061183e565b60206040518083038186803b15801561042957600080fd5b505afa15801561043d573d6000803e3d6000fd5b505050506040513d601f19601f82011682018060405250810190610461919061172f565b9050600061046f3a89611a69565b6001600160a01b038a16600090815260208190526040902060010154909150839061049a9042611a88565b10156104e1576001600160a01b0389166000908152602081905260409020546104c4908290611a51565b8210156104dc57600080965096505050505050610506565b6104fa565b808210156104fa57600080965096505050505050610506565b50600195509093505050505b9250929050565b7f000000000000000000000000000000000000000000000000000000000000000081565b6040516368c18beb60e01b815284906001600160a01b038216906368c18beb9061055f903390600401611800565b60206040518083038186803b15801561057757600080fd5b505afa15801561058b573d6000803e3d6000fd5b505050506040513d601f19601f820116820180604052508101906105af9190611646565b806105be57506105be81610c75565b6105e35760405162461bcd60e51b81526004016105da906119c5565b60405180910390fd5b604051632c9f4b5b60e11b81526000906001600160a01b0387169063593e96b690610632907fea0ca03c7adbe41dc655fec28a9209dc8e6e042f3d991a67765ba285b9cf73a09060040161183e565b60206040518083038186803b15801561064a57600080fd5b505afa15801561065e573d6000803e3d6000fd5b505050506040513d601f19601f820116820180604052508101906106829190611555565b905060006106903a86611a69565b6001600160a01b03881660009081526020819052604090206001015490915084906106bb9042611a88565b1015610703576001600160a01b0387166000908152602081905260409020546106e5908290611a51565b6001600160a01b038816600090815260208190526040902055610725565b6001600160a01b03871660009081526020819052604090204260018201558190555b6040516301ffc9a760e01b81526001600160a01b038316906301ffc9a7906107589063207fea1360e21b90600401611855565b60206040518083038186803b15801561077057600080fd5b505afa9250505080156107a0575060408051601f3d908101601f1916820190925261079d91810190611646565b60015b6108775760405163413c1be360e11b81526001600160a01b0383169063827837c6906107db908a9061dead908b906000908890600401611894565b600060405180830381600087803b1580156107f557600080fd5b505af1158015610809573d6000803e3d6000fd5b5050604051630b620b8160e01b81526001600160a01b0385169250630b620b819150610840908a908a90600090879060040161186a565b600060405180830381600087803b15801561085a57600080fd5b505af115801561086e573d6000803e3d6000fd5b505050506109bc565b80156108eb5760405163207fea1360e21b81526001600160a01b038416906381ffa84c906108b4908b9061dead908c906000908990600401611894565b600060405180830381600087803b1580156108ce57600080fd5b505af11580156108e2573d6000803e3d6000fd5b505050506109ba565b60405163413c1be360e11b81526001600160a01b0384169063827837c690610922908b9061dead908c906000908990600401611894565b600060405180830381600087803b15801561093c57600080fd5b505af1158015610950573d6000803e3d6000fd5b5050604051630b620b8160e01b81526001600160a01b0386169250630b620b819150610987908b908b90600090889060040161186a565b600060405180830381600087803b1580156109a157600080fd5b505af11580156109b5573d6000803e3d6000fd5b505050505b505b50505050505050565b6040516368c18beb60e01b815284906001600160a01b038216906368c18beb906109f3903390600401611800565b60206040518083038186803b158015610a0b57600080fd5b505afa158015610a1f573d6000803e3d6000fd5b505050506040513d601f19601f82011682018060405250810190610a439190611646565b80610a525750610a5281610c75565b610a6e5760405162461bcd60e51b81526004016105da906119c5565b60008411610a8e5760405162461bcd60e51b81526004016105da90611a21565b60008311610aae5760405162461bcd60e51b81526004016105da9061195e565b60008211610ace5760405162461bcd60e51b81526004016105da90611995565b604051630da0f6c760e41b81526001600160a01b0386169063da0f6c7090610b1c907fec7fbc44d32f51f1336fed1137200bdd979bb414766376c4205ab9da7b867b93908890600401611847565b600060405180830381600087803b158015610b3657600080fd5b505af1158015610b4a573d6000803e3d6000fd5b5050604051630da0f6c760e41b81526001600160a01b038816925063da0f6c709150610b9c907fdafac36ea303334190d13665fe20cc9becf93c72f0ccffff680e3449dd6203af908790600401611847565b600060405180830381600087803b158015610bb657600080fd5b505af1158015610bca573d6000803e3d6000fd5b5050604051630da0f6c760e41b81526001600160a01b038816925063da0f6c709150610c1c907fdef97213e20d25fff57e1c213e783b49f83596a5af479734a80c39e08986ef77908690600401611847565b600060405180830381600087803b158015610c3657600080fd5b505af1158015610c4a573d6000803e3d6000fd5b505050505050505050565b6000610c6084610e8e565b9050610c6e81868686610e95565b5050505050565b600080826001600160a01b031663c19d93fb6040518163ffffffff1660e01b815260040160206040518083038186803b158015610cb157600080fd5b505afa158015610cc5573d6000803e3d6000fd5b505050506040513d601f19601f82011682018060405250810190610ce99190611710565b6001811115610d0857634e487b7160e01b600052602160045260246000fd5b148015610e865750816001600160a01b031663c67143666040518163ffffffff1660e01b815260040160206040518083038186803b158015610d4957600080fd5b505afa158015610d5d573d6000803e3d6000fd5b505050506040513d601f19601f82011682018060405250810190610d81919061172f565b1580610e04575060405163288c314960e21b81526001600160a01b0383169063a230c52490610db4903390600401611800565b60206040518083038186803b158015610dcc57600080fd5b505afa158015610de0573d6000803e3d6000fd5b505050506040513d601f19601f82011682018060405250810190610e049190611646565b80610e8657506040516368c18beb60e01b81526001600160a01b038316906368c18beb90610e36903390600401611800565b60206040518083038186803b158015610e4e57600080fd5b505afa158015610e62573d6000803e3d6000fd5b505050506040513d601f19601f82011682018060405250810190610e869190611646565b90505b919050565b6024015190565b83817f00000000000000000000000000000000000000000000000000000000000000006001600160a01b031660011480610ef75750336001600160a01b037f000000000000000000000000000000000000000000000000000000000000000016145b610f135760405162461bcd60e51b81526004016105da906118fa565b604051632c9f4b5b60e11b81526000906001600160a01b0384169063593e96b690610f62907fea0ca03c7adbe41dc655fec28a9209dc8e6e042f3d991a67765ba285b9cf73a09060040161183e565b60206040518083038186803b158015610f7a57600080fd5b505afa158015610f8e573d6000803e3d6000fd5b505050506040513d601f19601f82011682018060405250810190610fb29190611555565b6040516301ffc9a760e01b81529091506001600160a01b038216906301ffc9a790610fe89063207fea1360e21b90600401611855565b60206040518083038186803b15801561100057600080fd5b505afa925050508015611030575060408051601f3d908101601f1916820190925261102d91810190611646565b60015b6111475760405163413c1be360e11b81526001600160a01b0382169063827837c69061108b90869061dead907f0000000000000000000000000000000000000000000000000000000000000000906000908990600401611894565b600060405180830381600087803b1580156110a557600080fd5b505af11580156110b9573d6000803e3d6000fd5b5050604051630b620b8160e01b81526001600160a01b0384169250630b620b8191506111109086907f000000000000000000000000000000000000000000000000000000000000000090600090889060040161186a565b600060405180830381600087803b15801561112a57600080fd5b505af115801561113e573d6000803e3d6000fd5b505050506112ec565b80156111db5760405163207fea1360e21b81526001600160a01b038316906381ffa84c906111a490879061dead907f0000000000000000000000000000000000000000000000000000000000000000906000908a90600401611894565b600060405180830381600087803b1580156111be57600080fd5b505af11580156111d2573d6000803e3d6000fd5b505050506112ea565b60405163413c1be360e11b81526001600160a01b0383169063827837c69061123290879061dead907f0000000000000000000000000000000000000000000000000000000000000000906000908a90600401611894565b600060405180830381600087803b15801561124c57600080fd5b505af1158015611260573d6000803e3d6000fd5b5050604051630b620b8160e01b81526001600160a01b0385169250630b620b8191506112b79087907f000000000000000000000000000000000000000000000000000000000000000090600090899060040161186a565b600060405180830381600087803b1580156112d157600080fd5b505af11580156112e5573d6000803e3d6000fd5b505050505b505b6040516368c18beb60e01b81526001600160a01b038816906368c18beb90611318908990600401611800565b60206040518083038186803b15801561133057600080fd5b505afa158015611344573d6000803e3d6000fd5b505050506040513d601f19601f820116820180604052508101906113689190611646565b6113845760405162461bcd60e51b81526004016105da90611931565b600080876001600160a01b03168760405161139f9190611747565b6000604051808303816000865af19150503d80600081146113dc576040519150601f19603f3d011682016040523d82523d6000602084013e6113e1565b606091505b5091509150816114185760408051808201909152600b81526a2932b630bc9732bc32b19d60a91b60208201526114189082906114b6565b505060007f00000000000000000000000000000000000000000000000000000000000000006001600160a01b031683604051611453906117fd565b60006040518083038185875af1925050503d8060008114611490576040519150601f19603f3d011682016040523d82523d6000602084013e611495565b606091505b50509050806109ba5760405162461bcd60e51b81526004016105da906119ea565b602082516114c49190611acf565b6004141561153957602082015162461bcd60e51b6001600160e01b031982161415611528576044830192508183604051602001611502929190611763565b60408051601f198184030181529082905262461bcd60e51b82526105da916004016118c7565b816040516020016115029190611792565b8060405160200161150291906117c5565b8035610e8981611b1b565b600060208284031215611566578081fd5b815161157181611b1b565b9392505050565b6000806000806080858703121561158d578283fd5b843561159881611b1b565b935060208581013567ffffffffffffffff808211156115b5578586fd5b818801915088601f8301126115c8578586fd5b8135818111156115da576115da611b05565b604051601f8201601f19168101850183811182821017156115fd576115fd611b05565b60405281815283820185018b1015611613578788fd5b8185850186830137908101909301959095525092506040850135915061163b6060860161154a565b905092959194509250565b600060208284031215611657578081fd5b81518015158114611571578182fd5b6000806000806080858703121561167b578384fd5b843561168681611b1b565b9350602085013561169681611b1b565b93969395505050506040820135916060013590565b600080604083850312156116bd578182fd5b82356116c881611b1b565b946020939093013593505050565b600080600080608085870312156116eb578384fd5b84356116f681611b1b565b966020860135965060408601359560600135945092505050565b600060208284031215611721578081fd5b815160028110611571578182fd5b600060208284031215611740578081fd5b5051919050565b60008251611759818460208701611a9f565b9190910192915050565b60008351611775818460208801611a9f565b835190830190611789818360208801611a9f565b01949350505050565b600082516117a4818460208701611a9f565b6e2737a2b93937b929b2b632b1ba37b960891b920191825250600f01919050565b600082516117d7818460208701611a9f565b73556e657870656374656452657475726e6461746160601b920191825250601401919050565b90565b6001600160a01b0391909116815260200190565b6001600160a01b0392831681529116602082015260400190565b9115158252602082015260400190565b90815260200190565b918252602082015260400190565b6001600160e01b031991909116815260200190565b6001600160a01b039485168152928416602084015292166040820152606081019190915260800190565b6001600160a01b039586168152938516602085015291841660408401529092166060820152608081019190915260a00190565b60006020825282518060208401526118e6816040850160208701611a9f565b601f01601f19169190910160400192915050565b60208082526017908201527f47656c61746f666965643a204f6e6c792067656c61746f000000000000000000604082015260600190565b6020808252601390820152726e6f742070617274206f66207468652064616f60681b604082015260600190565b60208082526019908201527f7370656e644c696d6974506572696f643a3a696e76616c696400000000000000604082015260600190565b6020808252601690820152751cdc195b99131a5b5a5d115d1a0e8e9a5b9d985b1a5960521b604082015260600190565b6020808252600b908201526a37b7363ca0b230b83a32b960a91b604082015260600190565b6020808252601d908201527f47656c61746f666965643a2047656c61746f20666565206661696c6564000000604082015260600190565b60208082526016908201527519d85cd41c9a58d9531a5b5a5d0e8e9a5b9d985b1a5960521b604082015260600190565b60008219821115611a6457611a64611aef565b500190565b6000816000190483118215151615611a8357611a83611aef565b500290565b600082821015611a9a57611a9a611aef565b500390565b60005b83811015611aba578181015183820152602001611aa2565b83811115611ac9576000848401525b50505050565b600082611aea57634e487b7160e01b81526012600452602481fd5b500690565b634e487b7160e01b600052601160045260246000fd5b634e487b7160e01b600052604160045260246000fd5b6001600160a01b0381168114611b3057600080fd5b5056fea2646970667358221220e8ea79913be3264eaf811aac8a9910f0660b82eab468049d2ea424d83142b7a664736f6c63430008000033",
  "linkReferences": {},
  "deployedLinkReferences": {}
}