{
  "_format": "hh-sol-artifact-1",
  "contractName": "ERC1155TokenExtension",
  "sourceName": "build/contracts/extensions/erc1155/ERC1155TokenExtension.sol",
  "abi": [
    {
      "inputs": [],
      "stateMutability": "nonpayable",
      "type": "constructor"
    },
    {
      "anonymous": false,
      "inputs": [
        {
          "indexed": false,
          "internalType": "address",
          "name": "oldOwner",
          "type": "address"
        },
        {
          "indexed": false,
          "internalType": "address",
          "name": "newOwner",
          "type": "address"
        },
        {
          "indexed": false,
          "internalType": "address",
          "name": "nftAddr",
          "type": "address"
        },
        {
          "indexed": false,
          "internalType": "uint256",
          "name": "nftTokenId",
          "type": "uint256"
        },
        {
          "indexed": false,
          "internalType": "uint256",
          "name": "amount",
          "type": "uint256"
        }
      ],
      "name": "TransferredNFT",
      "type": "event"
    },
    {
      "anonymous": false,
      "inputs": [
        {
          "indexed": false,
          "internalType": "address",
          "name": "nftAddr",
          "type": "address"
        },
        {
          "indexed": false,
          "internalType": "uint256",
          "name": "nftTokenId",
          "type": "uint256"
        },
        {
          "indexed": false,
          "internalType": "uint256",
          "name": "amount",
          "type": "uint256"
        },
        {
          "indexed": false,
          "internalType": "address",
          "name": "toAddress",
          "type": "address"
        }
      ],
      "name": "WithdrawnNFT",
      "type": "event"
    },
    {
      "inputs": [],
      "name": "dao",
      "outputs": [
        {
          "internalType": "contract DaoRegistry",
          "name": "",
          "type": "address"
        }
      ],
      "stateMutability": "view",
      "type": "function"
    },
    {
      "inputs": [
        {
          "internalType": "address",
          "name": "tokenAddr",
          "type": "address"
        },
        {
          "internalType": "uint256",
          "name": "index",
          "type": "uint256"
        }
      ],
      "name": "getNFT",
      "outputs": [
        {
          "internalType": "uint256",
          "name": "",
          "type": "uint256"
        }
      ],
      "stateMutability": "view",
      "type": "function"
    },
    {
      "inputs": [
        {
          "internalType": "uint256",
          "name": "index",
          "type": "uint256"
        }
      ],
      "name": "getNFTAddress",
      "outputs": [
        {
          "internalType": "address",
          "name": "",
          "type": "address"
        }
      ],
      "stateMutability": "view",
      "type": "function"
    },
    {
      "inputs": [
        {
          "internalType": "address",
          "name": "nftAddress",
          "type": "address"
        },
        {
          "internalType": "uint256",
          "name": "tokenId",
          "type": "uint256"
        }
      ],
      "name": "getNFTId",
      "outputs": [
        {
          "internalType": "bytes32",
          "name": "",
          "type": "bytes32"
        }
      ],
      "stateMutability": "pure",
      "type": "function"
    },
    {
      "inputs": [
        {
          "internalType": "address",
          "name": "owner",
          "type": "address"
        },
        {
          "internalType": "address",
          "name": "tokenAddr",
          "type": "address"
        },
        {
          "internalType": "uint256",
          "name": "tokenId",
          "type": "uint256"
        }
      ],
      "name": "getNFTIdAmount",
      "outputs": [
        {
          "internalType": "uint256",
          "name": "",
          "type": "uint256"
        }
      ],
      "stateMutability": "view",
      "type": "function"
    },
    {
      "inputs": [
        {
          "internalType": "address",
          "name": "nftAddress",
          "type": "address"
        },
        {
          "internalType": "uint256",
          "name": "tokenId",
          "type": "uint256"
        },
        {
          "internalType": "uint256",
          "name": "index",
          "type": "uint256"
        }
      ],
      "name": "getNFTOwner",
      "outputs": [
        {
          "internalType": "address",
          "name": "",
          "type": "address"
        }
      ],
      "stateMutability": "view",
      "type": "function"
    },
    {
      "inputs": [
        {
          "internalType": "contract DaoRegistry",
          "name": "_dao",
          "type": "address"
        },
        {
          "internalType": "address",
          "name": "creator",
          "type": "address"
        }
      ],
      "name": "initialize",
      "outputs": [],
      "stateMutability": "nonpayable",
      "type": "function"
    },
    {
      "inputs": [],
      "name": "initialized",
      "outputs": [
        {
          "internalType": "bool",
          "name": "",
          "type": "bool"
        }
      ],
      "stateMutability": "view",
      "type": "function"
    },
    {
      "inputs": [
        {
          "internalType": "contract DaoRegistry",
          "name": "_dao",
          "type": "address"
        },
        {
          "internalType": "address",
          "name": "fromOwner",
          "type": "address"
        },
        {
          "internalType": "address",
          "name": "toOwner",
          "type": "address"
        },
        {
          "internalType": "address",
          "name": "nftAddr",
          "type": "address"
        },
        {
          "internalType": "uint256",
          "name": "nftTokenId",
          "type": "uint256"
        },
        {
          "internalType": "uint256",
          "name": "amount",
          "type": "uint256"
        }
      ],
      "name": "internalTransfer",
      "outputs": [],
      "stateMutability": "nonpayable",
      "type": "function"
    },
    {
      "inputs": [],
      "name": "nbNFTAddresses",
      "outputs": [
        {
          "internalType": "uint256",
          "name": "",
          "type": "uint256"
        }
      ],
      "stateMutability": "view",
      "type": "function"
    },
    {
      "inputs": [
        {
          "internalType": "address",
          "name": "nftAddress",
          "type": "address"
        },
        {
          "internalType": "uint256",
          "name": "tokenId",
          "type": "uint256"
        }
      ],
      "name": "nbNFTOwners",
      "outputs": [
        {
          "internalType": "uint256",
          "name": "",
          "type": "uint256"
        }
      ],
      "stateMutability": "view",
      "type": "function"
    },
    {
      "inputs": [
        {
          "internalType": "address",
          "name": "tokenAddr",
          "type": "address"
        }
      ],
      "name": "nbNFTs",
      "outputs": [
        {
          "internalType": "uint256",
          "name": "",
          "type": "uint256"
        }
      ],
      "stateMutability": "view",
      "type": "function"
    },
    {
      "inputs": [
        {
          "internalType": "address",
          "name": "",
          "type": "address"
        },
        {
          "internalType": "address",
          "name": "",
          "type": "address"
        },
        {
          "internalType": "uint256[]",
          "name": "ids",
          "type": "uint256[]"
        },
        {
          "internalType": "uint256[]",
          "name": "values",
          "type": "uint256[]"
        },
        {
          "internalType": "bytes",
          "name": "",
          "type": "bytes"
        }
      ],
      "name": "onERC1155BatchReceived",
      "outputs": [
        {
          "internalType": "bytes4",
          "name": "",
          "type": "bytes4"
        }
      ],
      "stateMutability": "nonpayable",
      "type": "function"
    },
    {
      "inputs": [
        {
          "internalType": "address",
          "name": "",
          "type": "address"
        },
        {
          "internalType": "address",
          "name": "",
          "type": "address"
        },
        {
          "internalType": "uint256",
          "name": "id",
          "type": "uint256"
        },
        {
          "internalType": "uint256",
          "name": "value",
          "type": "uint256"
        },
        {
          "internalType": "bytes",
          "name": "",
          "type": "bytes"
        }
      ],
      "name": "onERC1155Received",
      "outputs": [
        {
          "internalType": "bytes4",
          "name": "",
          "type": "bytes4"
        }
      ],
      "stateMutability": "nonpayable",
      "type": "function"
    },
    {
      "inputs": [
        {
          "internalType": "bytes4",
          "name": "interfaceID",
          "type": "bytes4"
        }
      ],
      "name": "supportsInterface",
      "outputs": [
        {
          "internalType": "bool",
          "name": "",
          "type": "bool"
        }
      ],
      "stateMutability": "pure",
      "type": "function"
    },
    {
      "inputs": [
        {
          "internalType": "contract DaoRegistry",
          "name": "_dao",
          "type": "address"
        },
        {
          "internalType": "address",
          "name": "from",
          "type": "address"
        },
        {
          "internalType": "address",
          "name": "newOwner",
          "type": "address"
        },
        {
          "internalType": "address",
          "name": "nftAddr",
          "type": "address"
        },
        {
          "internalType": "uint256",
          "name": "nftTokenId",
          "type": "uint256"
        },
        {
          "internalType": "uint256",
          "name": "amount",
          "type": "uint256"
        }
      ],
      "name": "withdrawNFT",
      "outputs": [],
      "stateMutability": "nonpayable",
      "type": "function"
    }
  ],
  "bytecode": "0x60806040526000805460ff1916905534801561001a57600080fd5b506118a98061002a6000396000f3fe608060405234801561001057600080fd5b50600436106101005760003560e01c806373114aa611610097578063afae71e511610066578063afae71e5146101fa578063bc197c811461020d578063c33077d51461022d578063f23a6e611461024057610100565b806373114aa6146101ae5780637a5ab16b146101c15780639d18f773146101d4578063a9a49c69146101e757610100565b806326e3cdc9116100d357806326e3cdc91461016957806327b5daf2146101715780634162169f14610191578063485cc9551461019957610100565b806301ffc9a714610105578063158ef93e1461012e5780632148c71f146101365780632207bdcf14610156575b600080fd5b6101186101133660046113d5565b610253565b60405161012591906115fd565b60405180910390f35b61011861028a565b6101496101443660046111c5565b610293565b6040516101259190611608565b610149610164366004611356565b6102b4565b6101496102dd565b61018461017f366004611381565b6102ee565b6040516101259190611513565b610184610326565b6101ac6101a73660046113fd565b61033a565b005b6101ac6101bc366004611435565b610431565b6101496101cf36600461129c565b61064e565b6101846101e23660046114c1565b610680565b6101ac6101f5366004611435565b61068d565b610149610208366004611356565b610aa9565b61022061021b3660046111e1565b610acf565b6040516101259190611611565b61014961023b366004611356565b610b7d565b61022061024e3660046112dc565b610bb0565b60006301ffc9a760e01b6001600160e01b0319831614806102845750630271189760e51b6001600160e01b03198316145b92915050565b60005460ff1681565b6001600160a01b038116600090815260016020526040812061028490610bd3565b6001600160a01b03821660009081526001602052604081206102d69083610bde565b9392505050565b60006102e96004610bd3565b905090565b600061031e82600360006103028888610b7d565b8152602001908152602001600020610bde90919063ffffffff16565b949350505050565b60005461010090046001600160a01b031681565b60005460ff16156103665760405162461bcd60e51b815260040161035d906116cb565b60405180910390fd5b60405163288c314960e21b81526001600160a01b0383169063a230c52490610392908490600401611513565b60206040518083038186803b1580156103aa57600080fd5b505afa1580156103be573d6000803e3d6000fd5b505050506040513d601f19601f820116820180604052508101906103e291906113b5565b6103fe5760405162461bcd60e51b815260040161035d90611694565b50600080546001600160a01b0390921661010002610100600160a81b031960ff1990931660011792909216919091179055565b60005486906002906001600160a01b0380841661010090920416148015610519575060005461046d9061010090046001600160a01b0316610bea565b80610519575060005461010090046001600160a01b0316636cfdc32e33308460028111156104ab57634e487b7160e01b600052602160045260246000fd5b6040518463ffffffff1660e01b81526004016104c993929190611593565b60206040518083038186803b1580156104e157600080fd5b505afa1580156104f5573d6000803e3d6000fd5b505050506040513d601f19601f8201168201806040525081019061051991906113b5565b6105355760405162461bcd60e51b815260040161035d906117c7565b600061054288878761064e565b90506000841180156105545750838110155b6105705760405162461bcd60e51b815260040161035d90611626565b6001600160a01b03861660009081526001602052604090206105929086610dfb565b6105ae5760405162461bcd60e51b815260040161035d9061174a565b866001600160a01b0316886001600160a01b031614610643576000846105d589898961064e565b6105df91906117fe565b90506105ed88888884610e07565b6106028988886105fd8987611816565b610e07565b7fb72633916975884c6bb16b62f6dc9b5bf05f17174159b7c9036b95d91fd88fa68989898989604051610639959493929190611527565b60405180910390a1505b505050505050505050565b6001600160a01b0392831660009081526002602090815260408083209490951682529283528381209181529152205490565b6000610284600483610bde565b600080548791906001600160a01b038084166101009092041614801561077457506000546106c89061010090046001600160a01b0316610bea565b80610774575060005461010090046001600160a01b0316636cfdc32e333084600281111561070657634e487b7160e01b600052602160045260246000fd5b6040518463ffffffff1660e01b815260040161072493929190611593565b60206040518083038186803b15801561073c57600080fd5b505afa158015610750573d6000803e3d6000fd5b505050506040513d601f19601f8201168201806040525081019061077491906113b5565b6107905760405162461bcd60e51b815260040161035d906117c7565b604051627eeac760e11b815285906000906001600160a01b0383169062fdd58e906107c19030908a906004016115b9565b60206040518083038186803b1580156107d957600080fd5b505afa1580156107ed573d6000803e3d6000fd5b505050506040513d601f19601f8201168201806040525081019061081191906114d9565b90506000811180156108235750600085115b61083f5760405162461bcd60e51b815260040161035d90611702565b600061084c8a898961064e565b90508581101561086e5760405162461bcd60e51b815260040161035d9061165d565b600061087a8783611816565b90506108888b8a8a84610e07565b600087856001600160a01b031662fdd58e308c6040518363ffffffff1660e01b81526004016108b89291906115b9565b60206040518083038186803b1580156108d057600080fd5b505afa1580156108e4573d6000803e3d6000fd5b505050506040513d601f19601f8201168201806040525081019061090891906114d9565b6109129190611816565b9050806109f9576001600160a01b03808c166000908152600260209081526040808320938e1683529281528282208c8352905290812081905561097a908c9060039061095e8e8e610b7d565b8152602001908152602001600020610e3d90919063ffffffff16565b506001600160a01b038a16600090815260016020526040902061099d908a610e52565b506001600160a01b038a1660009081526001602052604090206109bf90610bd3565b6109f9576109ce60048b610e3d565b506001600160a01b038a1660009081526001602052604081209081816109f48282611102565b505050505b604051637921219560e11b81526001600160a01b0386169063f242432a90610a2b9030908f908e908e9060040161155b565b600060405180830381600087803b158015610a4557600080fd5b505af1158015610a59573d6000803e3d6000fd5b505050507fff930e5e260d7cc3cfae9de156d8e2a9d4034170aaecec3e27ce1c2e399d21568a8a8a8e604051610a9294939291906115d2565b60405180910390a150505050505050505050505050565b60006102d660036000610abc8686610b7d565b8152602001908152602001600020610bd3565b6000858414610af05760405162461bcd60e51b815260040161035d90611781565b60005b86811015610b6757610b5533898984818110610b1f57634e487b7160e01b600052603260045260246000fd5b9050602002013561dead898986818110610b4957634e487b7160e01b600052603260045260246000fd5b90506020020135610e5e565b80610b5f8161182d565b915050610af3565b5063f23a6e6160e01b9998505050505050505050565b60008282604051602001610b929291906114f1565b60405160208183030381529060405280519060200120905092915050565b6000610bc0338661dead87610e5e565b5063f23a6e6160e01b9695505050505050565b600061028482610f2a565b60006102d68383610f2e565b600080826001600160a01b031663c19d93fb6040518163ffffffff1660e01b815260040160206040518083038186803b158015610c2657600080fd5b505afa158015610c3a573d6000803e3d6000fd5b505050506040513d601f19601f82011682018060405250810190610c5e91906114a2565b6001811115610c7d57634e487b7160e01b600052602160045260246000fd5b1480156102845750816001600160a01b031663c67143666040518163ffffffff1660e01b815260040160206040518083038186803b158015610cbe57600080fd5b505afa158015610cd2573d6000803e3d6000fd5b505050506040513d601f19601f82011682018060405250810190610cf691906114d9565b1580610d79575060405163288c314960e21b81526001600160a01b0383169063a230c52490610d29903390600401611513565b60206040518083038186803b158015610d4157600080fd5b505afa158015610d55573d6000803e3d6000fd5b505050506040513d601f19601f82011682018060405250810190610d7991906113b5565b8061028457506040516368c18beb60e01b81526001600160a01b038316906368c18beb90610dab903390600401611513565b60206040518083038186803b158015610dc357600080fd5b505afa158015610dd7573d6000803e3d6000fd5b505050506040513d601f19601f8201168201806040525081019061028491906113b5565b60006102d68383610f66565b6001600160a01b039384166000908152600260209081526040808320959096168252938452848120928152919092529190912055565b60006102d6836001600160a01b038416610f7e565b60006102d68383610f7e565b6001600160a01b0384166000908152600160205260409020610e80908461109b565b50610eaf8260036000610e938888610b7d565b81526020019081526020016000206110a790919063ffffffff16565b50610ebb6004856110a7565b506001600160a01b038083166000908152600260209081526040808320938816835292815282822086835290522054610ef482826117fe565b6001600160a01b039384166000908152600260209081526040808320989096168252968752848120958152949095525050902055565b5490565b6000826000018281548110610f5357634e487b7160e01b600052603260045260246000fd5b9060005260206000200154905092915050565b60009081526001919091016020526040902054151590565b60008181526001830160205260408120548015611091576000610fa2600183611816565b8554909150600090610fb690600190611816565b9050818114611037576000866000018281548110610fe457634e487b7160e01b600052603260045260246000fd5b906000526020600020015490508087600001848154811061101557634e487b7160e01b600052603260045260246000fd5b6000918252602080832090910192909255918252600188019052604090208390555b855486908061105657634e487b7160e01b600052603160045260246000fd5b600190038181906000526020600020016000905590558560010160008681526020019081526020016000206000905560019350505050610284565b6000915050610284565b60006102d683836110b8565b60006102d6836001600160a01b0384165b60006110c48383610f66565b6110fa57508154600181810184556000848152602080822090930184905584548482528286019093526040902091909155610284565b506000610284565b50805460008255906000526020600020908101906111209190611123565b50565b5b808211156111385760008155600101611124565b5090565b60008083601f84011261114d578182fd5b50813567ffffffffffffffff811115611164578182fd5b602083019150836020808302850101111561117e57600080fd5b9250929050565b60008083601f840112611196578182fd5b50813567ffffffffffffffff8111156111ad578182fd5b60208301915083602082850101111561117e57600080fd5b6000602082840312156111d6578081fd5b81356102d68161185e565b60008060008060008060008060a0898b0312156111fc578384fd5b88356112078161185e565b975060208901356112178161185e565b9650604089013567ffffffffffffffff80821115611233578586fd5b61123f8c838d0161113c565b909850965060608b0135915080821115611257578586fd5b6112638c838d0161113c565b909650945060808b013591508082111561127b578384fd5b506112888b828c01611185565b999c989b5096995094979396929594505050565b6000806000606084860312156112b0578283fd5b83356112bb8161185e565b925060208401356112cb8161185e565b929592945050506040919091013590565b60008060008060008060a087890312156112f4578182fd5b86356112ff8161185e565b9550602087013561130f8161185e565b94506040870135935060608701359250608087013567ffffffffffffffff811115611338578283fd5b61134489828a01611185565b979a9699509497509295939492505050565b60008060408385031215611368578182fd5b82356113738161185e565b946020939093013593505050565b600080600060608486031215611395578283fd5b83356113a08161185e565b95602085013595506040909401359392505050565b6000602082840312156113c6578081fd5b815180151581146102d6578182fd5b6000602082840312156113e6578081fd5b81356001600160e01b0319811681146102d6578182fd5b6000806040838503121561140f578182fd5b823561141a8161185e565b9150602083013561142a8161185e565b809150509250929050565b60008060008060008060c0878903121561144d578182fd5b86356114588161185e565b955060208701356114688161185e565b945060408701356114788161185e565b935060608701356114888161185e565b9598949750929560808101359460a0909101359350915050565b6000602082840312156114b3578081fd5b8151600281106102d6578182fd5b6000602082840312156114d2578081fd5b5035919050565b6000602082840312156114ea578081fd5b5051919050565b60609290921b6bffffffffffffffffffffffff19168252601482015260340190565b6001600160a01b0391909116815260200190565b6001600160a01b03958616815293851660208501529190931660408301526060820192909252608081019190915260a00190565b6001600160a01b0394851681529290931660208301526040820152606081019190915260a06080820181905260009082015260c00190565b6001600160a01b03938416815291909216602082015260ff909116604082015260600190565b6001600160a01b03929092168252602082015260400190565b6001600160a01b03948516815260208101939093526040830191909152909116606082015260800190565b901515815260200190565b90815260200190565b6001600160e01b031991909116815260200190565b6020808252601a908201527f657263313135354578743a3a696e76616c696420616d6f756e74000000000000604082015260600190565b6020808252601e908201527f657263313135354578743a3a696e73756666696369656e742066756e64730000604082015260600190565b60208082526018908201527f657263313135354578743a3a6e6f742061206d656d6265720000000000000000604082015260600190565b6020808252601f908201527f657263313135354578743a3a616c726561647920696e697469616c697a656400604082015260600190565b60208082526028908201527f657263313135354578743a3a6e6f7420656e6f7567682062616c616e6365206f6040820152671c88185b5bdd5b9d60c21b606082015260800190565b60208082526019908201527f657263313135354578743a3a6e6674206e6f7420666f756e6400000000000000604082015260600190565b60208082526026908201527f657263313135354578743a3a6964732076616c756573206c656e677468206d696040820152650e6dac2e8c6d60d31b606082015260800190565b60208082526018908201527f657263313135354578743a3a61636365737344656e6965640000000000000000604082015260600190565b6000821982111561181157611811611848565b500190565b60008282101561182857611828611848565b500390565b600060001982141561184157611841611848565b5060010190565b634e487b7160e01b600052601160045260246000fd5b6001600160a01b038116811461112057600080fdfea26469706673582212209372d1126bb42ccff7a1ba027fb7005e320f94bc4dd027369859b7ee6fcb480464736f6c63430008000033",
  "linkReferences": {},
  "deployedLinkReferences": {}
}