{
  "_format": "hh-sol-artifact-1",
  "contractName": "TributeContract",
  "sourceName": "build/contracts/adapters/Tribute.sol",
  "abi": [
    {
      "inputs": [
        {
          "internalType": "contract DaoRegistry",
          "name": "dao",
          "type": "address"
        },
        {
          "internalType": "address",
          "name": "tokenAddrToMint",
          "type": "address"
        }
      ],
      "name": "configureDao",
      "outputs": [],
      "stateMutability": "nonpayable",
      "type": "function"
    },
    {
      "inputs": [
        {
          "internalType": "contract DaoRegistry",
          "name": "dao",
          "type": "address"
        },
        {
          "internalType": "bytes32",
          "name": "proposalId",
          "type": "bytes32"
        }
      ],
      "name": "processProposal",
      "outputs": [],
      "stateMutability": "nonpayable",
      "type": "function"
    },
    {
      "inputs": [
        {
          "internalType": "address",
          "name": "",
          "type": "address"
        },
        {
          "internalType": "bytes32",
          "name": "",
          "type": "bytes32"
        }
      ],
      "name": "proposals",
      "outputs": [
        {
          "internalType": "bytes32",
          "name": "id",
          "type": "bytes32"
        },
        {
          "internalType": "address",
          "name": "applicant",
          "type": "address"
        },
        {
          "internalType": "address",
          "name": "tokenToMint",
          "type": "address"
        },
        {
          "internalType": "uint256",
          "name": "requestAmount",
          "type": "uint256"
        },
        {
          "internalType": "address",
          "name": "token",
          "type": "address"
        },
        {
          "internalType": "uint256",
          "name": "tributeAmount",
          "type": "uint256"
        },
        {
          "internalType": "address",
          "name": "tributeTokenOwner",
          "type": "address"
        }
      ],
      "stateMutability": "view",
      "type": "function"
    },
    {
      "inputs": [
        {
          "internalType": "contract DaoRegistry",
          "name": "dao",
          "type": "address"
        },
        {
          "internalType": "bytes32",
          "name": "proposalId",
          "type": "bytes32"
        },
        {
          "internalType": "address",
          "name": "applicant",
          "type": "address"
        },
        {
          "internalType": "address",
          "name": "tokenToMint",
          "type": "address"
        },
        {
          "internalType": "uint256",
          "name": "requestAmount",
          "type": "uint256"
        },
        {
          "internalType": "address",
          "name": "tokenAddr",
          "type": "address"
        },
        {
          "internalType": "uint256",
          "name": "tributeAmount",
          "type": "uint256"
        },
        {
          "internalType": "address",
          "name": "tributeTokenOwner",
          "type": "address"
        },
        {
          "internalType": "bytes",
          "name": "data",
          "type": "bytes"
        }
      ],
      "name": "submitProposal",
      "outputs": [],
      "stateMutability": "nonpayable",
      "type": "function"
    }
  ],
  "bytecode": "0x608060405234801561001057600080fd5b50611f0a806100206000396000f3fe608060405234801561001057600080fd5b506004361061004c5760003560e01c80635cb75276146100515780639364a95e146100805780639573167d14610095578063c9c35c08146100a8575b600080fd5b61006461005f36600461177e565b6100bb565b6040516100779796959493929190611a70565b60405180910390f35b61009361008e366004611838565b610110565b005b6100936100a3366004611826565b6105b8565b6100936100b63660046117ee565b610c68565b6000602081815292815260408082209093529081522080546001820154600283015460038401546004850154600586015460069096015494956001600160a01b03948516959385169492939183169290911687565b88600061011c82610e19565b90506101278961106a565b61014c5760405162461bcd60e51b815260040161014390611bca565b60405180910390fd5b60405163b73dc38960e01b81526001600160a01b038c169063b73dc38990610178908d90600401611a48565b600060405180830381600087803b15801561019257600080fd5b505af11580156101a6573d6000803e3d6000fd5b50506040516317ba7d8560e01b8152600092506001600160a01b038e1691506317ba7d85906101f9907f0e49311626a26ba5be58a3b13d239908e80ce0dffdd5c50bf1d9c82ff35d1ab390600401611a48565b60206040518083038186803b15801561021157600080fd5b505afa158015610225573d6000803e3d6000fd5b505050506040513d601f19601f820116820180604052508101906102499190611762565b90506000816001600160a01b031663966917d08e3088336040518563ffffffff1660e01b815260040161027f9493929190611b30565b602060405180830381600087803b15801561029957600080fd5b505af11580156102ad573d6000803e3d6000fd5b505050506040513d601f19601f820116820180604052508101906102d19190611762565b6040516344b574dd60e11b81529091506001600160a01b038e169063896ae9ba90610304908f9085908790600401611a51565b600060405180830381600087803b15801561031e57600080fd5b505af1158015610332573d6000803e3d6000fd5b505050506103dc8b8e8f6001600160a01b031663593e96b67fea0ca03c7adbe41dc655fec28a9209dc8e6e042f3d991a67765ba285b9cf73a06040518263ffffffff1660e01b81526004016103879190611a48565b60206040518083038186803b15801561039f57600080fd5b505afa1580156103b3573d6000803e3d6000fd5b505050506040513d601f19601f820116820180604052508101906103d79190611762565b6110b1565b816001600160a01b0316632b0974d08e8e886040518463ffffffff1660e01b815260040161040c93929190611b87565b600060405180830381600087803b15801561042657600080fd5b505af115801561043a573d6000803e3d6000fd5b505050506040518060e001604052808d81526020018c6001600160a01b031681526020018b6001600160a01b031681526020018a8152602001896001600160a01b03168152602001888152602001876001600160a01b03168152506000808f6001600160a01b03166001600160a01b0316815260200190815260200160002060008e81526020019081526020016000206000820151816000015560208201518160010160006101000a8154816001600160a01b0302191690836001600160a01b0316021790555060408201518160020160006101000a8154816001600160a01b0302191690836001600160a01b031602179055506060820151816003015560808201518160040160006101000a8154816001600160a01b0302191690836001600160a01b0316021790555060a0820151816005015560c08201518160060160006101000a8154816001600160a01b0302191690836001600160a01b0316021790555090505050506105ab8282611242565b5050505050505050505050565b8160006105c482610e19565b6001600160a01b03808616600090815260208181526040808320888452825291829020825160e08101845281548082526001830154861693820193909352600282015485169381019390935260038101546060840152600481015484166080840152600581015460a08401526006015490921660c0820152919250841461065d5760405162461bcd60e51b815260040161014390611ca1565b60405163f941f69160e01b81526001600160a01b0386169063f941f6919061068c908790600290600401611aab565b60206040518083038186803b1580156106a457600080fd5b505afa1580156106b8573d6000803e3d6000fd5b505050506040513d601f19601f820116820180604052508101906106dc91906117a9565b156106f95760405162461bcd60e51b815260040161014390611cd8565b60405163206f381f60e11b81526000906001600160a01b038716906340de703e90610728908890600401611a48565b60206040518083038186803b15801561074057600080fd5b505afa158015610754573d6000803e3d6000fd5b505050506040513d601f19601f820116820180604052508101906107789190611762565b90506001600160a01b0381166107a05760405162461bcd60e51b815260040161014390611e07565b6040516376225e7360e01b81526000906001600160a01b038316906376225e73906107d1908a908a90600401611b6e565b602060405180830381600087803b1580156107eb57600080fd5b505af11580156107ff573d6000803e3d6000fd5b505050506040513d601f19601f820116820180604052508101906108239190611977565b6040516330490e9160e01b81529091506001600160a01b038816906330490e9190610852908990600401611a48565b600060405180830381600087803b15801561086c57600080fd5b505af1158015610880573d6000803e3d6000fd5b506002925061088d915050565b8160058111156108ad57634e487b7160e01b600052602160045260246000fd5b1415610be657604051632c9f4b5b60e11b81526000906001600160a01b0389169063593e96b690610902907fea0ca03c7adbe41dc655fec28a9209dc8e6e042f3d991a67765ba285b9cf73a090600401611a48565b60206040518083038186803b15801561091a57600080fd5b505afa15801561092e573d6000803e3d6000fd5b505050506040513d601f19601f820116820180604052508101906109529190611762565b604080860151602087015160a088015160c08901519351630a51990b60e11b815294955091939092906001600160a01b038616906314a332169061099a9087906004016119f6565b60206040518083038186803b1580156109b257600080fd5b505afa1580156109c6573d6000803e3d6000fd5b505050506040513d601f19601f820116820180604052508101906109ea91906117a9565b610a065760405162461bcd60e51b815260040161014390611d88565b608088015160405163f9eaee0d60e01b81526001600160a01b0387169163f9eaee0d91610a3691906004016119f6565b60206040518083038186803b158015610a4e57600080fd5b505afa158015610a62573d6000803e3d6000fd5b505050506040513d601f19601f82011682018060405250810190610a8691906117a9565b610aef57846001600160a01b03166350c7c8608d8a608001516040518363ffffffff1660e01b8152600401610abc929190611a0a565b600060405180830381600087803b158015610ad657600080fd5b505af1158015610aea573d6000803e3d6000fd5b505050505b6080880151610b096001600160a01b038216838886611251565b856001600160a01b03166306dae9ba8e86888d606001516040518563ffffffff1660e01b8152600401610b3f9493929190611b06565b600060405180830381600087803b158015610b5957600080fd5b505af1158015610b6d573d6000803e3d6000fd5b50505050856001600160a01b03166306dae9ba8e61dead8c60800151876040518563ffffffff1660e01b8152600401610ba99493929190611b06565b600060405180830381600087803b158015610bc357600080fd5b505af1158015610bd7573d6000803e3d6000fd5b50505050505050505050610c55565b6003816005811115610c0857634e487b7160e01b600052602160045260246000fd5b1480610c3357506001816005811115610c3157634e487b7160e01b600052602160045260246000fd5b145b15610c3d57610c55565b60405162461bcd60e51b815260040161014390611d0f565b505050610c628282611242565b50505050565b6040516368c18beb60e01b815282906001600160a01b038216906368c18beb90610c969033906004016119f6565b60206040518083038186803b158015610cae57600080fd5b505afa158015610cc2573d6000803e3d6000fd5b505050506040513d601f19601f82011682018060405250810190610ce691906117a9565b80610cf55750610cf5816112a9565b610d115760405162461bcd60e51b815260040161014390611e32565b604051632c9f4b5b60e11b81526000906001600160a01b0385169063593e96b690610d60907fea0ca03c7adbe41dc655fec28a9209dc8e6e042f3d991a67765ba285b9cf73a090600401611a48565b60206040518083038186803b158015610d7857600080fd5b505afa158015610d8c573d6000803e3d6000fd5b505050506040513d601f19601f82011682018060405250810190610db09190611762565b6040516358d50c5560e01b81529091506001600160a01b038216906358d50c5590610de19087908790600401611a0a565b600060405180830381600087803b158015610dfb57600080fd5b505af1158015610e0f573d6000803e3d6000fd5b5050505050505050565b610e2161171f565b5a81600001818152505043826001600160a01b031663b21634826040518163ffffffff1660e01b815260040160206040518083038186803b158015610e6557600080fd5b505afa158015610e79573d6000803e3d6000fd5b505050506040513d601f19601f82011682018060405250810190610e9d9190611996565b1415610ebb5760405162461bcd60e51b815260040161014390611c77565b816001600160a01b03166310fdb0a26040518163ffffffff1660e01b8152600401600060405180830381600087803b158015610ef657600080fd5b505af1158015610f0a573d6000803e3d6000fd5b50506040516372c6838f60e01b8152600092506001600160a01b03851691506372c6838f90610f5d907f1f2fd42ad6a6cacd573c4b212beb7a4e2499ad45d742a65337097f130e71daff90600401611a48565b60206040518083038186803b158015610f7557600080fd5b505afa158015610f89573d6000803e3d6000fd5b505050506040513d601f19601f82011682018060405250810190610fad9190611762565b90506001600160a01b038116610fc95760006020830152611064565b6001600160a01b0381166060830181905282516040516343a8a3f160e01b8152600092839290916343a8a3f19161100591899190600401611b6e565b604080518083038186803b15801561101c57600080fd5b505afa158015611030573d6000803e3d6000fd5b505050506040513d601f19601f8201168201806040525081019061105491906117c3565b9015156020860152604085015250505b50919050565b60006001600160a01b03821661dead1480159061109257506001600160a01b03821661babe14155b80156110a957506001600160a01b038216614bec14155b90505b919050565b604051636e494fa560e11b81526001600160a01b0383169063dc929f4a906110dd9086906004016119f6565b600060405180830381600087803b1580156110f757600080fd5b505af115801561110b573d6000803e3d6000fd5b505050506001600160a01b0383166111355760405162461bcd60e51b815260040161014390611c47565b6001600160a01b0381161561123d57604051633de222bb60e21b81526001600160a01b0382169063f7888aec9061117690869063decafbad90600401611a0a565b60206040518083038186803b15801561118e57600080fd5b505afa1580156111a2573d6000803e3d6000fd5b505050506040513d601f19601f820116820180604052508101906111c69190611762565b6001600160a01b031661123d5760405163036d74dd60e11b81526001600160a01b038216906306dae9ba9061120a908590879063decafbad90600190600401611b06565b600060405180830381600087803b15801561122457600080fd5b505af1158015611238573d6000803e3d6000fd5b505050505b505050565b61124d8282336114ba565b5050565b610c62846323b872dd60e01b85858560405160240161127293929190611a24565b60408051601f198184030181529190526020810180516001600160e01b03166001600160e01b031990931692909217909152611578565b600080826001600160a01b031663c19d93fb6040518163ffffffff1660e01b815260040160206040518083038186803b1580156112e557600080fd5b505afa1580156112f9573d6000803e3d6000fd5b505050506040513d601f19601f8201168201806040525081019061131d9190611958565b600181111561133c57634e487b7160e01b600052602160045260246000fd5b1480156110a95750816001600160a01b031663c67143666040518163ffffffff1660e01b815260040160206040518083038186803b15801561137d57600080fd5b505afa158015611391573d6000803e3d6000fd5b505050506040513d601f19601f820116820180604052508101906113b59190611996565b1580611438575060405163288c314960e21b81526001600160a01b0383169063a230c524906113e89033906004016119f6565b60206040518083038186803b15801561140057600080fd5b505afa158015611414573d6000803e3d6000fd5b505050506040513d601f19601f8201168201806040525081019061143891906117a9565b806110a957506040516368c18beb60e01b81526001600160a01b038316906368c18beb9061146a9033906004016119f6565b60206040518083038186803b15801561148257600080fd5b505afa158015611496573d6000803e3d6000fd5b505050506040513d601f19601f820116820180604052508101906110a991906117a9565b81602001511561153d5781606001516001600160a01b0316635e5eb01384835a86516114e69190611e57565b86604001516040518563ffffffff1660e01b815260040161150a9493929190611add565b600060405180830381600087803b15801561152457600080fd5b505af1158015611538573d6000803e3d6000fd5b505050505b826001600160a01b031663d4f7af436040518163ffffffff1660e01b8152600401600060405180830381600087803b15801561122457600080fd5b60006115cd826040518060400160405280602081526020017f5361666545524332303a206c6f772d6c6576656c2063616c6c206661696c6564815250856001600160a01b03166116079092919063ffffffff16565b80519091501561123d57808060200190518101906115eb91906117a9565b61123d5760405162461bcd60e51b815260040161014390611dbd565b60606116168484600085611620565b90505b9392505050565b6060824710156116425760405162461bcd60e51b815260040161014390611c01565b61164b856116e0565b6116675760405162461bcd60e51b815260040161014390611d51565b600080866001600160a01b0316858760405161168391906119da565b60006040518083038185875af1925050503d80600081146116c0576040519150601f19603f3d011682016040523d82523d6000602084013e6116c5565b606091505b50915091506116d58282866116e6565b979650505050505050565b3b151590565b606083156116f5575081611619565b8251156117055782518084602001fd5b8160405162461bcd60e51b81526004016101439190611bb7565b6040518060800160405280600081526020016000151581526020016000815260200160006001600160a01b031681525090565b805180151581146110ac57600080fd5b600060208284031215611773578081fd5b815161161981611ebc565b60008060408385031215611790578081fd5b823561179b81611ebc565b946020939093013593505050565b6000602082840312156117ba578081fd5b61161982611752565b600080604083850312156117d5578182fd5b6117de83611752565b9150602083015190509250929050565b60008060408385031215611800578182fd5b823561180b81611ebc565b9150602083013561181b81611ebc565b809150509250929050565b60008060408385031215611790578182fd5b60008060008060008060008060006101208a8c031215611856578485fd5b893561186181611ebc565b985060208a810135985060408b013561187981611ebc565b975060608b013561188981611ebc565b965060808b0135955060a08b01356118a081611ebc565b945060c08b0135935060e08b01356118b781611ebc565b92506101008b013567ffffffffffffffff808211156118d4578384fd5b818d0191508d601f8301126118e7578384fd5b8135818111156118f9576118f9611ea6565b604051601f8201601f191681018501838111828210171561191c5761191c611ea6565b80604052508181528f85838601011115611934578586fd5b81858501868301378585838301015280955050505050509295985092959850929598565b600060208284031215611969578081fd5b815160028110611619578182fd5b600060208284031215611988578081fd5b815160068110611619578182fd5b6000602082840312156119a7578081fd5b5051919050565b600081518084526119c6816020860160208601611e7a565b601f01601f19169290920160200192915050565b600082516119ec818460208701611e7a565b9190910192915050565b6001600160a01b0391909116815260200190565b6001600160a01b0392831681529116602082015260400190565b6001600160a01b039384168152919092166020820152604081019190915260600190565b90815260200190565b9283526001600160a01b03918216602084015216604082015260600190565b9687526001600160a01b039586166020880152938516604087015260608601929092528316608085015260a08401521660c082015260e00190565b8281526040810160038310611ad057634e487b7160e01b600052602160045260246000fd5b8260208301529392505050565b6001600160a01b0394851681529290931660208301526040820152606081019190915260800190565b6001600160a01b039485168152928416602084015292166040820152606081019190915260800190565b600060018060a01b038087168352808616602084015260806040840152611b5a60808401866119ae565b915080841660608401525095945050505050565b6001600160a01b03929092168252602082015260400190565b600060018060a01b038516825283602083015260606040830152611bae60608301846119ae565b95945050505050565b60006020825261161960208301846119ae565b6020808252601d908201527f6170706c6963616e742069732072657365727665642061646472657373000000604082015260600190565b60208082526026908201527f416464726573733a20696e73756666696369656e742062616c616e636520666f6040820152651c8818d85b1b60d21b606082015260800190565b602080825260169082015275696e76616c6964206d656d626572206164647265737360501b604082015260600190565b60208082526010908201526f1c99595b9d1c985b98de4819dd585c9960821b604082015260600190565b60208082526017908201527f70726f706f73616c20646f6573206e6f74206578697374000000000000000000604082015260600190565b6020808252601a908201527f70726f706f73616c20616c72656164792070726f636573736564000000000000604082015260600190565b60208082526022908201527f70726f706f73616c20686173206e6f74206265656e20766f746564206f6e2079604082015261195d60f21b606082015260800190565b6020808252601d908201527f416464726573733a2063616c6c20746f206e6f6e2d636f6e7472616374000000604082015260600190565b6020808252818101527f69742063616e206f6e6c79206d696e7420696e7465726e616c20746f6b656e73604082015260600190565b6020808252602a908201527f5361666545524332303a204552433230206f7065726174696f6e20646964206e6040820152691bdd081cdd58d8d9595960b21b606082015260800190565b6020808252601190820152701859185c1d195c881b9bdd08199bdd5b99607a1b604082015260600190565b6020808252600b908201526a37b7363ca0b230b83a32b960a91b604082015260600190565b600082821015611e7557634e487b7160e01b81526011600452602481fd5b500390565b60005b83811015611e95578181015183820152602001611e7d565b83811115610c625750506000910152565b634e487b7160e01b600052604160045260246000fd5b6001600160a01b0381168114611ed157600080fd5b5056fea2646970667358221220f8ff418dc6416605b6a54dab93bfa0bebe939efb7ed0aa0d30c2a747b99041b864736f6c63430008000033",
  "linkReferences": {},
  "deployedLinkReferences": {}
}