{
  "_format": "hh-sol-artifact-1",
  "contractName": "ERC1271Extension",
  "sourceName": "build/contracts/extensions/erc1271/ERC1271.sol",
  "abi": [
    {
      "inputs": [],
      "stateMutability": "nonpayable",
      "type": "constructor"
    },
    {
      "inputs": [],
      "name": "dao",
      "outputs": [
        {
          "internalType": "contract DaoRegistry",
          "name": "",
          "type": "address"
        }
      ],
      "stateMutability": "view",
      "type": "function"
    },
    {
      "inputs": [
        {
          "internalType": "contract DaoRegistry",
          "name": "_dao",
          "type": "address"
        },
        {
          "internalType": "address",
          "name": "creator",
          "type": "address"
        }
      ],
      "name": "initialize",
      "outputs": [],
      "stateMutability": "nonpayable",
      "type": "function"
    },
    {
      "inputs": [],
      "name": "initialized",
      "outputs": [
        {
          "internalType": "bool",
          "name": "",
          "type": "bool"
        }
      ],
      "stateMutability": "view",
      "type": "function"
    },
    {
      "inputs": [
        {
          "internalType": "bytes32",
          "name": "permissionHash",
          "type": "bytes32"
        },
        {
          "internalType": "bytes",
          "name": "signature",
          "type": "bytes"
        }
      ],
      "name": "isValidSignature",
      "outputs": [
        {
          "internalType": "bytes4",
          "name": "",
          "type": "bytes4"
        }
      ],
      "stateMutability": "view",
      "type": "function"
    },
    {
      "inputs": [
        {
          "internalType": "contract DaoRegistry",
          "name": "_dao",
          "type": "address"
        },
        {
          "internalType": "bytes32",
          "name": "permissionHash",
          "type": "bytes32"
        },
        {
          "internalType": "bytes32",
          "name": "signatureHash",
          "type": "bytes32"
        },
        {
          "internalType": "bytes4",
          "name": "magicValue",
          "type": "bytes4"
        }
      ],
      "name": "sign",
      "outputs": [],
      "stateMutability": "nonpayable",
      "type": "function"
    },
    {
      "inputs": [
        {
          "internalType": "bytes32",
          "name": "",
          "type": "bytes32"
        }
      ],
      "name": "signatures",
      "outputs": [
        {
          "internalType": "bytes32",
          "name": "signatureHash",
          "type": "bytes32"
        },
        {
          "internalType": "bytes4",
          "name": "magicValue",
          "type": "bytes4"
        }
      ],
      "stateMutability": "view",
      "type": "function"
    }
  ],
  "bytecode": "0x60806040526000805460ff1916905534801561001a57600080fd5b50610a238061002a6000396000f3fe608060405234801561001057600080fd5b50600436106100625760003560e01c8063158ef93e146100675780631626ba7e146100855780631d2b36f4146100a55780632422224e146100ba5780634162169f146100db578063485cc955146100f0575b600080fd5b61006f610103565b60405161007c9190610886565b60405180910390f35b6100986100933660046106a2565b61010c565b60405161007c91906108a9565b6100b86100b3366004610787565b6101b9565b005b6100cd6100c836600461068a565b61032e565b60405161007c929190610891565b6100e361034a565b60405161007c919061084c565b6100b86100fe36600461074f565b61035e565b60005460ff1681565b60008281526001602081815260408084208151808301909252805482529092015460e01b6001600160e01b0319169082018190526101655760405162461bcd60e51b815260040161015c90610988565b60405180910390fd5b826040516020016101769190610813565b604051602081830303815290604052805190602001208160000151146101ae5760405162461bcd60e51b815260040161015c90610951565b602001519392505050565b600080548591906001600160a01b03808416610100909204161480156102c05750303314806101f7575060005461010090046001600160a01b031633145b8061021757506000546102179061010090046001600160a01b031661044c565b806102c0575060005461010090046001600160a01b0316636cfdc32e333084801561025257634e487b7160e01b600052602160045260246000fd5b6040518463ffffffff1660e01b815260040161027093929190610860565b60206040518083038186803b15801561028857600080fd5b505afa15801561029c573d6000803e3d6000fd5b505050506040513d601f19601f820116820180604052508101906102c09190610663565b6102dc5760405162461bcd60e51b815260040161015c90610922565b50506040805180820182529283526001600160e01b03199190911660208084019182526000948552600190819052919093209151825591519101805463ffffffff191660e09290921c91909117905550565b6001602081905260009182526040909120805491015460e01b82565b60005461010090046001600160a01b031681565b60005460ff16156103815760405162461bcd60e51b815260040161015c906108eb565b60405163288c314960e21b81526001600160a01b0383169063a230c524906103ad90849060040161084c565b60206040518083038186803b1580156103c557600080fd5b505afa1580156103d9573d6000803e3d6000fd5b505050506040513d601f19601f820116820180604052508101906103fd9190610663565b6104195760405162461bcd60e51b815260040161015c906108be565b50600080546001600160a01b0390921661010002610100600160a81b031960ff1990931660011792909216919091179055565b600080826001600160a01b031663c19d93fb6040518163ffffffff1660e01b815260040160206040518083038186803b15801561048857600080fd5b505afa15801561049c573d6000803e3d6000fd5b505050506040513d601f19601f820116820180604052508101906104c091906107dc565b60018111156104df57634e487b7160e01b600052602160045260246000fd5b14801561065d5750816001600160a01b031663c67143666040518163ffffffff1660e01b815260040160206040518083038186803b15801561052057600080fd5b505afa158015610534573d6000803e3d6000fd5b505050506040513d601f19601f8201168201806040525081019061055891906107fb565b15806105db575060405163288c314960e21b81526001600160a01b0383169063a230c5249061058b90339060040161084c565b60206040518083038186803b1580156105a357600080fd5b505afa1580156105b7573d6000803e3d6000fd5b505050506040513d601f19601f820116820180604052508101906105db9190610663565b8061065d57506040516368c18beb60e01b81526001600160a01b038316906368c18beb9061060d90339060040161084c565b60206040518083038186803b15801561062557600080fd5b505afa158015610639573d6000803e3d6000fd5b505050506040513d601f19601f8201168201806040525081019061065d9190610663565b92915050565b600060208284031215610674578081fd5b81518015158114610683578182fd5b9392505050565b60006020828403121561069b578081fd5b5035919050565b600080604083850312156106b4578081fd5b8235915060208084013567ffffffffffffffff808211156106d3578384fd5b818601915086601f8301126106e6578384fd5b8135818111156106f8576106f86109bf565b604051601f8201601f191681018501838111828210171561071b5761071b6109bf565b6040528181528382018501891015610731578586fd5b81858501868301378585838301015280955050505050509250929050565b60008060408385031215610761578182fd5b823561076c816109d5565b9150602083013561077c816109d5565b809150509250929050565b6000806000806080858703121561079c578182fd5b84356107a7816109d5565b9350602085013592506040850135915060608501356001600160e01b0319811681146107d1578182fd5b939692955090935050565b6000602082840312156107ed578081fd5b815160028110610683578182fd5b60006020828403121561080c578081fd5b5051919050565b60008251815b818110156108335760208186018101518583015201610819565b818111156108415782828501525b509190910192915050565b6001600160a01b0391909116815260200190565b6001600160a01b03938416815291909216602082015260ff909116604082015260600190565b901515815260200190565b9182526001600160e01b031916602082015260400190565b6001600160e01b031991909116815260200190565b60208082526013908201527232b93198991b989d1d3737ba1036b2b6b132b960691b604082015260600190565b6020808252601c908201527f657263313237313a3a616c726561647920696e697469616c697a656400000000604082015260600190565b602080825260159082015274195c98cc4c8dcc4e8e9858d8d95cdcd1195b9a5959605a1b604082015260600190565b6020808252601f908201527f657263313237313a3a696e76616c6964207369676e6174757265206861736800604082015260600190565b6020808252601a908201527f657263313237313a3a696e76616c6964207369676e6174757265000000000000604082015260600190565b634e487b7160e01b600052604160045260246000fd5b6001600160a01b03811681146109ea57600080fd5b5056fea26469706673582212202b29f802af32fcf9fc96c6c0a360b67c1742805c8ae0125c8a4cd11266b3380764736f6c63430008000033",
  "linkReferences": {},
  "deployedLinkReferences": {}
}