{
  "_format": "hh-sol-artifact-1",
  "contractName": "NFTExtension",
  "sourceName": "build/contracts/extensions/nft/NFT.sol",
  "abi": [
    {
      "inputs": [],
      "stateMutability": "nonpayable",
      "type": "constructor"
    },
    {
      "anonymous": false,
      "inputs": [
        {
          "indexed": false,
          "internalType": "address",
          "name": "nftAddr",
          "type": "address"
        },
        {
          "indexed": false,
          "internalType": "uint256",
          "name": "nftTokenId",
          "type": "uint256"
        }
      ],
      "name": "CollectedNFT",
      "type": "event"
    },
    {
      "anonymous": false,
      "inputs": [
        {
          "indexed": false,
          "internalType": "address",
          "name": "nftAddr",
          "type": "address"
        },
        {
          "indexed": false,
          "internalType": "uint256",
          "name": "nftTokenId",
          "type": "uint256"
        },
        {
          "indexed": false,
          "internalType": "address",
          "name": "oldOwner",
          "type": "address"
        },
        {
          "indexed": false,
          "internalType": "address",
          "name": "newOwner",
          "type": "address"
        }
      ],
      "name": "TransferredNFT",
      "type": "event"
    },
    {
      "anonymous": false,
      "inputs": [
        {
          "indexed": false,
          "internalType": "address",
          "name": "nftAddr",
          "type": "address"
        },
        {
          "indexed": false,
          "internalType": "uint256",
          "name": "nftTokenId",
          "type": "uint256"
        },
        {
          "indexed": false,
          "internalType": "address",
          "name": "toAddress",
          "type": "address"
        }
      ],
      "name": "WithdrawnNFT",
      "type": "event"
    },
    {
      "inputs": [
        {
          "internalType": "contract DaoRegistry",
          "name": "_dao",
          "type": "address"
        },
        {
          "internalType": "address",
          "name": "nftAddr",
          "type": "address"
        },
        {
          "internalType": "uint256",
          "name": "nftTokenId",
          "type": "uint256"
        }
      ],
      "name": "collect",
      "outputs": [],
      "stateMutability": "nonpayable",
      "type": "function"
    },
    {
      "inputs": [],
      "name": "dao",
      "outputs": [
        {
          "internalType": "contract DaoRegistry",
          "name": "",
          "type": "address"
        }
      ],
      "stateMutability": "view",
      "type": "function"
    },
    {
      "inputs": [
        {
          "internalType": "address",
          "name": "tokenAddr",
          "type": "address"
        },
        {
          "internalType": "uint256",
          "name": "index",
          "type": "uint256"
        }
      ],
      "name": "getNFT",
      "outputs": [
        {
          "internalType": "uint256",
          "name": "",
          "type": "uint256"
        }
      ],
      "stateMutability": "view",
      "type": "function"
    },
    {
      "inputs": [
        {
          "internalType": "uint256",
          "name": "index",
          "type": "uint256"
        }
      ],
      "name": "getNFTAddress",
      "outputs": [
        {
          "internalType": "address",
          "name": "",
          "type": "address"
        }
      ],
      "stateMutability": "view",
      "type": "function"
    },
    {
      "inputs": [
        {
          "internalType": "address",
          "name": "nftAddress",
          "type": "address"
        },
        {
          "internalType": "uint256",
          "name": "tokenId",
          "type": "uint256"
        }
      ],
      "name": "getNFTId",
      "outputs": [
        {
          "internalType": "bytes32",
          "name": "",
          "type": "bytes32"
        }
      ],
      "stateMutability": "pure",
      "type": "function"
    },
    {
      "inputs": [
        {
          "internalType": "address",
          "name": "nftAddress",
          "type": "address"
        },
        {
          "internalType": "uint256",
          "name": "tokenId",
          "type": "uint256"
        }
      ],
      "name": "getNFTOwner",
      "outputs": [
        {
          "internalType": "address",
          "name": "",
          "type": "address"
        }
      ],
      "stateMutability": "view",
      "type": "function"
    },
    {
      "inputs": [
        {
          "internalType": "contract DaoRegistry",
          "name": "_dao",
          "type": "address"
        },
        {
          "internalType": "address",
          "name": "creator",
          "type": "address"
        }
      ],
      "name": "initialize",
      "outputs": [],
      "stateMutability": "nonpayable",
      "type": "function"
    },
    {
      "inputs": [],
      "name": "initialized",
      "outputs": [
        {
          "internalType": "bool",
          "name": "",
          "type": "bool"
        }
      ],
      "stateMutability": "view",
      "type": "function"
    },
    {
      "inputs": [
        {
          "internalType": "contract DaoRegistry",
          "name": "_dao",
          "type": "address"
        },
        {
          "internalType": "address",
          "name": "nftAddr",
          "type": "address"
        },
        {
          "internalType": "uint256",
          "name": "nftTokenId",
          "type": "uint256"
        },
        {
          "internalType": "address",
          "name": "newOwner",
          "type": "address"
        }
      ],
      "name": "internalTransfer",
      "outputs": [],
      "stateMutability": "nonpayable",
      "type": "function"
    },
    {
      "inputs": [],
      "name": "nbNFTAddresses",
      "outputs": [
        {
          "internalType": "uint256",
          "name": "",
          "type": "uint256"
        }
      ],
      "stateMutability": "view",
      "type": "function"
    },
    {
      "inputs": [
        {
          "internalType": "address",
          "name": "tokenAddr",
          "type": "address"
        }
      ],
      "name": "nbNFTs",
      "outputs": [
        {
          "internalType": "uint256",
          "name": "",
          "type": "uint256"
        }
      ],
      "stateMutability": "view",
      "type": "function"
    },
    {
      "inputs": [
        {
          "internalType": "address",
          "name": "",
          "type": "address"
        },
        {
          "internalType": "address",
          "name": "",
          "type": "address"
        },
        {
          "internalType": "uint256",
          "name": "id",
          "type": "uint256"
        },
        {
          "internalType": "bytes",
          "name": "",
          "type": "bytes"
        }
      ],
      "name": "onERC721Received",
      "outputs": [
        {
          "internalType": "bytes4",
          "name": "",
          "type": "bytes4"
        }
      ],
      "stateMutability": "nonpayable",
      "type": "function"
    },
    {
      "inputs": [
        {
          "internalType": "contract DaoRegistry",
          "name": "_dao",
          "type": "address"
        },
        {
          "internalType": "address",
          "name": "newOwner",
          "type": "address"
        },
        {
          "internalType": "address",
          "name": "nftAddr",
          "type": "address"
        },
        {
          "internalType": "uint256",
          "name": "nftTokenId",
          "type": "uint256"
        }
      ],
      "name": "withdrawNFT",
      "outputs": [],
      "stateMutability": "nonpayable",
      "type": "function"
    }
  ],
  "bytecode": "0x60806040526000805460ff1916905534801561001a57600080fd5b5061154d8061002a6000396000f3fe608060405234801561001057600080fd5b50600436106100cf5760003560e01c80634162169f1161008c5780639d18f773116100665780639d18f7731461019d578063c33077d5146101b0578063c8fea2fb146101c3578063db648f34146101d6576100cf565b80634162169f14610162578063485cc95514610177578063637dfb0c1461018a576100cf565b8063150b7a02146100d4578063158ef93e146100fd5780632148c71f146101125780632207bdcf1461013257806326e3cdc91461014557806327b5af2d1461014d575b600080fd5b6100e76100e2366004610fe7565b6101e9565b6040516100f49190611330565b60405180910390f35b61010561020a565b6040516100f4919061131c565b610125610120366004610faf565b610213565b6040516100f49190611327565b610125610140366004611081565b61023a565b610125610263565b61016061015b366004611104565b610274565b005b61016a6104de565b6040516100f49190611257565b6101606101853660046110cc565b6104f2565b61016a610198366004611081565b6105e0565b61016a6101ab366004611205565b610611565b6101256101be366004611081565b61061e565b6101606101d1366004611154565b610651565b6101606101e4366004611194565b61090d565b60006101f8338561dead610af6565b50630a85bd0160e11b95945050505050565b60005460ff1681565b6001600160a01b038116600090815260016020526040812061023490610b8a565b92915050565b6001600160a01b038216600090815260016020526040812061025c9083610b95565b9392505050565b600061026f6003610b8a565b905090565b600080548591906001600160a01b038084166101009092041614801561035b57506000546102af9061010090046001600160a01b0316610ba1565b8061035b575060005461010090046001600160a01b0316636cfdc32e33308460028111156102ed57634e487b7160e01b600052602160045260246000fd5b6040518463ffffffff1660e01b815260040161030b9392919061128f565b60206040518083038186803b15801561032357600080fd5b505afa158015610337573d6000803e3d6000fd5b505050506040513d601f19601f8201168201806040525081019061035b91906110ac565b6103805760405162461bcd60e51b8152600401610377906113ea565b60405180910390fd5b6001600160a01b03841660009081526001602052604090206103a29084610db2565b6103be5760405162461bcd60e51b81526004016103779061137c565b604051632142170760e11b815284906001600160a01b038216906342842e0e906103f09030908a90899060040161126b565b600060405180830381600087803b15801561040a57600080fd5b505af115801561041e573d6000803e3d6000fd5b5050505060026000610430878761061e565b81526020808201929092526040908101600090812080546001600160a01b03191690556001600160a01b03881681526001909252902061046f90610b8a565b61049a5761047e600386610dbe565b61049a5760405162461bcd60e51b8152600401610377906114a5565b7f88b2808a6fc6d8edbe6d59ced2418eb201957d7b09fc67da2b9dec70703ffa828585886040516104cd939291906112ce565b60405180910390a150505050505050565b60005461010090046001600160a01b031681565b60005460ff16156105155760405162461bcd60e51b8152600401610377906113b3565b60405163288c314960e21b81526001600160a01b0383169063a230c52490610541908490600401611257565b60206040518083038186803b15801561055957600080fd5b505afa15801561056d573d6000803e3d6000fd5b505050506040513d601f19601f8201168201806040525081019061059191906110ac565b6105ad5760405162461bcd60e51b815260040161037790611477565b50600080546001600160a01b0390921661010002610100600160a81b031960ff1990931660011792909216919091179055565b6000600260006105f0858561061e565b81526020810191909152604001600020546001600160a01b03169392505050565b6000610234600383610b95565b60008282604051602001610633929190611235565b60405160208183030381529060405280519060200120905092915050565b60005483906001906001600160a01b0380841661010090920416148015610739575060005461068d9061010090046001600160a01b0316610ba1565b80610739575060005461010090046001600160a01b0316636cfdc32e33308460028111156106cb57634e487b7160e01b600052602160045260246000fd5b6040518463ffffffff1660e01b81526004016106e99392919061128f565b60206040518083038186803b15801561070157600080fd5b505afa158015610715573d6000803e3d6000fd5b505050506040513d601f19601f8201168201806040525081019061073991906110ac565b6107555760405162461bcd60e51b8152600401610377906113ea565b6040516331a9108f60e11b815284906000906001600160a01b03831690636352211e90610786908890600401611327565b60206040518083038186803b15801561079e57600080fd5b505afa1580156107b2573d6000803e3d6000fd5b505050506040513d601f19601f820116820180604052508101906107d69190610fcb565b90506001600160a01b0381163014156108645760006002816107f8898961061e565b81526020810191909152604001600020546001600160a01b0316141561085f57610825868661dead610af6565b7fece416f2c4451e4ae4ee096cf741fd12daedb227bab7ba7facb1b9afa7b4f08386866040516108569291906112b5565b60405180910390a15b610904565b610871868661dead610af6565b604051632142170760e11b81526001600160a01b038316906342842e0e906108a190849030908a9060040161126b565b600060405180830381600087803b1580156108bb57600080fd5b505af11580156108cf573d6000803e3d6000fd5b505050507fece416f2c4451e4ae4ee096cf741fd12daedb227bab7ba7facb1b9afa7b4f08386866040516104cd9291906112b5565b50505050505050565b60005484906002906001600160a01b03808416610100909204161480156109f557506000546109499061010090046001600160a01b0316610ba1565b806109f5575060005461010090046001600160a01b0316636cfdc32e333084600281111561098757634e487b7160e01b600052602160045260246000fd5b6040518463ffffffff1660e01b81526004016109a59392919061128f565b60206040518083038186803b1580156109bd57600080fd5b505afa1580156109d1573d6000803e3d6000fd5b505050506040513d601f19601f820116820180604052508101906109f591906110ac565b610a115760405162461bcd60e51b8152600401610377906113ea565b6001600160a01b038316610a375760405162461bcd60e51b815260040161037790611447565b600060026000610a47888861061e565b81526020810191909152604001600020546001600160a01b0316905080610a805760405162461bcd60e51b815260040161037790611418565b8360026000610a8f898961061e565b815260200190815260200160002060006101000a8154816001600160a01b0302191690836001600160a01b031602179055507fdc925f69bff4b58c4abd9ce5e1135fbe3c5fcd18292ccd0e57d2d3ecae2c13f9868683876040516104cd94939291906112f1565b6001600160a01b0383166000908152600160205260408120610b189084610dd3565b90508015610b84578160026000610b2f878761061e565b8152602081019190915260400160002080546001600160a01b0319166001600160a01b0392909216919091179055610b68600385610ddf565b610b845760405162461bcd60e51b815260040161037790611345565b50505050565b600061023482610df4565b600061025c8383610df8565b600080826001600160a01b031663c19d93fb6040518163ffffffff1660e01b815260040160206040518083038186803b158015610bdd57600080fd5b505afa158015610bf1573d6000803e3d6000fd5b505050506040513d601f19601f82011682018060405250810190610c1591906111e6565b6001811115610c3457634e487b7160e01b600052602160045260246000fd5b1480156102345750816001600160a01b031663c67143666040518163ffffffff1660e01b815260040160206040518083038186803b158015610c7557600080fd5b505afa158015610c89573d6000803e3d6000fd5b505050506040513d601f19601f82011682018060405250810190610cad919061121d565b1580610d30575060405163288c314960e21b81526001600160a01b0383169063a230c52490610ce0903390600401611257565b60206040518083038186803b158015610cf857600080fd5b505afa158015610d0c573d6000803e3d6000fd5b505050506040513d601f19601f82011682018060405250810190610d3091906110ac565b8061023457506040516368c18beb60e01b81526001600160a01b038316906368c18beb90610d62903390600401611257565b60206040518083038186803b158015610d7a57600080fd5b505afa158015610d8e573d6000803e3d6000fd5b505050506040513d601f19601f8201168201806040525081019061023491906110ac565b600061025c8383610e30565b600061025c836001600160a01b038416610e30565b600061025c8383610f4d565b600061025c836001600160a01b038416610f4d565b5490565b6000826000018281548110610e1d57634e487b7160e01b600052603260045260246000fd5b9060005260206000200154905092915050565b60008181526001830160205260408120548015610f43576000610e546001836114dc565b8554909150600090610e68906001906114dc565b9050818114610ee9576000866000018281548110610e9657634e487b7160e01b600052603260045260246000fd5b9060005260206000200154905080876000018481548110610ec757634e487b7160e01b600052603260045260246000fd5b6000918252602080832090910192909255918252600188019052604090208390555b8554869080610f0857634e487b7160e01b600052603160045260246000fd5b600190038181906000526020600020016000905590558560010160008681526020019081526020016000206000905560019350505050610234565b6000915050610234565b6000610f598383610f97565b610f8f57508154600181810184556000848152602080822090930184905584548482528286019093526040902091909155610234565b506000610234565b60009081526001919091016020526040902054151590565b600060208284031215610fc0578081fd5b813561025c816114ff565b600060208284031215610fdc578081fd5b815161025c816114ff565b600080600080600060808688031215610ffe578081fd5b8535611009816114ff565b94506020860135611019816114ff565b935060408601359250606086013567ffffffffffffffff8082111561103c578283fd5b818801915088601f83011261104f578283fd5b81358181111561105d578384fd5b89602082850101111561106e578384fd5b9699959850939650602001949392505050565b60008060408385031215611093578182fd5b823561109e816114ff565b946020939093013593505050565b6000602082840312156110bd578081fd5b8151801515811461025c578182fd5b600080604083850312156110de578182fd5b82356110e9816114ff565b915060208301356110f9816114ff565b809150509250929050565b60008060008060808587031215611119578384fd5b8435611124816114ff565b93506020850135611134816114ff565b92506040850135611144816114ff565b9396929550929360600135925050565b600080600060608486031215611168578283fd5b8335611173816114ff565b92506020840135611183816114ff565b929592945050506040919091013590565b600080600080608085870312156111a9578384fd5b84356111b4816114ff565b935060208501356111c4816114ff565b92506040850135915060608501356111db816114ff565b939692955090935050565b6000602082840312156111f7578081fd5b81516002811061025c578182fd5b600060208284031215611216578081fd5b5035919050565b60006020828403121561122e578081fd5b5051919050565b60609290921b6bffffffffffffffffffffffff19168252601482015260340190565b6001600160a01b0391909116815260200190565b6001600160a01b039384168152919092166020820152604081019190915260600190565b6001600160a01b03938416815291909216602082015260ff909116604082015260600190565b6001600160a01b03929092168252602082015260400190565b6001600160a01b0393841681526020810192909252909116604082015260600190565b6001600160a01b03948516815260208101939093529083166040830152909116606082015260800190565b901515815260200190565b90815260200190565b6001600160e01b031991909116815260200190565b60208082526017908201527f6572633732313a3a63616e206e6f7420616464206e6674000000000000000000604082015260600190565b6020808252601f908201527f6572633732313a3a63616e206e6f742072656d6f766520746f6b656e20696400604082015260600190565b6020808252601b908201527f6572633732313a3a616c726561647920696e697469616c697a65640000000000604082015260600190565b602080825260149082015273195c98cdcc8c4e8e9858d8d95cdcd1195b9a595960621b604082015260600190565b602080825260159082015274195c98cdcc8c4e8e9b999d081b9bdd08199bdd5b99605a1b604082015260600190565b60208082526016908201527506572633732313a3a6e6577206f776e657220697320360541b604082015260600190565b60208082526014908201527332b9319b99189d1d3737ba10309036b2b6b132b960611b604082015260600190565b6020808252601a908201527f6572633732313a3a63616e206e6f742072656d6f7665206e6674000000000000604082015260600190565b6000828210156114fa57634e487b7160e01b81526011600452602481fd5b500390565b6001600160a01b038116811461151457600080fd5b5056fea26469706673582212209d1b94009f2dc2d3046ab04b7b49c629aa436eac52a0c44a32fe982dcb08d6ed64736f6c63430008000033",
  "linkReferences": {},
  "deployedLinkReferences": {}
}