{
  "_format": "hh-sol-artifact-1",
  "contractName": "LendNFTContract",
  "sourceName": "build/contracts/adapters/LendNFT.sol",
  "abi": [
    {
      "inputs": [
        {
          "internalType": "contract DaoRegistry",
          "name": "dao",
          "type": "address"
        },
        {
          "internalType": "address",
          "name": "token",
          "type": "address"
        }
      ],
      "name": "configureDao",
      "outputs": [],
      "stateMutability": "nonpayable",
      "type": "function"
    },
    {
      "inputs": [
        {
          "internalType": "address",
          "name": "",
          "type": "address"
        },
        {
          "internalType": "address",
          "name": "",
          "type": "address"
        },
        {
          "internalType": "uint256[]",
          "name": "",
          "type": "uint256[]"
        },
        {
          "internalType": "uint256[]",
          "name": "",
          "type": "uint256[]"
        },
        {
          "internalType": "bytes",
          "name": "",
          "type": "bytes"
        }
      ],
      "name": "onERC1155BatchReceived",
      "outputs": [
        {
          "internalType": "bytes4",
          "name": "",
          "type": "bytes4"
        }
      ],
      "stateMutability": "pure",
      "type": "function"
    },
    {
      "inputs": [
        {
          "internalType": "address",
          "name": "",
          "type": "address"
        },
        {
          "internalType": "address",
          "name": "from",
          "type": "address"
        },
        {
          "internalType": "uint256",
          "name": "id",
          "type": "uint256"
        },
        {
          "internalType": "uint256",
          "name": "value",
          "type": "uint256"
        },
        {
          "internalType": "bytes",
          "name": "data",
          "type": "bytes"
        }
      ],
      "name": "onERC1155Received",
      "outputs": [
        {
          "internalType": "bytes4",
          "name": "",
          "type": "bytes4"
        }
      ],
      "stateMutability": "nonpayable",
      "type": "function"
    },
    {
      "inputs": [
        {
          "internalType": "address",
          "name": "",
          "type": "address"
        },
        {
          "internalType": "address",
          "name": "from",
          "type": "address"
        },
        {
          "internalType": "uint256",
          "name": "tokenId",
          "type": "uint256"
        },
        {
          "internalType": "bytes",
          "name": "data",
          "type": "bytes"
        }
      ],
      "name": "onERC721Received",
      "outputs": [
        {
          "internalType": "bytes4",
          "name": "",
          "type": "bytes4"
        }
      ],
      "stateMutability": "nonpayable",
      "type": "function"
    },
    {
      "inputs": [
        {
          "internalType": "address",
          "name": "",
          "type": "address"
        },
        {
          "internalType": "bytes32",
          "name": "",
          "type": "bytes32"
        }
      ],
      "name": "proposals",
      "outputs": [
        {
          "internalType": "bytes32",
          "name": "id",
          "type": "bytes32"
        },
        {
          "internalType": "address",
          "name": "applicant",
          "type": "address"
        },
        {
          "internalType": "address",
          "name": "nftAddr",
          "type": "address"
        },
        {
          "internalType": "uint256",
          "name": "nftTokenId",
          "type": "uint256"
        },
        {
          "internalType": "uint256",
          "name": "tributeAmount",
          "type": "uint256"
        },
        {
          "internalType": "uint88",
          "name": "requestAmount",
          "type": "uint88"
        },
        {
          "internalType": "uint64",
          "name": "lendingPeriod",
          "type": "uint64"
        },
        {
          "internalType": "bool",
          "name": "sentBack",
          "type": "bool"
        },
        {
          "internalType": "uint64",
          "name": "lendingStart",
          "type": "uint64"
        },
        {
          "internalType": "address",
          "name": "previousOwner",
          "type": "address"
        }
      ],
      "stateMutability": "view",
      "type": "function"
    },
    {
      "inputs": [
        {
          "internalType": "contract DaoRegistry",
          "name": "dao",
          "type": "address"
        },
        {
          "internalType": "bytes32",
          "name": "proposalId",
          "type": "bytes32"
        }
      ],
      "name": "sendNFTBack",
      "outputs": [],
      "stateMutability": "nonpayable",
      "type": "function"
    },
    {
      "inputs": [
        {
          "internalType": "contract DaoRegistry",
          "name": "dao",
          "type": "address"
        },
        {
          "internalType": "bytes32",
          "name": "proposalId",
          "type": "bytes32"
        },
        {
          "internalType": "address",
          "name": "applicant",
          "type": "address"
        },
        {
          "internalType": "address",
          "name": "nftAddr",
          "type": "address"
        },
        {
          "internalType": "uint256",
          "name": "nftTokenId",
          "type": "uint256"
        },
        {
          "internalType": "uint88",
          "name": "requestAmount",
          "type": "uint88"
        },
        {
          "internalType": "uint64",
          "name": "lendingPeriod",
          "type": "uint64"
        },
        {
          "internalType": "bytes",
          "name": "data",
          "type": "bytes"
        }
      ],
      "name": "submitProposal",
      "outputs": [],
      "stateMutability": "nonpayable",
      "type": "function"
    },
    {
      "inputs": [
        {
          "internalType": "bytes4",
          "name": "interfaceID",
          "type": "bytes4"
        }
      ],
      "name": "supportsInterface",
      "outputs": [
        {
          "internalType": "bool",
          "name": "",
          "type": "bool"
        }
      ],
      "stateMutability": "pure",
      "type": "function"
    }
  ],
  "bytecode": "0x608060405234801561001057600080fd5b50612e6c806100206000396000f3fe608060405234801561001057600080fd5b50600436106100885760003560e01c8063bc197c811161005b578063bc197c8114610114578063c9c35c0814610127578063f2214ec21461013a578063f23a6e611461014d57610088565b806301ffc9a71461008d578063063942fd146100b6578063150b7a02146100cb5780635cb75276146100eb575b600080fd5b6100a061009b3660046124e1565b610160565b6040516100ad9190612810565b60405180910390f35b6100c96100c4366004612541565b6101b4565b005b6100de6100d9366004612388565b6106f0565b6040516100ad91906128de565b6100fe6100f9366004612471565b610720565b6040516100ad9a99989796959493929190612843565b6100de6101223660046122ce565b6107a5565b6100c9610135366004612509565b6107bf565b6100c9610148366004612471565b610956565b6100de61015b3660046123f8565b610fb8565b60006001600160e01b031982166301ffc9a760e01b148061019157506001600160e01b0319821663f23a6e6160e01b145b806101ac57506001600160e01b03198216630a85bd0160e11b145b90505b919050565b8760006101c082610fea565b90506101cb8861123b565b6101f05760405162461bcd60e51b81526004016101e790612a91565b60405180910390fd5b60405163b73dc38960e01b81526001600160a01b038b169063b73dc3899061021c908c9060040161281b565b600060405180830381600087803b15801561023657600080fd5b505af115801561024a573d6000803e3d6000fd5b50506040516317ba7d8560e01b8152600092506001600160a01b038d1691506317ba7d859061029d907f0e49311626a26ba5be58a3b13d239908e80ce0dffdd5c50bf1d9c82ff35d1ab39060040161281b565b60206040518083038186803b1580156102b557600080fd5b505afa1580156102c9573d6000803e3d6000fd5b505050506040513d601f19601f820116820180604052508101906102ed91906122ab565b90506000816001600160a01b031663966917d08d3088336040518563ffffffff1660e01b815260040161032394939291906129f6565b602060405180830381600087803b15801561033d57600080fd5b505af1158015610351573d6000803e3d6000fd5b505050506040513d601f19601f8201168201806040525081019061037591906122ab565b6040516344b574dd60e11b81529091506001600160a01b038d169063896ae9ba906103a8908e9085908790600401612824565b600060405180830381600087803b1580156103c257600080fd5b505af11580156103d6573d6000803e3d6000fd5b5050505061046e8a8d8e6001600160a01b031663593e96b6600080516020612e178339815191526040518263ffffffff1660e01b8152600401610419919061281b565b60206040518083038186803b15801561043157600080fd5b505afa158015610445573d6000803e3d6000fd5b505050506040513d601f19601f8201168201806040525081019061046991906122ab565b61127c565b6040516302b0974d60e41b81526001600160a01b03831690632b0974d09061049e908f908f908a90600401612a34565b600060405180830381600087803b1580156104b857600080fd5b505af11580156104cc573d6000803e3d6000fd5b505050506040518061014001604052808c81526020018b6001600160a01b031681526020018a6001600160a01b0316815260200189815260200160008152602001886001600160581b03168152602001876001600160401b0316815260200160001515815260200160006001600160401b0316815260200160006001600160a01b03168152506000808e6001600160a01b03166001600160a01b0316815260200190815260200160002060008d81526020019081526020016000206000820151816000015560208201518160010160006101000a8154816001600160a01b0302191690836001600160a01b0316021790555060408201518160020160006101000a8154816001600160a01b0302191690836001600160a01b03160217905550606082015181600301556080820151816004015560a08201518160050160006101000a8154816001600160581b0302191690836001600160581b0316021790555060c082015181600501600b6101000a8154816001600160401b0302191690836001600160401b0316021790555060e08201518160050160136101000a81548160ff0219169083151502179055506101008201518160050160146101000a8154816001600160401b0302191690836001600160401b031602179055506101208201518160060160006101000a8154816001600160a01b0302191690836001600160a01b0316021790555090505050506106e482826113da565b50505050505050505050565b6000806106ff83850185612698565b90506107158160000151826020015188886113e9565b979650505050505050565b6000602081815292815260408082209093529081522080546001820154600283015460038401546004850154600586015460069096015494956001600160a01b039485169593851694929391926001600160581b038216926001600160401b03600160581b840481169360ff600160981b82041693600160a01b90910490911691168a565b600060405162461bcd60e51b81526004016101e790612b90565b6040516368c18beb60e01b815282906001600160a01b038216906368c18beb906107ed90339060040161276d565b60206040518083038186803b15801561080557600080fd5b505afa158015610819573d6000803e3d6000fd5b505050506040513d601f19601f8201168201806040525081019061083d919061249c565b8061084c575061084c816116b3565b6108685760405162461bcd60e51b81526004016101e790612d07565b604051632c9f4b5b60e11b81526001600160a01b0384169063593e96b6906108a290600080516020612e178339815191529060040161281b565b60206040518083038186803b1580156108ba57600080fd5b505afa1580156108ce573d6000803e3d6000fd5b505050506040513d601f19601f820116820180604052508101906108f291906122ab565b6001600160a01b03166358d50c5584846040518363ffffffff1660e01b815260040161091f929190612781565b600060405180830381600087803b15801561093957600080fd5b505af115801561094d573d6000803e3d6000fd5b50505050505050565b81600061096282610fea565b6001600160a01b0385166000908152602081815260408083208784529091529020600581015491925090600160a01b90046001600160401b03166109b85760405162461bcd60e51b81526004016101e790612a64565b6005810154600160981b900460ff16156109e45760405162461bcd60e51b81526004016101e790612c2b565b60068101546001600160a01b03163314610a105760405162461bcd60e51b81526004016101e790612bdf565b60058101805460ff60981b1916600160981b1790819055600090610a45906001600160401b03600160a01b9091041642612da6565b6005830154909150600160581b90046001600160401b0316811015610d3e57604051632c9f4b5b60e11b81526000906001600160a01b0388169063593e96b690610ab3907f139cd1e4f9f93c1976004d11e2d6ec80461ac82c212ba2c9e8665e9d95b4dd1a9060040161281b565b60206040518083038186803b158015610acb57600080fd5b505afa158015610adf573d6000803e3d6000fd5b505050506040513d601f19601f82011682018060405250810190610b0391906122ab565b60058401549091506000906001600160a01b03831690638a0bbef4906001600160401b03600160a01b8204811691610b4491600160581b9091041682612d7b565b60058801546040516001600160e01b031960e086901b168152610b759392916001600160581b031690600401612d4f565b60206040518083038186803b158015610b8d57600080fd5b505afa158015610ba1573d6000803e3d6000fd5b505050506040513d601f19601f82011682018060405250810190610bc59190612706565b6001600160581b031690506000886001600160a01b031663593e96b6600080516020612e178339815191526040518263ffffffff1660e01b8152600401610c0c919061281b565b60206040518083038186803b158015610c2457600080fd5b505afa158015610c38573d6000803e3d6000fd5b505050506040513d601f19601f82011682018060405250810190610c5c91906122ab565b60018601546040516339c6941f60e01b81529192506001600160a01b03808416926339c6941f92610c9b928e92911690620ff1ce908890600401612956565b600060405180830381600087803b158015610cb557600080fd5b505af1158015610cc9573d6000803e3d6000fd5b505050506001850154604051635b7f43f960e11b81526001600160a01b038581169263b6fe87f292610d08928e921690620ff1ce908890600401612980565b600060405180830381600087803b158015610d2257600080fd5b505af1158015610d36573d6000803e3d6000fd5b505050505050505b6004820154610e6357604051632c9f4b5b60e11b81526000906001600160a01b0388169063593e96b690610d96907f7dd481eb4b63b94bb55e6b98aabb06c3b8484f82a4d656d6bca0b0cf9b446be09060040161281b565b60206040518083038186803b158015610dae57600080fd5b505afa158015610dc2573d6000803e3d6000fd5b505050506040513d601f19601f82011682018060405250810190610de691906122ab565b6006840154600285015460038601546040516327b5af2d60e01b81529394506001600160a01b03808616946327b5af2d94610e2b948e94918416931691600401612956565b600060405180830381600087803b158015610e4557600080fd5b505af1158015610e59573d6000803e3d6000fd5b5050505050610fa6565b604051632c9f4b5b60e11b81526000906001600160a01b0388169063593e96b690610eb2907f38a57c12f369d37609a339de2f7bfc1ada61e073ae7c75a85c930af9dbe7202b9060040161281b565b60206040518083038186803b158015610eca57600080fd5b505afa158015610ede573d6000803e3d6000fd5b505050506040513d601f19601f82011682018060405250810190610f0291906122ab565b9050806001600160a01b031663a9a49c698861dead8660060160009054906101000a90046001600160a01b03168760020160009054906101000a90046001600160a01b0316886003015489600401546040518763ffffffff1660e01b8152600401610f729695949392919061291c565b600060405180830381600087803b158015610f8c57600080fd5b505af1158015610fa0573d6000803e3d6000fd5b50505050505b5050610fb282826113da565b50505050565b600080610fc783850185612698565b9050610fde816000015182602001518989896118c4565b98975050505050505050565b610ff26121e8565b5a81600001818152505043826001600160a01b031663b21634826040518163ffffffff1660e01b815260040160206040518083038186803b15801561103657600080fd5b505afa15801561104a573d6000803e3d6000fd5b505050506040513d601f19601f8201168201806040525081019061106e91906126ee565b141561108c5760405162461bcd60e51b81526004016101e790612af8565b816001600160a01b03166310fdb0a26040518163ffffffff1660e01b8152600401600060405180830381600087803b1580156110c757600080fd5b505af11580156110db573d6000803e3d6000fd5b50506040516372c6838f60e01b8152600092506001600160a01b03851691506372c6838f9061112e907f1f2fd42ad6a6cacd573c4b212beb7a4e2499ad45d742a65337097f130e71daff9060040161281b565b60206040518083038186803b15801561114657600080fd5b505afa15801561115a573d6000803e3d6000fd5b505050506040513d601f19601f8201168201806040525081019061117e91906122ab565b90506001600160a01b03811661119a5760006020830152611235565b6001600160a01b0381166060830181905282516040516343a8a3f160e01b8152600092839290916343a8a3f1916111d6918991906004016127f7565b604080518083038186803b1580156111ed57600080fd5b505afa158015611201573d6000803e3d6000fd5b505050506040513d601f19601f8201168201806040525081019061122591906124b6565b9015156020860152604085015250505b50919050565b60006001600160a01b03821661dead1480159061126357506001600160a01b03821661babe14155b80156101ac5750506001600160a01b0316614bec141590565b604051636e494fa560e11b81526001600160a01b0383169063dc929f4a906112a890869060040161276d565b600060405180830381600087803b1580156112c257600080fd5b505af11580156112d6573d6000803e3d6000fd5b505050506001600160a01b0383166113005760405162461bcd60e51b81526004016101e790612ac8565b6001600160a01b038116156113d557604051633de222bb60e21b81526001600160a01b0382169063f7888aec9061134190869063decafbad90600401612781565b60206040518083038186803b15801561135957600080fd5b505afa15801561136d573d6000803e3d6000fd5b505050506040513d601f19601f8201168201806040525081019061139191906122ab565b6001600160a01b03166113d55760405163036d74dd60e11b81526001600160a01b038216906306dae9ba9061091f908590879063decafbad90600190600401612956565b505050565b6113e5828233611b06565b5050565b60008460006113f782610fea565b90506000806114068989611bc4565b915091508582600301541461142d5760405162461bcd60e51b81526004016101e790612d2c565b60028201546001600160a01b031633146114595760405162461bcd60e51b81526004016101e790612bb7565b600060048301556006820180546001600160a01b0319166001600160a01b0389161790553360028260058111156114a057634e487b7160e01b600052602160045260246000fd5b141561162f57604051632c9f4b5b60e11b81526000906001600160a01b038c169063593e96b6906114f5907f7dd481eb4b63b94bb55e6b98aabb06c3b8484f82a4d656d6bca0b0cf9b446be09060040161281b565b60206040518083038186803b15801561150d57600080fd5b505afa158015611521573d6000803e3d6000fd5b505050506040513d601f19601f8201168201806040525081019061154591906122ab565b600385015460405163095ea7b360e01b81529192506001600160a01b0384169163095ea7b39161157a918591906004016127f7565b600060405180830381600087803b15801561159457600080fd5b505af11580156115a8573d6000803e3d6000fd5b50505050806001600160a01b031663c8fea2fb8c8660020160009054906101000a90046001600160a01b031687600301546040518463ffffffff1660e01b81526004016115f79392919061279b565b600060405180830381600087803b15801561161157600080fd5b505af1158015611625573d6000803e3d6000fd5b5050505050611692565b604051632142170760e11b81526001600160a01b038216906342842e0e9061165f9030908c908c9060040161279b565b600060405180830381600087803b15801561167957600080fd5b505af115801561168d573d6000803e3d6000fd5b505050505b50630a85bd0160e11b945050506116a982826113da565b5050949350505050565b600080826001600160a01b031663c19d93fb6040518163ffffffff1660e01b815260040160206040518083038186803b1580156116ef57600080fd5b505afa158015611703573d6000803e3d6000fd5b505050506040513d601f19601f82011682018060405250810190611727919061265a565b600181111561174657634e487b7160e01b600052602160045260246000fd5b1480156101ac5750816001600160a01b031663c67143666040518163ffffffff1660e01b815260040160206040518083038186803b15801561178757600080fd5b505afa15801561179b573d6000803e3d6000fd5b505050506040513d601f19601f820116820180604052508101906117bf91906126ee565b1580611842575060405163288c314960e21b81526001600160a01b0383169063a230c524906117f290339060040161276d565b60206040518083038186803b15801561180a57600080fd5b505afa15801561181e573d6000803e3d6000fd5b505050506040513d601f19601f82011682018060405250810190611842919061249c565b806101ac57506040516368c18beb60e01b81526001600160a01b038316906368c18beb9061187490339060040161276d565b60206040518083038186803b15801561188c57600080fd5b505afa1580156118a0573d6000803e3d6000fd5b505050506040513d601f19601f820116820180604052508101906101ac919061249c565b60008560006118d282610fea565b90506000806118e18a8a611bc4565b91509150868260030154146119085760405162461bcd60e51b81526004016101e790612d2c565b60028201546001600160a01b031633146119345760405162461bcd60e51b81526004016101e790612bb7565b600482018690556006820180546001600160a01b0319166001600160a01b038a16179055600281600581111561197a57634e487b7160e01b600052602160045260246000fd5b1415611a8657604051632c9f4b5b60e11b81526000906001600160a01b038c169063593e96b6906119cf907f38a57c12f369d37609a339de2f7bfc1ada61e073ae7c75a85c930af9dbe7202b9060040161281b565b60206040518083038186803b1580156119e757600080fd5b505afa1580156119fb573d6000803e3d6000fd5b505050506040513d601f19601f82011682018060405250810190611a1f91906122ab565b604051637921219560e11b81529091503390819063f242432a90611a4d90309086908e908e906004016127bf565b600060405180830381600087803b158015611a6757600080fd5b505af1158015611a7b573d6000803e3d6000fd5b505050505050611ae5565b604051637921219560e11b81523390819063f242432a90611ab19030908d908d908d906004016127bf565b600060405180830381600087803b158015611acb57600080fd5b505af1158015611adf573d6000803e3d6000fd5b50505050505b5063f23a6e6160e01b935050611afb82826113da565b505095945050505050565b816020015115611b895781606001516001600160a01b0316635e5eb01384835a8651611b329190612da6565b86604001516040518563ffffffff1660e01b8152600401611b5694939291906128f3565b600060405180830381600087803b158015611b7057600080fd5b505af1158015611b84573d6000803e3d6000fd5b505050505b826001600160a01b031663d4f7af436040518163ffffffff1660e01b8152600401600060405180830381600087803b15801561093957600080fd5b6001600160a01b038216600090815260208181526040808320848452909152812080549091908314611c085760405162461bcd60e51b81526004016101e790612b22565b60405163f941f69160e01b81526001600160a01b0385169063f941f69190611c379086906002906004016128ac565b60206040518083038186803b158015611c4f57600080fd5b505afa158015611c63573d6000803e3d6000fd5b505050506040513d601f19601f82011682018060405250810190611c87919061249c565b15611ca45760405162461bcd60e51b81526004016101e790612b59565b60405163206f381f60e11b81526000906001600160a01b038616906340de703e90611cd390879060040161281b565b60206040518083038186803b158015611ceb57600080fd5b505afa158015611cff573d6000803e3d6000fd5b505050506040513d601f19601f82011682018060405250810190611d2391906122ab565b90506001600160a01b038116611d4b5760405162461bcd60e51b81526004016101e790612cdc565b6040516376225e7360e01b81526001600160a01b038216906376225e7390611d7990889088906004016127f7565b602060405180830381600087803b158015611d9357600080fd5b505af1158015611da7573d6000803e3d6000fd5b505050506040513d601f19601f82011682018060405250810190611dcb9190612679565b6040516330490e9160e01b81529092506001600160a01b038616906330490e9190611dfa90879060040161281b565b600060405180830381600087803b158015611e1457600080fd5b505af1158015611e28573d6000803e3d6000fd5b5060029250611e35915050565b826005811115611e5557634e487b7160e01b600052602160045260246000fd5b141561217157604051632c9f4b5b60e11b81526000906001600160a01b0387169063593e96b690611e9890600080516020612e178339815191529060040161281b565b60206040518083038186803b158015611eb057600080fd5b505afa158015611ec4573d6000803e3d6000fd5b505050506040513d601f19601f82011682018060405250810190611ee891906122ab565b604051630a51990b60e11b81529091506001600160a01b038216906314a3321690611f1a90620ff1ce9060040161276d565b60206040518083038186803b158015611f3257600080fd5b505afa158015611f46573d6000803e3d6000fd5b505050506040513d601f19601f82011682018060405250810190611f6a919061249c565b611f865760405162461bcd60e51b81526004016101e790612c98565b6001840154600585015460405163036d74dd60e11b81526001600160a01b03848116936306dae9ba93611fd0938c9390921691620ff1ce916001600160581b031690600401612980565b600060405180830381600087803b158015611fea57600080fd5b505af1158015611ffe573d6000803e3d6000fd5b5050604051632c9f4b5b60e11b8152600092506001600160a01b038916915063593e96b690612051907f139cd1e4f9f93c1976004d11e2d6ec80461ac82c212ba2c9e8665e9d95b4dd1a9060040161281b565b60206040518083038186803b15801561206957600080fd5b505afa15801561207d573d6000803e3d6000fd5b505050506040513d601f19601f820116820180604052508101906120a191906122ab565b60058601805467ffffffffffffffff60a01b1916600160a01b426001600160401b039081168202929092179283905560018901549394506001600160a01b0380861694638364b2b6948d949290911692620ff1ce926001600160581b0383169261211792600160581b8204831692910416612d7b565b6040518663ffffffff1660e01b81526004016121379594939291906129b2565b600060405180830381600087803b15801561215157600080fd5b505af1158015612165573d6000803e3d6000fd5b505050505050506121e1565b600382600581111561219357634e487b7160e01b600052602160045260246000fd5b14806121be575060018260058111156121bc57634e487b7160e01b600052602160045260246000fd5b145b156121c957506121e1565b60405162461bcd60e51b81526004016101e790612c56565b9250929050565b6040518060800160405280600081526020016000151581526020016000815260200160006001600160a01b031681525090565b60008083601f84011261222c578081fd5b5081356001600160401b03811115612242578182fd5b60208301915083602080830285010111156121e157600080fd5b805180151581146101af57600080fd5b60008083601f84011261227d578182fd5b5081356001600160401b03811115612293578182fd5b6020830191508360208285010111156121e157600080fd5b6000602082840312156122bc578081fd5b81516122c781612de9565b9392505050565b60008060008060008060008060a0898b0312156122e9578384fd5b88356122f481612de9565b9750602089013561230481612de9565b965060408901356001600160401b038082111561231f578586fd5b61232b8c838d0161221b565b909850965060608b0135915080821115612343578586fd5b61234f8c838d0161221b565b909650945060808b0135915080821115612367578384fd5b506123748b828c0161226c565b999c989b5096995094979396929594505050565b60008060008060006080868803121561239f578081fd5b85356123aa81612de9565b945060208601356123ba81612de9565b93506040860135925060608601356001600160401b038111156123db578182fd5b6123e78882890161226c565b969995985093965092949392505050565b60008060008060008060a08789031215612410578182fd5b863561241b81612de9565b9550602087013561242b81612de9565b9450604087013593506060870135925060808701356001600160401b03811115612453578283fd5b61245f89828a0161226c565b979a9699509497509295939492505050565b60008060408385031215612483578182fd5b823561248e81612de9565b946020939093013593505050565b6000602082840312156124ad578081fd5b6122c78261225c565b600080604083850312156124c8578182fd5b6124d18361225c565b9150602083015190509250929050565b6000602082840312156124f2578081fd5b81356001600160e01b0319811681146122c7578182fd5b6000806040838503121561251b578182fd5b823561252681612de9565b9150602083013561253681612de9565b809150509250929050565b600080600080600080600080610100898b03121561255d578182fd5b883561256881612de9565b9750602089810135975060408a013561258081612de9565b965060608a013561259081612de9565b955060808a0135945060a08a01356125a781612e01565b935060c08a01356001600160401b0380821682146125c3578485fd5b90935060e08b013590808211156125d8578384fd5b818c0191508c601f8301126125eb578384fd5b8135818111156125fd576125fd612dd3565b604051601f8201601f191681018501838111828210171561262057612620612dd3565b60405281815283820185018f1015612636578586fd5b81858501868301378585838301015280955050505050509295985092959890939650565b60006020828403121561266b578081fd5b8151600281106122c7578182fd5b60006020828403121561268a578081fd5b8151600681106122c7578182fd5b6000604082840312156126a9578081fd5b604051604081018181106001600160401b03821117156126cb576126cb612dd3565b60405282356126d981612de9565b81526020928301359281019290925250919050565b6000602082840312156126ff578081fd5b5051919050565b600060208284031215612717578081fd5b81516122c781612e01565b60008151808452815b818110156127475760208185018101518683018201520161272b565b818111156127585782602083870101525b50601f01601f19169290920160200192915050565b6001600160a01b0391909116815260200190565b6001600160a01b0392831681529116602082015260400190565b6001600160a01b039384168152919092166020820152604081019190915260600190565b6001600160a01b0394851681529290931660208301526040820152606081019190915260a06080820181905260009082015260c00190565b6001600160a01b03929092168252602082015260400190565b901515815260200190565b90815260200190565b9283526001600160a01b03918216602084015216604082015260600190565b998a526001600160a01b0398891660208b015296881660408a0152606089019590955260808801939093526001600160581b039190911660a08701526001600160401b0390811660c087015290151560e086015216610100840152166101208201526101400190565b82815260408101600383106128d157634e487b7160e01b600052602160045260246000fd5b8260208301529392505050565b6001600160e01b031991909116815260200190565b6001600160a01b0394851681529290931660208301526040820152606081019190915260800190565b6001600160a01b0396871681529486166020860152928516604085015293166060830152608082019290925260a081019190915260c00190565b6001600160a01b039485168152928416602084015292166040820152606081019190915260800190565b6001600160a01b0394851681529284166020840152921660408201526001600160581b03909116606082015260800190565b6001600160a01b03958616815293851660208501529190931660408301526001600160581b0390921660608201526001600160401b03909116608082015260a00190565b600060018060a01b038087168352808616602084015260806040840152612a206080840186612722565b915080841660608401525095945050505050565b600060018060a01b038516825283602083015260606040830152612a5b6060830184612722565b95945050505050565b6020808252601390820152721b195b991a5b99c81b9bdd081cdd185c9d1959606a1b604082015260600190565b6020808252601d908201527f6170706c6963616e742069732072657365727665642061646472657373000000604082015260600190565b602080825260169082015275696e76616c6964206d656d626572206164647265737360501b604082015260600190565b60208082526010908201526f1c99595b9d1c985b98de4819dd585c9960821b604082015260600190565b60208082526017908201527f70726f706f73616c20646f6573206e6f74206578697374000000000000000000604082015260600190565b6020808252601a908201527f70726f706f73616c20616c72656164792070726f636573736564000000000000604082015260600190565b6020808252600d908201526c1b9bdd081cdd5c1c1bdc9d1959609a1b604082015260600190565b6020808252600e908201526d3bb937b7339027232a1030b2323960911b604082015260600190565b6020808252602c908201527f6f6e6c79207468652070726576696f7573206f776e65722063616e207769746860408201526b191c985dc81d1a194813919560a21b606082015260800190565b602080825260119082015270616c72656164792073656e74206261636b60781b604082015260600190565b60208082526022908201527f70726f706f73616c20686173206e6f74206265656e20766f746564206f6e2079604082015261195d60f21b606082015260800190565b60208082526024908201527f554e49545320746f6b656e206973206e6f7420616e20696e7465726e616c207460408201526337b5b2b760e11b606082015260800190565b6020808252601190820152701859185c1d195c881b9bdd08199bdd5b99607a1b604082015260600190565b6020808252600b908201526a37b7363ca0b230b83a32b960a91b604082015260600190565b6020808252600990820152681ddc9bdb99c813919560ba1b604082015260600190565b6001600160401b0393841681529190921660208201526001600160581b03909116604082015260600190565b60006001600160401b03808316818516808303821115612d9d57612d9d612dbd565b01949350505050565b600082821015612db857612db8612dbd565b500390565b634e487b7160e01b600052601160045260246000fd5b634e487b7160e01b600052604160045260246000fd5b6001600160a01b0381168114612dfe57600080fd5b50565b6001600160581b0381168114612dfe57600080fdfeea0ca03c7adbe41dc655fec28a9209dc8e6e042f3d991a67765ba285b9cf73a0a26469706673582212205016f330063654bf8c34555b3dd924a591a88205f55ce9263be341535d5360a264736f6c63430008000033",
  "linkReferences": {},
  "deployedLinkReferences": {}
}