{
  "_format": "hh-sol-artifact-1",
  "contractName": "ManagingContract",
  "sourceName": "build/contracts/adapters/Managing.sol",
  "abi": [
    {
      "inputs": [
        {
          "internalType": "address",
          "name": "",
          "type": "address"
        },
        {
          "internalType": "bytes32",
          "name": "",
          "type": "bytes32"
        },
        {
          "internalType": "uint256",
          "name": "",
          "type": "uint256"
        }
      ],
      "name": "configurations",
      "outputs": [
        {
          "internalType": "bytes32",
          "name": "key",
          "type": "bytes32"
        },
        {
          "internalType": "uint256",
          "name": "numericValue",
          "type": "uint256"
        },
        {
          "internalType": "address",
          "name": "addressValue",
          "type": "address"
        },
        {
          "internalType": "enum IManaging.ConfigType",
          "name": "configType",
          "type": "uint8"
        }
      ],
      "stateMutability": "view",
      "type": "function"
    },
    {
      "inputs": [
        {
          "internalType": "contract DaoRegistry",
          "name": "dao",
          "type": "address"
        },
        {
          "internalType": "bytes32",
          "name": "proposalId",
          "type": "bytes32"
        }
      ],
      "name": "processProposal",
      "outputs": [],
      "stateMutability": "nonpayable",
      "type": "function"
    },
    {
      "inputs": [
        {
          "internalType": "address",
          "name": "",
          "type": "address"
        },
        {
          "internalType": "bytes32",
          "name": "",
          "type": "bytes32"
        }
      ],
      "name": "proposals",
      "outputs": [
        {
          "internalType": "bytes32",
          "name": "adapterOrExtensionId",
          "type": "bytes32"
        },
        {
          "internalType": "address",
          "name": "adapterOrExtensionAddr",
          "type": "address"
        },
        {
          "internalType": "enum IManaging.UpdateType",
          "name": "updateType",
          "type": "uint8"
        },
        {
          "internalType": "uint128",
          "name": "flags",
          "type": "uint128"
        }
      ],
      "stateMutability": "view",
      "type": "function"
    },
    {
      "inputs": [
        {
          "internalType": "contract DaoRegistry",
          "name": "dao",
          "type": "address"
        },
        {
          "internalType": "bytes32",
          "name": "proposalId",
          "type": "bytes32"
        },
        {
          "components": [
            {
              "internalType": "bytes32",
              "name": "adapterOrExtensionId",
              "type": "bytes32"
            },
            {
              "internalType": "address",
              "name": "adapterOrExtensionAddr",
              "type": "address"
            },
            {
              "internalType": "enum IManaging.UpdateType",
              "name": "updateType",
              "type": "uint8"
            },
            {
              "internalType": "uint128",
              "name": "flags",
              "type": "uint128"
            },
            {
              "internalType": "bytes32[]",
              "name": "keys",
              "type": "bytes32[]"
            },
            {
              "internalType": "uint256[]",
              "name": "values",
              "type": "uint256[]"
            },
            {
              "internalType": "address[]",
              "name": "extensionAddresses",
              "type": "address[]"
            },
            {
              "internalType": "uint128[]",
              "name": "extensionAclFlags",
              "type": "uint128[]"
            }
          ],
          "internalType": "struct IManaging.ProposalDetails",
          "name": "proposal",
          "type": "tuple"
        },
        {
          "components": [
            {
              "internalType": "bytes32",
              "name": "key",
              "type": "bytes32"
            },
            {
              "internalType": "uint256",
              "name": "numericValue",
              "type": "uint256"
            },
            {
              "internalType": "address",
              "name": "addressValue",
              "type": "address"
            },
            {
              "internalType": "enum IManaging.ConfigType",
              "name": "configType",
              "type": "uint8"
            }
          ],
          "internalType": "struct IManaging.Configuration[]",
          "name": "configs",
          "type": "tuple[]"
        },
        {
          "internalType": "bytes",
          "name": "data",
          "type": "bytes"
        }
      ],
      "name": "submitProposal",
      "outputs": [],
      "stateMutability": "nonpayable",
      "type": "function"
    }
  ],
  "bytecode": "0x608060405234801561001057600080fd5b50612025806100206000396000f3fe608060405234801561001057600080fd5b506004361061004c5760003560e01c8063308d809c146100515780635cb75276146100665780636f5aa72c146100925780639573167d146100b5575b600080fd5b61006461005f366004611559565b6100c8565b005b6100796100743660046114b7565b610575565b60405161008994939291906117aa565b60405180910390f35b6100a56100a03660046114e2565b6105bd565b60405161008994939291906118a2565b6100646100c3366004611547565b610621565b8560006100d482610b5d565b90506100e360a0870187611b5e565b90506100f26080880188611b5e565b90501461011a5760405162461bcd60e51b815260040161011190611a9b565b60405180910390fd5b61012760e0870187611b5e565b905061013660c0880188611b17565b9050146101555760405162461bcd60e51b815260040161011190611a1b565b61016d6101686040880160208901611478565b610dae565b6101895760405162461bcd60e51b8152600401610111906119c1565b60405163b73dc38960e01b81526001600160a01b0389169063b73dc389906101b5908a9060040161176b565b600060405180830381600087803b1580156101cf57600080fd5b505af11580156101e3573d6000803e3d6000fd5b5050506001600160a01b0389166000908152602081815260408083208b845290915290208791506102148282611e82565b50506001600160a01b03881660009081526001602090815260408083208a84529091528120905b865181101561036b57600087828151811061026657634e487b7160e01b600052603260045260246000fd5b60200260200101519050826040518060800160405280836000015181526020018360200151815260200183604001516001600160a01b03168152602001836060015160018111156102c757634e487b7160e01b600052602160045260246000fd5b905281546001808201845560009384526020938490208351600390930201918255928201518184015560408201516002820180546001600160a01b0319166001600160a01b03909216919091178082556060840151939492939260ff60a01b1990911690600160a01b90849081111561035057634e487b7160e01b600052602160045260246000fd5b0217905550505050808061036390611dac565b91505061023b565b506040516317ba7d8560e01b81526000906001600160a01b038b16906317ba7d85906103bb907f0e49311626a26ba5be58a3b13d239908e80ce0dffdd5c50bf1d9c82ff35d1ab39060040161176b565b60206040518083038186803b1580156103d357600080fd5b505afa1580156103e7573d6000803e3d6000fd5b505050506040513d601f19601f8201168201806040525081019061040b919061149b565b90506000816001600160a01b031663966917d08c308a8a336040518663ffffffff1660e01b8152600401610443959493929190611907565b602060405180830381600087803b15801561045d57600080fd5b505af1158015610471573d6000803e3d6000fd5b505050506040513d601f19601f82011682018060405250810190610495919061149b565b6040516344b574dd60e11b81529091506001600160a01b038c169063896ae9ba906104c8908d908590879060040161178b565b600060405180830381600087803b1580156104e257600080fd5b505af11580156104f6573d6000803e3d6000fd5b50506040516302b0974d60e41b81526001600160a01b0385169250632b0974d0915061052c908e908e908c908c90600401611960565b600060405180830381600087803b15801561054657600080fd5b505af115801561055a573d6000803e3d6000fd5b5050505050505061056b8282610df3565b5050505050505050565b600060208181529281526040808220909352908152208054600182015460029092015490916001600160a01b03811691600160a01b90910460ff16906001600160801b031684565b600160205282600052604060002060205281600052604060002081815481106105e557600080fd5b60009182526020909120600390910201805460018201546002909201549094509092506001600160a01b0381169150600160a01b900460ff1684565b81600061062d82610b5d565b6001600160a01b03858116600090815260208181526040808320888452825280832081516101008101835281548152600182015495861693810193909352949550919390929091830190600160a01b900460ff1660028111156106a057634e487b7160e01b600052602160045260246000fd5b60028111156106bf57634e487b7160e01b600052602160045260246000fd5b815260028201546001600160801b0316602080830191909152600383018054604080518285028101850182528281529401939283018282801561072157602002820191906000526020600020905b81548152602001906001019080831161070d575b505050505081526020016004820180548060200260200160405190810160405280929190818152602001828054801561077957602002820191906000526020600020905b815481526020019060010190808311610765575b50505050508152602001600582018054806020026020016040519081016040528092919081815260200182805480156107db57602002820191906000526020600020905b81546001600160a01b031681526001909101906020018083116107bd575b505050505081526020016006820180548060200260200160405190810160405280929190818152602001828054801561086557602002820191906000526020600020906000905b82829054906101000a90046001600160801b03166001600160801b031681526020019060100190602082600f010492830192600103820291508084116108225790505b50505050508152505090506000856001600160a01b03166340de703e866040518263ffffffff1660e01b815260040161089e919061176b565b60206040518083038186803b1580156108b657600080fd5b505afa1580156108ca573d6000803e3d6000fd5b505050506040513d601f19601f820116820180604052508101906108ee919061149b565b90506001600160a01b0381166109165760405162461bcd60e51b815260040161011190611aec565b60026040516376225e7360e01b81526001600160a01b038316906376225e7390610946908a908a90600401611947565b602060405180830381600087803b15801561096057600080fd5b505af1158015610974573d6000803e3d6000fd5b505050506040513d601f19601f8201168201806040525081019061099891906116de565b60058111156109b757634e487b7160e01b600052602160045260246000fd5b146109d45760405162461bcd60e51b815260040161011190611992565b6040516330490e9160e01b81526001600160a01b038716906330490e9190610a0090889060040161176b565b600060405180830381600087803b158015610a1a57600080fd5b505af1158015610a2e573d6000803e3d6000fd5b5060019250610a3b915050565b82604001516002811115610a5f57634e487b7160e01b600052602160045260246000fd5b1415610ae457856001600160a01b031663a37ff5e483600001518460200151856060015186608001518760a001516040518663ffffffff1660e01b8152600401610aad9594939291906117ee565b600060405180830381600087803b158015610ac757600080fd5b505af1158015610adb573d6000803e3d6000fd5b50505050610b37565b600282604001516002811115610b0a57634e487b7160e01b600052602160045260246000fd5b1415610b1f57610b1a8683610e02565b610b37565b60405162461bcd60e51b8152600401610111906119ee565b610b418683610fe4565b610b4b86866110c8565b5050610b578282610df3565b50505050565b610b656113fe565b5a81600001818152505043826001600160a01b031663b21634826040518163ffffffff1660e01b815260040160206040518083038186803b158015610ba957600080fd5b505afa158015610bbd573d6000803e3d6000fd5b505050506040513d601f19601f82011682018060405250810190610be191906116fd565b1415610bff5760405162461bcd60e51b815260040161011190611a71565b816001600160a01b03166310fdb0a26040518163ffffffff1660e01b8152600401600060405180830381600087803b158015610c3a57600080fd5b505af1158015610c4e573d6000803e3d6000fd5b50506040516372c6838f60e01b8152600092506001600160a01b03851691506372c6838f90610ca1907f1f2fd42ad6a6cacd573c4b212beb7a4e2499ad45d742a65337097f130e71daff9060040161176b565b60206040518083038186803b158015610cb957600080fd5b505afa158015610ccd573d6000803e3d6000fd5b505050506040513d601f19601f82011682018060405250810190610cf1919061149b565b90506001600160a01b038116610d0d5760006020830152610da8565b6001600160a01b0381166060830181905282516040516343a8a3f160e01b8152600092839290916343a8a3f191610d4991899190600401611947565b604080518083038186803b158015610d6057600080fd5b505afa158015610d74573d6000803e3d6000fd5b505050506040513d601f19601f82011682018060405250810190610d989190611516565b9015156020860152604085015250505b50919050565b60006001600160a01b03821661dead14801590610dd657506001600160a01b03821661babe14155b8015610ded57506001600160a01b038216614bec14155b92915050565b610dfe828233611323565b5050565b805160405163fefbd87560e01b81526000916001600160a01b0385169163fefbd87591610e319160040161176b565b60206040518083038186803b158015610e4957600080fd5b505afa158015610e5d573d6000803e3d6000fd5b505050506040513d601f19601f82011682018060405250810190610e81919061149b565b6001600160a01b031614610eef578051604051630ac9bd0160e01b81526001600160a01b03841691630ac9bd0191610ebc919060040161176b565b600060405180830381600087803b158015610ed657600080fd5b505af1158015610eea573d6000803e3d6000fd5b505050505b60208101516001600160a01b031615610dfe5780516020820151604051634814a22560e11b81526001600160a01b0385169263c130c6399290918490639029444a90610f409060009060040161176b565b60206040518083038186803b158015610f5857600080fd5b505afa158015610f6c573d6000803e3d6000fd5b505050506040513d601f19601f82011682018060405250810190610f90919061149b565b6040518463ffffffff1660e01b8152600401610fae9392919061178b565b600060405180830381600087803b158015610fc857600080fd5b505af1158015610fdc573d6000803e3d6000fd5b505050505050565b60005b8160e00151518110156110c357826001600160a01b031663179986f88360c00151838151811061102757634e487b7160e01b600052603260045260246000fd5b602002602001015184602001518560e00151858151811061105857634e487b7160e01b600052603260045260246000fd5b60200260200101516040518463ffffffff1660e01b815260040161107e9392919061173f565b600060405180830381600087803b15801561109857600080fd5b505af11580156110ac573d6000803e3d6000fd5b5050505080806110bb90611dac565b915050610fe7565b505050565b6001600160a01b0382166000908152600160209081526040808320848452825280832080548251818502810185019093528083529192909190849084015b828210156111b25760008481526020908190206040805160808101825260038602909201805483526001808201549484019490945260028101546001600160a01b0381169284019290925291926060840191600160a01b900460ff169081111561118057634e487b7160e01b600052602160045260246000fd5b600181111561119f57634e487b7160e01b600052602160045260246000fd5b8152505081526020019060010190611106565b50505050905060005b8151811015610b575760008282815181106111e657634e487b7160e01b600052603260045260246000fd5b602002602001015190508060600151600181111561121457634e487b7160e01b600052602160045260246000fd5b6112805780516020820151604051630da0f6c760e41b81526001600160a01b0388169263da0f6c709261124992600401611894565b600060405180830381600087803b15801561126357600080fd5b505af1158015611277573d6000803e3d6000fd5b50505050611310565b806060015160018111156112a457634e487b7160e01b600052602160045260246000fd5b600114156113105780516040808301519051631da7c90d60e11b81526001600160a01b03881692633b4f921a926112dd92600401611774565b600060405180830381600087803b1580156112f757600080fd5b505af115801561130b573d6000803e3d6000fd5b505050505b508061131b81611dac565b9150506111bb565b8160200151156113a65781606001516001600160a01b0316635e5eb01384835a865161134f9190611baa565b86604001516040518563ffffffff1660e01b815260040161137394939291906118de565b600060405180830381600087803b15801561138d57600080fd5b505af11580156113a1573d6000803e3d6000fd5b505050505b826001600160a01b031663d4f7af436040518163ffffffff1660e01b8152600401600060405180830381600087803b1580156113e157600080fd5b505af11580156113f5573d6000803e3d6000fd5b50505050505050565b6040518060800160405280600081526020016000151581526020016000815260200160006001600160a01b031681525090565b60008083601f840112611442578182fd5b50813567ffffffffffffffff811115611459578182fd5b60208301915083602082850101111561147157600080fd5b9250929050565b600060208284031215611489578081fd5b813561149481611fd7565b9392505050565b6000602082840312156114ac578081fd5b815161149481611fd7565b600080604083850312156114c9578081fd5b82356114d481611fd7565b946020939093013593505050565b6000806000606084860312156114f6578081fd5b833561150181611fd7565b95602085013595506040909401359392505050565b60008060408385031215611528578182fd5b82518015158114611537578283fd5b6020939093015192949293505050565b600080604083850312156114c9578182fd5b60008060008060008060a08789031215611571578182fd5b61157b8735611fd7565b8635955060208701359450604087013567ffffffffffffffff808211156115a0578384fd5b610100828a018b0312156115b2578384fd5b9088019450606088013590808211156115c9578384fd5b818901915089601f8301126115dc578384fd5b8135818111156115ee576115ee611df3565b6115fc602080830201611b74565b80828252602082019150602085018d602060808602880101111561161e578788fd5b8795505b838610156116a7576080818f031215611639578788fd5b60405160808101818110878211171561165457611654611df3565b80604052508135815260208201356020820152604082013561167581611fd7565b604082015260608201356002811061168b57898afd5b6060820152835260019590950194602090920191608001611622565b509650505060808901359150808211156116bf578384fd5b506116cc89828a01611431565b979a9699509497509295939492505050565b6000602082840312156116ef578081fd5b815160068110611494578182fd5b60006020828403121561170e578081fd5b5051919050565b60008284528282602086013780602084860101526020601f19601f85011685010190509392505050565b6001600160a01b0393841681529190921660208201526001600160801b03909116604082015260600190565b90815260200190565b9182526001600160a01b0316602082015260400190565b9283526001600160a01b03918216602084015216604082015260600190565b8481526001600160a01b038416602082015260808101600384106117d0576117d0611ddd565b8360408301526001600160801b038316606083015295945050505050565b8581526001600160a01b0385166020808301919091526001600160801b038516604083015260a06060830181905284519083018190526000918581019160c0850190845b8181101561184e57845183529383019391830191600101611832565b505084810360808601528551808252908201925081860190845b8181101561188457825185529383019391830191600101611868565b50929a9950505050505050505050565b918252602082015260400190565b848152602081018490526001600160a01b038316604082015260808101600283106118cf576118cf611ddd565b82606083015295945050505050565b6001600160a01b0394851681529290931660208301526040820152606081019190915260800190565b600060018060a01b038088168352808716602084015260806040840152611932608084018688611715565b91508084166060840152509695505050505050565b6001600160a01b03929092168252602082015260400190565b600060018060a01b038616825284602083015260606040830152611988606083018486611715565b9695505050505050565b60208082526015908201527470726f706f73616c20646964206e6f74207061737360581b604082015260600190565b6020808252601390820152721859191c995cdcc81a5cc81c995cd95c9d9959606a1b604082015260600190565b602080825260139082015272756e6b6e6f776e20757064617465207479706560681b604082015260600190565b60208082526036908201527f6d75737420626520616e20657175616c206e756d626572206f6620657874656e6040820152751cda5bdb881859191c995cdcd95cc8185b99081858db60521b606082015260800190565b60208082526010908201526f1c99595b9d1c985b98de4819dd585c9960821b604082015260600190565b60208082526031908201527f6d75737420626520616e20657175616c206e756d626572206f6620636f6e666960408201527067206b65797320616e642076616c75657360781b606082015260800190565b6020808252601190820152701859185c1d195c881b9bdd08199bdd5b99607a1b604082015260600190565b6000808335601e19843603018112611b2d578283fd5b83018035915067ffffffffffffffff821115611b47578283fd5b602090810192508102360382131561147157600080fd5b6000808335601e19843603018112611b2d578182fd5b60405181810167ffffffffffffffff81118282101715611b9657611b96611df3565b604052919050565b60009081526020902090565b600082821015611bbc57611bbc611dc7565b500390565b5b81811015610dfe5760008155600101611bc2565b611be08382611e31565b818160005260208060002060005b868110156113f5578335611c0181611fd7565b82546001600160a01b0319166001600160a01b03919091161782559282019260019182019101611bee565b600160401b831115611c4057611c40611df3565b805483825580841015611c82576000828152602081208581019083015b80821015611c7e57611c7183848454611e69565b8255600182019150611c5d565b5050505b5081611c8d82611b9e565b6000805b868110156113f557611ca584358385611f9d565b6020939093019260019283019201611c91565b600160401b831115611ccc57611ccc611df3565b805483825580841015611d2557816000526020600020600260018601048101601060018716028015611d0f57600019808301805482846020036008021c16815550505b50611d2260026001850104830182611bc1565b50505b5081611d3082611b9e565b6000805b868110156113f557611d4f611d4885611e19565b8385611faf565b6020840193506010808301925080831115611d6f57600092506001840193505b50600101611d34565b611d828382611e31565b818160005260208060002060005b868110156113f557833582559282019260019182019101611d90565b6000600019821415611dc057611dc0611dc7565b5060010190565b634e487b7160e01b600052601160045260246000fd5b634e487b7160e01b600052602160045260246000fd5b634e487b7160e01b600052604160045260246000fd5b6000813560038110610ded578182fd5b600081356001600160801b0381168114610ded578182fd5b600160401b821115611e4557611e45611df3565b8054828255808310156110c357816000526020600020610b57828201858301611bc1565b60089190910291821b60001990921b9182169119161790565b81358155600181016020830135611e9881611fd7565b81546001600160a01b0319166001600160a01b0391909116178155611ec8611ec260408501611e09565b82611f70565b50611ee1611ed860608401611e19565b60028301611f53565b611eee6080830183611b17565b611efc818360038601611c2c565b5050611f0b60a0830183611b17565b611f19818360048601611d78565b5050611f2860c0830183611b17565b611f36818360058601611bd6565b5050611f4560e0830183611b17565b610b57818360068601611cb8565b6001600160801b0382166001600160801b03198254161781555050565b60038210611f8057611f80611ddd565b805460ff60a01b191660a09290921b60ff60a01b16919091179055565b611fa983838354611e69565b90555050565b6001600160801b0381546008840282811b80848816831b168119841617855550505050505050565b6001600160a01b0381168114611fec57600080fd5b5056fea2646970667358221220e76a793c24b563dada177fee5f973742722a175369eaa3a5aad11129986f201664736f6c63430008000033",
  "linkReferences": {},
  "deployedLinkReferences": {}
}