{
  "_format": "hh-sol-artifact-1",
  "contractName": "ConfigurationContract",
  "sourceName": "build/contracts/adapters/Configuration.sol",
  "abi": [
    {
      "inputs": [
        {
          "internalType": "contract DaoRegistry",
          "name": "dao",
          "type": "address"
        },
        {
          "internalType": "bytes32",
          "name": "proposalId",
          "type": "bytes32"
        }
      ],
      "name": "processProposal",
      "outputs": [],
      "stateMutability": "nonpayable",
      "type": "function"
    },
    {
      "inputs": [
        {
          "internalType": "contract DaoRegistry",
          "name": "dao",
          "type": "address"
        },
        {
          "internalType": "bytes32",
          "name": "proposalId",
          "type": "bytes32"
        },
        {
          "components": [
            {
              "internalType": "bytes32",
              "name": "key",
              "type": "bytes32"
            },
            {
              "internalType": "uint256",
              "name": "numericValue",
              "type": "uint256"
            },
            {
              "internalType": "address",
              "name": "addressValue",
              "type": "address"
            },
            {
              "internalType": "enum IConfiguration.ConfigType",
              "name": "configType",
              "type": "uint8"
            }
          ],
          "internalType": "struct IConfiguration.Configuration[]",
          "name": "configs",
          "type": "tuple[]"
        },
        {
          "internalType": "bytes",
          "name": "data",
          "type": "bytes"
        }
      ],
      "name": "submitProposal",
      "outputs": [],
      "stateMutability": "nonpayable",
      "type": "function"
    }
  ],
  "bytecode": "0x608060405234801561001057600080fd5b506110b0806100206000396000f3fe608060405234801561001057600080fd5b50600436106100365760003560e01c80639573167d1461003b578063e3cae9ae14610050575b600080fd5b61004e610049366004610ca6565b610063565b005b61004e61005e366004610cd1565b6104aa565b81600061006f8261089d565b6040516330490e9160e01b81529091506001600160a01b038516906330490e919061009e908690600401610e6c565b600060405180830381600087803b1580156100b857600080fd5b505af11580156100cc573d6000803e3d6000fd5b505060405163206f381f60e11b8152600092506001600160a01b03871691506340de703e906100ff908790600401610e6c565b60206040518083038186803b15801561011757600080fd5b505afa15801561012b573d6000803e3d6000fd5b505050506040513d601f19601f8201168201806040525081019061014f9190610c52565b90506001600160a01b0381166101805760405162461bcd60e51b815260040161017790610fef565b60405180910390fd5b60026040516376225e7360e01b81526001600160a01b038316906376225e73906101b09089908990600401610f22565b602060405180830381600087803b1580156101ca57600080fd5b505af11580156101de573d6000803e3d6000fd5b505050506040513d601f19601f820116820180604052508101906102029190610d88565b600581111561022157634e487b7160e01b600052602160045260246000fd5b1461023e5760405162461bcd60e51b815260040161017790610f6d565b6001600160a01b038516600090815260208181526040808320878452825280832080548251818502810185019093528083529192909190849084015b828210156103265760008481526020908190206040805160808101825260038602909201805483526001808201549484019490945260028101546001600160a01b0381169284019290925291926060840191600160a01b900460ff16908111156102f457634e487b7160e01b600052602160045260246000fd5b600181111561031357634e487b7160e01b600052602160045260246000fd5b815250508152602001906001019061027a565b50505050905060005b815181101561049757600082828151811061035a57634e487b7160e01b600052603260045260246000fd5b602002602001015190508060600151600181111561038857634e487b7160e01b600052602160045260246000fd5b6103f45780516020820151604051630da0f6c760e41b81526001600160a01b038b169263da0f6c70926103bd92600401610eab565b600060405180830381600087803b1580156103d757600080fd5b505af11580156103eb573d6000803e3d6000fd5b50505050610484565b8060600151600181111561041857634e487b7160e01b600052602160045260246000fd5b600114156104845780516040808301519051631da7c90d60e11b81526001600160a01b038b1692633b4f921a9261045192600401610e75565b600060405180830381600087803b15801561046b57600080fd5b505af115801561047f573d6000803e3d6000fd5b505050505b508061048f81611031565b91505061032f565b5050506104a48282610aee565b50505050565b8560006104b68261089d565b9050846104d55760405162461bcd60e51b815260040161017790610fc6565b60405163b73dc38960e01b81526001600160a01b0389169063b73dc38990610501908a90600401610e6c565b600060405180830381600087803b15801561051b57600080fd5b505af115801561052f573d6000803e3d6000fd5b5050506001600160a01b0389166000908152602081815260408083208b8452909152812091505b8681101561069357600088888381811061058057634e487b7160e01b600052603260045260246000fd5b9050608002018036038101906105969190610da7565b9050826040518060800160405280836000015181526020018360200151815260200183604001516001600160a01b03168152602001836060015160018111156105ef57634e487b7160e01b600052602160045260246000fd5b905281546001808201845560009384526020938490208351600390930201918255928201518184015560408201516002820180546001600160a01b0319166001600160a01b03909216919091178082556060840151939492939260ff60a01b1990911690600160a01b90849081111561067857634e487b7160e01b600052602160045260246000fd5b0217905550505050808061068b90611031565b915050610556565b506040516317ba7d8560e01b81526000906001600160a01b038b16906317ba7d85906106e3907f0e49311626a26ba5be58a3b13d239908e80ce0dffdd5c50bf1d9c82ff35d1ab390600401610e6c565b60206040518083038186803b1580156106fb57600080fd5b505afa15801561070f573d6000803e3d6000fd5b505050506040513d601f19601f820116820180604052508101906107339190610c52565b90506000816001600160a01b031663966917d08c308a8a336040518663ffffffff1660e01b815260040161076b959493929190610ee2565b602060405180830381600087803b15801561078557600080fd5b505af1158015610799573d6000803e3d6000fd5b505050506040513d601f19601f820116820180604052508101906107bd9190610c52565b6040516344b574dd60e11b81529091506001600160a01b038c169063896ae9ba906107f0908d9085908790600401610e8c565b600060405180830381600087803b15801561080a57600080fd5b505af115801561081e573d6000803e3d6000fd5b50506040516302b0974d60e41b81526001600160a01b0385169250632b0974d09150610854908e908e908c908c90600401610f3b565b600060405180830381600087803b15801561086e57600080fd5b505af1158015610882573d6000803e3d6000fd5b505050505050506108938282610aee565b5050505050505050565b6108a5610bd8565b5a81600001818152505043826001600160a01b031663b21634826040518163ffffffff1660e01b815260040160206040518083038186803b1580156108e957600080fd5b505afa1580156108fd573d6000803e3d6000fd5b505050506040513d601f19601f820116820180604052508101906109219190610e2a565b141561093f5760405162461bcd60e51b815260040161017790610f9c565b816001600160a01b03166310fdb0a26040518163ffffffff1660e01b8152600401600060405180830381600087803b15801561097a57600080fd5b505af115801561098e573d6000803e3d6000fd5b50506040516372c6838f60e01b8152600092506001600160a01b03851691506372c6838f906109e1907f1f2fd42ad6a6cacd573c4b212beb7a4e2499ad45d742a65337097f130e71daff90600401610e6c565b60206040518083038186803b1580156109f957600080fd5b505afa158015610a0d573d6000803e3d6000fd5b505050506040513d601f19601f82011682018060405250810190610a319190610c52565b90506001600160a01b038116610a4d5760006020830152610ae8565b6001600160a01b0381166060830181905282516040516343a8a3f160e01b8152600092839290916343a8a3f191610a8991899190600401610f22565b604080518083038186803b158015610aa057600080fd5b505afa158015610ab4573d6000803e3d6000fd5b505050506040513d601f19601f82011682018060405250810190610ad89190610c75565b9015156020860152604085015250505b50919050565b610af9828233610afd565b5050565b816020015115610b805781606001516001600160a01b0316635e5eb01384835a8651610b29919061101a565b86604001516040518563ffffffff1660e01b8152600401610b4d9493929190610eb9565b600060405180830381600087803b158015610b6757600080fd5b505af1158015610b7b573d6000803e3d6000fd5b505050505b826001600160a01b031663d4f7af436040518163ffffffff1660e01b8152600401600060405180830381600087803b158015610bbb57600080fd5b505af1158015610bcf573d6000803e3d6000fd5b50505050505050565b6040518060800160405280600081526020016000151581526020016000815260200160006001600160a01b031681525090565b60008083601f840112610c1c578182fd5b50813567ffffffffffffffff811115610c33578182fd5b602083019150836020828501011115610c4b57600080fd5b9250929050565b600060208284031215610c63578081fd5b8151610c6e81611062565b9392505050565b60008060408385031215610c87578081fd5b82518015158114610c96578182fd5b6020939093015192949293505050565b60008060408385031215610cb8578182fd5b8235610cc381611062565b946020939093013593505050565b60008060008060008060808789031215610ce9578182fd5b8635610cf481611062565b955060208701359450604087013567ffffffffffffffff80821115610d17578384fd5b818901915089601f830112610d2a578384fd5b813581811115610d38578485fd5b8a6020608083028501011115610d4c578485fd5b602083019650809550506060890135915080821115610d69578384fd5b50610d7689828a01610c0b565b979a9699509497509295939492505050565b600060208284031215610d99578081fd5b815160068110610c6e578182fd5b600060808284031215610db8578081fd5b6040516080810181811067ffffffffffffffff82111715610de757634e487b7160e01b83526041600452602483fd5b806040525082358152602083013560208201526040830135610e0881611062565b6040820152606083013560028110610e1e578283fd5b60608201529392505050565b600060208284031215610e3b578081fd5b5051919050565b60008284528282602086013780602084860101526020601f19601f85011685010190509392505050565b90815260200190565b9182526001600160a01b0316602082015260400190565b9283526001600160a01b03918216602084015216604082015260600190565b918252602082015260400190565b6001600160a01b0394851681529290931660208301526040820152606081019190915260800190565b600060018060a01b038088168352808716602084015260806040840152610f0d608084018688610e42565b91508084166060840152509695505050505050565b6001600160a01b03929092168252602082015260400190565b600060018060a01b038616825284602083015260606040830152610f63606083018486610e42565b9695505050505050565b60208082526015908201527470726f706f73616c20646964206e6f74207061737360581b604082015260600190565b60208082526010908201526f1c99595b9d1c985b98de4819dd585c9960821b604082015260600190565b6020808252600f908201526e6d697373696e6720636f6e6669677360881b604082015260600190565b6020808252601190820152701859185c1d195c881b9bdd08199bdd5b99607a1b604082015260600190565b60008282101561102c5761102c61104c565b500390565b60006000198214156110455761104561104c565b5060010190565b634e487b7160e01b600052601160045260246000fd5b6001600160a01b038116811461107757600080fd5b5056fea2646970667358221220b4944a86ee7b34d03b4b6e7e8264b24ea0595e3458119762cdaabfd50880a18864736f6c63430008000033",
  "linkReferences": {},
  "deployedLinkReferences": {}
}