{
  "_format": "hh-sol-artifact-1",
  "contractName": "WETH",
  "sourceName": "build/contracts/helpers/WETH.sol",
  "abi": [
    {
      "anonymous": false,
      "inputs": [
        {
          "indexed": true,
          "internalType": "address",
          "name": "src",
          "type": "address"
        },
        {
          "indexed": true,
          "internalType": "address",
          "name": "guy",
          "type": "address"
        },
        {
          "indexed": false,
          "internalType": "uint256",
          "name": "wad",
          "type": "uint256"
        }
      ],
      "name": "Approval",
      "type": "event"
    },
    {
      "anonymous": false,
      "inputs": [
        {
          "indexed": true,
          "internalType": "address",
          "name": "dst",
          "type": "address"
        },
        {
          "indexed": false,
          "internalType": "uint256",
          "name": "wad",
          "type": "uint256"
        }
      ],
      "name": "Deposit",
      "type": "event"
    },
    {
      "anonymous": false,
      "inputs": [
        {
          "indexed": true,
          "internalType": "address",
          "name": "src",
          "type": "address"
        },
        {
          "indexed": true,
          "internalType": "address",
          "name": "dst",
          "type": "address"
        },
        {
          "indexed": false,
          "internalType": "uint256",
          "name": "wad",
          "type": "uint256"
        }
      ],
      "name": "Transfer",
      "type": "event"
    },
    {
      "anonymous": false,
      "inputs": [
        {
          "indexed": true,
          "internalType": "address",
          "name": "src",
          "type": "address"
        },
        {
          "indexed": false,
          "internalType": "uint256",
          "name": "wad",
          "type": "uint256"
        }
      ],
      "name": "Withdrawal",
      "type": "event"
    },
    {
      "inputs": [
        {
          "internalType": "address",
          "name": "",
          "type": "address"
        },
        {
          "internalType": "address",
          "name": "",
          "type": "address"
        }
      ],
      "name": "allowance",
      "outputs": [
        {
          "internalType": "uint256",
          "name": "",
          "type": "uint256"
        }
      ],
      "stateMutability": "view",
      "type": "function"
    },
    {
      "inputs": [
        {
          "internalType": "address",
          "name": "guy",
          "type": "address"
        },
        {
          "internalType": "uint256",
          "name": "wad",
          "type": "uint256"
        }
      ],
      "name": "approve",
      "outputs": [
        {
          "internalType": "bool",
          "name": "",
          "type": "bool"
        }
      ],
      "stateMutability": "nonpayable",
      "type": "function"
    },
    {
      "inputs": [
        {
          "internalType": "address",
          "name": "",
          "type": "address"
        }
      ],
      "name": "balanceOf",
      "outputs": [
        {
          "internalType": "uint256",
          "name": "",
          "type": "uint256"
        }
      ],
      "stateMutability": "view",
      "type": "function"
    },
    {
      "inputs": [],
      "name": "decimals",
      "outputs": [
        {
          "internalType": "uint8",
          "name": "",
          "type": "uint8"
        }
      ],
      "stateMutability": "view",
      "type": "function"
    },
    {
      "inputs": [],
      "name": "deposit",
      "outputs": [],
      "stateMutability": "payable",
      "type": "function"
    },
    {
      "inputs": [],
      "name": "name",
      "outputs": [
        {
          "internalType": "string",
          "name": "",
          "type": "string"
        }
      ],
      "stateMutability": "view",
      "type": "function"
    },
    {
      "inputs": [],
      "name": "symbol",
      "outputs": [
        {
          "internalType": "string",
          "name": "",
          "type": "string"
        }
      ],
      "stateMutability": "view",
      "type": "function"
    },
    {
      "inputs": [],
      "name": "totalSupply",
      "outputs": [
        {
          "internalType": "uint256",
          "name": "",
          "type": "uint256"
        }
      ],
      "stateMutability": "view",
      "type": "function"
    },
    {
      "inputs": [
        {
          "internalType": "address",
          "name": "dst",
          "type": "address"
        },
        {
          "internalType": "uint256",
          "name": "wad",
          "type": "uint256"
        }
      ],
      "name": "transfer",
      "outputs": [
        {
          "internalType": "bool",
          "name": "",
          "type": "bool"
        }
      ],
      "stateMutability": "nonpayable",
      "type": "function"
    },
    {
      "inputs": [
        {
          "internalType": "address",
          "name": "src",
          "type": "address"
        },
        {
          "internalType": "address",
          "name": "dst",
          "type": "address"
        },
        {
          "internalType": "uint256",
          "name": "wad",
          "type": "uint256"
        }
      ],
      "name": "transferFrom",
      "outputs": [
        {
          "internalType": "bool",
          "name": "",
          "type": "bool"
        }
      ],
      "stateMutability": "nonpayable",
      "type": "function"
    },
    {
      "inputs": [
        {
          "internalType": "uint256",
          "name": "wad",
          "type": "uint256"
        }
      ],
      "name": "withdraw",
      "outputs": [],
      "stateMutability": "nonpayable",
      "type": "function"
    },
    {
      "stateMutability": "payable",
      "type": "receive"
    }
  ],
  "bytecode": "0x608060405234801561001057600080fd5b506108a6806100206000396000f3fe6080604052600436106100a05760003560e01c8063313ce56711610064578063313ce5671461016e57806370a082311461019057806395d89b41146101b0578063a9059cbb146101c5578063d0e30db0146101e5578063dd62ed3e146101ed576100af565b806306fdde03146100b4578063095ea7b3146100df57806318160ddd1461010c57806323b872dd1461012e5780632e1a7d4d1461014e576100af565b366100af576100ad61020d565b005b600080fd5b3480156100c057600080fd5b506100c961026d565b6040516100d691906106f1565b60405180910390f35b3480156100eb57600080fd5b506100ff6100fa3660046106a5565b610296565b6040516100d691906106e6565b34801561011857600080fd5b50610121610300565b6040516100d69190610814565b34801561013a57600080fd5b506100ff61014936600461066a565b610304565b34801561015a57600080fd5b506100ad6101693660046106ce565b6104b5565b34801561017a57600080fd5b5061018361059a565b6040516100d6919061081d565b34801561019c57600080fd5b506101216101ab36600461061e565b61059f565b3480156101bc57600080fd5b506100c96105b1565b3480156101d157600080fd5b506100ff6101e03660046106a5565b6105d1565b6100ad61020d565b3480156101f957600080fd5b50610121610208366004610638565b6105e5565b336000908152602081905260408120805434929061022c90849061082b565b909155505060405133907fe1fffcc4923d04b559f4d29a8bfc6cda04eb5b0d3c460751c2402c5c5cc9109c90610263903490610814565b60405180910390a2565b6040518060400160405280600d81526020016c2bb930b83832b21022ba3432b960991b81525081565b3360008181526001602090815260408083206001600160a01b038716808552925280832085905551919290917f8c5be1e5ebec7d5bd14f71427d1e84f3dd0314c0f7b2291e5b200ac8c7c3b925906102ef908690610814565b60405180910390a350600192915050565b4790565b6001600160a01b0383166000908152602081905260408120548211156103455760405162461bcd60e51b815260040161033c90610744565b60405180910390fd5b6001600160a01b038416331480159061038357506001600160a01b038416600090815260016020908152604080832033845290915290205460001914155b15610404576001600160a01b03841660009081526001602090815260408083203384529091529020548211156103cb5760405162461bcd60e51b815260040161033c906107a6565b6001600160a01b0384166000908152600160209081526040808320338452909152812080548492906103fe908490610843565b90915550505b6001600160a01b0384166000908152602081905260408120805484929061042c908490610843565b90915550506001600160a01b0383166000908152602081905260408120805484929061045990849061082b565b92505081905550826001600160a01b0316846001600160a01b03167fddf252ad1be2c89b69c2b068fc378daa952ba7f163c4a11628f55a4df523b3ef846040516104a39190610814565b60405180910390a35060019392505050565b336000908152602081905260409020548111156104e45760405162461bcd60e51b815260040161033c9061076f565b804710156105045760405162461bcd60e51b815260040161033c906107dd565b3360009081526020819052604081208054839290610523908490610843565b9091555050604051339082156108fc029083906000818181858888f19350505050158015610555573d6000803e3d6000fd5b50336001600160a01b03167f7fcf532c15f0a6db0bd6d0e038bea71d30d808c7d98cb3bf7268a95bf5081b658260405161058f9190610814565b60405180910390a250565b601281565b60006020819052908152604090205481565b604051806040016040528060048152602001630ae8aa8960e31b81525081565b60006105de338484610304565b9392505050565b600160209081526000928352604080842090915290825290205481565b80356001600160a01b038116811461061957600080fd5b919050565b60006020828403121561062f578081fd5b6105de82610602565b6000806040838503121561064a578081fd5b61065383610602565b915061066160208401610602565b90509250929050565b60008060006060848603121561067e578081fd5b61068784610602565b925061069560208501610602565b9150604084013590509250925092565b600080604083850312156106b7578182fd5b6106c083610602565b946020939093013593505050565b6000602082840312156106df578081fd5b5035919050565b901515815260200190565b6000602080835283518082850152825b8181101561071d57858101830151858201604001528201610701565b8181111561072e5783604083870101525b50601f01601f1916929092016040019392505050565b6020808252601190820152701a5b9cdd59999a58da595b9d08199d5b99607a1b604082015260600190565b6020808252601b908201527f6e6f7420656e6f756768205745544820746f2077697468647261770000000000604082015260600190565b6020808252601c908201527f6e6f7420616c6c6f77656420746f207472616e736665722066726f6d00000000604082015260600190565b6020808252601e908201527f6e6f7420656e6f7567682045544820696e2074686520636f6e74726163740000604082015260600190565b90815260200190565b60ff91909116815260200190565b6000821982111561083e5761083e61085a565b500190565b6000828210156108555761085561085a565b500390565b634e487b7160e01b600052601160045260246000fdfea2646970667358221220e91147c066f928c5fb8b1d7fd22e5d944c02740ade73acf3b0c6493b89be485a64736f6c63430008000033",
  "linkReferences": {},
  "deployedLinkReferences": {}
}