{
  "_format": "hh-sol-artifact-1",
  "contractName": "OffchainVotingHelperContract",
  "sourceName": "build/contracts/helpers/OffchainVotingHelper.sol",
  "abi": [
    {
      "inputs": [
        {
          "internalType": "contract OffchainVotingHashContract",
          "name": "_contract",
          "type": "address"
        }
      ],
      "stateMutability": "nonpayable",
      "type": "constructor"
    },
    {
      "inputs": [],
      "name": "FallbackThreshold",
      "outputs": [
        {
          "internalType": "bytes32",
          "name": "",
          "type": "bytes32"
        }
      ],
      "stateMutability": "view",
      "type": "function"
    },
    {
      "inputs": [],
      "name": "GracePeriod",
      "outputs": [
        {
          "internalType": "bytes32",
          "name": "",
          "type": "bytes32"
        }
      ],
      "stateMutability": "view",
      "type": "function"
    },
    {
      "inputs": [],
      "name": "VotingPeriod",
      "outputs": [
        {
          "internalType": "bytes32",
          "name": "",
          "type": "bytes32"
        }
      ],
      "stateMutability": "view",
      "type": "function"
    },
    {
      "inputs": [
        {
          "internalType": "contract DaoRegistry",
          "name": "dao",
          "type": "address"
        },
        {
          "internalType": "bytes32",
          "name": "proposalId",
          "type": "bytes32"
        },
        {
          "internalType": "bool",
          "name": "submitNewVote",
          "type": "bool"
        },
        {
          "internalType": "bytes32",
          "name": "resultRoot",
          "type": "bytes32"
        },
        {
          "internalType": "uint256",
          "name": "blockNumber",
          "type": "uint256"
        },
        {
          "internalType": "uint256",
          "name": "gracePeriodStartingTime",
          "type": "uint256"
        },
        {
          "internalType": "uint256",
          "name": "nbMembers",
          "type": "uint256"
        },
        {
          "components": [
            {
              "internalType": "uint32",
              "name": "choice",
              "type": "uint32"
            },
            {
              "internalType": "uint64",
              "name": "index",
              "type": "uint64"
            },
            {
              "internalType": "uint64",
              "name": "timestamp",
              "type": "uint64"
            },
            {
              "internalType": "uint88",
              "name": "nbNo",
              "type": "uint88"
            },
            {
              "internalType": "uint88",
              "name": "nbYes",
              "type": "uint88"
            },
            {
              "internalType": "bytes",
              "name": "sig",
              "type": "bytes"
            },
            {
              "internalType": "bytes32",
              "name": "proposalId",
              "type": "bytes32"
            },
            {
              "internalType": "bytes32[]",
              "name": "proof",
              "type": "bytes32[]"
            }
          ],
          "internalType": "struct OffchainVotingHashContract.VoteResultNode",
          "name": "node",
          "type": "tuple"
        }
      ],
      "name": "checkBadNodeError",
      "outputs": [],
      "stateMutability": "view",
      "type": "function"
    },
    {
      "inputs": [
        {
          "internalType": "contract DaoRegistry",
          "name": "dao",
          "type": "address"
        },
        {
          "internalType": "uint256",
          "name": "resultIndex",
          "type": "uint256"
        },
        {
          "internalType": "uint256",
          "name": "blockNumber",
          "type": "uint256"
        }
      ],
      "name": "checkMemberCount",
      "outputs": [
        {
          "internalType": "uint256",
          "name": "membersCount",
          "type": "uint256"
        }
      ],
      "stateMutability": "view",
      "type": "function"
    },
    {
      "inputs": [
        {
          "internalType": "contract DaoRegistry",
          "name": "dao",
          "type": "address"
        },
        {
          "internalType": "bytes32",
          "name": "proposalId",
          "type": "bytes32"
        },
        {
          "internalType": "bool",
          "name": "submitNewVote",
          "type": "bool"
        },
        {
          "internalType": "bytes32",
          "name": "resultRoot",
          "type": "bytes32"
        },
        {
          "internalType": "uint256",
          "name": "blockNumber",
          "type": "uint256"
        },
        {
          "internalType": "uint256",
          "name": "gracePeriodStartingTime",
          "type": "uint256"
        },
        {
          "internalType": "uint256",
          "name": "nbMembers",
          "type": "uint256"
        },
        {
          "components": [
            {
              "internalType": "uint32",
              "name": "choice",
              "type": "uint32"
            },
            {
              "internalType": "uint64",
              "name": "index",
              "type": "uint64"
            },
            {
              "internalType": "uint64",
              "name": "timestamp",
              "type": "uint64"
            },
            {
              "internalType": "uint88",
              "name": "nbNo",
              "type": "uint88"
            },
            {
              "internalType": "uint88",
              "name": "nbYes",
              "type": "uint88"
            },
            {
              "internalType": "bytes",
              "name": "sig",
              "type": "bytes"
            },
            {
              "internalType": "bytes32",
              "name": "proposalId",
              "type": "bytes32"
            },
            {
              "internalType": "bytes32[]",
              "name": "proof",
              "type": "bytes32[]"
            }
          ],
          "internalType": "struct OffchainVotingHashContract.VoteResultNode",
          "name": "node",
          "type": "tuple"
        }
      ],
      "name": "getBadNodeError",
      "outputs": [
        {
          "internalType": "enum OffchainVotingHelperContract.BadNodeError",
          "name": "",
          "type": "uint8"
        }
      ],
      "stateMutability": "view",
      "type": "function"
    },
    {
      "inputs": [
        {
          "internalType": "contract DaoRegistry",
          "name": "dao",
          "type": "address"
        },
        {
          "internalType": "address",
          "name": "actionId",
          "type": "address"
        },
        {
          "internalType": "bytes",
          "name": "data",
          "type": "bytes"
        },
        {
          "internalType": "address",
          "name": "",
          "type": "address"
        },
        {
          "internalType": "contract SnapshotProposalContract",
          "name": "snapshotContract",
          "type": "address"
        }
      ],
      "name": "getSenderAddress",
      "outputs": [
        {
          "internalType": "address",
          "name": "",
          "type": "address"
        }
      ],
      "stateMutability": "view",
      "type": "function"
    },
    {
      "inputs": [
        {
          "internalType": "uint256",
          "name": "startingTime",
          "type": "uint256"
        },
        {
          "internalType": "bool",
          "name": "forceFailed",
          "type": "bool"
        },
        {
          "internalType": "bool",
          "name": "isChallenged",
          "type": "bool"
        },
        {
          "internalType": "uint256",
          "name": "stepRequested",
          "type": "uint256"
        },
        {
          "internalType": "uint256",
          "name": "gracePeriodStartingTime",
          "type": "uint256"
        },
        {
          "internalType": "uint256",
          "name": "nbYes",
          "type": "uint256"
        },
        {
          "internalType": "uint256",
          "name": "nbNo",
          "type": "uint256"
        },
        {
          "internalType": "uint256",
          "name": "votingPeriod",
          "type": "uint256"
        },
        {
          "internalType": "uint256",
          "name": "gracePeriod",
          "type": "uint256"
        }
      ],
      "name": "getVoteResult",
      "outputs": [
        {
          "internalType": "enum IVoting.VotingState",
          "name": "state",
          "type": "uint8"
        }
      ],
      "stateMutability": "view",
      "type": "function"
    },
    {
      "inputs": [
        {
          "internalType": "contract DaoRegistry",
          "name": "dao",
          "type": "address"
        },
        {
          "internalType": "uint256",
          "name": "fallbackVotesCount",
          "type": "uint256"
        }
      ],
      "name": "isFallbackVotingActivated",
      "outputs": [
        {
          "internalType": "bool",
          "name": "",
          "type": "bool"
        }
      ],
      "stateMutability": "view",
      "type": "function"
    },
    {
      "inputs": [
        {
          "internalType": "contract DaoRegistry",
          "name": "dao",
          "type": "address"
        },
        {
          "internalType": "bool",
          "name": "forceFailed",
          "type": "bool"
        },
        {
          "internalType": "uint256",
          "name": "snapshot",
          "type": "uint256"
        },
        {
          "internalType": "uint256",
          "name": "startingTime",
          "type": "uint256"
        },
        {
          "internalType": "uint256",
          "name": "votingPeriod",
          "type": "uint256"
        },
        {
          "internalType": "uint256",
          "name": "nbYes",
          "type": "uint256"
        },
        {
          "internalType": "uint256",
          "name": "nbNo",
          "type": "uint256"
        },
        {
          "internalType": "uint256",
          "name": "blockTs",
          "type": "uint256"
        }
      ],
      "name": "isReadyToSubmitResult",
      "outputs": [
        {
          "internalType": "bool",
          "name": "",
          "type": "bool"
        }
      ],
      "stateMutability": "view",
      "type": "function"
    },
    {
      "inputs": [
        {
          "internalType": "uint256",
          "name": "choice",
          "type": "uint256"
        }
      ],
      "name": "isValidChoice",
      "outputs": [
        {
          "internalType": "bool",
          "name": "",
          "type": "bool"
        }
      ],
      "stateMutability": "pure",
      "type": "function"
    }
  ],
  "bytecode": "0x608060405234801561001057600080fd5b506040516200240b3803806200240b83398101604081905261003191610056565b600080546001600160a01b0319166001600160a01b0392909216919091179055610084565b600060208284031215610067578081fd5b81516001600160a01b038116811461007d578182fd5b9392505050565b61237780620000946000396000f3fe608060405234801561001057600080fd5b50600436106100a95760003560e01c806390c4643c1161007157806390c4643c1461013457806399ee8250146101545780639bbf347f14610167578063b1028a351461016f578063b922f6fd14610177578063f770fae01461018a576100a9565b80630dfc0983146100ae578063375fdc8e146100d757806337647da8146100f75780636a12127d146100ff5780637783b9571461011f575b600080fd5b6100c16100bc366004611ae3565b6101aa565b6040516100ce9190611dda565b60405180910390f35b6100ea6100e5366004611881565b6102f7565b6040516100ce9190611d7e565b6100c16103cc565b61011261010d366004611ab8565b6103f0565b6040516100ce9190611dcf565b61013261012d366004611972565b61051e565b005b610147610142366004611972565b610576565b6040516100ce919061203c565b610112610162366004611908565b610992565b6100c1610b27565b6100c1610b4b565b610112610185366004611bdf565b610b6f565b61019d610198366004611bf7565b610b92565b6040516100ce9190612056565b604051632c9f4b5b60e11b81526000906001600160a01b0385169063593e96b6906101e79060008051602061232283398151915290600401611dda565b60206040518083038186803b1580156101ff57600080fd5b505afa158015610213573d6000803e3d6000fd5b505050506040513d601f19601f8201168201806040525081019061023791906117dc565b6001600160a01b031663faaf38b361babe63decafbad856040518463ffffffff1660e01b815260040161026c93929190611d92565b60206040518083038186803b15801561028457600080fd5b505afa158015610298573d6000803e3d6000fd5b505050506040513d601f19601f820116820180604052508101906102bc9190611841565b9050826102ca600183612257565b146102f05760405162461bcd60e51b81526004016102e790612142565b60405180910390fd5b9392505050565b6000808480602001905181019061030e9190611b17565b90506103a28160400151846001600160a01b0316633084557f8a8a866040518463ffffffff1660e01b815260040161034893929190611e70565b60206040518083038186803b15801561036057600080fd5b505afa158015610374573d6000803e3d6000fd5b505050506040513d601f19601f820116820180604052508101906103989190611841565b8360800151610c5c565b6103be5760405162461bcd60e51b81526004016102e79061208d565b604001519695505050505050565b7f5747c91a28cbec9252486e322546a68a0eb195f6f01518b0442207980ad3884c81565b60006064836001600160a01b0316639283ae3a7f7781b80638de1bad375fa02f17b809bb0037ecfaca3f762ca34d55e5b29687326040518263ffffffff1660e01b81526004016104409190611dda565b60206040518083038186803b15801561045857600080fd5b505afa15801561046c573d6000803e3d6000fd5b505050506040513d601f19601f820116820180604052508101906104909190611841565b846001600160a01b031663c67143666040518163ffffffff1660e01b815260040160206040518083038186803b1580156104c957600080fd5b505afa1580156104dd573d6000803e3d6000fd5b505050506040513d601f19601f820116820180604052508101906105019190611841565b61050b9190612238565b6105159190612218565b90911192915050565b60006105308989898989898989610576565b600681111561054f57634e487b7160e01b600052602160045260246000fd5b1461056c5760405162461bcd60e51b81526004016102e7906120e9565b5050505050505050565b600080896001600160a01b03166332ed5b128a6040518263ffffffff1660e01b81526004016105a59190611dda565b604080518083038186803b1580156105bc57600080fd5b505afa1580156105d0573d6000803e3d6000fd5b505050506040513d601f19601f820116820180604052508101906105f491906117f8565b509050866106145760405162461bcd60e51b81526004016102e7906120b2565b60008054604051636a71d09b60e01b81526001600160a01b0390911690636a71d09b90610649908e9086908990600401611f82565b60206040518083038186803b15801561066157600080fd5b505afa158015610675573d6000803e3d6000fd5b505050506040513d601f19601f820116820180604052508101906106999190611841565b90506106aa8460e001518983610db5565b6106c65760405162461bcd60e51b81526004016102e79061206a565b8484602001516001600160401b0316106106e557600592505050610986565b6020840151604051634814a22560e11b81526000916001600160a01b038e1691639029444a9161071791600401612179565b60206040518083038186803b15801561072f57600080fd5b505afa158015610743573d6000803e3d6000fd5b505050506040513d601f19601f8201168201806040525081019061076791906117dc565b90508460a001515160001480156107845750845163ffffffff1615155b806107ad575060008560a00151511180156107ad575084516107ab9063ffffffff16610b6f565b155b156107be5760029350505050610986565b8a8560c00151146107d55760019350505050610986565b891580156107ef57508685604001516001600160401b0316115b156108005760039350505050610986565b60008560a0015151118015610939575060008054906101000a90046001600160a01b03166001600160a01b031663df6197cc8d858f6001600160a01b0316634a19d91e868e6040518363ffffffff1660e01b8152600401610862929190611db6565b60206040518083038186803b15801561087a57600080fd5b505afa15801561088e573d6000803e3d6000fd5b505050506040513d601f19601f820116820180604052508101906108b291906117dc565b6040808b015160c08c01518c5160a08e015193516001600160e01b031960e08a901b1681526108e79796959490600401611e1a565b60206040518083038186803b1580156108ff57600080fd5b505afa158015610913573d6000803e3d6000fd5b505050506040513d601f19601f820116820180604052508101906109379190611825565b155b1561094a5760049350505050610986565b845163ffffffff161580159061096d575061096b8c828760c001518b610e70565b155b1561097e5760069350505050610986565b600093505050505b98975050505050505050565b600087156109a257506000610986565b6000838511156109bd576109b68486612257565b90506109ca565b6109c78585612257565b90505b604051632c9f4b5b60e11b81526000906001600160a01b038c169063593e96b690610a079060008051602061232283398151915290600401611dda565b60206040518083038186803b158015610a1f57600080fd5b505afa158015610a33573d6000803e3d6000fd5b505050506040513d601f19601f82011682018060405250810190610a5791906117dc565b6001600160a01b031663faaf38b361babe620ff1ce8c6040518463ffffffff1660e01b8152600401610a8b93929190611d92565b60206040518083038186803b158015610aa357600080fd5b505afa158015610ab7573d6000803e3d6000fd5b505050506040513d601f19601f82011682018060405250810190610adb9190611841565b9050600085610aea8884612257565b610af49190612257565b905080831115610b0a5760019350505050610986565b84610b15898b612200565b11159c9b505050505050505050505050565b7f2324ddf5530d2241228494f4f2da5f930e5133943b8dd5669a10fe763085bf8c81565b7f7781b80638de1bad375fa02f17b809bb0037ecfaca3f762ca34d55e5b296873281565b60008082118015610b8a5750610b8760026001612200565b82105b90505b919050565b600089610ba157506000610c4f565b8815610baf57506003610c4f565b8715610bbd57506004610c4f565b8615610bcb57506004610c4f565b610bd5838b612200565b421015610be457506004610c4f565b85158015610c05575082610bf8838c612200565b610c029190612200565b42105b15610c1257506005610c4f565b610c1c8287612200565b421015610c2b57506005610c4f565b83851115610c3b57506002610c4f565b83851015610c4b57506003610c4f565b5060015b9998505050505050505050565b6000806000610c6b85856111e3565b90925090506000816004811115610c9257634e487b7160e01b600052602160045260246000fd5b148015610cb05750856001600160a01b0316826001600160a01b0316145b15610cc0576001925050506102f0565b600080876001600160a01b0316631626ba7e60e01b8888604051602401610ce8929190611de3565b60408051601f198184030181529181526020820180516001600160e01b03166001600160e01b0319909416939093179092529051610d269190611d00565b600060405180830381855afa9150503d8060008114610d61576040519150601f19603f3d011682016040523d82523d6000602084013e610d66565b606091505b5091509150818015610d79575080516020145b801561098657508051630b135d3f60e11b90610d9e9083016020908101908401611859565b6001600160e01b0319161498975050505050505050565b600081815b8551811015610e65576000868281518110610de557634e487b7160e01b600052603260045260246000fd5b60200260200101519050808311610e26578281604051602001610e09929190611cf2565b604051602081830303815290604052805190602001209250610e52565b8083604051602001610e39929190611cf2565b6040516020818303038152906040528051906020012092505b5080610e5d8161229e565b915050610dba565b509092149392505050565b600080856001600160a01b03166332ed5b12856040518263ffffffff1660e01b8152600401610e9f9190611dda565b604080518083038186803b158015610eb657600080fd5b505afa158015610eca573d6000803e3d6000fd5b505050506040513d601f19601f82011682018060405250810190610eee91906117f8565b5090506000866001600160a01b031663fd310d296040518060400160405280601081526020016f33b7bb32b93730b731b2973937b6329760811b81525084604051602001610f3d929190611d1c565b604051602081830303815290604052805190602001206040518263ffffffff1660e01b8152600401610f6f9190611dda565b60206040518083038186803b158015610f8757600080fd5b505afa158015610f9b573d6000803e3d6000fd5b505050506040513d601f19601f82011682018060405250810190610fbf91906117dc565b9050610fca81611253565b15610fe457610fdb87828887611261565b925050506111db565b866001600160a01b031663fd310d296040518060400160405280601081526020016f33b7bb32b93730b731b2973937b6329760811b81525060405160200161102c9190611d53565b604051602081830303815290604052805190602001206040518263ffffffff1660e01b815260040161105e9190611dda565b60206040518083038186803b15801561107657600080fd5b505afa15801561108a573d6000803e3d6000fd5b505050506040513d601f19601f820116820180604052508101906110ae91906117dc565b90506110b981611253565b156110ca57610fdb87828887611261565b604051632c9f4b5b60e11b81526001600160a01b0388169063593e96b6906111049060008051602061232283398151915290600401611dda565b60206040518083038186803b15801561111c57600080fd5b505afa158015611130573d6000803e3d6000fd5b505050506040513d601f19601f8201168201806040525081019061115491906117dc565b6001600160a01b031663faaf38b387620ff1ce876040518463ffffffff1660e01b815260040161118693929190611d92565b60206040518083038186803b15801561119e57600080fd5b505afa1580156111b2573d6000803e3d6000fd5b505050506040513d601f19601f820116820180604052508101906111d69190611841565b925050505b949350505050565b60008082516041141561121a5760208301516040840151606085015160001a61120e87828585611495565b9450945050505061124c565b8251604014156112445760208301516040840151611239868383611575565b93509350505061124c565b506000905060025b9250929050565b6001600160a01b0316151590565b600080856001600160a01b031663593e96b66000805160206123228339815191526040518263ffffffff1660e01b815260040161129e9190611dda565b60206040518083038186803b1580156112b657600080fd5b505afa1580156112ca573d6000803e3d6000fd5b505050506040513d601f19601f820116820180604052508101906112ee91906117dc565b604051630a51990b60e11b81529091506001600160a01b038216906314a332169061131d908890600401611d7e565b60206040518083038186803b15801561133557600080fd5b505afa158015611349573d6000803e3d6000fd5b505050506040513d601f19601f8201168201806040525081019061136d9190611825565b156113fa5760405163faaf38b360e01b81526001600160a01b0382169063faaf38b3906113a290879089908890600401611d92565b60206040518083038186803b1580156113ba57600080fd5b505afa1580156113ce573d6000803e3d6000fd5b505050506040513d601f19601f820116820180604052508101906113f29190611841565b9150506111db565b604051630435f48b60e01b81526001600160a01b03861690630435f48b906114289087908790600401611db6565b60206040518083038186803b15801561144057600080fd5b505afa925050508015611470575060408051601f3d908101601f1916820190925261146d91810190611841565b60015b61148c5760405162461bcd60e51b81526004016102e79061210b565b91506111db9050565b6000807f7fffffffffffffffffffffffffffffff5d576e7357a4501ddfe92f46681b20a08311156114cc575060009050600361156c565b8460ff16601b141580156114e457508460ff16601c14155b156114f5575060009050600461156c565b60006001878787876040516000815260200160405260405161151a9493929190611dfc565b6020604051602081039080840390855afa15801561153c573d6000803e3d6000fd5b5050604051601f1901519150506001600160a01b0381166115655760006001925092505061156c565b9150600090505b94509492505050565b6000806001600160ff1b03831660ff84901c601b0161159687828885611495565b935093505050935093915050565b8051610b8d816122fb565b600082601f8301126115bf578081fd5b813560206115d46115cf836121b6565b61218d565b82815281810190858301838502870184018810156115f0578586fd5b855b8581101561160e578135845292840192908401906001016115f2565b5090979650505050505050565b600082601f83011261162b578081fd5b8151602061163b6115cf836121b6565b82815281810190858301855b8581101561160e5761165e898684518b01016116bc565b84529284019290840190600101611647565b600082601f830112611680578081fd5b813561168e6115cf826121d9565b8181528460208386010111156116a2578283fd5b816020850160208301379081016020019190915292915050565b600082601f8301126116cc578081fd5b81516116da6115cf826121d9565b8181528460208386010111156116ee578283fd5b6111db82602083016020870161226e565b600060c08284031215611710578081fd5b61171a60c061218d565b9050815181526020820151602082015260408201516001600160401b038082111561174457600080fd5b6117508583860161161b565b6040840152606084015160608401526080840151608084015260a084015191508082111561177d57600080fd5b5061178a848285016116bc565b60a08301525092915050565b803563ffffffff81168114610b8d57600080fd5b80356001600160401b0381168114610b8d57600080fd5b80356affffffffffffffffffffff81168114610b8d57600080fd5b6000602082840312156117ed578081fd5b81516102f0816122fb565b6000806040838503121561180a578081fd5b8251611815816122fb565b6020939093015192949293505050565b600060208284031215611836578081fd5b81516102f081612313565b600060208284031215611852578081fd5b5051919050565b60006020828403121561186a578081fd5b81516001600160e01b0319811681146102f0578182fd5b600080600080600060a08688031215611898578081fd5b85356118a3816122fb565b945060208601356118b3816122fb565b935060408601356001600160401b038111156118cd578182fd5b6118d988828901611670565b93505060608601356118ea816122fb565b915060808601356118fa816122fb565b809150509295509295909350565b600080600080600080600080610100898b031215611924578586fd5b883561192f816122fb565b9750602089013561193f81612313565b979a9799505050506040860135956060810135956080820135955060a0820135945060c0820135935060e0909101359150565b600080600080600080600080610100808a8c03121561198f578283fd5b893561199a816122fb565b985060208a0135975060408a01356119b181612313565b965060608a0135955060808a0135945060a08a0135935060c08a0135925060e08a01356001600160401b03808211156119e8578384fd5b818c01915082828e0312156119fb578384fd5b611a048361218d565b9250611a0f82611796565b8352611a1d602083016117aa565b6020840152611a2e604083016117aa565b6040840152611a3f606083016117c1565b6060840152611a50608083016117c1565b608084015260a082013581811115611a66578485fd5b611a728e828501611670565b60a08501525060c082013560c084015260e082013581811115611a93578485fd5b611a9f8e8285016115af565b60e0850152505050809150509295985092959890939650565b60008060408385031215611aca578182fd5b8235611ad5816122fb565b946020939093013593505050565b600080600060608486031215611af7578081fd5b8335611b02816122fb565b95602085013595506040909401359392505050565b600060208284031215611b28578081fd5b81516001600160401b0380821115611b3e578283fd5b9083019060a08286031215611b51578283fd5b60405160a081018181108382111715611b6c57611b6c6122e5565b80604052508251815260208301516020820152611b8b604084016115a4565b6040820152606083015182811115611ba1578485fd5b611bad878286016116ff565b606083015250608083015182811115611bc4578485fd5b611bd0878286016116bc565b60808301525095945050505050565b600060208284031215611bf0578081fd5b5035919050565b60008060008060008060008060006101208a8c031215611c15578283fd5b8935985060208a0135611c2781612313565b975060408a0135611c3781612313565b989b979a5097986060810135985060808101359760a0820135975060c0820135965060e08201359550610100909101359350915050565b6000815180845260208085019450808401835b83811015611c9d57815187529582019590820190600101611c81565b509495945050505050565b60008151808452611cc081602086016020860161226e565b601f01601f19169290920160200192915050565b6001600160401b03169052565b6affffffffffffffffffffff169052565b918252602082015260400190565b60008251611d1281846020870161226e565b9190910192915050565b60008351611d2e81846020880161226e565b60609390931b6bffffffffffffffffffffffff19169190920190815260140192915050565b60008251611d6581846020870161226e565b66191959985d5b1d60ca1b920191825250600701919050565b6001600160a01b0391909116815260200190565b6001600160a01b039384168152919092166020820152604081019190915260600190565b6001600160a01b03929092168252602082015260400190565b901515815260200190565b90815260200190565b6000838252604060208301526111db6040830184611ca8565b93845260ff9290921660208401526040830152606082015260800190565b6001600160a01b0388811682528781166020830152861660408201526001600160401b03851660608201526080810184905263ffffffff831660a082015260e060c08201819052600090610c4f90830184611ca8565b600060018060a01b03808616835260208186168185015260606040850152845160608501528085015160808501528160408601511660a08501526060850151915060a060c08501526101c08401825161010086015281830151610120860152604083015160c06101408701528181518084526101e0935083880191508385820289010193508483019250865b81811015611f2b576101df19898603018352611f19858551611ca8565b94509285019291850191600101611efc565b505050506060830151610160860152608083015161018086015260a09092015184830360ff19016101a086015291611f638184611ca8565b925050506080840151605f198483030160e08501526111d68282611ca8565b600060018060a01b0380861683528085166020840152506060604083015263ffffffff83511660608301526020830151611fbf6080840182611cd4565b506040830151611fd260a0840182611cd4565b506060830151611fe560c0840182611ce1565b506080830151611ff860e0840182611ce1565b5060a083015161010083810152612013610160840182611ca8565b905060c084015161012084015260e0840151605f19848303016101408501526111d68282611c6e565b6020810160078310612050576120506122cf565b91905290565b6020810160068310612050576120506122cf565b6020808252600990820152681c1c9bdbd98e98985960ba1b604082015260600190565b6020808252600b908201526a696e76616c69642073696760a81b604082015260600190565b60208082526018908201527f6e6f20726573756c7420617661696c61626c6520796574210000000000000000604082015260600190565b602080825260089082015267626164206e6f646560c01b604082015260600190565b6020808252601e908201527f6765745072696f72416d6f756e74206e6f7420696d706c656d656e7465640000604082015260600190565b6020808252601b908201527f696e6465783a6d656d6265725f636f756e74206d69736d617463680000000000604082015260600190565b6001600160401b0391909116815260200190565b6040518181016001600160401b03811182821017156121ae576121ae6122e5565b604052919050565b60006001600160401b038211156121cf576121cf6122e5565b5060209081020190565b60006001600160401b038211156121f2576121f26122e5565b50601f01601f191660200190565b60008219821115612213576122136122b9565b500190565b60008261223357634e487b7160e01b81526012600452602481fd5b500490565b6000816000190483118215151615612252576122526122b9565b500290565b600082821015612269576122696122b9565b500390565b60005b83811015612289578181015183820152602001612271565b83811115612298576000848401525b50505050565b60006000198214156122b2576122b26122b9565b5060010190565b634e487b7160e01b600052601160045260246000fd5b634e487b7160e01b600052602160045260246000fd5b634e487b7160e01b600052604160045260246000fd5b6001600160a01b038116811461231057600080fd5b50565b801515811461231057600080fdfeea0ca03c7adbe41dc655fec28a9209dc8e6e042f3d991a67765ba285b9cf73a0a2646970667358221220e0733ac0f43f95ce79a37a62c4f62a0a6194db33912bd259bf6e5185b8c7aaf664736f6c63430008000033",
  "linkReferences": {},
  "deployedLinkReferences": {}
}