{
  "_format": "hh-sol-artifact-1",
  "contractName": "DistributeContract",
  "sourceName": "build/contracts/adapters/Distribute.sol",
  "abi": [
    {
      "anonymous": false,
      "inputs": [
        {
          "indexed": false,
          "internalType": "address",
          "name": "daoAddress",
          "type": "address"
        },
        {
          "indexed": false,
          "internalType": "address",
          "name": "token",
          "type": "address"
        },
        {
          "indexed": false,
          "internalType": "uint256",
          "name": "amount",
          "type": "uint256"
        },
        {
          "indexed": false,
          "internalType": "address",
          "name": "unitHolder",
          "type": "address"
        }
      ],
      "name": "Distributed",
      "type": "event"
    },
    {
      "inputs": [
        {
          "internalType": "contract DaoRegistry",
          "name": "dao",
          "type": "address"
        },
        {
          "internalType": "uint256",
          "name": "toIndex",
          "type": "uint256"
        }
      ],
      "name": "distribute",
      "outputs": [],
      "stateMutability": "nonpayable",
      "type": "function"
    },
    {
      "inputs": [
        {
          "internalType": "address",
          "name": "",
          "type": "address"
        },
        {
          "internalType": "bytes32",
          "name": "",
          "type": "bytes32"
        }
      ],
      "name": "distributions",
      "outputs": [
        {
          "internalType": "address",
          "name": "token",
          "type": "address"
        },
        {
          "internalType": "uint256",
          "name": "amount",
          "type": "uint256"
        },
        {
          "internalType": "address",
          "name": "unitHolderAddr",
          "type": "address"
        },
        {
          "internalType": "enum DistributeContract.DistributionStatus",
          "name": "status",
          "type": "uint8"
        },
        {
          "internalType": "uint256",
          "name": "currentIndex",
          "type": "uint256"
        },
        {
          "internalType": "uint256",
          "name": "blockNumber",
          "type": "uint256"
        }
      ],
      "stateMutability": "view",
      "type": "function"
    },
    {
      "inputs": [
        {
          "internalType": "address",
          "name": "",
          "type": "address"
        }
      ],
      "name": "ongoingDistributions",
      "outputs": [
        {
          "internalType": "bytes32",
          "name": "",
          "type": "bytes32"
        }
      ],
      "stateMutability": "view",
      "type": "function"
    },
    {
      "inputs": [
        {
          "internalType": "contract DaoRegistry",
          "name": "dao",
          "type": "address"
        },
        {
          "internalType": "bytes32",
          "name": "proposalId",
          "type": "bytes32"
        }
      ],
      "name": "processProposal",
      "outputs": [],
      "stateMutability": "nonpayable",
      "type": "function"
    },
    {
      "inputs": [
        {
          "internalType": "contract DaoRegistry",
          "name": "dao",
          "type": "address"
        },
        {
          "internalType": "bytes32",
          "name": "proposalId",
          "type": "bytes32"
        },
        {
          "internalType": "address",
          "name": "unitHolderAddr",
          "type": "address"
        },
        {
          "internalType": "address",
          "name": "token",
          "type": "address"
        },
        {
          "internalType": "uint256",
          "name": "amount",
          "type": "uint256"
        },
        {
          "internalType": "bytes",
          "name": "data",
          "type": "bytes"
        }
      ],
      "name": "submitProposal",
      "outputs": [],
      "stateMutability": "nonpayable",
      "type": "function"
    }
  ],
  "bytecode": "0x608060405234801561001057600080fd5b50611e35806100206000396000f3fe608060405234801561001057600080fd5b50600436106100575760003560e01c80630fcb03d61461005c5780631e6f7672146100855780634e83cbce1461009a5780639573167d146100bf578063fb932108146100d2575b600080fd5b61006f61006a3660046116de565b6100e5565b60405161007c9190611989565b60405180910390f35b610098610093366004611798565b6100f7565b005b6100ad6100a8366004611716565b6106db565b60405161007c9695949392919061192f565b6100986100cd366004611786565b610729565b6100986100e0366004611786565b610bc5565b60016020526000908152604090205481565b86600061010382610ea9565b90506000896001600160a01b03166317ba7d857f0e49311626a26ba5be58a3b13d239908e80ce0dffdd5c50bf1d9c82ff35d1ab36040518263ffffffff1660e01b81526004016101539190611989565b60206040518083038186803b15801561016b57600080fd5b505afa15801561017f573d6000803e3d6000fd5b505050506040513d601f19601f820116820180604052508101906101a391906116fa565b90506000816001600160a01b031663966917d08c308989336040518663ffffffff1660e01b81526004016101db959493929190611a0d565b602060405180830381600087803b1580156101f557600080fd5b505af1158015610209573d6000803e3d6000fd5b505050506040513d601f19601f8201168201806040525081019061022d91906116fa565b9050600087116102585760405162461bcd60e51b815260040161024f90611b96565b60405180910390fd5b60405163b73dc38960e01b81526001600160a01b038c169063b73dc38990610284908d90600401611989565b600060405180830381600087803b15801561029e57600080fd5b505af11580156102b2573d6000803e3d6000fd5b5050604051632c9f4b5b60e11b8152600092506001600160a01b038e16915063593e96b690610305907fea0ca03c7adbe41dc655fec28a9209dc8e6e042f3d991a67765ba285b9cf73a090600401611989565b60206040518083038186803b15801561031d57600080fd5b505afa158015610331573d6000803e3d6000fd5b505050506040513d601f19601f8201168201806040525081019061035591906116fa565b60405163f9eaee0d60e01b81529091506001600160a01b0382169063f9eaee0d90610384908c906004016118b2565b60206040518083038186803b15801561039c57600080fd5b505afa1580156103b0573d6000803e3d6000fd5b505050506040513d601f19601f820116820180604052508101906103d49190611741565b6103f05760405162461bcd60e51b815260040161024f90611b6b565b6001600160a01b038a16156104b057604051633de222bb60e21b81526000906001600160a01b0383169063f7888aec90610433908e90620ff1ce906004016118c6565b60206040518083038186803b15801561044b57600080fd5b505afa15801561045f573d6000803e3d6000fd5b505050506040513d601f19601f8201168201806040525081019061048391906116fa565b6001600160a01b03169050600081116104ae5760405162461bcd60e51b815260040161024f90611b41565b505b6040518060c001604052808a6001600160a01b031681526020018981526020018b6001600160a01b031681526020016000600381111561050057634e487b7160e01b600052602160045260246000fd5b815260200160008152602001438152506000808e6001600160a01b03166001600160a01b0316815260200190815260200160002060008d815260200190815260200160002060008201518160000160006101000a8154816001600160a01b0302191690836001600160a01b031602179055506020820151816001015560408201518160020160006101000a8154816001600160a01b0302191690836001600160a01b0316021790555060608201518160020160146101000a81548160ff021916908360038111156105e157634e487b7160e01b600052602160045260246000fd5b02179055506080820151816003015560a08201518160040155905050826001600160a01b0316632b0974d08d8d8a8a6040518563ffffffff1660e01b815260040161062f9493929190611a66565b600060405180830381600087803b15801561064957600080fd5b505af115801561065d573d6000803e3d6000fd5b50506040516344b574dd60e11b81526001600160a01b038f16925063896ae9ba9150610691908e9086908890600401611992565b600060405180830381600087803b1580156106ab57600080fd5b505af11580156106bf573d6000803e3d6000fd5b505050505050506106d082826110fa565b505050505050505050565b6000602081815292815260408082209093529081522080546001820154600283015460038401546004909401546001600160a01b03938416949293821692600160a01b90920460ff16919086565b81600061073582610ea9565b6040516330490e9160e01b81529091506001600160a01b038516906330490e9190610764908690600401611989565b600060405180830381600087803b15801561077e57600080fd5b505af1158015610792573d6000803e3d6000fd5b5050506001600160a01b038516600090815260208181526040808320878452909152812091506002820154600160a01b900460ff1660038111156107e657634e487b7160e01b600052602160045260246000fd5b146108035760405162461bcd60e51b815260040161024f90611af8565b6001600160a01b038516600090815260016020526040902054801580610877575060016001600160a01b038716600090815260208181526040808320858452909152902060020154600160a01b900460ff16600381111561087457634e487b7160e01b600052602160045260246000fd5b14155b6108935760405162461bcd60e51b815260040161024f90611bff565b60405163206f381f60e11b81526000906001600160a01b038816906340de703e906108c2908990600401611989565b60206040518083038186803b1580156108da57600080fd5b505afa1580156108ee573d6000803e3d6000fd5b505050506040513d601f19601f8201168201806040525081019061091291906116fa565b90506001600160a01b03811661093a5760405162461bcd60e51b815260040161024f90611d1d565b6040516376225e7360e01b81526000906001600160a01b038316906376225e739061096b908b908b90600401611a4d565b602060405180830381600087803b15801561098557600080fd5b505af1158015610999573d6000803e3d6000fd5b505050506040513d601f19601f820116820180604052508101906109bd9190611851565b905060028160058111156109e157634e487b7160e01b600052602160045260246000fd5b1415610b2d5760028401805460ff60a01b1916600160a01b179055436004808601919091556001600160a01b0389166000818152600160205260408082208b905551632c9f4b5b60e11b8152909263593e96b691610a61917fea0ca03c7adbe41dc655fec28a9209dc8e6e042f3d991a67765ba285b9cf73a09101611989565b60206040518083038186803b158015610a7957600080fd5b505afa158015610a8d573d6000803e3d6000fd5b505050506040513d601f19601f82011682018060405250810190610ab191906116fa565b8554600187015460405163413c1be360e11b81529293506001600160a01b038085169363827837c693610af5938f9361dead93614bec9390911691906004016119da565b600060405180830381600087803b158015610b0f57600080fd5b505af1158015610b23573d6000803e3d6000fd5b5050505050610bb1565b6003816005811115610b4f57634e487b7160e01b600052602160045260246000fd5b1480610b7a57506001816005811115610b7857634e487b7160e01b600052602160045260246000fd5b145b15610b995760028401805460ff60a01b1916600360a01b179055610bb1565b60405162461bcd60e51b815260040161024f90611ce6565b50505050610bbf82826110fa565b50505050565b816000610bd182610ea9565b6001600160a01b03851660009081526001602081815260408084205484835281852081865290925290922060048101549394509192906002830154600160a01b900460ff166003811115610c3557634e487b7160e01b600052602160045260246000fd5b14610c525760405162461bcd60e51b815260040161024f90611a98565b600382015486811115610c775760405162461bcd60e51b815260040161024f90611acf565b82546001840154604051632c9f4b5b60e11b81526001600160a01b0392831692600091908c169063593e96b690610cd2907fea0ca03c7adbe41dc655fec28a9209dc8e6e042f3d991a67765ba285b9cf73a090600401611989565b60206040518083038186803b158015610cea57600080fd5b505afa158015610cfe573d6000803e3d6000fd5b505050506040513d601f19601f82011682018060405250810190610d2291906116fa565b60028701549091506001600160a01b03168015610d9e5760028701805460ff60a01b1916600160a11b179055610d5c8c8383898888611109565b7fb5b51454adfa840bd593658325a60a50b0216f12eb5d2937efe6cea935675b7d8c858584604051610d919493929190611904565b60405180910390a1610e97565b60008c6001600160a01b031663c67143666040518163ffffffff1660e01b815260040160206040518083038186803b158015610dd957600080fd5b505afa158015610ded573d6000803e3d6000fd5b505050506040513d601f19601f82011682018060405250810190610e119190611870565b90508b81811115610e1f5750805b6003890181905581811415610e85576002898101805460ff60a01b1916600160a01b8302179055507fb5b51454adfa840bd593658325a60a50b0216f12eb5d2937efe6cea935675b7d8e878786604051610e7c9493929190611904565b60405180910390a15b610e948e8589848c8b8b6111a9565b50505b5050505050505050610bbf82826110fa565b610eb1611696565b5a81600001818152505043826001600160a01b031663b21634826040518163ffffffff1660e01b815260040160206040518083038186803b158015610ef557600080fd5b505afa158015610f09573d6000803e3d6000fd5b505050506040513d601f19601f82011682018060405250810190610f2d9190611870565b1415610f4b5760405162461bcd60e51b815260040161024f90611c43565b816001600160a01b03166310fdb0a26040518163ffffffff1660e01b8152600401600060405180830381600087803b158015610f8657600080fd5b505af1158015610f9a573d6000803e3d6000fd5b50506040516372c6838f60e01b8152600092506001600160a01b03851691506372c6838f90610fed907f1f2fd42ad6a6cacd573c4b212beb7a4e2499ad45d742a65337097f130e71daff90600401611989565b60206040518083038186803b15801561100557600080fd5b505afa158015611019573d6000803e3d6000fd5b505050506040513d601f19601f8201168201806040525081019061103d91906116fa565b90506001600160a01b03811661105957600060208301526110f4565b6001600160a01b0381166060830181905282516040516343a8a3f160e01b8152600092839290916343a8a3f19161109591899190600401611a4d565b604080518083038186803b1580156110ac57600080fd5b505afa1580156110c0573d6000803e3d6000fd5b505050506040513d601f19601f820116820180604052508101906110e4919061175b565b9015156020860152604085015250505b50919050565b6111058282336112ec565b5050565b60006111168686866113c7565b9050600081116111385760405162461bcd60e51b815260040161024f90611c6d565b60405163413c1be360e11b81526001600160a01b0387169063827837c69061116e908a90614bec908a90899089906004016119da565b600060405180830381600087803b15801561118857600080fd5b505af115801561119c573d6000803e3d6000fd5b5050505050505050505050565b60006111b58785611601565b9050855b858110156106d057604051634814a22560e11b81526000906001600160a01b038b1690639029444a906111f0908590600401611989565b60206040518083038186803b15801561120857600080fd5b505afa15801561121c573d6000803e3d6000fd5b505050506040513d601f19601f8201168201806040525081019061124091906116fa565b9050600061124f8a83896113c7565b905080156112d7576000611264868387611627565b905080156112d55760405163413c1be360e11b81526001600160a01b038c169063827837c6906112a2908f90614bec9088908d9088906004016119da565b600060405180830381600087803b1580156112bc57600080fd5b505af11580156112d0573d6000803e3d6000fd5b505050505b505b505080806112e490611db6565b9150506111b9565b81602001511561136f5781606001516001600160a01b0316635e5eb01384835a86516113189190611d9f565b86604001516040518563ffffffff1660e01b815260040161133c94939291906119b1565b600060405180830381600087803b15801561135657600080fd5b505af115801561136a573d6000803e3d6000fd5b505050505b826001600160a01b031663d4f7af436040518163ffffffff1660e01b8152600401600060405180830381600087803b1580156113aa57600080fd5b505af11580156113be573d6000803e3d6000fd5b50505050505050565b60405163faaf38b360e01b81526000906001600160a01b0385169063faaf38b3906113ff908690640bb105f00d9087906004016118e0565b60206040518083038186803b15801561141757600080fd5b505afa15801561142b573d6000803e3d6000fd5b505050506040513d601f19601f8201168201806040525081019061144f9190611870565b60405163faaf38b360e01b81526001600160a01b0386169063faaf38b39061148390879063b105f00d9088906004016118e0565b60206040518083038186803b15801561149b57600080fd5b505afa1580156114af573d6000803e3d6000fd5b505050506040513d601f19601f820116820180604052508101906114d39190611870565b60405163faaf38b360e01b81526001600160a01b0387169063faaf38b39061150690889062fff1ce9089906004016118e0565b60206040518083038186803b15801561151e57600080fd5b505afa158015611532573d6000803e3d6000fd5b505050506040513d601f19601f820116820180604052508101906115569190611870565b60405163faaf38b360e01b81526001600160a01b0388169063faaf38b390611589908990620ff1ce908a906004016118e0565b60206040518083038186803b1580156115a157600080fd5b505afa1580156115b5573d6000803e3d6000fd5b505050506040513d601f19601f820116820180604052508101906115d99190611870565b6115e39190611d48565b6115ed9190611d48565b6115f79190611d48565b90505b9392505050565b60006116108361dead846113c7565b61161d8461babe856113c7565b6115fa9190611d9f565b60008082116116485760405162461bcd60e51b815260040161024f90611bbe565b818311156116685760405162461bcd60e51b815260040161024f90611c98565b83611675575060006115fa565b60006116818486611d80565b905061168d8382611d60565b95945050505050565b6040518060800160405280600081526020016000151581526020016000815260200160006001600160a01b031681525090565b805180151581146116d957600080fd5b919050565b6000602082840312156116ef578081fd5b81356115fa81611de7565b60006020828403121561170b578081fd5b81516115fa81611de7565b60008060408385031215611728578081fd5b823561173381611de7565b946020939093013593505050565b600060208284031215611752578081fd5b6115fa826116c9565b6000806040838503121561176d578182fd5b611776836116c9565b9150602083015190509250929050565b60008060408385031215611728578182fd5b600080600080600080600060c0888a0312156117b2578283fd5b87356117bd81611de7565b96506020880135955060408801356117d481611de7565b945060608801356117e481611de7565b93506080880135925060a088013567ffffffffffffffff80821115611807578384fd5b818a0191508a601f83011261181a578384fd5b813581811115611828578485fd5b8b6020828501011115611839578485fd5b60208301945080935050505092959891949750929550565b600060208284031215611862578081fd5b8151600681106115fa578182fd5b600060208284031215611881578081fd5b5051919050565b60008284528282602086013780602084860101526020601f19601f85011685010190509392505050565b6001600160a01b0391909116815260200190565b6001600160a01b0392831681529116602082015260400190565b6001600160a01b039384168152919092166020820152604081019190915260600190565b6001600160a01b03948516815292841660208401526040830191909152909116606082015260800190565b6001600160a01b038781168252602082018790528516604082015260c081016004851061196c57634e487b7160e01b600052602160045260246000fd5b8460608301528360808301528260a0830152979650505050505050565b90815260200190565b9283526001600160a01b03918216602084015216604082015260600190565b6001600160a01b0394851681529290931660208301526040820152606081019190915260800190565b6001600160a01b039586168152938516602085015291841660408401529092166060820152608081019190915260a00190565b600060018060a01b038088168352808716602084015260806040840152611a38608084018688611888565b91508084166060840152509695505050505050565b6001600160a01b03929092168252602082015260400190565b600060018060a01b038616825284602083015260606040830152611a8e606083018486611888565b9695505050505050565b6020808252601e908201527f6469737472696220636f6d706c65746564206f72206e6f742065786973740000604082015260600190565b6020808252600f908201526e746f496e64657820746f6f206c6f7760881b604082015260600190565b60208082526029908201527f70726f706f73616c20616c726561647920636f6d706c65746564206f7220696e6040820152682070726f677265737360b81b606082015260800190565b60208082526010908201526f6e6f7420656e6f75676820756e69747360801b604082015260600190565b6020808252601190820152701d1bdad95b881b9bdd08185b1b1bddd959607a1b604082015260600190565b6020808252600e908201526d1a5b9d985b1a5908185b5bdd5b9d60921b604082015260600190565b60208082526021908201527f746f74616c556e697473206d7573742062652067726561746572207468616e206040820152600360fc1b606082015260800190565b60208082526024908201527f616e6f746865722070726f706f73616c20616c726561647920696e2070726f676040820152637265737360e01b606082015260800190565b60208082526010908201526f1c99595b9d1c985b98de4819dd585c9960821b604082015260600190565b6020808252601190820152706e6f7420656e6f75676820746f6b656e7360781b604082015260600190565b6020808252602e908201527f756e697473206d757374206265206c657373207468616e206f7220657175616c60408201526d20746f20746f74616c556e69747360901b606082015260800190565b6020808252601e908201527f70726f706f73616c20686173206e6f74206265656e20766f746564206f6e0000604082015260600190565b6020808252601190820152701859185c1d195c881b9bdd08199bdd5b99607a1b604082015260600190565b60008219821115611d5b57611d5b611dd1565b500190565b600082611d7b57634e487b7160e01b81526012600452602481fd5b500490565b6000816000190483118215151615611d9a57611d9a611dd1565b500290565b600082821015611db157611db1611dd1565b500390565b6000600019821415611dca57611dca611dd1565b5060010190565b634e487b7160e01b600052601160045260246000fd5b6001600160a01b0381168114611dfc57600080fd5b5056fea264697066735822122050190766a1804a32d2bf8db152ae87a907fd6af92b6de9e075591f053378a9b664736f6c63430008000033",
  "linkReferences": {},
  "deployedLinkReferences": {}
}