{
  "_format": "hh-sol-artifact-1",
  "contractName": "BankFactory",
  "sourceName": "build/contracts/extensions/bank/BankFactory.sol",
  "abi": [
    {
      "inputs": [
        {
          "internalType": "address",
          "name": "_identityAddress",
          "type": "address"
        }
      ],
      "stateMutability": "nonpayable",
      "type": "constructor"
    },
    {
      "anonymous": false,
      "inputs": [
        {
          "indexed": false,
          "internalType": "address",
          "name": "daoAddress",
          "type": "address"
        },
        {
          "indexed": false,
          "internalType": "address",
          "name": "extensionAddress",
          "type": "address"
        }
      ],
      "name": "BankCreated",
      "type": "event"
    },
    {
      "inputs": [
        {
          "internalType": "address",
          "name": "dao",
          "type": "address"
        },
        {
          "internalType": "uint8",
          "name": "maxExternalTokens",
          "type": "uint8"
        }
      ],
      "name": "create",
      "outputs": [],
      "stateMutability": "nonpayable",
      "type": "function"
    },
    {
      "inputs": [
        {
          "internalType": "address",
          "name": "dao",
          "type": "address"
        }
      ],
      "name": "getExtensionAddress",
      "outputs": [
        {
          "internalType": "address",
          "name": "",
          "type": "address"
        }
      ],
      "stateMutability": "view",
      "type": "function"
    },
    {
      "inputs": [],
      "name": "identityAddress",
      "outputs": [
        {
          "internalType": "address",
          "name": "",
          "type": "address"
        }
      ],
      "stateMutability": "view",
      "type": "function"
    }
  ],
  "bytecode": "0x608060405234801561001057600080fd5b5060405161047738038061047783398101604081905261002f91610088565b60016000556001600160a01b0381166100635760405162461bcd60e51b815260040161005a906100b6565b60405180910390fd5b600180546001600160a01b0319166001600160a01b03929092169190911790556100dc565b600060208284031215610099578081fd5b81516001600160a01b03811681146100af578182fd5b9392505050565b6020808252600c908201526b34b73b30b634b21030b2323960a11b604082015260600190565b61038c806100eb6000396000f3fe608060405234801561001057600080fd5b50600436106100415760003560e01c80633146637e146100465780636697a4371461006f578063bf45767a14610084575b600080fd5b61005961005436600461025d565b61008c565b60405161006691906102b9565b60405180910390f35b61008261007d36600461027e565b6100ad565b005b6100596101e5565b6001600160a01b03808216600090815260026020526040902054165b919050565b600260005414156100d95760405162461bcd60e51b81526004016100d090610311565b60405180910390fd5b60026000556001600160a01b0382166101045760405162461bcd60e51b81526004016100d0906102e7565b60015460009061011c906001600160a01b03166101f4565b6001600160a01b038481166000908152600260205260409081902080546001600160a01b0319169284169283179055516311e0490f60e31b81529192508291638f0248789061016f908690600401610348565b600060405180830381600087803b15801561018957600080fd5b505af115801561019d573d6000803e3d6000fd5b505050507f7e5337f187d761895980242ae2148ec29fc88dbfb602b00846d90ae73f9edda784826040516101d29291906102cd565b60405180910390a1505060016000555050565b6001546001600160a01b031681565b6000808260601b9050604051733d602d80600a3d3981f3363d3d373d3d3d363d7360601b81528160148201526e5af43d82803e903d91602b57fd5bf360881b60288201526037816000f0949350505050565b80356001600160a01b03811681146100a857600080fd5b60006020828403121561026e578081fd5b61027782610246565b9392505050565b60008060408385031215610290578081fd5b61029983610246565b9150602083013560ff811681146102ae578182fd5b809150509250929050565b6001600160a01b0391909116815260200190565b6001600160a01b0392831681529116602082015260400190565b60208082526010908201526f34b73b30b634b2103230b79030b2323960811b604082015260600190565b6020808252601f908201527f5265656e7472616e637947756172643a207265656e7472616e742063616c6c00604082015260600190565b60ff9190911681526020019056fea26469706673582212209ca8637676bf5ce6c028d06b8cf885d48670c7727a8250d419ed89fb12910fe564736f6c63430008000033",
  "linkReferences": {},
  "deployedLinkReferences": {}
}