{
  "_format": "hh-sol-artifact-1",
  "contractName": "GovernanceHelper",
  "sourceName": "build/contracts/helpers/GovernanceHelper.sol",
  "abi": [
    {
      "inputs": [],
      "name": "DEFAULT_GOV_TOKEN_CFG",
      "outputs": [
        {
          "internalType": "bytes32",
          "name": "",
          "type": "bytes32"
        }
      ],
      "stateMutability": "view",
      "type": "function"
    },
    {
      "inputs": [],
      "name": "ROLE_PREFIX",
      "outputs": [
        {
          "internalType": "string",
          "name": "",
          "type": "string"
        }
      ],
      "stateMutability": "view",
      "type": "function"
    }
  ],
  "bytecode": "0x6101c361003a600b82828239805160001a60731461002d57634e487b7160e01b600052600060045260246000fd5b30600052607381538281f3fe73000000000000000000000000000000000000000030146080604052600436106100405760003560e01c80632a74e01f14610045578063ff91d7b914610063575b600080fd5b61004d610078565b60405161005a9190610121565b60405180910390f35b61006b6100ca565b60405161005a919061012a565b6040518060400160405280601081526020016f33b7bb32b93730b731b2973937b6329760811b8152506040516020016100b191906100f6565b6040516020818303038152906040528051906020012081565b6040518060400160405280601081526020016f33b7bb32b93730b731b2973937b6329760811b81525081565b6000825161010881846020870161015d565b66191959985d5b1d60ca1b920191825250600701919050565b90815260200190565b600060208252825180602084015261014981604085016020870161015d565b601f01601f19169190910160400192915050565b60005b83811015610178578181015183820152602001610160565b83811115610187576000848401525b5050505056fea264697066735822122036fde1a56aaefe44178a0fb1125fb3dddfd01584b665846d29b06663a2bca83c64736f6c63430008000033",
  "linkReferences": {},
  "deployedLinkReferences": {}
}