{
  "_format": "hh-sol-artifact-1",
  "contractName": "InternalTokenVestingExtension",
  "sourceName": "build/contracts/extensions/token/erc20/InternalTokenVestingExtension.sol",
  "abi": [
    {
      "inputs": [],
      "stateMutability": "nonpayable",
      "type": "constructor"
    },
    {
      "inputs": [
        {
          "internalType": "contract DaoRegistry",
          "name": "dao",
          "type": "address"
        },
        {
          "internalType": "address",
          "name": "member",
          "type": "address"
        },
        {
          "internalType": "address",
          "name": "internalToken",
          "type": "address"
        },
        {
          "internalType": "uint88",
          "name": "amount",
          "type": "uint88"
        },
        {
          "internalType": "uint64",
          "name": "endDate",
          "type": "uint64"
        }
      ],
      "name": "createNewVesting",
      "outputs": [],
      "stateMutability": "nonpayable",
      "type": "function"
    },
    {
      "inputs": [
        {
          "internalType": "address",
          "name": "member",
          "type": "address"
        },
        {
          "internalType": "address",
          "name": "internalToken",
          "type": "address"
        }
      ],
      "name": "getMinimumBalance",
      "outputs": [
        {
          "internalType": "uint88",
          "name": "",
          "type": "uint88"
        }
      ],
      "stateMutability": "view",
      "type": "function"
    },
    {
      "inputs": [
        {
          "internalType": "uint64",
          "name": "startDate",
          "type": "uint64"
        },
        {
          "internalType": "uint64",
          "name": "endDate",
          "type": "uint64"
        },
        {
          "internalType": "uint88",
          "name": "amount",
          "type": "uint88"
        }
      ],
      "name": "getMinimumBalanceInternal",
      "outputs": [
        {
          "internalType": "uint88",
          "name": "",
          "type": "uint88"
        }
      ],
      "stateMutability": "view",
      "type": "function"
    },
    {
      "inputs": [
        {
          "internalType": "contract DaoRegistry",
          "name": "dao",
          "type": "address"
        },
        {
          "internalType": "address",
          "name": "",
          "type": "address"
        }
      ],
      "name": "initialize",
      "outputs": [],
      "stateMutability": "nonpayable",
      "type": "function"
    },
    {
      "inputs": [
        {
          "internalType": "contract DaoRegistry",
          "name": "dao",
          "type": "address"
        },
        {
          "internalType": "address",
          "name": "member",
          "type": "address"
        },
        {
          "internalType": "address",
          "name": "internalToken",
          "type": "address"
        },
        {
          "internalType": "uint88",
          "name": "amountToRemove",
          "type": "uint88"
        }
      ],
      "name": "removeVesting",
      "outputs": [],
      "stateMutability": "nonpayable",
      "type": "function"
    },
    {
      "inputs": [
        {
          "internalType": "address",
          "name": "",
          "type": "address"
        },
        {
          "internalType": "address",
          "name": "",
          "type": "address"
        }
      ],
      "name": "vesting",
      "outputs": [
        {
          "internalType": "uint64",
          "name": "startDate",
          "type": "uint64"
        },
        {
          "internalType": "uint64",
          "name": "endDate",
          "type": "uint64"
        },
        {
          "internalType": "uint88",
          "name": "blockedAmount",
          "type": "uint88"
        }
      ],
      "stateMutability": "view",
      "type": "function"
    }
  ],
  "bytecode": "0x608060405234801561001057600080fd5b50610c8a806100206000396000f3fe608060405234801561001057600080fd5b50600436106100625760003560e01c80630dc00e5a14610067578063485cc955146100925780638364b2b6146100a75780638a0bbef4146100ba578063b6fe87f2146100da578063e175dd55146100ed575b600080fd5b61007a6100753660046108a5565b610100565b60405161008993929190610b16565b60405180910390f35b6100a56100a03660046108a5565b610144565b005b6100a56100b5366004610956565b6101a3565b6100cd6100c83660046109f7565b6103c8565b6040516100899190610b42565b6100a56100e83660046108fd565b610443565b6100cd6100fb3660046108a5565b6105fd565b60016020908152600092835260408084209091529082529020546001600160401b0380821691600160401b810490911690600160801b90046001600160581b031683565b60005460ff16156101705760405162461bcd60e51b815260040161016790610a73565b60405180910390fd5b50600080546001600160a01b0390921661010002610100600160a81b031960ff1990931660011792909216919091179055565b600080548691906001600160a01b038084166101009092041614801561028a57506000546101de9061010090046001600160a01b031661065e565b8061028a575060005461010090046001600160a01b0316636cfdc32e333084600181111561021c57634e487b7160e01b600052602160045260246000fd5b6040518463ffffffff1660e01b815260040161023a93929190610a4d565b60206040518083038186803b15801561025257600080fd5b505afa158015610266573d6000803e3d6000fd5b505050506040513d601f19601f8201168201806040525081019061028a91906108dd565b6102a65760405162461bcd60e51b815260040161016790610aaa565b42836001600160401b0316116102ce5760405162461bcd60e51b815260040161016790610ae1565b6001600160a01b0386811660009081526001602090815260408083209389168352929052908120805490919061032a906001600160401b0380821691600160401b810490911690600160801b90046001600160581b03166103c8565b825467ffffffffffffffff1916426001600160401b0390811691909117808555919250600160401b909104811690861611156103895781546fffffffffffffffff00000000000000001916600160401b6001600160401b038716021782555b6103938682610b56565b82546001600160581b0391909116600160801b026affffffffffffffffffffff60801b19909116179091555050505050505050565b6000826001600160401b03164211156103e35750600061043c565b60006103ef8585610be2565b6001600160401b031690506000856001600160401b0316426104119190610c0a565b90506000826104208387610bb3565b61042a9190610b81565b90506104368186610c0a565b93505050505b9392505050565b60005484906001906001600160a01b038084166101009092041614801561052b575060005461047f9061010090046001600160a01b031661065e565b8061052b575060005461010090046001600160a01b0316636cfdc32e33308460018111156104bd57634e487b7160e01b600052602160045260246000fd5b6040518463ffffffff1660e01b81526004016104db93929190610a4d565b60206040518083038186803b1580156104f357600080fd5b505afa158015610507573d6000803e3d6000fd5b505050506040513d601f19601f8201168201806040525081019061052b91906108dd565b6105475760405162461bcd60e51b815260040161016790610aaa565b6001600160a01b038581166000908152600160209081526040808320938816835292905290812080549091906105a3906001600160401b0380821691600160401b810490911690600160801b90046001600160581b03166103c8565b825467ffffffffffffffff1916426001600160401b031617835590506105c98582610c0a565b82546001600160581b0391909116600160801b026affffffffffffffffffffff60801b199091161790915550505050505050565b6001600160a01b03828116600090815260016020908152604080832093851683529290529081208054610656906001600160401b0380821691600160401b810490911690600160801b90046001600160581b03166103c8565b949350505050565b600080826001600160a01b031663c19d93fb6040518163ffffffff1660e01b815260040160206040518083038186803b15801561069a57600080fd5b505afa1580156106ae573d6000803e3d6000fd5b505050506040513d601f19601f820116820180604052508101906106d291906109c0565b60018111156106f157634e487b7160e01b600052602160045260246000fd5b14801561086f5750816001600160a01b031663c67143666040518163ffffffff1660e01b815260040160206040518083038186803b15801561073257600080fd5b505afa158015610746573d6000803e3d6000fd5b505050506040513d601f19601f8201168201806040525081019061076a91906109df565b15806107ed575060405163288c314960e21b81526001600160a01b0383169063a230c5249061079d903390600401610a39565b60206040518083038186803b1580156107b557600080fd5b505afa1580156107c9573d6000803e3d6000fd5b505050506040513d601f19601f820116820180604052508101906107ed91906108dd565b8061086f57506040516368c18beb60e01b81526001600160a01b038316906368c18beb9061081f903390600401610a39565b60206040518083038186803b15801561083757600080fd5b505afa15801561084b573d6000803e3d6000fd5b505050506040513d601f19601f8201168201806040525081019061086f91906108dd565b90505b919050565b80356001600160401b038116811461087257600080fd5b80356001600160581b038116811461087257600080fd5b600080604083850312156108b7578182fd5b82356108c281610c3c565b915060208301356108d281610c3c565b809150509250929050565b6000602082840312156108ee578081fd5b8151801515811461043c578182fd5b60008060008060808587031215610912578182fd5b843561091d81610c3c565b9350602085013561092d81610c3c565b9250604085013561093d81610c3c565b915061094b6060860161088e565b905092959194509250565b600080600080600060a0868803121561096d578081fd5b853561097881610c3c565b9450602086013561098881610c3c565b9350604086013561099881610c3c565b92506109a66060870161088e565b91506109b460808701610877565b90509295509295909350565b6000602082840312156109d1578081fd5b81516002811061043c578182fd5b6000602082840312156109f0578081fd5b5051919050565b600080600060608486031215610a0b578283fd5b610a1484610877565b9250610a2260208501610877565b9150610a306040850161088e565b90509250925092565b6001600160a01b0391909116815260200190565b6001600160a01b03938416815291909216602082015260ff909116604082015260600190565b6020808252601f908201527f76657374696e674578743a3a616c726561647920696e697469616c697a656400604082015260600190565b60208082526018908201527f76657374696e674578743a3a61636365737344656e6965640000000000000000604082015260600190565b6020808252818101527f76657374696e674578743a3a656e64206461746520696e207468652070617374604082015260600190565b6001600160401b0393841681529190921660208201526001600160581b03909116604082015260600190565b6001600160581b0391909116815260200190565b60006001600160581b03808316818516808303821115610b7857610b78610c26565b01949350505050565b60006001600160581b0380841680610ba757634e487b7160e01b83526012600452602483fd5b92169190910492915050565b60006001600160581b0380831681851681830481118215151615610bd957610bd9610c26565b02949350505050565b60006001600160401b0383811690831681811015610c0257610c02610c26565b039392505050565b60006001600160581b0383811690831681811015610c0257610c025b634e487b7160e01b600052601160045260246000fd5b6001600160a01b0381168114610c5157600080fd5b5056fea264697066735822122033b42340581bf399bf7178acfd246209c795b4074538b63556cf25b4a8a674bf64736f6c63430008000033",
  "linkReferences": {},
  "deployedLinkReferences": {}
}