{
  "_format": "hh-sol-artifact-1",
  "contractName": "VotingContract",
  "sourceName": "build/contracts/adapters/voting/Voting.sol",
  "abi": [
    {
      "inputs": [],
      "name": "ADAPTER_NAME",
      "outputs": [
        {
          "internalType": "string",
          "name": "",
          "type": "string"
        }
      ],
      "stateMutability": "view",
      "type": "function"
    },
    {
      "inputs": [
        {
          "internalType": "contract DaoRegistry",
          "name": "dao",
          "type": "address"
        },
        {
          "internalType": "uint256",
          "name": "votingPeriod",
          "type": "uint256"
        },
        {
          "internalType": "uint256",
          "name": "gracePeriod",
          "type": "uint256"
        }
      ],
      "name": "configureDao",
      "outputs": [],
      "stateMutability": "nonpayable",
      "type": "function"
    },
    {
      "inputs": [],
      "name": "getAdapterName",
      "outputs": [
        {
          "internalType": "string",
          "name": "",
          "type": "string"
        }
      ],
      "stateMutability": "pure",
      "type": "function"
    },
    {
      "inputs": [
        {
          "internalType": "contract DaoRegistry",
          "name": "",
          "type": "address"
        },
        {
          "internalType": "address",
          "name": "",
          "type": "address"
        },
        {
          "internalType": "bytes",
          "name": "",
          "type": "bytes"
        },
        {
          "internalType": "address",
          "name": "sender",
          "type": "address"
        }
      ],
      "name": "getSenderAddress",
      "outputs": [
        {
          "internalType": "address",
          "name": "",
          "type": "address"
        }
      ],
      "stateMutability": "pure",
      "type": "function"
    },
    {
      "inputs": [
        {
          "internalType": "contract DaoRegistry",
          "name": "dao",
          "type": "address"
        },
        {
          "internalType": "address",
          "name": "_addr",
          "type": "address"
        }
      ],
      "name": "isActiveMember",
      "outputs": [
        {
          "internalType": "bool",
          "name": "",
          "type": "bool"
        }
      ],
      "stateMutability": "view",
      "type": "function"
    },
    {
      "inputs": [
        {
          "internalType": "contract DaoRegistry",
          "name": "dao",
          "type": "address"
        },
        {
          "internalType": "bytes32",
          "name": "proposalId",
          "type": "bytes32"
        },
        {
          "internalType": "bytes",
          "name": "",
          "type": "bytes"
        }
      ],
      "name": "startNewVotingForProposal",
      "outputs": [],
      "stateMutability": "nonpayable",
      "type": "function"
    },
    {
      "inputs": [
        {
          "internalType": "contract DaoRegistry",
          "name": "dao",
          "type": "address"
        },
        {
          "internalType": "bytes32",
          "name": "proposalId",
          "type": "bytes32"
        },
        {
          "internalType": "uint256",
          "name": "voteValue",
          "type": "uint256"
        }
      ],
      "name": "submitVote",
      "outputs": [],
      "stateMutability": "nonpayable",
      "type": "function"
    },
    {
      "inputs": [
        {
          "internalType": "contract DaoRegistry",
          "name": "dao",
          "type": "address"
        },
        {
          "internalType": "bytes32",
          "name": "proposalId",
          "type": "bytes32"
        }
      ],
      "name": "voteResult",
      "outputs": [
        {
          "internalType": "enum IVoting.VotingState",
          "name": "state",
          "type": "uint8"
        }
      ],
      "stateMutability": "view",
      "type": "function"
    },
    {
      "inputs": [
        {
          "internalType": "address",
          "name": "",
          "type": "address"
        },
        {
          "internalType": "bytes32",
          "name": "",
          "type": "bytes32"
        }
      ],
      "name": "votes",
      "outputs": [
        {
          "internalType": "uint256",
          "name": "nbYes",
          "type": "uint256"
        },
        {
          "internalType": "uint256",
          "name": "nbNo",
          "type": "uint256"
        },
        {
          "internalType": "uint256",
          "name": "startingTime",
          "type": "uint256"
        },
        {
          "internalType": "uint256",
          "name": "blockNumber",
          "type": "uint256"
        }
      ],
      "stateMutability": "view",
      "type": "function"
    }
  ],
  "bytecode": "0x608060405234801561001057600080fd5b506121b6806100206000396000f3fe608060405234801561001057600080fd5b50600436106100935760003560e01c806376225e731161006657806376225e73146101015780637fd3cd8b146101215780638ecf772014610129578063966917d014610149578063a60e68fe1461016957610093565b80631db5ade8146100985780631f86f5b3146100c45780632b0974d0146100d9578063325b72f2146100ee575b600080fd5b6100ab6100a63660046119b9565b61017c565b6040516100bb949392919061208c565b60405180910390f35b6100cc6101ab565b6040516100bb9190611dbc565b6100ec6100e7366004611b77565b6101d3565b005b6100ec6100fc366004611bfb565b6102b8565b61011461010f366004611b65565b610614565b6040516100bb9190611da2565b6100cc61087c565b61013c610137366004611a56565b6108a6565b6040516100bb9190611d33565b61015c610157366004611a8e565b610b04565b6040516100bb9190611cc8565b6100ec610177366004611bfb565b610b0b565b600060208181529281526040808220909352908152208054600182015460028301546003909301549192909184565b60408051808201909152600e81526d159bdd1a5b99d0dbdb9d1c9858dd60921b602082015290565b6040516368c18beb60e01b815284906001600160a01b038216906368c18beb90610201903390600401611cc8565b60206040518083038186803b15801561021957600080fd5b505afa15801561022d573d6000803e3d6000fd5b505050506040513d601f19601f820116820180604052508101906102519190611a11565b80610260575061026081610ca8565b6102855760405162461bcd60e51b815260040161027c90612067565b60405180910390fd5b5050506001600160a01b039091166000908152602081815260408083209383529290522042600282015543600390910155565b826102c38133610ec1565b8360006102cf82610eeb565b60405163f941f69160e01b81529091506001600160a01b0387169063f941f69190610301908890600190600401611d47565b60206040518083038186803b15801561031957600080fd5b505afa15801561032d573d6000803e3d6000fd5b505050506040513d601f19601f820116820180604052508101906103519190611a11565b61036d5760405162461bcd60e51b815260040161027c90611efd565b60405163f941f69160e01b81526001600160a01b0387169063f941f6919061039c908890600290600401611d47565b60206040518083038186803b1580156103b457600080fd5b505afa1580156103c8573d6000803e3d6000fd5b505050506040513d601f19601f820116820180604052508101906103ec9190611a11565b156104095760405162461bcd60e51b815260040161027c90611e64565b6003841080156104195750600084115b6104355760405162461bcd60e51b815260040161027c90611def565b6001600160a01b038616600090815260208181526040808320888452909152902060028101546104775760405162461bcd60e51b815260040161027c90611eab565b604051634941d71d60e11b81526001600160a01b03881690639283ae3a906104b19060008051602061216183398151915290600401611d3e565b60206040518083038186803b1580156104c957600080fd5b505afa1580156104dd573d6000803e3d6000fd5b505050506040513d601f19601f820116820180604052508101906105019190611c4e565b816002015461051091906120a7565b421061052e5760405162461bcd60e51b815260040161027c90612037565b600061053a883361113c565b6001600160a01b0381166000908152600484016020526040902054909150156105755760405162461bcd60e51b815260040161027c90611fa5565b600061058789838a8660030154611292565b9050806105a65760405162461bcd60e51b815260040161027c90611e3a565b6001600160a01b0382166000908152600484016020526040902087905560018714156105e05782546105d99082906120a7565b83556105ff565b86600214156105ff578083600101546105f991906120a7565b60018401555b50505061060c8282611615565b505050505050565b6001600160a01b03821660009081526020818152604080832084845290915281206002810154610648576000915050610876565b604051634941d71d60e11b81526001600160a01b03851690639283ae3a906106829060008051602061216183398151915290600401611d3e565b60206040518083038186803b15801561069a57600080fd5b505afa1580156106ae573d6000803e3d6000fd5b505050506040513d601f19601f820116820180604052508101906106d29190611c4e565b81600201546106e191906120a7565b4210156106f2576004915050610876565b604051634941d71d60e11b81526001600160a01b03851690639283ae3a9061073e907fbb091d3568b6c70eab2bc93e5592945bd187d1508b523f4b1b92b116331cb89690600401611d3e565b60206040518083038186803b15801561075657600080fd5b505afa15801561076a573d6000803e3d6000fd5b505050506040513d601f19601f8201168201806040525081019061078e9190611c4e565b604051634941d71d60e11b81526001600160a01b03861690639283ae3a906107c89060008051602061216183398151915290600401611d3e565b60206040518083038186803b1580156107e057600080fd5b505afa1580156107f4573d6000803e3d6000fd5b505050506040513d601f19601f820116820180604052508101906108189190611c4e565b826002015461082791906120a7565b61083191906120a7565b421015610842576005915050610876565b600181015481541115610859576002915050610876565b600181015481541015610870576003915050610876565b60019150505b92915050565b6040518060400160405280600e81526020016d159bdd1a5b99d0dbdb9d1c9858dd60921b81525081565b600080836001600160a01b031663fefbd8757fea0ca03c7adbe41dc655fec28a9209dc8e6e042f3d991a67765ba285b9cf73a06040518263ffffffff1660e01b81526004016108f59190611d3e565b60206040518083038186803b15801561090d57600080fd5b505afa158015610921573d6000803e3d6000fd5b505050506040513d601f19601f82011682018060405250810190610945919061199d565b90506001600160a01b03811615610a80576000610962858561113c565b60405163288c314960e21b81529091506001600160a01b0386169063a230c52490610991908790600401611cc8565b60206040518083038186803b1580156109a957600080fd5b505afa1580156109bd573d6000803e3d6000fd5b505050506040513d601f19601f820116820180604052508101906109e19190611a11565b8015610a775750604051633de222bb60e21b81526000906001600160a01b0384169063f7888aec90610a1c908590620ff1ce90600401611cdc565b60206040518083038186803b158015610a3457600080fd5b505afa158015610a48573d6000803e3d6000fd5b505050506040513d601f19601f82011682018060405250810190610a6c919061199d565b6001600160a01b0316115b92505050610876565b60405163288c314960e21b81526001600160a01b0385169063a230c52490610aac908690600401611cc8565b60206040518083038186803b158015610ac457600080fd5b505afa158015610ad8573d6000803e3d6000fd5b505050506040513d601f19601f82011682018060405250810190610afc9190611a11565b949350505050565b9392505050565b6040516368c18beb60e01b815283906001600160a01b038216906368c18beb90610b39903390600401611cc8565b60206040518083038186803b158015610b5157600080fd5b505afa158015610b65573d6000803e3d6000fd5b505050506040513d601f19601f82011682018060405250810190610b899190611a11565b80610b985750610b9881610ca8565b610bb45760405162461bcd60e51b815260040161027c90612067565b604051630da0f6c760e41b81526001600160a01b0385169063da0f6c7090610bf090600080516020612161833981519152908790600401611d6b565b600060405180830381600087803b158015610c0a57600080fd5b505af1158015610c1e573d6000803e3d6000fd5b5050604051630da0f6c760e41b81526001600160a01b038716925063da0f6c709150610c70907fbb091d3568b6c70eab2bc93e5592945bd187d1508b523f4b1b92b116331cb896908690600401611d6b565b600060405180830381600087803b158015610c8a57600080fd5b505af1158015610c9e573d6000803e3d6000fd5b5050505050505050565b600080826001600160a01b031663c19d93fb6040518163ffffffff1660e01b815260040160206040518083038186803b158015610ce457600080fd5b505afa158015610cf8573d6000803e3d6000fd5b505050506040513d601f19601f82011682018060405250810190610d1c9190611c2f565b6001811115610d3b57634e487b7160e01b600052602160045260246000fd5b148015610eb95750816001600160a01b031663c67143666040518163ffffffff1660e01b815260040160206040518083038186803b158015610d7c57600080fd5b505afa158015610d90573d6000803e3d6000fd5b505050506040513d601f19601f82011682018060405250810190610db49190611c4e565b1580610e37575060405163288c314960e21b81526001600160a01b0383169063a230c52490610de7903390600401611cc8565b60206040518083038186803b158015610dff57600080fd5b505afa158015610e13573d6000803e3d6000fd5b505050506040513d601f19601f82011682018060405250810190610e379190611a11565b80610eb957506040516368c18beb60e01b81526001600160a01b038316906368c18beb90610e69903390600401611cc8565b60206040518083038186803b158015610e8157600080fd5b505afa158015610e95573d6000803e3d6000fd5b505050506040513d601f19601f82011682018060405250810190610eb99190611a11565b90505b919050565b610ecb82826108a6565b610ee75760405162461bcd60e51b815260040161027c90611fdc565b5050565b610ef361194f565b5a81600001818152505043826001600160a01b031663b21634826040518163ffffffff1660e01b815260040160206040518083038186803b158015610f3757600080fd5b505afa158015610f4b573d6000803e3d6000fd5b505050506040513d601f19601f82011682018060405250810190610f6f9190611c4e565b1415610f8d5760405162461bcd60e51b815260040161027c90611f44565b816001600160a01b03166310fdb0a26040518163ffffffff1660e01b8152600401600060405180830381600087803b158015610fc857600080fd5b505af1158015610fdc573d6000803e3d6000fd5b50506040516372c6838f60e01b8152600092506001600160a01b03851691506372c6838f9061102f907f1f2fd42ad6a6cacd573c4b212beb7a4e2499ad45d742a65337097f130e71daff90600401611d3e565b60206040518083038186803b15801561104757600080fd5b505afa15801561105b573d6000803e3d6000fd5b505050506040513d601f19601f8201168201806040525081019061107f919061199d565b90506001600160a01b03811661109b5760006020830152611136565b6001600160a01b0381166060830181905282516040516343a8a3f160e01b8152600092839290916343a8a3f1916110d791899190600401611d1a565b604080518083038186803b1580156110ee57600080fd5b505afa158015611102573d6000803e3d6000fd5b505050506040513d601f19601f820116820180604052508101906111269190611a2b565b9015156020860152604085015250505b50919050565b600080836001600160a01b031663c89bb8ba846040518263ffffffff1660e01b815260040161116b9190611cc8565b60206040518083038186803b15801561118357600080fd5b505afa158015611197573d6000803e3d6000fd5b505050506040513d601f19601f820116820180604052508101906111bb919061199d565b90506000846001600160a01b031663397a6947856040518263ffffffff1660e01b81526004016111eb9190611cc8565b60206040518083038186803b15801561120357600080fd5b505afa158015611217573d6000803e3d6000fd5b505050506040513d601f19601f8201168201806040525081019061123b919061199d565b9050806001600160a01b0316826001600160a01b0316148061126e5750836001600160a01b0316816001600160a01b0316145b61128a5760405162461bcd60e51b815260040161027c90611f6e565b509392505050565b600080856001600160a01b03166332ed5b12856040518263ffffffff1660e01b81526004016112c19190611d3e565b604080518083038186803b1580156112d857600080fd5b505afa1580156112ec573d6000803e3d6000fd5b505050506040513d601f19601f8201168201806040525081019061131091906119e4565b5090506000866001600160a01b031663fd310d296040518060400160405280601081526020016f33b7bb32b93730b731b2973937b6329760811b8152508460405160200161135f929190611c66565b604051602081830303815290604052805190602001206040518263ffffffff1660e01b81526004016113919190611d3e565b60206040518083038186803b1580156113a957600080fd5b505afa1580156113bd573d6000803e3d6000fd5b505050506040513d601f19601f820116820180604052508101906113e1919061199d565b90506113ec81611620565b15611406576113fd8782888761162e565b92505050610afc565b866001600160a01b031663fd310d296040518060400160405280601081526020016f33b7bb32b93730b731b2973937b6329760811b81525060405160200161144e9190611c9d565b604051602081830303815290604052805190602001206040518263ffffffff1660e01b81526004016114809190611d3e565b60206040518083038186803b15801561149857600080fd5b505afa1580156114ac573d6000803e3d6000fd5b505050506040513d601f19601f820116820180604052508101906114d0919061199d565b90506114db81611620565b156114ec576113fd8782888761162e565b604051632c9f4b5b60e11b81526001600160a01b0388169063593e96b690611538907fea0ca03c7adbe41dc655fec28a9209dc8e6e042f3d991a67765ba285b9cf73a090600401611d3e565b60206040518083038186803b15801561155057600080fd5b505afa158015611564573d6000803e3d6000fd5b505050506040513d601f19601f82011682018060405250810190611588919061199d565b6001600160a01b031663faaf38b387620ff1ce876040518463ffffffff1660e01b81526004016115ba93929190611cf6565b60206040518083038186803b1580156115d257600080fd5b505afa1580156115e6573d6000803e3d6000fd5b505050506040513d601f19601f8201168201806040525081019061160a9190611c4e565b979650505050505050565b610ee7828233611874565b6001600160a01b0316151590565b600080856001600160a01b031663593e96b67fea0ca03c7adbe41dc655fec28a9209dc8e6e042f3d991a67765ba285b9cf73a06040518263ffffffff1660e01b815260040161167d9190611d3e565b60206040518083038186803b15801561169557600080fd5b505afa1580156116a9573d6000803e3d6000fd5b505050506040513d601f19601f820116820180604052508101906116cd919061199d565b604051630a51990b60e11b81529091506001600160a01b038216906314a33216906116fc908890600401611cc8565b60206040518083038186803b15801561171457600080fd5b505afa158015611728573d6000803e3d6000fd5b505050506040513d601f19601f8201168201806040525081019061174c9190611a11565b156117d95760405163faaf38b360e01b81526001600160a01b0382169063faaf38b39061178190879089908890600401611cf6565b60206040518083038186803b15801561179957600080fd5b505afa1580156117ad573d6000803e3d6000fd5b505050506040513d601f19601f820116820180604052508101906117d19190611c4e565b915050610afc565b604051630435f48b60e01b81526001600160a01b03861690630435f48b906118079087908790600401611d1a565b60206040518083038186803b15801561181f57600080fd5b505afa92505050801561184f575060408051601f3d908101601f1916820190925261184c91810190611c4e565b60015b61186b5760405162461bcd60e51b815260040161027c90612000565b9150610afc9050565b8160200151156118f75781606001516001600160a01b0316635e5eb01384835a86516118a091906120bf565b86604001516040518563ffffffff1660e01b81526004016118c49493929190611d79565b600060405180830381600087803b1580156118de57600080fd5b505af11580156118f2573d6000803e3d6000fd5b505050505b826001600160a01b031663d4f7af436040518163ffffffff1660e01b8152600401600060405180830381600087803b15801561193257600080fd5b505af1158015611946573d6000803e3d6000fd5b50505050505050565b6040518060800160405280600081526020016000151581526020016000815260200160006001600160a01b031681525090565b8035610ebc81612148565b80518015158114610ebc57600080fd5b6000602082840312156119ae578081fd5b8151610b0481612148565b600080604083850312156119cb578081fd5b82356119d681612148565b946020939093013593505050565b600080604083850312156119f6578182fd5b8251611a0181612148565b6020939093015192949293505050565b600060208284031215611a22578081fd5b610b048261198d565b60008060408385031215611a3d578182fd5b611a468361198d565b9150602083015190509250929050565b60008060408385031215611a68578182fd5b8235611a7381612148565b91506020830135611a8381612148565b809150509250929050565b60008060008060808587031215611aa3578182fd5b8435611aae81612148565b9350602085810135611abf81612148565b9350604086013567ffffffffffffffff80821115611adb578485fd5b818801915088601f830112611aee578485fd5b813581811115611b0057611b00612132565b604051601f8201601f1916810185018381118282101715611b2357611b23612132565b60405281815283820185018b1015611b39578687fd5b818585018683013790810190930194909452509150611b5a60608601611982565b905092959194509250565b600080604083850312156119cb578182fd5b60008060008060608587031215611b8c578384fd5b8435611b9781612148565b935060208501359250604085013567ffffffffffffffff80821115611bba578384fd5b818701915087601f830112611bcd578384fd5b813581811115611bdb578485fd5b886020828501011115611bec578485fd5b95989497505060200194505050565b600080600060608486031215611c0f578283fd5b8335611c1a81612148565b95602085013595506040909401359392505050565b600060208284031215611c40578081fd5b815160028110610b04578182fd5b600060208284031215611c5f578081fd5b5051919050565b60008351611c788184602088016120d6565b60609390931b6bffffffffffffffffffffffff19169190920190815260140192915050565b60008251611caf8184602087016120d6565b66191959985d5b1d60ca1b920191825250600701919050565b6001600160a01b0391909116815260200190565b6001600160a01b0392831681529116602082015260400190565b6001600160a01b039384168152919092166020820152604081019190915260600190565b6001600160a01b03929092168252602082015260400190565b901515815260200190565b90815260200190565b8281526040810160038310611d5e57611d5e61211c565b8260208301529392505050565b918252602082015260400190565b6001600160a01b0394851681529290931660208301526040820152606081019190915260800190565b6020810160068310611db657611db661211c565b91905290565b6000602082528251806020840152611ddb8160408501602087016120d6565b601f01601f19169190910160400192915050565b6020808252602b908201527f6f6e6c79207965732028312920616e64206e6f202832292061726520706f737360408201526a69626c652076616c75657360a81b606082015260800190565b60208082526010908201526f1d9bdd19481b9bdd08185b1b1bddd95960821b604082015260600190565b60208082526027908201527f7468652070726f706f73616c2068617320616c7265616479206265656e2070726040820152661bd8d95cdcd95960ca1b606082015260800190565b60208082526032908201527f746869732070726f706f73616c496420686173206e6f20766f746520676f696e60408201527119c81bdb88185d081d1a19481b5bdb595b9d60721b606082015260800190565b60208082526027908201527f7468652070726f706f73616c20686173206e6f74206265656e2073706f6e736f6040820152661c9959081e595d60ca1b606082015260800190565b60208082526010908201526f1c99595b9d1c985b98de4819dd585c9960821b604082015260600190565b6020808252601b908201527f63616c6c207769746820796f75722064656c6567617465206b65790000000000604082015260600190565b60208082526018908201527f6d656d6265722068617320616c726561647920766f7465640000000000000000604082015260600190565b6020808252600a908201526937b7363ca6b2b6b132b960b11b604082015260600190565b6020808252601e908201527f6765745072696f72416d6f756e74206e6f7420696d706c656d656e7465640000604082015260600190565b6020808252601690820152751d9bdd19481a185cc8185b1c9958591e48195b99195960521b604082015260600190565b6020808252600b908201526a37b7363ca0b230b83a32b960a91b604082015260600190565b93845260208401929092526040830152606082015260800190565b600082198211156120ba576120ba612106565b500190565b6000828210156120d1576120d1612106565b500390565b60005b838110156120f15781810151838201526020016120d9565b83811115612100576000848401525b50505050565b634e487b7160e01b600052601160045260246000fd5b634e487b7160e01b600052602160045260246000fd5b634e487b7160e01b600052604160045260246000fd5b6001600160a01b038116811461215d57600080fd5b5056fef86bf955456792ffa818919c8668cdc4eb9cc84889fd215a27d329f90efbb2f3a2646970667358221220cef3b8964a3cb476fba06854e4ada53358f7cb31dadc966cf1140b9f2f20206964736f6c63430008000033",
  "linkReferences": {},
  "deployedLinkReferences": {}
}