{
  "_format": "hh-sol-artifact-1",
  "contractName": "BankExtension",
  "sourceName": "build/contracts/extensions/bank/Bank.sol",
  "abi": [
    {
      "inputs": [],
      "stateMutability": "nonpayable",
      "type": "constructor"
    },
    {
      "anonymous": false,
      "inputs": [
        {
          "indexed": false,
          "internalType": "address",
          "name": "member",
          "type": "address"
        },
        {
          "indexed": false,
          "internalType": "address",
          "name": "tokenAddr",
          "type": "address"
        },
        {
          "indexed": false,
          "internalType": "uint160",
          "name": "amount",
          "type": "uint160"
        }
      ],
      "name": "NewBalance",
      "type": "event"
    },
    {
      "anonymous": false,
      "inputs": [
        {
          "indexed": false,
          "internalType": "address",
          "name": "account",
          "type": "address"
        },
        {
          "indexed": false,
          "internalType": "address",
          "name": "tokenAddr",
          "type": "address"
        },
        {
          "indexed": false,
          "internalType": "uint160",
          "name": "amount",
          "type": "uint160"
        }
      ],
      "name": "Withdraw",
      "type": "event"
    },
    {
      "anonymous": false,
      "inputs": [
        {
          "indexed": false,
          "internalType": "address",
          "name": "accountFrom",
          "type": "address"
        },
        {
          "indexed": false,
          "internalType": "address",
          "name": "accountTo",
          "type": "address"
        },
        {
          "indexed": false,
          "internalType": "address",
          "name": "tokenAddr",
          "type": "address"
        },
        {
          "indexed": false,
          "internalType": "uint160",
          "name": "amount",
          "type": "uint160"
        }
      ],
      "name": "WithdrawTo",
      "type": "event"
    },
    {
      "inputs": [
        {
          "internalType": "contract DaoRegistry",
          "name": "_dao",
          "type": "address"
        },
        {
          "internalType": "address",
          "name": "member",
          "type": "address"
        },
        {
          "internalType": "address",
          "name": "token",
          "type": "address"
        },
        {
          "internalType": "uint256",
          "name": "amount",
          "type": "uint256"
        }
      ],
      "name": "addToBalance",
      "outputs": [],
      "stateMutability": "payable",
      "type": "function"
    },
    {
      "inputs": [
        {
          "internalType": "address",
          "name": "",
          "type": "address"
        }
      ],
      "name": "availableInternalTokens",
      "outputs": [
        {
          "internalType": "bool",
          "name": "",
          "type": "bool"
        }
      ],
      "stateMutability": "view",
      "type": "function"
    },
    {
      "inputs": [
        {
          "internalType": "address",
          "name": "",
          "type": "address"
        }
      ],
      "name": "availableTokens",
      "outputs": [
        {
          "internalType": "bool",
          "name": "",
          "type": "bool"
        }
      ],
      "stateMutability": "view",
      "type": "function"
    },
    {
      "inputs": [
        {
          "internalType": "address",
          "name": "member",
          "type": "address"
        },
        {
          "internalType": "address",
          "name": "tokenAddr",
          "type": "address"
        }
      ],
      "name": "balanceOf",
      "outputs": [
        {
          "internalType": "uint160",
          "name": "",
          "type": "uint160"
        }
      ],
      "stateMutability": "view",
      "type": "function"
    },
    {
      "inputs": [
        {
          "internalType": "address",
          "name": "",
          "type": "address"
        },
        {
          "internalType": "address",
          "name": "",
          "type": "address"
        },
        {
          "internalType": "uint32",
          "name": "",
          "type": "uint32"
        }
      ],
      "name": "checkpoints",
      "outputs": [
        {
          "internalType": "uint96",
          "name": "fromBlock",
          "type": "uint96"
        },
        {
          "internalType": "uint160",
          "name": "amount",
          "type": "uint160"
        }
      ],
      "stateMutability": "view",
      "type": "function"
    },
    {
      "inputs": [],
      "name": "dao",
      "outputs": [
        {
          "internalType": "contract DaoRegistry",
          "name": "",
          "type": "address"
        }
      ],
      "stateMutability": "view",
      "type": "function"
    },
    {
      "inputs": [
        {
          "internalType": "uint256",
          "name": "index",
          "type": "uint256"
        }
      ],
      "name": "getInternalToken",
      "outputs": [
        {
          "internalType": "address",
          "name": "",
          "type": "address"
        }
      ],
      "stateMutability": "view",
      "type": "function"
    },
    {
      "inputs": [
        {
          "internalType": "address",
          "name": "account",
          "type": "address"
        },
        {
          "internalType": "address",
          "name": "tokenAddr",
          "type": "address"
        },
        {
          "internalType": "uint256",
          "name": "blockNumber",
          "type": "uint256"
        }
      ],
      "name": "getPriorAmount",
      "outputs": [
        {
          "internalType": "uint256",
          "name": "",
          "type": "uint256"
        }
      ],
      "stateMutability": "view",
      "type": "function"
    },
    {
      "inputs": [
        {
          "internalType": "uint256",
          "name": "index",
          "type": "uint256"
        }
      ],
      "name": "getToken",
      "outputs": [
        {
          "internalType": "address",
          "name": "",
          "type": "address"
        }
      ],
      "stateMutability": "view",
      "type": "function"
    },
    {
      "inputs": [],
      "name": "getTokens",
      "outputs": [
        {
          "internalType": "address[]",
          "name": "",
          "type": "address[]"
        }
      ],
      "stateMutability": "view",
      "type": "function"
    },
    {
      "inputs": [
        {
          "internalType": "contract DaoRegistry",
          "name": "_dao",
          "type": "address"
        },
        {
          "internalType": "address",
          "name": "creator",
          "type": "address"
        }
      ],
      "name": "initialize",
      "outputs": [],
      "stateMutability": "nonpayable",
      "type": "function"
    },
    {
      "inputs": [],
      "name": "initialized",
      "outputs": [
        {
          "internalType": "bool",
          "name": "",
          "type": "bool"
        }
      ],
      "stateMutability": "view",
      "type": "function"
    },
    {
      "inputs": [
        {
          "internalType": "uint256",
          "name": "",
          "type": "uint256"
        }
      ],
      "name": "internalTokens",
      "outputs": [
        {
          "internalType": "address",
          "name": "",
          "type": "address"
        }
      ],
      "stateMutability": "view",
      "type": "function"
    },
    {
      "inputs": [
        {
          "internalType": "contract DaoRegistry",
          "name": "_dao",
          "type": "address"
        },
        {
          "internalType": "address",
          "name": "from",
          "type": "address"
        },
        {
          "internalType": "address",
          "name": "to",
          "type": "address"
        },
        {
          "internalType": "address",
          "name": "token",
          "type": "address"
        },
        {
          "internalType": "uint256",
          "name": "amount",
          "type": "uint256"
        }
      ],
      "name": "internalTransfer",
      "outputs": [],
      "stateMutability": "nonpayable",
      "type": "function"
    },
    {
      "inputs": [
        {
          "internalType": "address",
          "name": "token",
          "type": "address"
        }
      ],
      "name": "isInternalToken",
      "outputs": [
        {
          "internalType": "bool",
          "name": "",
          "type": "bool"
        }
      ],
      "stateMutability": "view",
      "type": "function"
    },
    {
      "inputs": [
        {
          "internalType": "address",
          "name": "token",
          "type": "address"
        }
      ],
      "name": "isTokenAllowed",
      "outputs": [
        {
          "internalType": "bool",
          "name": "",
          "type": "bool"
        }
      ],
      "stateMutability": "view",
      "type": "function"
    },
    {
      "inputs": [],
      "name": "maxExternalTokens",
      "outputs": [
        {
          "internalType": "uint8",
          "name": "",
          "type": "uint8"
        }
      ],
      "stateMutability": "view",
      "type": "function"
    },
    {
      "inputs": [],
      "name": "nbInternalTokens",
      "outputs": [
        {
          "internalType": "uint256",
          "name": "",
          "type": "uint256"
        }
      ],
      "stateMutability": "view",
      "type": "function"
    },
    {
      "inputs": [],
      "name": "nbTokens",
      "outputs": [
        {
          "internalType": "uint256",
          "name": "",
          "type": "uint256"
        }
      ],
      "stateMutability": "view",
      "type": "function"
    },
    {
      "inputs": [
        {
          "internalType": "address",
          "name": "",
          "type": "address"
        },
        {
          "internalType": "address",
          "name": "",
          "type": "address"
        }
      ],
      "name": "numCheckpoints",
      "outputs": [
        {
          "internalType": "uint32",
          "name": "",
          "type": "uint32"
        }
      ],
      "stateMutability": "view",
      "type": "function"
    },
    {
      "inputs": [
        {
          "internalType": "contract DaoRegistry",
          "name": "_dao",
          "type": "address"
        },
        {
          "internalType": "address",
          "name": "token",
          "type": "address"
        }
      ],
      "name": "registerPotentialNewInternalToken",
      "outputs": [],
      "stateMutability": "nonpayable",
      "type": "function"
    },
    {
      "inputs": [
        {
          "internalType": "contract DaoRegistry",
          "name": "_dao",
          "type": "address"
        },
        {
          "internalType": "address",
          "name": "token",
          "type": "address"
        }
      ],
      "name": "registerPotentialNewToken",
      "outputs": [],
      "stateMutability": "nonpayable",
      "type": "function"
    },
    {
      "inputs": [
        {
          "internalType": "uint8",
          "name": "maxTokens",
          "type": "uint8"
        }
      ],
      "name": "setMaxExternalTokens",
      "outputs": [],
      "stateMutability": "nonpayable",
      "type": "function"
    },
    {
      "inputs": [
        {
          "internalType": "contract DaoRegistry",
          "name": "_dao",
          "type": "address"
        },
        {
          "internalType": "address",
          "name": "member",
          "type": "address"
        },
        {
          "internalType": "address",
          "name": "token",
          "type": "address"
        },
        {
          "internalType": "uint256",
          "name": "amount",
          "type": "uint256"
        }
      ],
      "name": "subtractFromBalance",
      "outputs": [],
      "stateMutability": "nonpayable",
      "type": "function"
    },
    {
      "inputs": [
        {
          "internalType": "bytes4",
          "name": "interfaceId",
          "type": "bytes4"
        }
      ],
      "name": "supportsInterface",
      "outputs": [
        {
          "internalType": "bool",
          "name": "",
          "type": "bool"
        }
      ],
      "stateMutability": "view",
      "type": "function"
    },
    {
      "inputs": [
        {
          "internalType": "uint256",
          "name": "",
          "type": "uint256"
        }
      ],
      "name": "tokens",
      "outputs": [
        {
          "internalType": "address",
          "name": "",
          "type": "address"
        }
      ],
      "stateMutability": "view",
      "type": "function"
    },
    {
      "inputs": [
        {
          "internalType": "contract DaoRegistry",
          "name": "_dao",
          "type": "address"
        },
        {
          "internalType": "address",
          "name": "tokenAddr",
          "type": "address"
        }
      ],
      "name": "updateToken",
      "outputs": [],
      "stateMutability": "nonpayable",
      "type": "function"
    },
    {
      "inputs": [
        {
          "internalType": "contract DaoRegistry",
          "name": "_dao",
          "type": "address"
        },
        {
          "internalType": "address payable",
          "name": "member",
          "type": "address"
        },
        {
          "internalType": "address",
          "name": "tokenAddr",
          "type": "address"
        },
        {
          "internalType": "uint256",
          "name": "amount",
          "type": "uint256"
        }
      ],
      "name": "withdraw",
      "outputs": [],
      "stateMutability": "nonpayable",
      "type": "function"
    },
    {
      "inputs": [
        {
          "internalType": "contract DaoRegistry",
          "name": "_dao",
          "type": "address"
        },
        {
          "internalType": "address",
          "name": "memberFrom",
          "type": "address"
        },
        {
          "internalType": "address payable",
          "name": "memberTo",
          "type": "address"
        },
        {
          "internalType": "address",
          "name": "tokenAddr",
          "type": "address"
        },
        {
          "internalType": "uint256",
          "name": "amount",
          "type": "uint256"
        }
      ],
      "name": "withdrawTo",
      "outputs": [],
      "stateMutability": "nonpayable",
      "type": "function"
    }
  ],
  "bytecode": "0x60806040526000805461ff001916905534801561001b57600080fd5b5061310d8061002b6000396000f3fe6080604052600436106101c25760003560e01c80636347c440116100f75780638f02487811610095578063e4b50cb811610064578063e4b50cb8146104ff578063f7888aec1461051f578063f9eaee0d1461053f578063faaf38b31461055f576101c2565b80638f0248781461047b57806394cb09471461049b5780639d9ccd7d146104bb578063aa6ca808146104dd576101c2565b80637de66b6d116100d15780637de66b6d146103f957806381ffa84c1461040e578063827837c61461042e57806387c672ee1461044e576101c2565b80636347c440146103895780637082e63d146103a95780637a81edb9146103d7576101c2565b8063388495ba11610164578063485cc9551161013e578063485cc955146103095780634f64b2be1461032957806350c7c8601461034957806358d50c5514610369576101c2565b8063388495ba146102b457806339c6941f146102d45780634162169f146102f4576101c2565b806314a33216116101a057806314a3321614610232578063158ef93e1461025257806315d89f6014610267578063366d2dba14610294576101c2565b806301ffc9a7146101c757806306dae9ba146101fd5780630b620b8114610212575b600080fd5b3480156101d357600080fd5b506101e76101e2366004612848565b61057f565b6040516101f49190612ac7565b60405180910390f35b61021061020b366004612935565b610775565b005b34801561021e57600080fd5b5061021061022d366004612882565b61096b565b34801561023e57600080fd5b506101e761024d366004612726565b610b51565b34801561025e57600080fd5b506101e7610b6f565b34801561027357600080fd5b50610287610282366004612969565b610b7d565b6040516101f491906129d9565b3480156102a057600080fd5b506102106102af366004612870565b610bbb565b3480156102c057600080fd5b506101e76102cf366004612726565b610e37565b3480156102e057600080fd5b506102106102ef366004612935565b610e4c565b34801561030057600080fd5b50610287610fbb565b34801561031557600080fd5b50610210610324366004612870565b610fd0565b34801561033557600080fd5b50610287610344366004612969565b6112ba565b34801561035557600080fd5b50610210610364366004612870565b6112e4565b34801561037557600080fd5b50610210610384366004612870565b61151f565b34801561039557600080fd5b506102876103a4366004612969565b611731565b3480156103b557600080fd5b506103c96103c43660046127d6565b611741565b6040516101f4929190612f95565b3480156103e357600080fd5b506103ec61177f565b6040516101f49190612f6d565b34801561040557600080fd5b506103ec611785565b34801561041a57600080fd5b506102106104293660046128d2565b61178b565b34801561043a57600080fd5b506102106104493660046128d2565b611974565b34801561045a57600080fd5b5061046e61046936600461275e565b611b04565b6040516101f49190612f76565b34801561048757600080fd5b50610210610496366004612999565b611b27565b3480156104a757600080fd5b506101e76104b6366004612726565b611b98565b3480156104c757600080fd5b506104d0611bad565b6040516101f49190612f87565b3480156104e957600080fd5b506104f2611bb6565b6040516101f49190612a7a565b34801561050b57600080fd5b5061028761051a366004612969565b611c18565b34801561052b57600080fd5b5061028761053a36600461275e565b611c3b565b34801561054b57600080fd5b506101e761055a366004612726565b611cd8565b34801561056b57600080fd5b506103ec61057a366004612796565b611cf6565b600061058a82611f95565b806105a557506339c6941f60e01b6001600160e01b03198316145b806105c0575063036d74dd60e11b6001600160e01b03198316145b806105db575063faaf38b360e01b6001600160e01b03198316145b806105f65750633de222bb60e21b6001600160e01b03198316145b80610611575063413c1be360e11b6001600160e01b03198316145b8061062c5750637a81edb960e01b6001600160e01b03198316145b80610646575062aec4fb60e51b6001600160e01b03198316145b80610661575063154d950160e31b6001600160e01b03198316145b8061067c5750637de66b6d60e01b6001600160e01b03198316145b806106975750631c96a19760e31b6001600160e01b03198316145b806106b25750631b3696dd60e11b6001600160e01b03198316145b806106cd57506358d50c5560e01b6001600160e01b03198316145b806106e857506302863e4360e51b6001600160e01b03198316145b8061070357506311e0490f60e31b6001600160e01b03198316145b8061071e575063f9eaee0d60e01b6001600160e01b03198316145b806107395750630a51990b60e11b6001600160e01b03198316145b806107545750630b620b8160e01b6001600160e01b03198316145b8061076f575063207fea1360e21b6001600160e01b03198316145b92915050565b600080548591906001600160a01b0380841662010000909204161480156108835750303314806107b557506000546201000090046001600160a01b031633145b806107d657506000546107d6906201000090046001600160a01b0316611fae565b8061088357506000546201000090046001600160a01b0316636cfdc32e333084600681111561081557634e487b7160e01b600052602160045260246000fd5b6040518463ffffffff1660e01b815260040161083393929190612a3b565b60206040518083038186803b15801561084b57600080fd5b505afa15801561085f573d6000803e3d6000fd5b505050506040513d601f19601f820116820180604052508101906108839190612828565b6108a85760405162461bcd60e51b815260040161089f90612dba565b60405180910390fd5b6001600160a01b03841660009081526003602052604090205460ff16806108e757506001600160a01b03841660009081526004602052604090205460ff165b6109035760405162461bcd60e51b815260040161089f90612de7565b6000836109108787611c3b565b6001600160a01b03166109239190612fb7565b905060008461093461babe88611c3b565b6001600160a01b03166109479190612fb7565b90506109548787846121bf565b61096161babe87836121bf565b5050505050505050565b60005484906003906001600160a01b038084166201000090920416148015610a7a5750303314806109ac57506000546201000090046001600160a01b031633145b806109cd57506000546109cd906201000090046001600160a01b0316611fae565b80610a7a57506000546201000090046001600160a01b0316636cfdc32e3330846006811115610a0c57634e487b7160e01b600052602160045260246000fd5b6040518463ffffffff1660e01b8152600401610a2a93929190612a3b565b60206040518083038186803b158015610a4257600080fd5b505afa158015610a56573d6000803e3d6000fd5b505050506040513d601f19601f82011682018060405250810190610a7a9190612828565b610a965760405162461bcd60e51b815260040161089f90612dba565b82610aa18686611c3b565b6001600160a01b03161015610ac85760405162461bcd60e51b815260040161089f90612bb1565b610ad486868686610e4c565b6001600160a01b038416610afa57610af56001600160a01b0386168461247c565b610b0e565b610b0e6001600160a01b0385168685612518565b7ff4d47ca48b90728e6b853fff159bd92cdbd2be6ce116e9ebd8ca4f7f68ce4c8d858585604051610b41939291906129ed565b60405180910390a1505050505050565b6001600160a01b031660009081526004602052604090205460ff1690565b600054610100900460ff1681565b600060028281548110610ba057634e487b7160e01b600052603260045260246000fd5b6000918252602090912001546001600160a01b031692915050565b60005482906006906001600160a01b038084166201000090920416148015610cca575030331480610bfc57506000546201000090046001600160a01b031633145b80610c1d5750600054610c1d906201000090046001600160a01b0316611fae565b80610cca57506000546201000090046001600160a01b0316636cfdc32e3330846006811115610c5c57634e487b7160e01b600052602160045260246000fd5b6040518463ffffffff1660e01b8152600401610c7a93929190612a3b565b60206040518083038186803b158015610c9257600080fd5b505afa158015610ca6573d6000803e3d6000fd5b505050506040513d601f19601f82011682018060405250810190610cca9190612828565b610ce65760405162461bcd60e51b815260040161089f90612dba565b610cef83611cd8565b610d0b5760405162461bcd60e51b815260040161089f90612c4b565b6000610d1961babe85611c3b565b6001600160a01b0390811691506000908516610d36575047610db8565b6040516370a0823160e01b815285906001600160a01b038216906370a0823190610d649030906004016129d9565b60206040518083038186803b158015610d7c57600080fd5b505afa158015610d90573d6000803e3d6000fd5b505050506040513d601f19601f82011682018060405250810190610db49190612981565b9150505b80821015610dd757610dd28661dead8761020b8686613026565b610e2f565b80821115610e2f576000610deb8284613026565b90506000610dfb61dead88611c3b565b6001600160a01b0316905081811115610e2157610e1c8861dead8985610e4c565b610961565b6109618861dead8984610e4c565b505050505050565b60046020526000908152604090205460ff1681565b60005484906001906001600160a01b038084166201000090920416148015610f5b575030331480610e8d57506000546201000090046001600160a01b031633145b80610eae5750600054610eae906201000090046001600160a01b0316611fae565b80610f5b57506000546201000090046001600160a01b0316636cfdc32e3330846006811115610eed57634e487b7160e01b600052602160045260246000fd5b6040518463ffffffff1660e01b8152600401610f0b93929190612a3b565b60206040518083038186803b158015610f2357600080fd5b505afa158015610f37573d6000803e3d6000fd5b505050506040513d601f19601f82011682018060405250810190610f5b9190612828565b610f775760405162461bcd60e51b815260040161089f90612dba565b600083610f848787611c3b565b6001600160a01b0316610f979190613026565b9050600084610fa861babe88611c3b565b6001600160a01b03166109479190613026565b6000546201000090046001600160a01b031681565b600054610100900460ff1615610ff85760405162461bcd60e51b815260040161089f90612be6565b60405163288c314960e21b81526001600160a01b0383169063a230c524906110249084906004016129d9565b60206040518083038186803b15801561103c57600080fd5b505afa158015611050573d6000803e3d6000fd5b505050506040513d601f19601f820116820180604052508101906110749190612828565b6110905760405162461bcd60e51b815260040161089f90612f43565b6000805461ff00196001600160a01b03851662010000810262010000600160b01b03199093169290921716610100178255600460208181527fb7f83afeb462637ef6301fd56570add78cf92cc9f170798dfd2d97a6853e4f6a805460ff1990811660019081179092556002805480840182557f405787fa12a823e0f2b7631cc41b3ba8828b3321ca811111fa75cd3aa3bb5ace90810180546001600160a01b0319908116620ff1ce179091557f139afb03ad4684ea54b0250d557080b7436d54fab3fc5f659ac9e92ea508ac46805490941685179093558154938401825590875291909101805490911663decafbad17905560408051636338a1b360e11b8152905163c6714366938281019392829003018186803b1580156111b157600080fd5b505afa1580156111c5573d6000803e3d6000fd5b505050506040513d601f19601f820116820180604052508101906111e99190612981565b905060005b818110156112945761128284856001600160a01b0316639029444a846040518263ffffffff1660e01b81526004016112269190612f6d565b60206040518083038186803b15801561123e57600080fd5b505afa158015611252573d6000803e3d6000fd5b505050506040513d601f19601f820116820180604052508101906112769190612742565b63decafbad6001610775565b8061128c8161308e565b9150506111ee565b506112a482620ff1ce60016121bf565b6112b561babe620ff1ce60016121bf565b505050565b600181815481106112ca57600080fd5b6000918252602090912001546001600160a01b0316905081565b60005482906004906001600160a01b0380841662010000909204161480156113f357503033148061132557506000546201000090046001600160a01b031633145b806113465750600054611346906201000090046001600160a01b0316611fae565b806113f357506000546201000090046001600160a01b0316636cfdc32e333084600681111561138557634e487b7160e01b600052602160045260246000fd5b6040518463ffffffff1660e01b81526004016113a393929190612a3b565b60206040518083038186803b1580156113bb57600080fd5b505afa1580156113cf573d6000803e3d6000fd5b505050506040513d601f19601f820116820180604052508101906113f39190612828565b61140f5760405162461bcd60e51b815260040161089f90612dba565b6114188361256e565b6114345760405162461bcd60e51b815260040161089f90612b05565b6001600160a01b03831660009081526004602052604090205460ff161561146d5760405162461bcd60e51b815260040161089f90612d93565b60005460015460ff90911610156114965760405162461bcd60e51b815260040161089f90612d51565b6001600160a01b03831660009081526003602052604090205460ff16611519576001600160a01b0383166000818152600360205260408120805460ff191660019081179091558054808201825591527fb10e2d527612073b26eecdfd717e6a320cf44b4afac2b0732d9fcbe2b7fa0cf60180546001600160a01b03191690911790555b50505050565b60005482906005906001600160a01b03808416620100009092041614801561162e57503033148061156057506000546201000090046001600160a01b031633145b806115815750600054611581906201000090046001600160a01b0316611fae565b8061162e57506000546201000090046001600160a01b0316636cfdc32e33308460068111156115c057634e487b7160e01b600052602160045260246000fd5b6040518463ffffffff1660e01b81526004016115de93929190612a3b565b60206040518083038186803b1580156115f657600080fd5b505afa15801561160a573d6000803e3d6000fd5b505050506040513d601f19601f8201168201806040525081019061162e9190612828565b61164a5760405162461bcd60e51b815260040161089f90612dba565b6116538361256e565b61166f5760405162461bcd60e51b815260040161089f90612b05565b6001600160a01b03831660009081526003602052604090205460ff16156116a85760405162461bcd60e51b815260040161089f90612b89565b6001600160a01b03831660009081526004602052604090205460ff166115195750506001600160a01b03166000818152600460205260408120805460ff191660019081179091556002805491820181559091527f405787fa12a823e0f2b7631cc41b3ba8828b3321ca811111fa75cd3aa3bb5ace0180546001600160a01b031916909117905550565b600281815481106112ca57600080fd5b60056020908152600093845260408085208252928452828420905282529020546001600160601b03811690600160601b90046001600160a01b031682565b60025490565b60015490565b60005485906003906001600160a01b03808416620100009092041614801561189a5750303314806117cc57506000546201000090046001600160a01b031633145b806117ed57506000546117ed906201000090046001600160a01b0316611fae565b8061189a57506000546201000090046001600160a01b0316636cfdc32e333084600681111561182c57634e487b7160e01b600052602160045260246000fd5b6040518463ffffffff1660e01b815260040161184a93929190612a3b565b60206040518083038186803b15801561186257600080fd5b505afa158015611876573d6000803e3d6000fd5b505050506040513d601f19601f8201168201806040525081019061189a9190612828565b6118b65760405162461bcd60e51b815260040161089f90612dba565b826118c18786611c3b565b6001600160a01b031610156118e85760405162461bcd60e51b815260040161089f90612bb1565b6118f487878686610e4c565b6001600160a01b03841661191a576119156001600160a01b0386168461247c565b61192e565b61192e6001600160a01b0385168685612518565b7f9c5c430cfa10ced1876365001f2481344decb32bf815e01e3e5706ebe533f975868686866040516119639493929190612a10565b60405180910390a150505050505050565b60005485906002906001600160a01b038084166201000090920416148015611a835750303314806119b557506000546201000090046001600160a01b031633145b806119d657506000546119d6906201000090046001600160a01b0316611fae565b80611a8357506000546201000090046001600160a01b0316636cfdc32e3330846006811115611a1557634e487b7160e01b600052602160045260246000fd5b6040518463ffffffff1660e01b8152600401611a3393929190612a3b565b60206040518083038186803b158015611a4b57600080fd5b505afa158015611a5f573d6000803e3d6000fd5b505050506040513d601f19601f82011682018060405250810190611a839190612828565b611a9f5760405162461bcd60e51b815260040161089f90612dba565b600083611aac8887611c3b565b6001600160a01b0316611abf9190613026565b9050600084611ace8888611c3b565b6001600160a01b0316611ae19190612fb7565b9050611aee8887846121bf565b611af98787836121bf565b505050505050505050565b600660209081526000928352604080842090915290825290205463ffffffff1681565b600054610100900460ff1615611b4f5760405162461bcd60e51b815260040161089f90612be6565b60008160ff16118015611b66575060c860ff821611155b611b825760405162461bcd60e51b815260040161089f90612ef4565b6000805460ff191660ff92909216919091179055565b60036020526000908152604090205460ff1681565b60005460ff1681565b60606001805480602002602001604051908101604052809291908181526020018280548015611c0e57602002820191906000526020600020905b81546001600160a01b03168152600190910190602001808311611bf0575b5050505050905090565b600060018281548110610ba057634e487b7160e01b600052603260045260246000fd5b6001600160a01b03808216600090815260066020908152604080832093861683529290529081205463ffffffff1680611c75576000611cd0565b6001600160a01b038084166000908152600560209081526040808320938816835292905290812090611ca860018461303d565b63ffffffff168152602081019190915260400160002054600160601b90046001600160a01b03165b949350505050565b6001600160a01b031660009081526003602052604090205460ff1690565b6000438210611d175760405162461bcd60e51b815260040161089f90612d0a565b6001600160a01b0380841660009081526006602090815260408083209388168352929052205463ffffffff1680611d52576000915050611f8e565b6001600160a01b03808516600090815260056020908152604080832093891683529290529081208491611d8660018561303d565b63ffffffff1681526020810191909152604001600020546001600160601b031611611e0e576001600160a01b038085166000908152600560209081526040808320938916835292905290812090611dde60018461303d565b63ffffffff168152602081019190915260400160002054600160601b90046001600160a01b03169150611f8e9050565b6001600160a01b0380851660009081526005602090815260408083209389168352928152828220828052905220546001600160601b0316831015611e56576000915050611f8e565b600080611e6460018461303d565b90505b8163ffffffff168163ffffffff161115611f495760006002611e89848461303d565b611e939190612ff7565b611e9d908361303d565b6001600160a01b0380891660009081526005602090815260408083208d85168452825280832063ffffffff861684528252918290208251808401909352546001600160601b038116808452600160601b90910490931690820152919250871415611f1a57602001516001600160a01b03169450611f8e9350505050565b80516001600160601b0316871115611f3457819350611f42565b611f3f60018361303d565b92505b5050611e67565b506001600160a01b0380861660009081526005602090815260408083208a85168452825280832063ffffffff90951683529390529190912054600160601b9004169150505b9392505050565b6001600160e01b031981166301ffc9a760e01b14919050565b600080826001600160a01b031663c19d93fb6040518163ffffffff1660e01b815260040160206040518083038186803b158015611fea57600080fd5b505afa158015611ffe573d6000803e3d6000fd5b505050506040513d601f19601f82011682018060405250810190612022919061294a565b600181111561204157634e487b7160e01b600052602160045260246000fd5b14801561076f5750816001600160a01b031663c67143666040518163ffffffff1660e01b815260040160206040518083038186803b15801561208257600080fd5b505afa158015612096573d6000803e3d6000fd5b505050506040513d601f19601f820116820180604052508101906120ba9190612981565b158061213d575060405163288c314960e21b81526001600160a01b0383169063a230c524906120ed9033906004016129d9565b60206040518083038186803b15801561210557600080fd5b505afa158015612119573d6000803e3d6000fd5b505050506040513d601f19601f8201168201806040525081019061213d9190612828565b8061076f57506040516368c18beb60e01b81526001600160a01b038316906368c18beb9061216f9033906004016129d9565b60206040518083038186803b15801561218757600080fd5b505afa15801561219b573d6000803e3d6000fd5b505050506040513d601f19601f8201168201806040525081019061076f9190612828565b6001600160a01b03821660009081526004602052604081205460ff1615612212576affffffffffffffffffffff821061220a5760405162461bcd60e51b815260040161089f90612e4d565b50600161225d565b6001600160a01b03831660009081526003602052604090205460ff161561225d576001600160a01b0382106122595760405162461bcd60e51b815260040161089f90612b2c565b5060015b818161227b5760405162461bcd60e51b815260040161089f90612c1d565b6001600160a01b0380851660009081526006602090815260408083209389168352929052205463ffffffff16801580159061230757506001600160a01b038086166000908152600560209081526040808320938a16835292905290812043916122e560018561303d565b63ffffffff1681526020810191909152604001600020546001600160601b0316145b15612380576001600160a01b038086166000908152600560209081526040808320938a168352929052908120839161234060018561303d565b63ffffffff168152602081019190915260400160002080546001600160a01b0392909216600160601b026001600160601b03909216919091179055612449565b6040805180820182526001600160601b0343811682526001600160a01b0380861660208085019182528a83166000908152600582528681208d85168252825286812063ffffffff8916825290915294909420925183549451909116600160601b029082166bffffffffffffffffffffffff19909416939093171691909117905561240b816001612fcf565b6001600160a01b038681166000908152600660209081526040808320938b16835292905220805463ffffffff191663ffffffff929092169190911790555b7f8c48e112a72a674174f206bf9efbb831870ac801f9c5e7953811c0a70d1ab001868684604051610b41939291906129ed565b8047101561249c5760405162461bcd60e51b815260040161089f90612cd3565b6000826001600160a01b0316826040516124b5906129d6565b60006040518083038185875af1925050503d80600081146124f2576040519150601f19603f3d011682016040523d82523d6000602084013e6124f7565b606091505b50509050806112b55760405162461bcd60e51b815260040161089f90612c76565b6112b58363a9059cbb60e01b8484604051602401612537929190612a61565b60408051601f198184030181529190526020810180516001600160e01b03166001600160e01b0319909316929092179091526125af565b60006001600160a01b03821661dead1480159061259657506001600160a01b03821661babe14155b801561076f5750506001600160a01b0316614bec141590565b6000612604826040518060400160405280602081526020017f5361666545524332303a206c6f772d6c6576656c2063616c6c206661696c6564815250856001600160a01b031661263e9092919063ffffffff16565b8051909150156112b557808060200190518101906126229190612828565b6112b55760405162461bcd60e51b815260040161089f90612eaa565b6060611cd0848460008585612652856126e7565b61266e5760405162461bcd60e51b815260040161089f90612e16565b600080866001600160a01b0316858760405161268a91906129ba565b60006040518083038185875af1925050503d80600081146126c7576040519150601f19603f3d011682016040523d82523d6000602084013e6126cc565b606091505b50915091506126dc8282866126ed565b979650505050505050565b3b151590565b606083156126fc575081611f8e565b82511561270c5782518084602001fd5b8160405162461bcd60e51b815260040161089f9190612ad2565b600060208284031215612737578081fd5b8135611f8e816130bf565b600060208284031215612753578081fd5b8151611f8e816130bf565b60008060408385031215612770578081fd5b823561277b816130bf565b9150602083013561278b816130bf565b809150509250929050565b6000806000606084860312156127aa578081fd5b83356127b5816130bf565b925060208401356127c5816130bf565b929592945050506040919091013590565b6000806000606084860312156127ea578283fd5b83356127f5816130bf565b92506020840135612805816130bf565b9150604084013563ffffffff8116811461281d578182fd5b809150509250925092565b600060208284031215612839578081fd5b81518015158114611f8e578182fd5b600060208284031215612859578081fd5b81356001600160e01b031981168114611f8e578182fd5b60008060408385031215612770578182fd5b60008060008060808587031215612897578081fd5b84356128a2816130bf565b935060208501356128b2816130bf565b925060408501356128c2816130bf565b9396929550929360600135925050565b600080600080600060a086880312156128e9578081fd5b85356128f4816130bf565b94506020860135612904816130bf565b93506040860135612914816130bf565b92506060860135612924816130bf565b949793965091946080013592915050565b60008060008060808587031215612897578182fd5b60006020828403121561295b578081fd5b815160028110611f8e578182fd5b60006020828403121561297a578081fd5b5035919050565b600060208284031215612992578081fd5b5051919050565b6000602082840312156129aa578081fd5b813560ff81168114611f8e578182fd5b600082516129cc818460208701613062565b9190910192915050565b90565b6001600160a01b0391909116815260200190565b6001600160a01b0393841681529183166020830152909116604082015260600190565b6001600160a01b03948516815292841660208401529083166040830152909116606082015260800190565b6001600160a01b03938416815291909216602082015260ff909116604082015260600190565b6001600160a01b03929092168252602082015260400190565b6020808252825182820181905260009190848201906040850190845b81811015612abb5783516001600160a01b031683529284019291840191600101612a96565b50909695505050505050565b901515815260200190565b6000602082528251806020840152612af1816040850160208701613062565b601f01601f19169190910160400192915050565b6020808252600d908201526c3932b9b2b93b32b22a37b5b2b760991b604082015260600190565b6020808252603a908201527f746f6b656e20616d6f756e74206578636565647320746865206d6178696d756d60408201527f206c696d697420666f722065787465726e616c20746f6b656e73000000000000606082015260800190565b6020808252600e908201526d30bb30b4b630b13632aa37b5b2b760911b604082015260600190565b6020808252818101527f62616e6b3a3a77697468647261773a3a6e6f7420656e6f7567682066756e6473604082015260600190565b60208082526018908201527f62616e6b20616c726561647920696e697469616c697a65640000000000000000604082015260600190565b6020808252601490820152731d1bdad95b881b9bdd081c9959da5cdd195c995960621b604082015260600190565b6020808252601190820152701d1bdad95b881b9bdd08185b1b1bddd959607a1b604082015260600190565b6020808252603a908201527f416464726573733a20756e61626c6520746f2073656e642076616c75652c207260408201527f6563697069656e74206d61792068617665207265766572746564000000000000606082015260800190565b6020808252601d908201527f416464726573733a20696e73756666696369656e742062616c616e6365000000604082015260600190565b60208082526027908201527f556e693a3a6765745072696f72416d6f756e743a206e6f742079657420646574604082015266195c9b5a5b995960ca1b606082015260800190565b60208082526022908201527f6578636565647320746865206d6178696d756d20746f6b656e7320616c6c6f77604082015261195960f21b606082015260800190565b6020808252600d908201526c34b73a32b93730b62a37b5b2b760991b604082015260600190565b6020808252601390820152723130b7359d1d30b1b1b2b9b9a232b734b2b21d60691b604082015260600190565b602080825260159082015274756e6b6e6f776e20746f6b656e206164647265737360581b604082015260600190565b6020808252601d908201527f416464726573733a2063616c6c20746f206e6f6e2d636f6e7472616374000000604082015260600190565b6020808252603a908201527f746f6b656e20616d6f756e74206578636565647320746865206d6178696d756d60408201527f206c696d697420666f7220696e7465726e616c20746f6b656e73000000000000606082015260800190565b6020808252602a908201527f5361666545524332303a204552433230206f7065726174696f6e20646964206e6040820152691bdd081cdd58d8d9595960b21b606082015260800190565b6020808252602f908201527f6d6178206e756d626572206f662065787465726e616c20746f6b656e7320736860408201526e6f756c642062652028302c3230302960881b606082015260800190565b60208082526010908201526f3130b7359d1d3737ba1036b2b6b132b960811b604082015260600190565b90815260200190565b63ffffffff91909116815260200190565b60ff91909116815260200190565b6001600160601b039290921682526001600160a01b0316602082015260400190565b60008219821115612fca57612fca6130a9565b500190565b600063ffffffff808316818516808303821115612fee57612fee6130a9565b01949350505050565b600063ffffffff8084168061301a57634e487b7160e01b83526012600452602483fd5b92169190910492915050565b600082821015613038576130386130a9565b500390565b600063ffffffff8381169083168181101561305a5761305a6130a9565b039392505050565b60005b8381101561307d578181015183820152602001613065565b838111156115195750506000910152565b60006000198214156130a2576130a26130a9565b5060010190565b634e487b7160e01b600052601160045260246000fd5b6001600160a01b03811681146130d457600080fd5b5056fea2646970667358221220a0b3ec78c3d3ce9c627d64f4b6bc8f73882fcf6352d21d8d8c99f22bbe66ad0664736f6c63430008000033",
  "linkReferences": {},
  "deployedLinkReferences": {}
}