{
  "_format": "hh-sol-artifact-1",
  "contractName": "ERC20TransferStrategy",
  "sourceName": "build/contracts/extensions/token/erc20/ERC20TransferStrategyWithVesting.sol",
  "abi": [
    {
      "inputs": [],
      "name": "ERC20_EXT_TRANSFER_TYPE",
      "outputs": [
        {
          "internalType": "bytes32",
          "name": "",
          "type": "bytes32"
        }
      ],
      "stateMutability": "view",
      "type": "function"
    },
    {
      "inputs": [
        {
          "internalType": "contract DaoRegistry",
          "name": "dao",
          "type": "address"
        },
        {
          "internalType": "address",
          "name": "from",
          "type": "address"
        },
        {
          "internalType": "address",
          "name": "tokenAddr",
          "type": "address"
        }
      ],
      "name": "evaluateStandardTransfer",
      "outputs": [
        {
          "internalType": "uint160",
          "name": "",
          "type": "uint160"
        }
      ],
      "stateMutability": "view",
      "type": "function"
    },
    {
      "inputs": [
        {
          "internalType": "contract DaoRegistry",
          "name": "dao",
          "type": "address"
        },
        {
          "internalType": "address",
          "name": "tokenAddr",
          "type": "address"
        },
        {
          "internalType": "address",
          "name": "from",
          "type": "address"
        },
        {
          "internalType": "address",
          "name": "to",
          "type": "address"
        },
        {
          "internalType": "uint256",
          "name": "amount",
          "type": "uint256"
        },
        {
          "internalType": "address",
          "name": "caller",
          "type": "address"
        }
      ],
      "name": "evaluateTransfer",
      "outputs": [
        {
          "internalType": "enum IERC20TransferStrategy.ApprovalType",
          "name": "",
          "type": "uint8"
        },
        {
          "internalType": "uint256",
          "name": "",
          "type": "uint256"
        }
      ],
      "stateMutability": "view",
      "type": "function"
    },
    {
      "inputs": [
        {
          "internalType": "contract DaoRegistry",
          "name": "dao",
          "type": "address"
        },
        {
          "internalType": "address",
          "name": "caller",
          "type": "address"
        }
      ],
      "name": "hasBankAccess",
      "outputs": [
        {
          "internalType": "bool",
          "name": "",
          "type": "bool"
        }
      ],
      "stateMutability": "view",
      "type": "function"
    }
  ],
  "bytecode": "0x608060405234801561001057600080fd5b506108ca806100206000396000f3fe608060405234801561001057600080fd5b506004361061004c5760003560e01c806389e8c3dc14610051578063a6d4902a1461007a578063b5633c081461008f578063cf5d0daa146100af575b600080fd5b61006461005f3660046106af565b6100d0565b60405161007191906107b4565b60405180910390f35b610082610365565b6040516100719190610813565b6100a261009d366004610677565b610389565b6040516100719190610808565b6100c26100bd3660046106f9565b6104a7565b60405161007192919061081c565b600080846001600160a01b031663593e96b67f139cd1e4f9f93c1976004d11e2d6ec80461ac82c212ba2c9e8665e9d95b4dd1a6040518263ffffffff1660e01b815260040161011f9190610813565b60206040518083038186803b15801561013757600080fd5b505afa15801561014b573d6000803e3d6000fd5b505050506040513d601f19601f8201168201806040525081019061016f919061063b565b90506000856001600160a01b031663593e96b67fea0ca03c7adbe41dc655fec28a9209dc8e6e042f3d991a67765ba285b9cf73a06040518263ffffffff1660e01b81526004016101bf9190610813565b60206040518083038186803b1580156101d757600080fd5b505afa1580156101eb573d6000803e3d6000fd5b505050506040513d601f19601f8201168201806040525081019061020f919061063b565b90506000826001600160a01b031663e175dd5587876040518363ffffffff1660e01b81526004016102419291906107c8565b60206040518083038186803b15801561025957600080fd5b505afa15801561026d573d6000803e3d6000fd5b505050506040513d601f19601f820116820180604052508101906102919190610789565b90506000826001600160a01b031663f7888aec88886040518363ffffffff1660e01b81526004016102c39291906107c8565b60206040518083038186803b1580156102db57600080fd5b505afa1580156102ef573d6000803e3d6000fd5b505050506040513d601f19601f82011682018060405250810190610313919061063b565b9050806001600160a01b0316826affffffffffffffffffffff16111561034057600094505050505061035e565b6103576affffffffffffffffffffff831682610848565b9450505050505b9392505050565b7f81e07017f0c21f87b21c9c47d301c5003a2d82e134ff6849af13b2accf13042281565b6000826001600160a01b0316636cfdc32e83856001600160a01b031663593e96b67fea0ca03c7adbe41dc655fec28a9209dc8e6e042f3d991a67765ba285b9cf73a06040518263ffffffff1660e01b81526004016103e79190610813565b60206040518083038186803b1580156103ff57600080fd5b505afa158015610413573d6000803e3d6000fd5b505050506040513d601f19601f82011682018060405250810190610437919061063b565b60026040518463ffffffff1660e01b8152600401610457939291906107e2565b60206040518083038186803b15801561046f57600080fd5b505afa158015610483573d6000803e3d6000fd5b505050506040513d601f19601f8201168201806040525081019061035e9190610657565b6000806104b48884610389565b156104c457506002905082610630565b604051634941d71d60e11b81526000906001600160a01b038a1690639283ae3a90610513907f81e07017f0c21f87b21c9c47d301c5003a2d82e134ff6849af13b2accf13042290600401610813565b60206040518083038186803b15801561052b57600080fd5b505afa15801561053f573d6000803e3d6000fd5b505050506040513d601f19601f820116820180604052508101906105639190610771565b9050801580156105ea575060405163288c314960e21b81526001600160a01b038a169063a230c5249061059a9089906004016107b4565b60206040518083038186803b1580156105b257600080fd5b505afa1580156105c6573d6000803e3d6000fd5b505050506040513d601f19601f820116820180604052508101906105ea9190610657565b156106115760016105fc8a898b6100d0565b9093506001600160a01b031691506106309050565b80600114156106275760016105fc8a898b6100d0565b60008092509250505b965096945050505050565b60006020828403121561064c578081fd5b815161035e8161087c565b600060208284031215610668578081fd5b8151801515811461035e578182fd5b60008060408385031215610689578081fd5b82356106948161087c565b915060208301356106a48161087c565b809150509250929050565b6000806000606084860312156106c3578081fd5b83356106ce8161087c565b925060208401356106de8161087c565b915060408401356106ee8161087c565b809150509250925092565b60008060008060008060c08789031215610711578182fd5b863561071c8161087c565b9550602087013561072c8161087c565b9450604087013561073c8161087c565b9350606087013561074c8161087c565b92506080870135915060a08701356107638161087c565b809150509295509295509295565b600060208284031215610782578081fd5b5051919050565b60006020828403121561079a578081fd5b81516affffffffffffffffffffff8116811461035e578182fd5b6001600160a01b0391909116815260200190565b6001600160a01b0392831681529116602082015260400190565b6001600160a01b03938416815291909216602082015260ff909116604082015260600190565b901515815260200190565b90815260200190565b604081016003841061083e57634e487b7160e01b600052602160045260246000fd5b9281526020015290565b60006001600160a01b038381169083168181101561087457634e487b7160e01b83526011600452602483fd5b039392505050565b6001600160a01b038116811461089157600080fd5b5056fea26469706673582212202c0dfe8df5f98b33d42ead3c8d96208cc4fe006840e632690949dd7e31a57eaf64736f6c63430008000033",
  "linkReferences": {},
  "deployedLinkReferences": {}
}