{
  "_format": "hh-sol-artifact-1",
  "contractName": "RagequitContract",
  "sourceName": "build/contracts/adapters/Ragequit.sol",
  "abi": [
    {
      "anonymous": false,
      "inputs": [
        {
          "indexed": false,
          "internalType": "address",
          "name": "daoAddress",
          "type": "address"
        },
        {
          "indexed": false,
          "internalType": "address",
          "name": "memberAddr",
          "type": "address"
        },
        {
          "indexed": false,
          "internalType": "uint256",
          "name": "burnedUnits",
          "type": "uint256"
        },
        {
          "indexed": false,
          "internalType": "uint256",
          "name": "burnedLoot",
          "type": "uint256"
        },
        {
          "indexed": false,
          "internalType": "uint256",
          "name": "initialTotalUnitsAndLoot",
          "type": "uint256"
        }
      ],
      "name": "MemberRagequit",
      "type": "event"
    },
    {
      "inputs": [
        {
          "internalType": "contract DaoRegistry",
          "name": "dao",
          "type": "address"
        },
        {
          "internalType": "uint256",
          "name": "unitsToBurn",
          "type": "uint256"
        },
        {
          "internalType": "uint256",
          "name": "lootToBurn",
          "type": "uint256"
        },
        {
          "internalType": "address[]",
          "name": "tokens",
          "type": "address[]"
        }
      ],
      "name": "ragequit",
      "outputs": [],
      "stateMutability": "nonpayable",
      "type": "function"
    }
  ],
  "bytecode": "0x608060405234801561001057600080fd5b5061108e806100206000396000f3fe608060405234801561001057600080fd5b506004361061002b5760003560e01c8063ed0cdf1514610030575b600080fd5b61004361003e366004610c36565b610045565b005b8443816001600160a01b031663b21634826040518163ffffffff1660e01b815260040160206040518083038186803b15801561008057600080fd5b505afa158015610094573d6000803e3d6000fd5b505050506040513d601f19601f820116820180604052508101906100b89190610cc9565b14156100df5760405162461bcd60e51b81526004016100d690610e73565b60405180910390fd5b806001600160a01b03166310fdb0a26040518163ffffffff1660e01b8152600401600060405180830381600087803b15801561011a57600080fd5b505af115801561012e573d6000803e3d6000fd5b50505082151590506101525760405162461bcd60e51b81526004016100d690610e0a565b600061015e8587610fa1565b1161017b5760405162461bcd60e51b81526004016100d690610d7c565b6000610187873361041c565b90506000876001600160a01b031663593e96b67fea0ca03c7adbe41dc655fec28a9209dc8e6e042f3d991a67765ba285b9cf73a06040518263ffffffff1660e01b81526004016101d79190610d40565b60206040518083038186803b1580156101ef57600080fd5b505afa158015610203573d6000803e3d6000fd5b505050506040513d601f19601f820116820180604052508101906102279190610bfa565b905086816001600160a01b031663f7888aec84620ff1ce6040518363ffffffff1660e01b815260040161025b929190610cf5565b60206040518083038186803b15801561027357600080fd5b505afa158015610287573d6000803e3d6000fd5b505050506040513d601f19601f820116820180604052508101906102ab9190610bfa565b6001600160a01b031610156102d25760405162461bcd60e51b81526004016100d690610db3565b604051633de222bb60e21b815286906001600160a01b0383169063f7888aec9061030690869063b105f00d90600401610cf5565b60206040518083038186803b15801561031e57600080fd5b505afa158015610332573d6000803e3d6000fd5b505050506040513d601f19601f820116820180604052508101906103569190610bfa565b6001600160a01b0316101561037d5760405162461bcd60e51b81526004016100d690610f4b565b6103bf88838989898980806020026020016040519081016040528093929190818152602001838360200280828437600092019190915250899250610572915050565b5050806001600160a01b031663d4f7af436040518163ffffffff1660e01b8152600401600060405180830381600087803b1580156103fc57600080fd5b505af1158015610410573d6000803e3d6000fd5b50505050505050505050565b600080836001600160a01b031663c89bb8ba846040518263ffffffff1660e01b815260040161044b9190610ce1565b60206040518083038186803b15801561046357600080fd5b505afa158015610477573d6000803e3d6000fd5b505050506040513d601f19601f8201168201806040525081019061049b9190610bfa565b90506000846001600160a01b031663397a6947856040518263ffffffff1660e01b81526004016104cb9190610ce1565b60206040518083038186803b1580156104e357600080fd5b505afa1580156104f7573d6000803e3d6000fd5b505050506040513d601f19601f8201168201806040525081019061051b9190610bfa565b9050806001600160a01b0316826001600160a01b0316148061054e5750836001600160a01b0316816001600160a01b0316145b61056a5760405162461bcd60e51b81526004016100d690610e9d565b509392505050565b600061057d8261066f565b60405163413c1be360e11b81529091506001600160a01b0383169063827837c6906105b9908a908a9061dead90620ff1ce908c90600401610d49565b600060405180830381600087803b1580156105d357600080fd5b505af11580156105e7573d6000803e3d6000fd5b505060405163413c1be360e11b81526001600160a01b038516925063827837c69150610625908a908a9061dead9063b105f00d908b90600401610d49565b600060405180830381600087803b15801561063f57600080fd5b505af1158015610653573d6000803e3d6000fd5b5050505061066687878787858888610699565b50505050505050565b600061067d8261dead610951565b6106898361babe610951565b6106939190610ff8565b92915050565b60006106a58587610fa1565b835190915060005b818110156109065760008582815181106106d757634e487b7160e01b600052603260045260246000fd5b6020026020010151905060008260016106f09190610fa1565b9050838110156107525786818151811061071a57634e487b7160e01b600052603260045260246000fd5b60200260200101516001600160a01b0316826001600160a01b0316106107525760405162461bcd60e51b81526004016100d690610f22565b60405163f9eaee0d60e01b81526001600160a01b0387169063f9eaee0d9061077e908590600401610ce1565b60206040518083038186803b15801561079657600080fd5b505afa1580156107aa573d6000803e3d6000fd5b505050506040513d601f19601f820116820180604052508101906107ce9190610c16565b6107ea5760405162461bcd60e51b81526004016100d690610ddf565b600061087f876001600160a01b031663f7888aec61dead866040518363ffffffff1660e01b815260040161081f929190610cf5565b60206040518083038186803b15801561083757600080fd5b505afa15801561084b573d6000803e3d6000fd5b505050506040513d601f19601f8201168201806040525081019061086f9190610bfa565b6001600160a01b0316878b610b89565b905080156108f057866001600160a01b031663827837c68e61dead8f87866040518663ffffffff1660e01b81526004016108bd959493929190610d49565b600060405180830381600087803b1580156108d757600080fd5b505af11580156108eb573d6000803e3d6000fd5b505050505b50505080806108fe9061100f565b9150506106ad565b507f7fc645f2630447a39efc7955ed570721faa6f4dd472ed02b0167c0400a4bfa09898989898960405161093e959493929190610d0f565b60405180910390a1505050505050505050565b604051633de222bb60e21b81526000906001600160a01b0384169063f7888aec90610987908590640bb105f00d90600401610cf5565b60206040518083038186803b15801561099f57600080fd5b505afa1580156109b3573d6000803e3d6000fd5b505050506040513d601f19601f820116820180604052508101906109d79190610bfa565b604051633de222bb60e21b81526001600160a01b0385169063f7888aec90610a0990869063b105f00d90600401610cf5565b60206040518083038186803b158015610a2157600080fd5b505afa158015610a35573d6000803e3d6000fd5b505050506040513d601f19601f82011682018060405250810190610a599190610bfa565b604051633de222bb60e21b81526001600160a01b0386169063f7888aec90610a8a90879062fff1ce90600401610cf5565b60206040518083038186803b158015610aa257600080fd5b505afa158015610ab6573d6000803e3d6000fd5b505050506040513d601f19601f82011682018060405250810190610ada9190610bfa565b604051633de222bb60e21b81526001600160a01b0387169063f7888aec90610b0b908890620ff1ce90600401610cf5565b60206040518083038186803b158015610b2357600080fd5b505afa158015610b37573d6000803e3d6000fd5b505050506040513d601f19601f82011682018060405250810190610b5b9190610bfa565b610b659190610f76565b610b6f9190610f76565b610b799190610f76565b6001600160a01b03169392505050565b6000808211610baa5760405162461bcd60e51b81526004016100d690610e32565b81831115610bca5760405162461bcd60e51b81526004016100d690610ed4565b83610bd757506000610bf3565b6000610be38486610fd9565b9050610bef8382610fb9565b9150505b9392505050565b600060208284031215610c0b578081fd5b8151610bf381611040565b600060208284031215610c27578081fd5b81518015158114610bf3578182fd5b600080600080600060808688031215610c4d578081fd5b8535610c5881611040565b94506020860135935060408601359250606086013567ffffffffffffffff80821115610c82578283fd5b818801915088601f830112610c95578283fd5b813581811115610ca3578384fd5b8960208083028501011115610cb6578384fd5b9699959850939650602001949392505050565b600060208284031215610cda578081fd5b5051919050565b6001600160a01b0391909116815260200190565b6001600160a01b0392831681529116602082015260400190565b6001600160a01b03958616815293909416602084015260408301919091526060820152608081019190915260a00190565b90815260200190565b6001600160a01b039586168152938516602085015291841660408401529092166060820152608081019190915260a00190565b60208082526017908201527f696e73756666696369656e7420756e6974732f6c6f6f74000000000000000000604082015260600190565b602080825260129082015271696e73756666696369656e7420756e69747360701b604082015260600190565b6020808252601190820152701d1bdad95b881b9bdd08185b1b1bddd959607a1b604082015260600190565b6020808252600e908201526d6d697373696e6720746f6b656e7360901b604082015260600190565b60208082526021908201527f746f74616c556e697473206d7573742062652067726561746572207468616e206040820152600360fc1b606082015260800190565b60208082526010908201526f1c99595b9d1c985b98de4819dd585c9960821b604082015260600190565b6020808252601b908201527f63616c6c207769746820796f75722064656c6567617465206b65790000000000604082015260600190565b6020808252602e908201527f756e697473206d757374206265206c657373207468616e206f7220657175616c60408201526d20746f20746f74616c556e69747360901b606082015260800190565b6020808252600f908201526e323ab83634b1b0ba32903a37b5b2b760891b604082015260600190565b6020808252601190820152701a5b9cdd59999a58da595b9d081b1bdbdd607a1b604082015260600190565b60006001600160a01b03828116848216808303821115610f9857610f9861102a565b01949350505050565b60008219821115610fb457610fb461102a565b500190565b600082610fd457634e487b7160e01b81526012600452602481fd5b500490565b6000816000190483118215151615610ff357610ff361102a565b500290565b60008282101561100a5761100a61102a565b500390565b60006000198214156110235761102361102a565b5060010190565b634e487b7160e01b600052601160045260246000fd5b6001600160a01b038116811461105557600080fd5b5056fea264697066735822122067a48d83ae08ccbb4ff9af6c2501b586ad47e91820a86f3439aaaafea4778c3364736f6c63430008000033",
  "linkReferences": {},
  "deployedLinkReferences": {}
}